:100000000C94A7020C94C4020C94C4020C94C40275
:100010000C94C4020C94C4020C94C4020C94C40248
:100020000C94C4020C94C4020C948A220C945D2398
:100030000C94111D0C94C4020C94C4020C94C402C0
:100040000C94C4020C94C4020C94C4020C94C40218
:100050000C94C4020C94A91D0C94C4020C94C40208
:100060000C94C4020C94C4020C94C4020C94C402F8
:100070000C94C4020C94C4020C94C4020C94C402E8
:100080000C94C4020C94C4020C94C4020C94C402D8
:100090000C94C4020C94C4020C94C4020C94C402C8
:1000A0000C94C4020C94C4020C94C40235000000E9
:1000B0000000000000000000000000000000000040
:1000C00000004C001E001F00200021002200230021
:1000D00024002500260027002D002E002B001400F0
:1000E0001A000800150017001C0018000C00120070
:1000F00013002A00290004001600070009000A0066
:100100000B000D000E000F0033003400E1001D0055
:100110001B00060019000500110010003600370012
:1001200038002832E000E300007EE20021520000A7
:100130002C0022525000510052004F0001000000DC
:1001400000000000000000000000000000000000AF
:10015000000001003A003B003C003D003E003F0033
:1001600040004100420043004400450001000100FE
:10017000520001004B005F006000610001000100BF
:100180002F0030003900500051004F004E005C003D
:100190005D005E000100010001003100010001006E
:1001A00001000100010059005A005B00010001003C
:1001B0000100280001000100010001000100000011
:1001C000620063004A00010001004D0001000000D0
:1001D000000000000000000000000000000000001F
:1001E0000000235201000100010001000100010094
:1001F000010001000100A800AA00A90001000100FF
:1002000001000100010001000100010001000100E6
:100210002F00300001000100010001000100010079
:100220000100010001000100010031000100010096
:1002300001000100010001000100010001000100B6
:10024000010028120100010001000100010000006E
:100250000100010001000100010001000100000097
:10026000000000000000000000000000000000008E
:100270000000010001000100010001000100010077
:100280000100010001000100010001000100010066
:1002900001000100037C01000100010001000100D8
:1002A0000100010001000100010001000100010046
:1002B0000100010001000100010001000100010036
:1002C000010001000100007C0100010001000100AB
:1002D0000100010001000100010001000100000017
:1002E0000100010001000100010001000000000008
:1002F000000000002A2B2800000000000000000081
:100300000000000000000029000000002C1E342026
:10031000212224342627252E362D3738271E1F204C
:100320002122232425263333362E37381F04050691
:100330000708090A0B0C0D0E0F10111213141516D5
:100340001718191A1B1C1D2F3130232D35040506D3
:100350000708090A0B0C0D0E0F10111213141516B5
:100360001718191A1B1C1D2F3130354C00000000C6
:10037000000000000000000000000000000000007D
:10038000000000000000000000000000000000006D
:100390007E0F00D4FFFFFFC7000000780E034B0064
:1003A000720074006B00750073000000120373008C
:1003B00077006900660074003500300032000000EC
:1003C0000403090409025B00030100A0FA09040008
:1003D000000103010100092111010001224400076D
:1003E000058103080001090401000203000000095F
:1003F00021110100012222000705820320000107CC
:1004000005030320000109040200010300000009A4
:10041000211101000122B60007058403200001120A
:1004200001000200000008424A1616000101020005
:10043000010660FF0961A1010962150026FF009510
:1004400020750881020963150026FF0095207508B4
:100450009102C005010902A10185020901A100055F
:100460000919012908150025019508750181020562
:1004700001093009311581257F950275088106092A
:10048000381581257F950175088106050C0A38020B
:100490001581257F950175088106C0C00501098079
:1004A000A101850319012AB700150126B70095019E
:1004B00075108100C0050C0901A101850419012AEC
:1004C000A002150126A002950175108100C005014A
:1004D0000906A1018506050719E029E71500250190
:1004E0009508750181020507190029EF15002501FE
:1004F00095F0750181020508190129059505750119
:100500009102950175039101C005010906A101053C
:100510000719E029E7150025019508750181029565
:1005200001750881010507190029FF150026FF0044
:100530009506750881000508190129051500250192
:10054000950575019102950175039101C000112473
:100550001FBECFEFDAE0DEBFCDBF11E0A0E0B1E01B
:10056000E6E8FCE402C005900D92A83AB107D9F77D
:1005700022E0A8EAB1E001C01D92AB3CB207E1F76E
:100580000E9408120C94DC250C940000FB018115DC
:100590002EE79207A9F42581222391F00E94C70B30
:1005A000982F9171992329F088EA0E94000580E034
:1005B00008958272882311F089EAF7CF8AEAF5CF8D
:1005C000BF010E94070308958430B8F46630A8F490
:1005D0004C3098F4E42FF0E09CE0699FE00DF11DB1
:1005E000112498E4899FE00DF11D1124EE0FFF1FE7
:1005F000E455FF4F85919491089581E090E008952E
:1006000081E008950E940003089581E008950E940A
:100610000003089508950E940A030895A6E0B0E03B
:10062000E4E1F3E00C94382549835A839E833091AA
:10063000AF0189819A8131111AC03E81332399F02B
:10064000222389F00E948C08182F682F89819A81B3
:100650000E94680869817A81812F0E94AF0F2696D7
:10066000E3E00C9454250E947A08182FF3CF0E94DF
:100670008C0869817A81F1CFFC01262F408151815C
:1006800062817381848195810E940E030895CF93C6
:10069000DF93D82FC92F61E00E943C036D2F7C2F80
:1006A0000E940203DF91CF910895CF93DF93D82F5B
:1006B000C92F60E00E943C036D2F7C2F0E940B032A
:1006C000DF91CF91089581E008950E94630308951A
:1006D000CF93C82F0E945C078C2F0E9465032FEFD9
:1006E00084E39CE0215080409040E1F700C000008E
:1006F000CF91089581E00E9468030E94CD1D089566
:1007000080E00E9468030E94DE1D08950F931F93EE
:10071000CF93DF938C0161E00E943C03EC01B801B0
:100720000E94D019882309F442C0B801CE010E946A
:10073000C6028823E1F1B801CE010E94DE188823A9
:10074000B1F1B801CE010E940314882381F1B801F0
:10075000CE010E94D813882351F1B801CE010E9426
:100760001F19882321F1F8018581882381F0CA357A
:10077000FCE7DF0739F178F4C130ECE7DE07F9F088
:10078000C330FCE7DF07C9F0C115DC4771F0C801D1
:100790000E9405030DC0CB35ECE7DE07B1F0CC3588
:1007A000DC47A9F70E94DE0CF2CF0E947A0380E0BA
:1007B000DF91CF911F910F9108950E94F00C0E943C
:1007C0008003F5CF0E94E80CE2CF0E94EC0CDFCF53
:1007D0000E94ED1C0E94080408950E940C040E94CF
:1007E000F21C089581E008950895CF93DF93D82FE8
:1007F0000E94F203C82F882319F08D2F0E94F40362
:100800008C2FDF91CF91089508950E94F5030895EC
:1008100080E00E94050408950E94291B0E9405049F
:100820000895CF930E94291BC82F8091AA018C178D
:1008300079F0C093AA010E947D1D6093AB01709373
:10084000AC018093AD019093AE018C2F0E94050402
:10085000CF910895ADE0B0E0E0E3F4E00C943925E9
:10086000488759876A877B878C879D8791110E946B
:10087000E90B1F8286E0FE013896DE011196019099
:100880000D928A95E1F78D8181110DC029813A8100
:100890004B815C816D817E818F810E942F0B2D9613
:1008A000E2E00C945525CE0101960E944703811188
:1008B000EDCFF5CFFC018481813021F480819181DD
:1008C0000E94B5080895662329F00E9471150E94C0
:1008D000321608950E94BA15FACFCF93C82F8823F5
:1008E00099F08CEF8C0F813A88F48C2F0E94CC1BEE
:1008F000882329F08C2F0E94711C0E94810C8C2F60
:100900000E945A1C0E94810CCF91089580E28C0FA6
:10091000883048F4C77081E001C0880FCA95EAF7B3
:100920000E94CA0BEFCF8BE58C0F833038F42C2F4D
:100930002452330BC9010E945F1BE6CFE8E5EC0FA0
:10094000EB3150F4F0E0EE0FFF1FE65EFE4F8081CA
:1009500091810E94851BD8CF83E38C0F8331A0F651
:1009600061E08C2F0E946304CFCF882381F19CEF3C
:10097000980F913A28F40E94711C0E94810C0895EE
:1009800090E2980F983050F4877091E001C0990F71
:100990008A95EAF7892F0E94D00BEFCF9BE5980F3D
:1009A000933028F480E090E00E945F1B089598E562
:1009B000980F9B3128F480E090E00E94851B0895F9
:1009C00093E3980F933118F460E00E946304089554
:1009D0001F93CF93DF93182FEB010E946D04209794
:1009E00039F4812F0E94B504DF91CF911F910895B2
:1009F0008FE99FE00197F1F700C000002197EFCF4A
:100A000060E070E0893311F460E570E00E94E80472
:100A10000895882321F00E94CA0B0E94810C08953A
:100A2000882321F00E94D00B0E94810C0895A0E041
:100A3000B0E0EDE1F5E00C9433256C01D62FC72F23
:100A4000FC011581068102950F700E94BF0BE82EF4
:100A50008823F9F0E12E1123E1F08C2F807F803480
:100A600061F080E28D0F8830F0F08C2F807E803234
:100A700021F4D230C0F00023B1F08091A10282FFB6
:100A800012C082E00E94B10C0E94BF0B91E0E82EE0
:100A9000E926EC2FE295EF70C03CB0F5F0E0E252B1
:100AA000FA4D0C941C25E12CF4CF0C2F0F70C031A3
:100AB00010F00295007F112399F0002359F080E295
:100AC0008D0F883010F0D11107C0802F0E94CA0B03
:100AD0000E94810C8D2F51C0802F0E94DB0BF8CF1C
:100AE0008D2F0E94B504002379F080E28D0F8830AD
:100AF00010F0D11104C0802F0E94D00B03C0802FB2
:100B00000E94E10B0E94810CEE2089F00E94BB0B39
:100B100080FD0DC0F60115820E94B50B0E94D6071C
:100B2000C6010E9423070E94B50B0E94E207CDB7C1
:100B3000DEB7E8E00C944F25FC2FFF70FF2EC07F3E
:100B4000C03219F0F29480EFF822DD2341F0D13069
:100B5000D1F1112309F444C00023F1F0BBCF8091FF
:100B6000A10282FD15C0112359F0FF2029F08F2D1D
:100B70000E94CA0B0E94810C80E00E946D04C4CFC9
:100B800080E00E94B504FF2009F4BECF8F2DB4CFC2
:100B9000112369F0011104C08F2D0E940905B4CF03
:100BA000013009F0B1CF8F2D0E94010CADCF0111A2
:100BB000ABCF8F2D0E9410058F2D0E940D0C8F2D15
:100BC0000E94F00BA1CF112321F0063008F09CCF3A
:100BD000E3CF053008F098CF8F2D0E94100594CFF9
:100BE0000023D1F3D93349F42FEF87EE93E021505E
:100BF00080409040E1F700C000008D2F0E94B504B6
:100C000083CF8C2F869586958370882369F08130F9
:100C100009F07ACF8D2F9C2F9370111102C080E0C4
:100C200090E00E94851B70CF8D2F9C2F9370111127
:100C300002C080E090E00E945F1B66CF612F8D2F85
:100C40000E94630461CF8C2F8370811134C0111115
:100C500024C04D2F429546954770440F440F8D2F69
:100C60008F70042E01C0880F0A94EAF7D071DD233B
:100C700041F02FE030E001C0220F4A95EAF7D22F71
:100C8000D095C695C695C3708D2BC23071F0C33018
:100C900079F0C13039F00E94B2070E94291B0E94EE
:100CA000050432CF0E94AC07F8CF0E94B807F5CFF9
:100CB0000E94A907F2CF112339F1C0FFEECF4D2FCB
:100CC000429546954770440F440F8D2F8F70042E28
:100CD00001C0880F0A94EAF7D071DD2341F02FE0BC
:100CE00030E001C0220F4A95EAF7D22FD095C69581
:100CF000C695C3708D2BC23069F0C33071F0C1301E
:100D000031F00E940408C9CF823038F2D8CF0E9457
:100D1000FE07C3CF0E940A08C0CF0E94C407BDCF00
:100D2000CF70112339F08C2F0E94D6078D2F0E948F
:100D30000905B3CF8D2F0E9410058C2F0E94E2076A
:100D4000ACCFD23F31F170F4D03FB9F0D13FB1F127
:100D5000112309F44EC0002309F448C08D2F0E94CE
:100D60006D049BCFD33FE1F0D43F21F11111F3CFBC
:100D700001114DC08C2F8F71E1CF112341F005304F
:100D800008F08BCF8C2F8F710E94F20786CF053031
:100D9000F7CF8C2F8F711111D1CF0E94D6077DCF45
:100DA000112329F08C2F8F710E94CD0776CF0E94DE
:100DB000C90773CF8091A10282FD06C08C2F8F716D
:100DC000112309F4BBCFE9CF112331F063E08C2F5D
:100DD0008F710E94930C61CF81E00E94B10C0230B0
:100DE00008F45BCF82E00E94B10C57CF8C2F8F713B
:100DF000D4CF002309F4BECFD93349F4EFEFF7EE97
:100E000023E0E150F0402040E1F700C000008D2FCA
:100E10000E94B50442CF0F931F93CF93DF93EC0151
:100E2000688179818D810E94C2088C010E9410081E
:100E30000E94A807B801CE010E941705DF91CF914B
:100E40001F910F910895CF93DF93EC018C8188233C
:100E500099F0CE010E948603811111C00E94BF0B40
:100E6000882351F08D81882339F08091A10282FF7F
:100E700003C082E00E94B10CDF91CF910895CE01B2
:100E80000E940B07CE010E945503F6CF80E090E050
:100E90000E945F1B80E090E00E94851B0E94E90B8E
:100EA0000E94810C0E944F160E94321608950E94E3
:100EB000881C0E94460708950E94D80B0E9457077D
:100EC0000895282F92959F70963091F060F4925F6C
:100ED0009F70923030F481E0203F79F030F4283E6A
:100EE00030F080E008959A5FF3CF243FD1F7089562
:100EF00081E0283EE0F3213FF9CF0895FC01848191
:100F0000882339F0808191810E94B5080E94610791
:100F1000089580E00895A6E0B0E0E1E9F7E00C94E0
:100F200039252696E2E00C945525A7E0B0E0EBE9E0
:100F3000F7E00C9439252796E2E00C9455250895A6
:100F40000E949F0708950E94A0078093CC010895F6
:100F500008950E94A30708959091CC01892B0E94C7
:100F6000A30708959091CC0189230E94A3070895B7
:100F70009091CC0189270E94A30708950E949F07A2
:100F800008950E94BE0708950E94C1078093CB0177
:100F9000089580E00E94C407089591E001C0990F70
:100FA0008A95EAF7892F0E94C407089521E030E06E
:100FB00001C0220F8A95EAF78091CB01822B0E9413
:100FC000C407089521E030E0A90102C0440F551F75
:100FD0008A95E2F7CA0180959091CB0189230E94FE
:100FE000C407089521E030E001C0220F8A95EAF796
:100FF0008091CB0182270E94C40708959091CB0174
:10100000892B0E94C40708959091CB0189230E94E7
:10101000C40708959091CB0189270E94C4070895C1
:1010200008959B01677091E001C0990F6A95EAF7F6
:1010300063E0369527956A95E1F7B901660F771F4A
:10104000260F371FFA01E20FF31F40E050E0682F30
:1010500070E08191DF0111979B01042E02C036954B
:1010600027950A94E2F7217021952827292328271C
:101070002C934F5F5F4F4330510559F708959C0102
:10108000A82FA77083E0369527958A95E1F7C901C7
:10109000880F991F820F931FFB01E80FF91F40E093
:1010A00050E080E0219130E00A2E02C0369527956D
:1010B0000A94E2F721703327042E01C0220F0A940C
:1010C000EAF7822B4F5F5F4F4330510559F7089580
:1010D000282F862F963068F42C3058F4622F70E059
:1010E0002CE0929F600D711D112440EB51E00E9495
:1010F00011080895292F963068F48C3058F490E048
:1011000060EB71E03CE0239F800D911D11240E9453
:101110003F08089580E00895A0E0B0E0E2E9F8E03B
:101120000C9434257C010091CB018091CC01082BDB
:10113000C3E0D0E010E0C8010C2E02C09595879561
:101140000A94E2F780FD09C02197A8F7D12C8D2DD4
:10115000CDB7DEB7E7E00C945025DC2EB7018C2F1D
:101160000E94BB0F019781F3F2CFCF93DF93D82F6B
:10117000C92F0E948C086D2F7C2F0E94BB0FDF911E
:10118000CF9108951F93CF93DF93162FD72F909170
:10119000AF01992341F0862F972F0E94B508DF9168
:1011A000CF911F910895882381F0862F972F0E9459
:1011B0008C08C82F682F812F9D2F0E946808612FEF
:1011C0007D2F8C2F0E94BB0FEACF862F972F0E9476
:1011D0007A08C82FF4CFE1E0F0E0DF0102C0AA0FE7
:1011E000BB1F6A95E2F7BD01DF0102C0AA0FBB1F5A
:1011F0004A95E2F76A2B01C0EE0F2A95EAF7962F7F
:101200009823961302C08E2B0895E0958E2308959F
:10121000242F462F682F8091CB010E94EB080E945B
:10122000C40708950F931F93CF93E091CD01C7E0BA
:101230008091CE018E1304C0CF911F910F9108951C
:101240000E2F10E0CE9FF0011124E153FE4F2081BC
:101250003181428153816481758186810E94950725
:10126000F8013196E770E4CF20910702309108022F
:101270004091090250910A0260910B0270910C0298
:1012800080910D020E949507089580910D02803192
:1012900078F480910C02882359F0E091CD012091DF
:1012A000CE01309108024091070257E02E1301C091
:1012B00008956E2F70E05E9FF0011124DF01A153AD
:1012C000BE4F14968C911497882361F111968C91DE
:1012D0001197831327C08C91841324C015968C9189
:1012E000159781111FC012968D919C91A0910902B2
:1012F000B0910A028A1B9B0B883C910598F480915F
:101300000D028F70806180930D02EB52FE4F808141
:101310008F708061808387E092E00E9423070E94A3
:1013200012090895FB013196E770C0CFE091CD011D
:101330009091CE0127E0E91302C080E00895AE2F1E
:10134000B0E02E9FF0011124E153FE4F318136139E
:1013500006C03081381303C03581341304C0FD0149
:101360003196E770E8CF81E008958F929F92AF9217
:10137000BF92DF92EF92FF920F931F93CF93DF9371
:10138000CDB7DEB72D970FB6F894DEBF0FBECDBF39
:101390008C0186E0F801DE01189601900D928A9585
:1013A000E1F7F801E080F580A280B380848197E0C6
:1013B000892E92E0992E90910B0291111BC08823E7
:1013C00009F4FCC0FF2009F43DC1C8010E947E075A
:1013D000882309F437C187E0F801D40101900D9208
:1013E0008A95E1F7C4010E945A040E9445090E94AF
:1013F0003409E4C0D0900C022091090230910A0215
:10140000A501421B530BDD2009F4DBC0483C51050C
:1014100008F0A6C0882309F4D1C0909108029180F9
:1014200080910D02803108F06BC0991228C0909114
:1014300007029E1124C0F1105DC08F7080618093FF
:101440000D020E94340987E092E00E9423078091F8
:101450000D02F8018683F12C8F2D2D960FB6F8948E
:10146000DEBF0FBECDBFDF91CF911F910F91FF90D7
:10147000EF90DF90BF90AF909F908F900895F11004
:1014800039C040E0692D8E2D0E94960940E0692DFB
:101490008E2D0E949609F82E8111DDCF88859985C1
:1014A0000E94B508292F22952F70903450F49F7018
:1014B000223080F0992399F0F8019681903178F4E8
:1014C000CBCF2A5F2F70223078F0C8010E9423070B
:1014D000FD2CC2CF992319F0882309F4BDCF805E7B
:1014E000883008F4B9CFF1CF803F08F4B5CF815FE1
:1014F0008230F7CF80910D02816080930D02ABCFD7
:10150000991207C0909107029E1103C0FF2009F4B1
:1015100079C0C8010E947E07882309F493C0FF2088
:1015200009F490C080910D02803288F0209107026A
:10153000309108023A832983BC82AB8290910B02DE
:101540009D831E828F83CE0101960E94230787E030
:10155000F801A7E0B2E001900D928A95E1F745CF3E
:1015600090910D029031A0F4488559856A857B855C
:101570008C859D850E948B0787E092E00E9423075F
:1015800087E0F40111928A95E9F70E94340963CF4C
:101590008823A1F02091080281812813BACF80917D
:1015A00007028E11B6CFF110B4CF9683C8010E9406
:1015B000230787E0F40111928A95E9F7FF24F39459
:1015C0004BCF483C510508F041C08823B9F3FF20B8
:1015D000C9F190910802818198132AC08091070275
:1015E0008E1126C080910D0280FD19C08031B8F0A7
:1015F0008683807F803F39F08681982F907F905F2F
:101600008F70892B8683C8010E94230787E0F80129
:10161000A7E0B2E001900D928A95E1F7E8CE87E06D
:10162000F801A7E0B2E001900D928A95E1F7C6CFEC
:10163000C8010E947E0781118ACF80910D028160CE
:1016400080930D02C8010E942307B8CF48855985B1
:101650006A857B858C859D850E948B0791CFAEE046
:10166000B0E0E5E3FBE00C943825288739874A870A
:101670005B876C877D878E87CE0108960E94B509AF
:101680008823B1F06C85662341F0288539854A8529
:101690005B857D858E850E94950717E08091CD0141
:1016A0009091CE0189133EC02E96E3E00C94542510
:1016B00087E0FE013896DE01119601900D928A9521
:1016C000E1F72091CE014091CD018C85882329F34B
:1016D00030E0C90101968770992750E0841795077B
:1016E00099F097E0929FD001939FB00D1124A153E0
:1016F000BE4FFE01319601900D929A95E1F78093CD
:10170000CE010E941209C9CF0E945C071092CE013F
:101710001092CD0187E0E7E0F2E0DF011D928A95AB
:10172000E9F7BBCF189FC001112481539E4F0E943F
:10173000B509882309F4B8CFE091CD011E9FF001CF
:101740001124E153FE4F2081318142815381648114
:10175000758186810E9495078091CD0190E0019668
:10176000877099278093CD0199CF80913602869515
:101770008695869508958091360287700895909198
:101780003602977081E0911101C080E00895809148
:101790006202089590916202982B909362020895DC
:1017A000982F909580916202892380936202089518
:1017B00010926202089590916102982B90936102B9
:1017C0000895982F909580916102892380936102FA
:1017D000089510926102089508950E94EC0B0895F7
:1017E00090913702292F2823222331F080958923D5
:1017F000809337020E94ED0B089508950E94FD0B1F
:10180000089590913802292F2823281729F0982B22
:10181000909338020E94FE0B089590913802292F70
:101820002823222331F080958923809338020E9457
:10183000FE0B089580913802882329F01092380217
:1018400080E00E94FE0B0895CF93DF93C091620267
:1018500080916102C82BD0913802DD2331F00E94C3
:10186000AB1B81110E941A0CCD2B8C2FDF91CF91D5
:101870000895CF93DF93C0910201D09103010E949C
:10188000240C8883C0910201D091030148E050E00C
:101890006EE272E0CE010E947425892B59F088E037
:1018A000FE01AEE2B2E001900D928A95E1F7CE0121
:1018B0000E94361BDF91CF910895CF93DF93C091A3
:1018C0000001D09101010E94240C8983C091000184
:1018D000D091010140E250E06EE072E0CE010E9442
:1018E0007425892B59F080E2FE01AEE0B2E0019050
:1018F0000D928A95E1F7CE010E94411BDF91CF91B5
:10190000089580911901882339F08091A00287FF02
:1019100003C00E945D0C08950E94390C089508953B
:101920000E948F0C08959091A10292FF11C098E03F
:10193000899F90011124622B609336020E94D60782
:10194000809136028695869586950E94900C089522
:101950000E94D60708951092360280E00E94900CF3
:101960000895909136028095892380933602282F1E
:10197000277021110DC0891759F09091A10292FF93
:1019800007C08695869586950E94E2070E94AB0C5B
:1019900008959091A10292FB222720F9281769F05F
:1019A00080FB92F99093A1028091A0029091A102F4
:1019B0000E94120D82E00E94B10C08958091A10254
:1019C00082FB882780F991E089270E94C90C08953D
:1019D00081E00E94C90C089580E00E94C90C08951E
:1019E0006FEF7FEF80E090E00E94C625089580E0D1
:1019F00090E00E949225853E9E4F19F40E945A194C
:101A0000089580E0089582E090E00E948A2508957C
:101A100083E090E00E948A25089584E090E00E948F
:101A200092250895BC0184E090E00E94C6250895A7
:101A3000AB01BC018FE090E00E94BA250895AB0194
:101A4000BC0183E190E00E94BA25089560E070E057
:101A5000CB010E941F0D089560E070E0CB010E9451
:101A6000180D0E94260D0895A8E0B0E0EAE3FDE01D
:101A70000C94392565EE7EEF80E090E00E94C6254B
:101A800060E082E090E00E94A82581E08093CC0194
:101A900061E083E090E00E94A82560E074E184E0CA
:101AA00090E00E94C62560E086E090E00E94A825B4
:101AB00060E087E090E00E94A82540E050E0BA0195
:101AC00088E090E00E94BA2560E083E290E00E9406
:101AD000A82560E08CE090E00E94A82560E08DE001
:101AE00090E00E94A82519821A821B821C821D8206
:101AF0001E821F82188648E050E067E170E0CE0148
:101B000001960E94982540E050E0BA018FE190E0F4
:101B10000E94BA2580E00E9473190E94B2190E94A7
:101B20002C0D2896E2E00C9455250E94340D089562
:101B3000682F8EE090E00E94A8250895A6E0B0E00E
:101B4000E4EAFDE00C9437250E94711D8C01809120
:101B50006302909164028017910779F019821A82CA
:101B60000E94711DBC0149815A8180E090E00E9471
:101B70002A0410936402009363022696E4E00C9416
:101B800053250E947D1D60937502709376028093A9
:101B9000770290937802609371027093720280933F
:101BA0007302909374020895089508950E94D40DCD
:101BB000089508950E94D90D089583EB90E10E9445
:101BC0001F120E94D50D0E94D60D089581E0089540
:101BD0000E94E60D08950E94E60D08950895089567
:101BE0000E94EE0D0E94EF0D08950E94F70C8111E6
:101BF00002C00E94950D0E94030D809379020E94FD
:101C00000D0D9093A1028093A0020E9442120E94A7
:101C1000080D0E94A9078091CB010E94C107089579
:101C20000E94681D0E94C2190E9470110E94F50D49
:101C30000E9404040E94DA0D0895A6E0B0E0E3E2F9
:101C4000FEE00C942D250E94E80D81110AC00E942F
:101C50009E0D0E9470160E9411042696EEE00C94D0
:101C600049250E94861125E6822E22E0922E6401EB
:101C700010E0F601E190F1906F01812F0E94BD10FC
:101C80001F5F163009F44DC0E816F90691F38091F4
:101C9000790281FD0E94C6100E94EB0D782EF12C76
:101CA000662463948F2D0E94BD108C01F401A190D5
:101CB000B1904F018A159B0569F1A826B926E12C40
:101CC000CC24C394D12CC5018C219D21892BC1F03A
:101CD0007720B1F0E982FA820E94711D9C838B8388
:101CE0006D8221E0C8018C219D21892B09F420E01F
:101CF00049815A816B817C818D81922F0E942A04B7
:101D0000E394CC0CDD1CFCE0EF12DDCFF401329744
:101D100011830083F39486E0F812C4CF0E94C10DB2
:101D200098CFE816F90609F0B2CF91CF1F93CF9361
:101D3000DF930E94C00FEC01811522E5920708F0A5
:101D400053C0811540E5940708F0DDC0803E910541
:101D5000F8F48D3C910508F0AEC0883A910580F406
:101D6000853A910508F099C08130910521F00497DA
:101D7000813A910550F4CE01DF91CF911F910895E2
:101D8000885A91094B9708F48BC0C0E0D0E0F3CF9C
:101D9000811550E49507F8F4C11580E2D80708F0E2
:101DA000CBC0C83ED10538F3CE019A9581159F412D
:101DB00060F78D2F0E946410182FCE0199270E9482
:101DC000C00F212F30E0322F2227E901CC27DF710D
:101DD000C82BD92BD0CF99270E94C00FCC27DF70FA
:101DE000C82BD92BD06AC7CF803842E59407C8F5F5
:101DF000803652E5950708F067C0C03482E5D80701
:101E0000B0F08C2F86958695877020E2829FC00166
:101E10001124C37021E030E0A90102C0440F551F16
:101E2000CA95E2F7EA01C82BD92BDC68A4CFC032EF
:101E300052E5D50708F041C08C2F8695869520E2A3
:101E4000829FC0011124C37021E030E0A90102C0CB
:101E5000440F551FCA95E2F7EA01C82BD92BDD685C
:101E60008ACF803C52E5950760F48F71C03AD24525
:101E700008F03FC090E0982F8827EC01C46FD06A2B
:101E80007ACF805C9245809708F07FCFDC2FCC27FB
:101E9000CC27DF71C06FD06A6ECFA497D0646BCFB0
:101EA000C85AD0E0CC0FDD1FC05BDE4F0990D8814F
:101EB000C02DD46460CFD0655ECFCF71D0E0DC2F71
:101EC000CC27C16FD06A57CF86958695877020E260
:101ED000829FC0011124C37021E030E0A90102C03B
:101EE000440F551FCA95E2F7EA01C82BD92BDA68CF
:101EF00042CF0E946410C82FD0E0DC2FCC27CC2723
:101F0000DF71D06238CF8F710E94641065E0D69582
:101F1000C7956A95E1F7CF70D0E0DC2FCC27282F4A
:101F200030E084FF05C054E0220F331F5A95E1F7DB
:101F3000C22BD32BD0691FCF8D2F8F710E946410BD
:101F4000182FCE0199270E94C00F212F30E0322F89
:101F5000222722273F71282B392BE901D2CF462F88
:101F6000672F763028F44C3018F40E94F61208954A
:101F700080E090E008950E94AF0F0E94960E0895B1
:101F8000803E9105D1F1C8F48133910509F47FC0F9
:101F900048F48932910509F46FC08A32910509F439
:101FA0007DC0089589339105E1F082389105C9F02B
:101FB0008533910509F45BC00895843E9105D1F104
:101FC00048F4823E910531F1833E910541F181EE65
:101FD00090E00895863E9105C1F1873E9105E1F1BB
:101FE00008952091A0022370211165C02091A102C3
:101FF00023FF14C089E290E008952091A00220FD03
:1020000043C03091A10230FF09C024FF4EC080E0E0
:1020100090E008952091A00222FDF7CF089520912D
:10202000A00222FD45C03091A10230FD44C024FF32
:10203000F5CFEDCF2091A10221FFF0CF8091A0023A
:1020400084FDE5CF87EE90E008952091A00223FF64
:10205000E5CF24FDDCCFF6CF2091A00223FD2EC0DA
:102060003091A10231FFE3CF84EE90E008952091FA
:10207000A00225FFD3CFBECF2091A00225FD21C015
:102080002091A10223FFCACF89E390E00895209117
:10209000A00226FFC3CF8AE290E008952091A0021B
:1020A00026FFBCCF81E390E0089583EE90E0089591
:1020B00082EE90E0089580EE90E0089586EE90E044
:1020C000089585E390E0AACF9091A00292FF10C0FE
:1020D00041E0282F2471243009F040E031E0282F1E
:1020E0002871283009F030E0431711F02CE08227E6
:1020F00093FF10C041E0282F2471243109F040E003
:1021000031E0282F2871283109F030E0431711F011
:102110002CE082273091A10230FF10C051E0282F1F
:102120002171213009F050E041E0282F287128303A
:1021300009F040E0541711F029E0822731FF10C068
:1021400041E0282F2171213109F040E031E0282FB2
:102150002871283109F030E0431711F029E0822777
:1021600094FD877E089580E0089508950E94B5103B
:10217000089508950E94B9100895E82FF0E0EE0F39
:10218000FF1FE255FD4F808191810895089580EAF7
:102190008A95F1F7089500C008950E94C710089528
:1021A000F894E82FE295EF70F0E041A18F7021E004
:1021B00030E0B90102C0660F771F8A95E2F7CB01C4
:1021C000962F9095942391A392A1892B82A3789422
:1021D00008950F931F93CF93DF93C2E9D1E08991C4
:1021E0008F3F11F00E94D01081E0C839D807B9F7AD
:1021F000C6E8D1E002E911E089918F3F11F00E9419
:10220000D0100C171D07C1F7DF91CF911F910F91CF
:102210000895A0E0B0E0EFE0F1E10C943225EC018C
:10222000B62E062F10E0C8018E569E4F7C01FC0191
:1022300080818F3F09F44FC0F894E82FE295EF704A
:10224000F0E091A18F7021E030E001C0220F8A956B
:10225000EAF7892F822B81A382A12095282322A32C
:1022600078940E94CB10E6E8F1E041E050E0C12C08
:10227000D12C21912F3F89F0A22FA295AF70A05EA3
:10228000B0E08C9190E02F7002C0959587952A95CB
:10229000E2F781709A01882311F020E030E0C22A31
:1022A000D32A440F551F81E0E239F80711F7F701EF
:1022B00080818F3F11F00E94D01061E0C114D104E1
:1022C00009F460E08B2D0E94CD10000F111FC00F8C
:1022D000D11FD982C882CDB7DEB7E9E00C944E2574
:1022E0000E94E9108CE0EEEAF2E0DF01982F1D92E7
:1022F0009A95E9F7E2EAF2E0DF011D928A95E9F7A3
:1023000086E00E94C3110E94B6100895ACE0B0E0D0
:10231000ECE8F1E10C943625FE0131968CE0DF010A
:102320001D928A95E9F710E0FE2E0F2F612F8F2D59
:10233000902F0E9409111F5F1630C1F74CE050E04A
:102340006F2D702F82EA92E00E94742521E0892B84
:1023500081F420E046E06EEA72E082EA92E00E94B8
:10236000C411182F0E94BA10812F2C96E5E00C940E
:1023700052258CE0EF2DF02FA2EAB2E001900D92F1
:102380008A95E1F7E7CF0895A0E0B0E0EAECF1E14B
:102390000C943325D82EE92EF62ED72F042FC22FDA
:1023A000222379F081E080937C020E94711D90933A
:1023B0007B0280937A0280E0CDB7DEB7E8E00C9430
:1023C0004F25C0907C02CC20B1F380917A0290918D
:1023D0007B020E949A1D059770F310E0000F111FF9
:1023E000A8016D2D7E2D8F2D9D2F0E947425892B88
:1023F00041F0A8016D2D7E2D8F2D9D2F0E948125EE
:10240000CC2D10927C028C2FD7CF0E941D0E0895E8
:102410000E940A1D0E94781F0E94DD0D0E94921FDB
:102420000E94100E0E949F1F0E94A41F0E9405126E
:102430000E94BE1F0E94461E0E94F00DF5CF909391
:10244000A9018093A80108950E94F00C089580E0EE
:102450000E94BD10817008950E9486112FEF86E7BB
:1024600091E0215080409040E1F700C000000E94C0
:1024700086110E942712882321F00E9424120E94B4
:10248000CD1D08950E942C12089584E0089550E017
:10249000440F551F98E1699F400D511D112490E98B
:1024A000899F400D511D1124CA01889608950F93EC
:1024B0001F93CF93DF938430C8F46630B8F44C3068
:1024C000A8F40E9447128C010E948A25C82FD0E0F0
:1024D000DC2FCC27C80101960E948A259E01282B5B
:1024E000C901DF91CF911F910F91089580E090E095
:1024F000F8CF0F931F93CF93DF93122F032F8430C6
:1025000078F4663068F44C3058F40E944712EC01BD
:10251000602F0E94A825612FCE0101960E94A82558
:10252000DF91CF911F910F9108951F93CF93DF9368
:10253000D0E0C0E011C0412F6C2F8D2F0E94E4022B
:102540009C01412F6C2F8D2F0E9479121F5F1C3030
:1025500091F7CF5FC63011F010E0EDCFDF5FD430E0
:1025600041F7DF91CF911F910895EF92FF920F9362
:102570001F93CF93DF938C01EA017A01E60EF71ED9
:10258000CE15DF0529F4CDB7DEB7E6E00C94512572
:10259000003482E0180740F4C80188960E948A251A
:1025A00089930F5F1F4FECCF80E0FACFEF92FF923D
:1025B0000F931F93CF93DF938C01EA017A01E60E0C
:1025C000F71ECE15DF0529F4CDB7DEB7E6E00C9493
:1025D0005125003482E0180728F46881C8018896E4
:1025E0000E94A82521960F5F1F4FEBCF843038F44F
:1025F000663028F44C3018F40E945712089580E099
:1026000090E0089580E1089588E991E00895EF92BF
:10261000FF920F931F93CF93DF938C01EA017A010E
:10262000E60EF71ECE15DF0529F4CDB7DEB7E6E0DE
:102630000C945125083981E0180748F4C8018859DD
:102640009D4F0E948A2589930F5F1F4FEBCF80E03B
:10265000FACFEF92FF920F931F93CF93DF938C01EA
:10266000EA017A01E60EF71ECE15DF0529F4CDB793
:10267000DEB7E6E00C945125083981E0180730F404
:102680006881C80188599D4F0E94A82521960F5F37
:102690001F4FEACFCF93DF93C8E6D2E060E0CE01D0
:1026A0000E94A8252196C11584E0D807B9F7DF91CB
:1026B000CF910895A8E0B0E0E0E6F3E10C94332573
:1026C000F82E2FE0281708F46FC08FEF93E00E94D8
:1026D0008A25811169C008E612E0F11038C01A821B
:1026E0001982FE01339686E0DF011D928A95E9F793
:1026F0006801BFEFCB1ADB0AC8010E948A258983D3
:102700001A82882309F450C08130D1F4780122E084
:10271000E20EF11CC6010E948A258A83882309F4EF
:1027200043C09FEF980F9330F8F4680183E0C80E20
:10273000D11CC7010E948A258B838823A9F11C82A2
:1027400060E0CE0101960E9404188601D1CF0115E8
:1027500084E0180749F1C8010E948A250F5F1F4FC6
:102760008111F5CFFA94B9CF8430B9F402E010E0CA
:10277000C701AFEFEA1AFA0A0E948A25E1E0F0E009
:10278000EC0FFD1FE00FF11F8083882369F08C3769
:1027900031F4FE01E00FF11F12826701D1CF0F5F0C
:1027A0001F4F0730110521F72896E8E00C944F25BC
:1027B000CF93DF93EB0186319C4719F50E94C70B3D
:1027C0009D819923A1F08A7A91E0811101C090E066
:1027D00090937D02882349F085E30E945A1C0E9451
:1027E000810C80E0DF91CF91089589E2F6CF80914E
:1027F0007D02882321F085E30E94711CF0CF89E2DD
:10280000FBCF81E0EFCFCF93DF93EC01FB0185811C
:10281000882309F4D2C09E0130572332310508F0D5
:10282000B2C00E940D0D9093A1028093A002FE0100
:10283000E150F047E232F10520F4E651FA4D0C94F4
:102840001C258091A00281608093A00293C080919A
:10285000A10288608093A1028DC08091A002826055
:10286000F3CF8091A0028460EFCF8091A0028860B6
:10287000EBCF8091A1028160EDCF8091A1028260B7
:10288000E9CF8091A0028061DFCF8091A0028062B9
:10289000DBCF8091A0028064D7CF0E945C0780913B
:1028A000A0028068D1CF8091A0028C60CDCF8091B2
:1028B000A1028360CFCF8091A0028E7FC5CF80918F
:1028C000A102877FC7CF8091A0028D7FBDCF80916D
:1028D000A0028B7FB9CF8091A002877FB5CF809176
:1028E000A1028E7FB7CF8091A1028D7FB3CF80915F
:1028F000A0028F7EA9CF8091A0028F7DA5CF80916D
:10290000A0028F7BA1CF0E945C078091A0028F77ED
:102910009BCF8091A002837F97CF8091A1028C7F73
:1029200099CF8091A00282FB992790F921E092270C
:1029300090FB82F990FB83F987CF8091A102982FB9
:10294000909591708E7F892B90FB81F983CF909128
:10295000A002892F8F7B96FF806476CF0E945C0750
:102960009091A002892F97FB87F980586DCF81E065
:102970000E94980D8091A0029091A1020E94120DD8
:102980000E945C0780E0DF91CF91089580E0F0CF56
:102990009091A002892F8F7E94FF806155CF9091F6
:1029A000A002892F8E7F90FF81604ECF9091A1026F
:1029B000892F877F93FF88604DCF81E0E4CF282F58
:1029C00035EB2303C001112497FF04C080589109FF
:1029D000892F089580589F4FFBCF8091840280FFFC
:1029E0000DC06091090170E0660F771F60387105B6
:1029F000C0F561157105B9F1862F089581FF07C0F3
:102A00006091090184E0689FB0011124EFCF82FF3B
:102A100004C06091090188E0F6CF80918302882389
:102A2000E9F0909108016091090170E0891730F098
:102A300093E0660F771F9A95E1F7D8CF869F9001B4
:102A4000879F300D112483E0220F331F8A95E1F711
:102A5000692F70E0C9010E940825C8CF68E070E0C6
:102A6000CBCF8FE7089581E008958091840280FFA5
:102A70000CC06091050170E0759567957595679537
:102A80006115710561F1862F089581FF06C060917F
:102A9000050170E075956795F3CF6091050170E0D1
:102AA00082FD15C0209182022223B1F09091040191
:102AB0006091050170E0291750F4269FA001279F1F
:102AC000500D1124692F70E0CA010E94082560385A
:102AD0007105B0F28FE7089561E070E0D4CF81E036
:102AE0000895E3E3E80FE331E0F5F0E0E45FF94D4A
:102AF0000C941C250E94ED14819580938802089502
:102B00000E94ED14FACF0E94ED1481958093870204
:102B100008950E94ED14FACF0E9435158093890222
:102B200008950E9435158195F9CF0E94351581953C
:102B300080938A0208950E943515FACF815D990B22
:102B400021E030E001C0220F8A95EAF780918602E9
:102B5000822B809386020895809184028160809305
:102B600084020895809184028260F9CF809184026A
:102B70008460F5CF409187028D3C59F480918802A2
:102B800087FF0DC010928802442359F410928302EB
:102B900008C08E3C81F48091880218169CF344236F
:102BA00081F08091890290918A02892B811159C00C
:102BB0001092820208958F3C41F447FFF0CF1092AB
:102BC0008702809188028823E0CF803D19F4141693
:102BD000B4F3E5CF90918902893D29F41916FCF6EA
:102BE00010928902DCCF8A3D19F497FFD8CFF8CF35
:102BF00090918A028B3D29F497FFD1CF10928A02DF
:102C0000CECF8C3D19F41916CCF3C9CF9FE2980FA3
:102C1000983090F4815D990B21E030E0B90102C059
:102C2000660F771F8A95E2F7CB0180959091860217
:102C3000892380938602B3CF8D3D31F48091840245
:102C40008E7F80938402ABCF8E3D21F480918402ED
:102C50008D7FF7CF8F3D09F0A2CF809184028B7FCB
:102C6000F0CF08950E94711D209187023091880253
:102C7000232B222321F080938002909381022091C4
:102C8000890230918A02232B222321F080937E0235
:102C900090937F0285E892E00E94501B089586E0A1
:102CA000E5E8F2E0DF011D928A95E9F710928302D0
:102CB00010928202109284020895FC018281811197
:102CC0000DC0838181110AC08481811107C081E018
:102CD0009581911101C080E08170089581E0FCCF61
:102CE000A6E0B0E0E6E7F6E10C94362586E0E5E8FC
:102CF000F2E09E012F5F3F4FD90101900D928A951E
:102D0000E1F71092870210928802109289021092C5
:102D10008A028B819C81892B8901882391F0809183
:102D20008002909181020E949A1D9C0180918302F1
:102D30008823C9F140910A0150E04217530708F473
:102D40003FC08D819E81892B882399F080917E02DE
:102D500090917F020E949A1D9C018091820288239B
:102D600009F467C04091060150E04217530708F488
:102D70006EC0B80185E892E00E94A21C811105C0D6
:102D800085E892E00E945D1681110E94321686E06D
:102D9000F801A5E8B2E001900D928A95E1F7269638
:102DA000E5E00C94522540910B019AE0499FA00167
:102DB00011244217530728F68F5F8093830202C0C5
:102DC0008F3FD1F7FB80FF2059F00E94ED1491E076
:102DD0001F140CF09FEF899F802D11248093870290
:102DE000FC80FF2059F00E94ED1491E01F140CF0BC
:102DF0009FEF899F802D1124809388028091870204
:102E0000882309F49ECFF0908802FF2009F499CF1F
:102E10000E94DF14811101C081E0809387028F2D11
:102E20000E94DF14882319F0809388028ACF81E002
:102E3000FBCF409107019AE0499FA001112442175E
:102E4000530708F096CF8F5F8093820202C08F3FB6
:102E5000D1F7FD80FF2059F00E94351591E01F1435
:102E60000CF09FEF899F802D112480938902FE80B2
:102E7000FF2059F00E94351591E01F140CF09FEFD0
:102E8000899F802D112480938A0280918902882352
:102E900009F46FCFF0908A02FF2009F46ACF0E94F4
:102EA000DF14811101C081E0809389028F2D0E947F
:102EB000DF14882319F080938A025BCF81E0FBCF77
:102EC000A0E0B0E0E6E6F7E10C943225E82FF0E070
:102ED000E451FD4FB490282F26952695269530E095
:102EE000F901E457FC4F0491877010E0082E02C0EE
:102EF000159507950A94E2F701701127F901E45836
:102F0000FC4FE490F12C082E02C0F594E7940A944B
:102F1000E2F791E0E922FF24F901E459FC4FC49162
:102F2000D0E002C0D595C7958A95E2F7C170DD273C
:102F3000C62ED12C0115110549F5E114F10431F02B
:102F400086EE0E946D04C601009771F5B6018B2DC7
:102F50000E94E804C601009779F5E114F104A1F597
:102F60000115110531F081EE0E94B504C6010097EC
:102F7000C9F5CD2B31F08CE20E940005C114D104BB
:102F8000C9F5CDB7DEB7E9E00C944E2581EE0E947D
:102F90006D04C601009789F2EFE9FFE03197F1F780
:102FA00000C000000197F6CFEFE9FFE03197F1F79D
:102FB00000C000000197C8CFEFE9FFE03197F1F7BB
:102FC00000C000000197C7CF86EE0E94B504C6017D
:102FD000009731F2EFE9FFE03197F1F700C0000010
:102FE0000197F6CFEFE9FFE03197F1F700C000005D
:102FF0000197BDCF8FE99FE00197F1F700C0000076
:1030000091E0C91AD108BACFEF92FF921F93CF93E4
:10301000DF93EC01162F8881882309F45AC0813090
:1030200009F053C08981813071F47E0182E0E80E9D
:10303000F11C8A810E940005E701812F90E0009732
:10304000E1F52196E8CF823041F47E01E2E0EE0E18
:10305000F11C8A810E946D04EFCF833041F47E0120
:10306000F2E0EF0EF11C8A810E94B504E5CF8430B6
:1030700011F02196E2CF2A81229680E090E06AE06A
:10308000AE014F5F5F4F2053330B2A30310550F0B4
:10309000009799F2EFE9FFE03197F1F700C00000E7
:1030A0000197F6CF689FF001699FF00D1124C901C7
:1030B0008E0F9F1F2981EA01E3CFEFE9FFE03197EF
:1030C000F1F700C000000197BACF612F0E9460178E
:1030D000B8CFDF91CF911F91FF90EF9008950F939C
:1030E0001F93CF93DF93C42FD22FFC0185818823B8
:1030F000C9F040938D020E94711D90938C028093C1
:103100008B0280E28C0F883040F4C77081E001C0F0
:10311000880FCA95EAF70E940905DF91CF911F91A8
:103120000F91089510918D0214133CC080918B0271
:1031300090918C020E949A1D883C910598F5C0E2FE
:10314000CD0F1D1741F180E2810F883040F41770D8
:1031500081E001C0880F1A95EAF70E941005C83077
:1031600020F0802F0E940005D8CF91E08D2F87702E
:1031700001C0990F8A95EAF7892F0E940905802FCF
:103180000E940005D77081E001C0880FDA95EAF748
:103190000E941005C2CF802F0E940005C83008F0A1
:1031A000BCCFF0CF80E28C0F883008F0B6CFC7706C
:1031B00081E001C0880FCA95EAF7EACF0F93FC01BE
:1031C000CB01E851FC47E730F10590F5E15EF94DA0
:1031D0000C941C2506E221EE41EE6AE17CE70E9498
:1031E0006F1880E00F91089507E225EE45EE6BE140
:1031F0007CE7F5CF06E221EE40EE68E17CE7EFCF19
:1032000007E225EE44EE69E17CE7E9CF06E221EE34
:1032100042EE6CE17CE7E3CF07E225EE46EE6DE19E
:103220007CE7DDCF08E221E045EE6EE17CE7D7CF19
:10323000FB018581811110928D0281E0D3CFCF9364
:10324000DF939C01FB0127378CE7380739F02837DB
:103250003C47F1F081E0DF91CF910895858188238B
:1032600091F00E9451190E94D6070E945719D82F39
:103270000E945419C82F0E9451194D2F6C2F0E9483
:10328000080980E0E8CF0E9451190E94E207EDCFC3
:103290008581882319F00E945419E5CF0E945419A2
:1032A000F4CF80910E01089580910D0108958091D1
:1032B0000C01089584E290E00E948A25843289F40A
:1032C00085E290E00E948A25823159F486E290E0FE
:1032D0000E948A2591E0823009F090E0892F817068
:1032E000089580E0FCCF882381F064E284E290E0DE
:1032F0000E94A82562E185E290E00E94A82562E094
:1033000086E290E00E94A82508956FEF84E290E0A5
:103310000E94A8256FEF85E290E00E94A8256FEF3C
:10332000EFCF0895A4E0B0E0E8E9F9E10C94392585
:1033300087E290E00E948A25282F30E040E050E0AC
:10334000CA01B9012496E2E00C9455250895CF9363
:10335000C62F0E94A6196C2F87E290E00E94A82534
:10336000CF91089580E00E94731960E070E0CB0176
:103370000E94A7190E9495120E944A1381E00E94A0
:10338000731908950E9491190E9492190E94A6191A
:103390000E945A19811102C00E94B219089508951D
:1033A0009C01FB018581882351F0A90157574038C2
:1033B000510530F4822F0E945A1380E0089581E075
:1033C00008952FEFFC01208308950E94E1190895CC
:1033D00080E00895CF92DF92FF920F931F93CF93D7
:1033E000DF93CDB7DEB72E970FB6F894DEBF0FBED2
:1033F000CDBF8D839E83F62E8D819E810E94E8191C
:10340000811115C0AD81BE81EC91E150E33140F5F1
:10341000F0E0EA5DF94D0C941C25ED81FE811182EE
:103420008CE082836F2D8D819E810E943C1E2E96A2
:103430000FB6F894DEBF0FBECDBFDF91CF911F91C5
:103440000F91FF90DF90CF900895AD81BE811196CE
:103450008C91833099F148F4813081F08230E9F029
:103460008FEFAD81BE818C93DDCF8430C9F7ED81C4
:10347000FE811282138214821582D4CF0E947D1D98
:103480000E9422256F83788789879A87ED81FE8144
:103490006283738384839583C5CF0E9492190E94AF
:1034A00022256B877C878D879E87AD81BE81129692
:1034B0006D937D938D939C931597B4CFED81FE8191
:1034C000028110E06F01B2E0CB0ED11C0630110575
:1034D0000CF0A8CF802F0E94BD10D60111969C93AE
:1034E000119712968C930F5F1F4FEDCFED81FE81E8
:1034F0008181823049F0853009F0B2CFED81FE81C3
:1035000082810E94CF198ECFAD81BE8112968D919E
:103510009D910D90BC91A02D89839A83AB83BC8330
:10352000BC01CD010E9422250E94A7197BCFAD814D
:10353000BE8113964C91139712966C911297119627
:103540008C910E945712982789279827ED81FE8138
:103550009583848367CFAD81BE8114962D913C9174
:10356000159732272327322713964C9113971296DB
:103570006C91129711968C910E94791253CF0E94F0
:10358000951250CF6F2D8D819E810E94E5194ACFF3
:103590000E940213ED81FE81818344CF0E940413B7
:1035A000982789279827AD81BE8112969C938E9388
:1035B000119738CFED81FE81638170E08181928126
:1035C000AF014C5F5F4F9827892798270E94071308
:1035D00029CFAD81BE8113966C91139770E011963F
:1035E0008D919C911297AD014C5F5F4F9827892771
:1035F00098270E94291316CF0E944A1313CF0E94C6
:103600004512C8CFAD81BE8113966C91139770E0BF
:1036100011968D919C911297AD014C5F5F4F982749
:10362000892798270E94B512FDCEED81FE81638126
:1036300070E081819281AF014C5F5F4F98278927AD
:1036400098270E94D612EECE909393028093920216
:103650000895E0919202F0919302309729F0019041
:10366000F081E02D0995089580E00895E09192029F
:10367000F0919302309721F00280F381E02D0995BB
:103680000895DC01E0919202F0919302309739F0B5
:1036900086E08C930480F581E02DCD010995089595
:1036A000DC01E0919202F0919302309739F082E0D0
:1036B0008C930680F781E02DCD0109950895A3E054
:1036C000B0E0E5E6FBE10C9439259C018091900285
:1036D0009091910282179307A1F030939102209369
:1036E0009002E0919202F0919302309751F083E0C2
:1036F00089833B832A830084F185E02DCE010196E6
:1037000009952396E2E00C945525A3E0B0E0EBE8A0
:10371000FBE10C9439259C0180918E0290918F02DF
:1037200082179307A1F030938F0220938E02E091CD
:103730009202F0919302309751F084E089833B83A9
:103740002A830084F185E02DCE0101960995239608
:10375000E2E00C94552520910201309103012E5F87
:103760003F4F809119018823A9F08091A00287FF23
:1037700011C020910001309101012E5F3F4F9DE16A
:1037800080E0F90140812F5F3F4F41118F5F9150E1
:10379000C0F7089595E0F4CF882321F190911901A5
:1037A000992311F19091A00297FF1EC0982F969532
:1037B00096959695803FB0F4E0910001F09101015B
:1037C000E90FF11D228130E0877041E050E0BA013D
:1037D00002C0660F771F8A95E2F72623372381E020
:1037E000232B91F480E00895209102013091030190
:1037F000F9013296285F3F4F9191981721F0E21717
:10380000F307D1F7EFCF81E008959C01FC013296D8
:103810008FEF90E04191461751F08F3F19F441111D
:1038200001C0892F9F5F9630A9F78F3F09F4089553
:10383000280F311D87FD3A95F901628308959C0197
:10384000FC013296285F3F4F8191861303C0DF0150
:1038500011971C92E217F307B9F70895FC01862F20
:10386000869586958695603F60F4E80FF11D677038
:1038700021E030E001C0220F6A95EAF78281822BB5
:1038800082830895FC01862F869586958695603FF4
:1038900080F4E80FF11D677081E090E09C0102C0A8
:1038A000220F331F6A95E2F7B90160958281682380
:1038B00062830895682F80911901882359F08091BF
:1038C000A00287FF07C080910001909101010E9432
:1038D0002E1C089580910201909103010E94051C05
:1038E0000895682F80911901882359F08091A002D2
:1038F00087FF07C080910001909101010E94421C46
:10390000089580910201909103010E941F1C089567
:1039100080911901882379F08091A00287FF0BC064
:10392000E0910001F091010132968EE1DF011D92DC
:103930008A95E9F70895E0910201F091030132962A
:1039400086E0F4CFDC01FB0111969C9111978181F7
:10395000981322C012968C911297882319F09281A5
:1039600089131AC013968C911397882319F09381A9
:10397000891312C015968C911597882319F095819B
:1039800089130AC014969C91992321F081E0248127
:10399000291303C080E001C081E08170089508957B
:1039A0000E94CF1C08958F5F809394020E94D01CC8
:1039B000089583E0809394020E94D01C08950E9491
:1039C000D31C089581E0809394020E94D01C089536
:1039D0000E94E21C0895089508950E94EC1C089529
:1039E000089508950E94EB1C0895CF930E94F01C47
:1039F0000E9486110E94F11CC0E08C2F0E94BD1015
:103A0000892B31F4CF5FC630C1F780E0CF910895A4
:103A100081E0FCCF85B7806885BF85B7806885BFAA
:103A200008951F921FB61F9211248F939F93AF93F7
:103A3000BF9380919502811113C08091BA02909139
:103A4000BB02A091BC02B091BD024196A11DB11D67
:103A50008093BA029093BB02A093BC02B093BD02C4
:103A6000BF91AF919F918F911F901FBE1F9018958E
:103A70008091C202843031F10E94E80310929502D5
:103A800088E190E020E40FB6F894A8958093600058
:103A90000FBE2093600083B7817F846083BF83B7AC
:103AA000816083BF7894889583B78E7F83BF0FB67C
:103AB000F894A895809160008861809360001092CE
:103AC00060000FBE08950E945C070E94ED030895F8
:103AD00082E084BD93E095BD9AEF97BD80936E0020
:103AE00008952FB7F8948091BA029091BB02A091EB
:103AF000BC02B091BD022FBF0895A4E0B0E0E3E89E
:103B0000FDE10C9439258FB7F8942091BA023091D9
:103B1000BB024091BC025091BD0229833A834B8382
:103B20005C838FBF69817A818B819C812496E2E0DE
:103B30000C9455259C014FB7F8948091BA0290914E
:103B4000BB02A091BC02B091BD024FBF821B930B80
:103B5000089578941F921FB61F9211248F939F93FC
:103B6000AF93BF938091BA029091BB02A091BC0227
:103B7000B091BD020196A11DB11D8093BA02909330
:103B8000BB02A093BC02B093BD02BF91AF919F91C5
:103B90008F911F901FBE1F90189587E797E790930E
:103BA00001088093000888E19AE00FB6F894A89580
:103BB000809360000FBE90936000FFCF88E19AE091
:103BC0000FB6F894A895809360000FBE90936000A4
:103BD000FFCF80919E020895282FCB01BA0130912A
:103BE000C2023430E1F42F702093E9002FEF3091BE
:103BF000E80035FD07C035ED3A95F1F7000021509A
:103C00002111F5CF2091E80025FF09C040E050E0E8
:103C10000E9437208091E8008E778093E800089515
:103C2000BC0143E050E084E00E94EC1D0895BC011B
:103C300046E050E084E00E94EC1D0895BC0140E2A3
:103C400050E084E00E94EC1D0895CF93DF93D82FBD
:103C5000C92F48E050E0682F792F81E00E94EC1DC9
:103C600088E0ED2FFC2FA6E9B2E001900D928A9535
:103C7000E1F7DF91CF910895792F603231F440E27E
:103C800050E0682F82E00E94EC1D0895A0E2B0E0B1
:103C9000ECE4FEE10C9439258091C202843081F479
:103CA00083E08093E9008091E80082FF09C0809161
:103CB000E80085FD09C08091E8008B778093E800DB
:103CC000A096E2E00C94552540E050E060E270E000
:103CD000CE0101960E9486208091E8008B77809328
:103CE000E80060E2CE0101960E94EA19E9CF8091D6
:103CF000C102811109C00E940E220E946B22809194
:103D0000E20084608093E20008951092C102089559
:103D10000E94E21C08956091BE0281E0611101C021
:103D200080E00E94D91C08959091C20281E09430F5
:103D300009F080E06091BE020E94DF1C089542E01D
:103D400061EC81E00E948A2142E261EC84E00E9401
:103D50008A2142E261EC82E00E948A2142E260EC28
:103D600083E00E948A219091C20281E0943009F0A0
:103D700080E06091BE020E94D31C08958091C4022D
:103D8000893089F148F4823009F4A1C0833009F404
:103D90005BC0813041F008958A3009F488C08B30CF
:103DA00009F46DC008958091C302813A09F04BC0B7
:103DB0008091E800877F8093E8008091C70290910E
:103DC000C802892B61F060E080E090E070E00E9422
:103DD000D5208091E8008B778093E800089568E013
:103DE00086E992E0F3CF8091C302813261F5809140
:103DF000C7029091C8028D7F892B29F58091E80038
:103E0000877F8093E8008091E80082FF18C090913E
:103E1000F3008091F200029731F48091F10081303B
:103E200011F0863021F48091F10080939E02809100
:103E3000E8008B778093E8000E94BE2104C0809147
:103E4000C2028111E0CF08958091C302813AD9F76F
:103E50008091C7029091C802892BA9F78091E80050
:103E6000877F8093E8008091E80080FFFCCF8091FD
:103E700019018093F1008091E8008E77DBCF80916B
:103E8000C302813201F78091C7029091C802892B49
:103E9000D1F68091E800877F8093E8000E94BE21E0
:103EA0008091C502809319010E945C07089580915A
:103EB000C302813241F68091E800877F8093E80059
:103EC0000E94BE218091C60280939F020895809136
:103ED000C302813A09F0B7CF8091E800877F8093D1
:103EE000E8008091E80080FFFCCF80919F02C1CF65
:103EF00084B7877F84BF0FB6F894A895809160003F
:103F0000886180936000109260000FBE80E890E0AE
:103F10000FB6F89480936100909361000FBE0E94E9
:103F2000E81C08950E940E220E946B22E2EEF0E04F
:103F300080818460808378940E94EE2408958FE0CD
:103F400091E00E94241B08958091C202853031F4D3
:103F50008091C202853019F00E94631D08950E946D
:103F6000381D0E94F51C882399F38091C002882394
:103F700079F30E9421200E945C07EACF08959A01FC
:103F80004091C9025091CA020E94C71F0895AC0116
:103F9000CB01D901252F33272330310521F168F4D6
:103FA0002130310509F443C02230310509F444C001
:103FB00080E090E020E030E024C02132310551F172
:103FC00022323105A9F78330910590F7FC01EE0FFD
:103FD000FF1FE556FE4F2081318188569E4FFC0120
:103FE000808190E00EC0CA019927413069F082308B
:103FF000910569F0E0ECF3E0892BD1F6849190E033
:104000009F012D933C930895ECEAF3E0F7CFECE9A0
:10401000F3E0F4CF8330910558F6FC01EE0FFF1F5B
:10402000EF55FE4F2081318189E090E0EACF82E1B7
:1040300090E02FE134E0E5CF8BE590E024EC33E035
:10404000E0CF80E189BD82E189BD09B400FEFDCFEA
:104050008091D8008F7D8093D8008091E0008260AD
:104060008093E0008091E00081FDFCCF0895AF9245
:10407000BF92CF92DF92FF920F931F93CF93DF9364
:104080006C01EB018A010E94DD21F82E811123C011
:104090000115110539F0F80180819181C81BD90BF8
:1040A000C80ED91EA12CB12C2097A9F08091E80050
:1040B00085FD22C08091E8008E778093E80001158D
:1040C0001105A1F0F801808191818A0D9B1D9183DA
:1040D000808385E0F82E8F2DDF91CF911F910F9176
:1040E000FF90DF90CF90BF90AF9008950E94DD21A8
:1040F0008823E1F2F82EEFCFF60181916F018093D2
:10410000F1002197FFEFAF1ABF0ACECFAF92BF9257
:10411000CF92DF92FF920F931F93CF93DF936C01A7
:10412000EB018A010E94DD21F82E811123C00115C7
:10413000110539F0F80180819181C81BD90BC80E97
:10414000D91EA12CB12C2097A9F08091E80085FD03
:1041500022C08091E8008B778093E800011511055B
:10416000A1F0F801808191818A0D9B1D918380834C
:1041700085E0F82E8F2DDF91CF911F910F91FF9049
:10418000DF90CF90BF90AF9008950E94DD218823EB
:10419000E1F2F82EEFCF8091F100F60181936F01EB
:1041A0002197FFEFAF1ABF0ACECFFC019B01809190
:1041B000C9029091CA028617970718F0672B61F021
:1041C000C90140E0009771F441110CC08091E800F2
:1041D00082FF35C080E008958091E8008E7780935B
:1041E000E800EECF2091C2022223A9F12530A9F1E7
:1041F0002091E80023FD2DC02091E80022FDE6CFAC
:104200002091E80020FFDECF3091F3002091F200F2
:10421000009719F02830310558F041E02830310579
:1042200009F040E02091E8002E772093E800CACF03
:1042300041914093F10001972F5F3F4FE9CF80916B
:10424000C202882341F0853041F08091E80083FF6D
:10425000BDCF81E0089582E0089583E00895FC01D8
:104260009B018091C9029091CA028617970718F0A6
:10427000672B61F0C90140E0009771F441110CC057
:104280008091E80082FF36C080E008958091E800C8
:104290008E778093E800EECF2091C2022223B1F105
:1042A0002530B1F12091E80023FD2EC02091E800D7
:1042B00022FDE6CF2091E80020FFDECF3091F30011
:1042C0002091F200009719F02830310558F041E0B4
:1042D0002830310509F040E02091E8002E77209346
:1042E000E800CACF44914093F100319601972F5FC7
:1042F0003F4FE8CF8091C202882341F0853041F0E2
:104300008091E80083FFBCCF81E0089582E00895AA
:1043100083E00895982F973028F08F708093E900FC
:1043200081E008959093E900242F762F50E09817AC
:1043300031F07091EC002091ED005091F00021FDE2
:1043400002C09F5FE8CF3091EB003E7F3093EB00DF
:104350003091ED003D7F3093ED003091EB00316006
:104360003093EB007093EC002093ED005093F0003D
:104370002091EE0027FDE5CF80E008958091C302F3
:1043800087FF13C08091E80082FF06C08091E8009B
:104390008B778093E80004C08091C2028111F2CF34
:1043A00008958091C2028823D9F38091E80080FFAC
:1043B000F8CF8091E8008E77ECCF2091E400309127
:1043C000E50095E6A9018091EC008170882331F029
:1043D0008091E80080FF06C080E008952091E80009
:1043E00022FD1BC08091C202882391F0853091F09C
:1043F0008091EB0085FD10C02091E4003091E50034
:104400004217530701F391509111DCCF84E00895D6
:1044100082E0089583E0089581E008950E947D225E
:104420000E948522E0EEF0E0808181608083E8EDEB
:10443000F0E080818F77808319BCA7EDB0E08C918C
:104440008E7F8C9380818F7E80831092C10208952D
:104450000F931F93CF93DF930E947D220E948522AA
:10446000C8EDD0E088818F778883888180688883D1
:1044700088818F7D888319BC1092C2021092BE027F
:104480001092C0021092BF0200EE10E0F80180818D
:104490008B7F808388818160888342E060E080E058
:1044A0000E948A21E1EEF0E080818E7F8083E2EE3F
:1044B000F0E0808181608083808188608083F80162
:1044C00080818E7F8083888180618883DF91CF9116
:1044D0001F910F910895E8EDF0E080818F7E808339
:1044E000E7EDF0E080818160808384E082BF81E03D
:1044F0008093C1020E9428220895E8EDF0E08081B7
:104500008E7F80831092E20008951092DA0010925C
:10451000E10008951F920F920FB60F9211242F936E
:104520003F934F935F936F937F938F939F93AF933B
:10453000BF93EF93FF938091E10082FF0BC08091C6
:10454000E20082FF07C08091E1008B7F8093E10051
:104550000E94ED248091DA0080FF19C08091D8007C
:1045600080FF15C08091DA008E7F8093DA00809101
:10457000D90080FF94C080E189BD82E189BD09B482
:1045800000FEFDCF81E08093C2020E94771E8091E1
:10459000E10080FF19C08091E20080FF15C080918A
:1045A000E2008E7F8093E2008091E2008061809340
:1045B000E2008091D80080628093D80019BC85E029
:1045C0008093C2020E948B1E8091E10084FF29C06B
:1045D0008091E20084FF25C080E189BD82E189BD30
:1045E00009B400FEFDCF8091D8008F7D8093D80064
:1045F0008091E1008F7E8093E1008091E2008F7EC8
:104600008093E2008091E20081608093E2008091DB
:10461000BE02882309F449C084E08093C2020E944C
:10462000941E8091E10083FF29C08091E20083FF06
:1046300025C08091E100877F8093E10082E0809334
:10464000C2021092BE028091E1008E7F8093E10051
:104650008091E2008E7F8093E2008091E200806191
:104660008093E20042E060E080E00E948A21809135
:10467000F00088608093F0000E94881EFF91EF9107
:10468000BF91AF919F918F917F916F915F914F916A
:104690003F912F910F900FBE0F901F90189519BC4E
:1046A0001092C2020E94851E72CF8091E30087FFA4
:1046B00002C083E0B2CF81E0B0CF1F920F920FB65D
:1046C0000F921124FF920F931F932F933F934F93B9
:1046D0005F936F937F938F939F93AF93BF93CF938A
:1046E000DF93EF93FF9309EE10E0F8018081C09112
:1046F000EC00C795CC27C7958F70FC2EF82A108246
:10470000C0EFD0E08881877F888378940E94A623B9
:10471000F8011082888188608883CF2DCF70C08394
:10472000FF91EF91DF91CF91BF91AF919F918F91C9
:104730007F916F915F914F913F912F911F910F91B9
:10474000FF900F900FBE0F901F901895AAE2B0E057
:10475000ECEAF3E20C94382583EC92E0FC0101963C
:104760002091F100208322E08B3C9207B9F70E9450
:10477000BE1E8091E80083FF38C08091C3029091F3
:10478000C4029A3090F5E92FF0E0E75CF94D0C9403
:104790001C25803889F0823841F58091C7028F70DE
:1047A000873018F58093E9008091EB0085FB88271E
:1047B00080F91092E90006C08091BF029091C0027A
:1047C000911182609091E800977F9093E800809328
:1047D000F1001092F1008091E8008E7723C08111E2
:1047E00016C08091C502813011F18091E80083FFED
:1047F0000AC08091E800877F8093E8008091EB00F9
:1048000080628093EB00AA96E3E00C9454258230FA
:1048100061F78091C502882389F01092E9008091A8
:10482000E800877F8093E8000E94BE21DECF81E010
:10483000933009F080E08093C002EFCF8091C702EF
:104840008F702FEF280F263080F68093E90020919B
:10485000EB0020FFE2CF933031F48091EB008062D7
:104860008093EB00DACF9091EB0090619093EB0096
:1048700021E030E0A90102C0440F551F8A95E2F7FC
:104880004093EA001092EA008091EB008860E8CF44
:104890008111ABCF1091C5021F778091E300807822
:1048A000812B8093E3008091E800877F8093E8006C
:1048B0000E94BE218091E80080FFFCCF8091E30040
:1048C00080688093E30083E0111101C082E080934F
:1048D000C2028BCF8058823008F087CF8091C5020A
:1048E0009091C6028C3D53E0950799F583E08A8349
:1048F0008AE289834FB7F894DE01139620E03EE008
:1049000051E2E32FF0E050935700849120FF03C061
:1049100082958F703F5F8F708A30C8F0895C90E01D
:104920008D939D932F5F243161F74FBF8091E800F5
:10493000877F8093E8006AE270E0CE0101960E94D2
:10494000D5208091E8008B778093E8004ECF805D82
:10495000E6CF6091C7027091C802AE014F5F5F4F12
:104960000E94BF1FBC01892B09F43FCF8091E80052
:10497000877F8093E80089819A810E942F21E1CF6F
:10498000803809F032CF8091E800877F8093E8007B
:104990008091BE028093F1001ECF811126CF9091AD
:1049A000C502923008F021CF8091E800877F809384
:1049B000E8009093BE020E94BE218091BE0288232F
:1049C00031F084E08093C2020E949F1E0ECF80913E
:1049D000E30087FDF6CF81E0F5CF0895CF93809176
:1049E000C202882399F08091E900C091EC00C7953C
:1049F000CC27C7958F70C82B1092E9008091E800F2
:104A000083FD0E94A623CF70C093E900CF91089543
:104A100097FB072E16F4009407D077FD09D00E946B
:104A2000602507FC05D03EF4909581959F4F089531
:104A3000709561957F4F0895EE0FFF1F0590F491DB
:104A4000E02D0994692796276927782787277827F3
:104A500008952F923F924F925F926F927F928F9222
:104A60009F92AF92BF92CF92DF92EF92FF920F93FD
:104A70001F93CF93DF93CDB7DEB7CA1BDB0B0FB607
:104A8000F894DEBF0FBECDBF09942A8839884888C4
:104A90005F846E847D848C849B84AA84B984C8845A
:104AA000DF80EE80FD800C811B81AA81B981CE0F51
:104AB000D11D0FB6F894DEBF0FBECDBFED01089536
:104AC000AA1BBB1B51E107C0AA1FBB1FA617B70734
:104AD00010F0A61BB70B881F991F5A95A9F7809550
:104AE0009095BC01CD010895FB01DC0104C08D91BE
:104AF0000190801921F441505040C8F7881B990B50
:104B00000895FB01DC0102C001900D92415050401C
:104B1000D8F70895F999FECF92BD81BDF89A9927EB
:104B200080B50895A8E1B0E042E050E00C94CE25B5
:104B3000DC01A40FB51F4150504048F0CB01840F59
:104B4000951F2E910E94A92541505040D0F70895FD
:104B5000262FF999FECF92BD81BDF89A019700B436
:104B6000021639F01FBA20BD0FB6F894FA9AF99AD6
:104B70000FBE08950396272F0E94A9250E94A825FD
:104B8000252F0E94A925242F0C94A9250196272FB3
:104B90000E94A9250C94A825DC01CB01FC01F99900
:104BA000FECF06C0F2BDE1BDF89A319600B40D9279
:104BB00041505040B8F70895F894FFCF550555057A
:104BC0009C059C0501061E068405840523069006A7
:104BD000A106A1065B14CF1463142D1431146714BD
:104BE00035146B1477144114C81445147B144914FC
:104BF0007F14A7144D148314AE1453148914911404
:104C000039146F143D14731457148D149D14B71474
:104C1000C61427145F14D6147A15801583158915C8
:104C20009E159E159E159E159E159E159E159E15EC
:104C30008C15911595159B15AC15B215B615FA186E
:104C40000019EA18F41806190C1912190D1A251A68
:104C5000761A971AAB1ABF1AC21AC21AC21A301A97
:104C6000301AC81ACE1ADA1AE91AFC1AFF1A021BED
:104C7000151BC923EF23F523EF23F52348246A24CA
:064C8000F523C024CD2441
:104C860039025902280850011E0A1401030201E9DB
:104C96001D251E1E1E171E101E01E200E900EA0059
:104CA600B500B600B700CD008301CC008A019201A1
:104CB60094012102230224022502260227022A0247
:104CC600B300B4006F0070009F01CB019F02A002E9
:104CD600E200E900EA00B500B600B700CD008301A6
:104CE600CC008A01920194012102230224022502AA
:104CF600260227022A02B300B4006F0070009F014B
:104D0600CB019F02A00266949091929397C6353488
:104D16003236F73133F6F5F44422B6090531045339
:084D260004D603EF030F0400A3
:00000001FF
