:100000000C94A7020C94C4020C94C4020C94C40275
:100010000C94C4020C94C4020C94C4020C94C40248
:100020000C94C4020C94C4020C94AC220C947F2354
:100030000C94331D0C94C4020C94C4020C94C4029E
:100040000C94C4020C94C4020C94C4020C94C40218
:100050000C94C4020C94CB1D0C94C4020C94C402E6
:100060000C94C4020C94C4020C94C4020C94C402F8
:100070000C94C4020C94C4020C94C4020C94C402E8
:100080000C94C4020C94C4020C94C4020C94C402D8
:100090000C94C4020C94C4020C94C4020C94C402C8
:1000A0000C94C4020C94C4020C94C40235000000E9
:1000B0000000000000000000000000000000000040
:1000C00000004C001E001F00200021002200230021
:1000D00024002500260027002D002E002B001400F0
:1000E0001A000800150017001C0018000C00120070
:1000F00013002A00290004001600070009000A0066
:100100000B000D000E000F0033003400E1001D0055
:100110001B00060019000500110010003600370012
:1001200038002832E000E300007EE20021520000A7
:100130002C0022525000510052004F0001000000DC
:1001400000000000000000000000000000000000AF
:10015000000001003A003B003C003D003E003F0033
:1001600040004100420043004400450001000100FE
:10017000520001004B005F006000610001000100BF
:100180002F0030003900500051004F004E005C003D
:100190005D005E000100010001003100010001006E
:1001A00001000100010059005A005B00010001003C
:1001B0000100280001000100010001000100000011
:1001C000620063004A00010001004D0001000000D0
:1001D000000000000000000000000000000000001F
:1001E0000000010001000100010001000100010008
:1001F000010001000100A800AA00A90001000100FF
:1002000001000100010001000100010001000100E6
:100210002F00300001000100010001000100010079
:100220000100010001000100010031000100010096
:1002300001000100010001000100010001000100B6
:10024000010028120100010001000100010000006E
:100250000100010001000100010001000100000097
:10026000000000000000000000000000000000008E
:100270000000010001000100010001000100010077
:100280000100010001000100010001000100010066
:100290000100010001000100010001000100010056
:1002A0000100010001000100010001000100010046
:1002B0000100010001000100010001000100010036
:1002C0000100010001000100010001000100010026
:1002D0000100010001000100010001000100000017
:1002E0000100010001000100010001000000000008
:1002F000000000002A2B2800000000000000000081
:100300000000000000000029000000002C1E342026
:10031000212224342627252E362D3738271E1F204C
:100320002122232425263333362E37381F04050691
:100330000708090A0B0C0D0E0F10111213141516D5
:100340001718191A1B1C1D2F3130232D35040506D3
:100350000708090A0B0C0D0E0F10111213141516B5
:100360001718191A1B1C1D2F3130354C00000000C6
:10037000000000000000000000000000000000007D
:10038000000000000000000000000000000000006D
:100390007E0F00D4FFFFFFC7000000780E034B0064
:1003A000720074006B00750073000000120373008C
:1003B00077006900660074003500300032000000EC
:1003C0000403090409025B00030100A0FA09040008
:1003D000000103010100092111010001224400076D
:1003E000058103080001090401000203000000095F
:1003F00021110100012222000705820320000107CC
:1004000005030320000109040200010300000009A4
:10041000211101000122B60007058403200001120A
:1004200001000200000008424A1616000101020005
:10043000010660FF0961A1010962150026FF009510
:1004400020750881020963150026FF0095207508B4
:100450009102C005010902A10185020901A100055F
:100460000919012908150025019508750181020562
:1004700001093009311581257F950275088106092A
:10048000381581257F950175088106050C0A38020B
:100490001581257F950175088106C0C00501098079
:1004A000A101850319012AB700150126B70095019E
:1004B00075108100C0050C0901A101850419012AEC
:1004C000A002150126A002950175108100C005014A
:1004D0000906A1018506050719E029E71500250190
:1004E0009508750181020507190029EF15002501FE
:1004F00095F0750181020508190129059505750119
:100500009102950175039101C005010906A101053C
:100510000719E029E7150025019508750181029565
:1005200001750881010507190029FF150026FF0044
:100530009506750881000508190129051500250192
:10054000950575019102950175039101C000112473
:100550001FBECFEFDAE0DEBFCDBF11E0A0E0B1E01B
:10056000EAECFCE402C005900D92A83AB107D9F775
:1005700022E0A8EAB1E001C01D92AB3CB207E1F76E
:100580000E942A120C94FE250C9400000F931F93D6
:10059000CF93DF93EC018B010E94E90B982F9272AD
:1005A000C630D10529F1C1152EE7D20761F0C5305B
:1005B000D10539F5F8018581882319F1923209F5C1
:1005C0000E949C030AC0F80125812223D1F0817189
:1005D000882349F088EA0E94220580E0DF91CF91CC
:1005E0001F910F9108958AEA9923A9F389EAF3CF1D
:1005F000F8018581882329F0923219F40E94B70D01
:10060000ECCFB801CE010E942903E8CF8430B8F4C2
:100610006630A8F44C3098F4E42FF0E09CE0699F39
:10062000E00DF11D112498E4899FE00DF11D1124C6
:10063000EE0FFF1FE455FF4F85919491089581E0DF
:1006400090E0089581E008950E942203089581E0DA
:1006500008950E942203089508950E942C0308958E
:10066000A6E0B0E0E6E3F3E00C945A2549835A8310
:100670009E833091AF0189819A8131111AC03E81E8
:10068000332399F0222389F00E94AE08182F682F97
:1006900089819A810E948A0869817A81812F0E94CA
:1006A000D10F2696E3E00C9476250E949C08182F23
:1006B000F3CF0E94AE0869817A81F1CFFC01262F29
:1006C0004081518162817381848195810E943003D0
:1006D0000895CF93DF93D82FC92F61E00E945E0366
:1006E0006D2F7C2F0E942403DF91CF910895CF932B
:1006F000DF93D82FC92F60E00E945E036D2F7C2FFF
:100700000E942D03DF91CF91089581E008950E940A
:1007100085030895CF93C82F0E947E078C2F0E94D7
:1007200087032FEF84E39CE0215080409040E1F765
:1007300000C00000CF91089581E00E948A030E94CA
:10074000EF1D089580E00E948A030E94001E089514
:100750000F931F93CF93DF938C0161E00E945E03A0
:10076000EC01B8010E94F219882309F442C0B801D3
:10077000CE010E94C6028823E1F1B801CE010E9499
:1007800000198823B1F1B801CE010E9425148823F5
:1007900081F1B801CE010E94FA13882351F1B8010A
:1007A000CE010E944119882321F1F8018581882317
:1007B00081F0CA35FCE7DF0739F178F4C130ECE7A6
:1007C000DE07F9F0C330FCE7DF07C9F0C115DC47ED
:1007D00071F0C8010E9427030DC0CB35ECE7DE079E
:1007E000B1F0CC35DC47A9F70E94000DF2CF0E9492
:1007F0009C0380E0DF91CF911F910F9108950E949B
:10080000120D0E94A203F5CF0E940A0DE2CF0E94B2
:100810000E0DDFCF0E940F1D0E942A0408950E9432
:100820002E040E94141D089581E008950895CF9329
:10083000DF93D82F0E941404C82F882319F08D2F1E
:100840000E9416048C2FDF91CF91089508950E9485
:100850001704089580E00E94270408950E944B1B0E
:100860000E9427040895CF930E944B1BC82F8091AC
:10087000AA018C1779F0C093AA010E949F1D609372
:10088000AB017093AC018093AD019093AE018C2FBE
:100890000E942704CF910895ADE0B0E0E2E5F4E0D6
:1008A0000C945B25488759876A877B878C879D874F
:1008B00091110E940B0C1F8286E0FE013896DE012A
:1008C000119601900D928A95E1F78D8181110DC0ED
:1008D00029813A814B815C816D817E818F810E946B
:1008E000510B2D96E2E00C947725CE0101960E94E3
:1008F00069038111EDCFF5CFFC018481813021F4B2
:10090000808191810E94D7080895662329F00E9472
:1009100093150E94541608950E94DC15FACFCF93C8
:10092000C82F882399F08CEF8C0F813A88F48C2F94
:100930000E94EE1B882329F08C2F0E94931C0E949A
:10094000A30C8C2F0E947C1C0E94A30CCF910895B5
:1009500080E28C0F883048F4C77081E001C0880FB6
:10096000CA95EAF70E94EC0BEFCF8BE58C0F833032
:1009700038F42C2F2452330BC9010E94811BE6CF7F
:10098000E8E5EC0FEB3150F4F0E0EE0FFF1FE65E10
:10099000FE4F808191810E94A71BD8CF83E38C0FEB
:1009A0008331A0F661E08C2F0E948504CFCF88238D
:1009B00081F19CEF980F913A28F40E94931C0E94B9
:1009C000A30C089590E2980F983050F4877091E04E
:1009D00001C0990F8A95EAF7892F0E94F20BEFCF99
:1009E0009BE5980F933028F480E090E00E94811BF3
:1009F000089598E5980F9B3128F480E090E00E94DC
:100A0000A71B089593E3980F933118F460E00E94B8
:100A1000850408951F93CF93DF93182FEB010E9455
:100A20008F04209739F4812F0E94D704DF91CF9152
:100A30001F9108958FE99FE00197F1F700C0000032
:100A40002197EFCF60E070E0893311F460E570E04A
:100A50000E940A050895882321F00E94EC0B0E9451
:100A6000A30C0895882321F00E94F20B0E94A30C8E
:100A70000895A0E0B0E0EFE3F5E00C9455256C019B
:100A8000D62FC72FFC011581068102950F700E9499
:100A9000E10BE82E8823F9F0E12E1123E1F08C2FF1
:100AA000807F803461F080E28D0F8830F0F08C2FF1
:100AB000807E803221F4D230C0F00023B1F08091EA
:100AC000A10282FF12C082E00E94D30C0E94E10BBF
:100AD00091E0E82EE926EC2FE295EF70C03CB0F5EE
:100AE000F0E0E050FA4D0C943E25E12CF4CF0C2FB1
:100AF0000F70C03110F00295007F112399F0002390
:100B000059F080E28D0F883010F0D11107C0802F8E
:100B10000E94EC0B0E94A30C8D2F51C0802F0E94CD
:100B2000FD0BF8CF8D2F0E94D704002379F080E2CF
:100B30008D0F883010F0D11104C0802F0E94F20B6D
:100B400003C0802F0E94030C0E94A30CEE2089F0AA
:100B50000E94DD0B80FD0DC0F60115820E94D70BAF
:100B60000E94F807C6010E9445070E94D70B0E9409
:100B70000408CDB7DEB7E8E00C947125FC2FFF70B8
:100B8000FF2EC07FC03219F0F29480EFF822DD23EF
:100B900041F0D130D1F1112309F444C00023F1F028
:100BA000BBCF8091A10282FD15C0112359F0FF2017
:100BB00029F08F2D0E94EC0B0E94A30C80E00E9474
:100BC0008F04C4CF80E00E94D704FF2009F4BECF79
:100BD0008F2DB4CF112369F0011104C08F2D0E9415
:100BE0002B05B4CF013009F0B1CF8F2D0E94230C1B
:100BF000ADCF0111ABCF8F2D0E9432058F2D0E94FA
:100C00002F0C8F2D0E94120CA1CF112321F0063042
:100C100008F09CCFE3CF053008F098CF8F2D0E94CD
:100C2000320594CF0023D1F3D93349F42FEF87EE67
:100C300093E0215080409040E1F700C000008D2FEC
:100C40000E94D70483CF8C2F869586958370882346
:100C500069F0813009F07ACF8D2F9C2F937011119C
:100C600002C080E090E00E94A71B70CF8D2F9C2FC8
:100C70009370111102C080E090E00E94811B66CF4A
:100C8000612F8D2F0E94850461CF8C2F837081117D
:100C900034C0111124C04D2F429546954770440F22
:100CA000440F8D2F8F70042E01C0880F0A94EAF72D
:100CB000D071DD2341F02FE030E001C0220F4A95D2
:100CC000EAF7D22FD095C695C695C3708D2BC2304A
:100CD00071F0C33079F0C13039F00E94D4070E941E
:100CE0004B1B0E94270432CF0E94CE07F8CF0E94F0
:100CF000DA07F5CF0E94CB07F2CF112339F1C0FFFD
:100D0000EECF4D2F429546954770440F440F8D2FDF
:100D10008F70042E01C0880F0A94EAF7D071DD238A
:100D200041F02FE030E001C0220F4A95EAF7D22FC0
:100D3000D095C695C695C3708D2BC23069F0C3306F
:100D400071F0C13031F00E942608C9CF823038F2EC
:100D5000D8CF0E942008C3CF0E942C08C0CF0E9489
:100D6000E607BDCFCF70112339F08C2F0E94F80712
:100D70008D2F0E942B05B3CF8D2F0E9432058C2F13
:100D80000E940408ACCFD23F31F170F4D03FB9F0EB
:100D9000D13FB1F1112309F44EC0002309F448C03A
:100DA0008D2F0E948F049BCFD33FE1F0D43F21F1E0
:100DB0001111F3CF01114DC08C2F8F71E1CF112391
:100DC00041F0053008F08BCF8C2F8F710E941408F2
:100DD00086CF0530F7CF8C2F8F711111D1CF0E94A4
:100DE000F8077DCF112329F08C2F8F710E94EF0718
:100DF00076CF0E94EB0773CF8091A10282FD06C0DF
:100E00008C2F8F71112309F4BBCFE9CF112331F05F
:100E100063E08C2F8F710E94B50C61CF81E00E943E
:100E2000D30C023008F45BCF82E00E94D30C57CF82
:100E30008C2F8F71D4CF002309F4BECFD93349F45E
:100E4000EFEFF7EE23E0E150F0402040E1F700C083
:100E500000008D2F0E94D70442CF0F931F93CF9392
:100E6000DF93EC01688179818D810E94E4088C0117
:100E70000E9432080E94CA07B801CE010E943905BB
:100E8000DF91CF911F910F910895CF93DF93EC01E4
:100E90008C81882399F0CE010E94A803811111C092
:100EA0000E94E10B882351F08D81882339F08091D5
:100EB000A10282FF03C082E00E94D30CDF91CF9198
:100EC0000895CE010E942D07CE010E947703F6CF30
:100ED00080E090E00E94811B80E090E00E94A71BD0
:100EE0000E940B0C0E94A30C0E9471160E945416C3
:100EF00008950E94AA1C0E94680708950E94FA0B98
:100F00000E9479070895282F92959F70963091F04E
:100F100060F4925F9F70923030F481E0203F79F06E
:100F200030F4283E30F080E008959A5FF3CF243FFC
:100F3000D1F7089581E0283EE0F3213FF9CF0895ED
:100F4000FC018481882339F0808191810E94D70837
:100F50000E948307089580E00895A6E0B0E0E3EBE7
:100F6000F7E00C945B252696E2E00C947725A7E049
:100F7000B0E0EDEBF7E00C945B252796E2E00C94F3
:100F8000772508950E94C10708950E94C2078093A3
:100F9000CC01089508950E94C50708959091CC0151
:100FA000892B0E94C50708959091CC0189230E9446
:100FB000C50708959091CC0189270E94C50708951F
:100FC0000E94C10708950E94E00708950E94E30768
:100FD0008093CB01089580E00E94E607089591E098
:100FE00001C0990F8A95EAF7892F0E94E6070895B4
:100FF00021E030E001C0220F8A95EAF78091CB0111
:10100000822B0E94E607089521E030E0A90102C08A
:10101000440F551F8A95E2F7CA0180959091CB0144
:1010200089230E94E607089521E030E001C0220FE5
:101030008A95EAF78091CB0182270E94E6070895FE
:101040009091CB01892B0E94E60708959091CB01E6
:1010500089230E94E60708959091CB0189270E9479
:10106000E607089508959B01677091E001C0990F0C
:101070006A95EAF763E0369527956A95E1F7B90135
:10108000660F771F260F371FFA01E20FF31F40E0AC
:1010900050E0682F70E08191DF0111979B01042ED1
:1010A00002C0369527950A94E2F7217021952827EA
:1010B000292328272C934F5F5F4F4330510559F761
:1010C00008959C01A82FA77083E0369527958A95EF
:1010D000E1F7C901880F991F820F931FFB01E80FE9
:1010E000F91F40E050E080E0219130E00A2E02C07C
:1010F000369527950A94E2F721703327042E01C014
:10110000220F0A94EAF7822B4F5F5F4F433051055D
:1011100059F70895282F862F963068F42C3058F40C
:10112000622F70E02CE0929F600D711D112440EB46
:1011300051E00E9433080895292F963068F48C30CE
:1011400058F490E060EB71E03CE0239F800D911D2E
:1011500011240E946108089580E00895A0E0B0E0A5
:10116000E4EBF8E00C9456257C010091CB018091D2
:10117000CC01082BC3E0D0E010E0C8010C2E02C067
:10118000959587950A94E2F780FD09C02197A8F705
:10119000D12C8D2DCDB7DEB7E7E00C947225DC2E77
:1011A000B7018C2F0E94DD0F019781F3F2CFCF930F
:1011B000DF93D82FC92F0E94AE086D2F7C2F0E947D
:1011C000DD0FDF91CF9108951F93CF93DF93162FFB
:1011D000D72F9091AF01992341F0862F972F0E942E
:1011E000D708DF91CF911F910895882381F0862F32
:1011F000972F0E94AE08C82F682F812F9D2F0E9425
:101200008A08612F7D2F8C2F0E94DD0FEACF862F59
:10121000972F0E949C08C82FF4CFE1E0F0E0DF0197
:1012200002C0AA0FBB1F6A95E2F7BD01DF0102C031
:10123000AA0FBB1F4A95E2F76A2B01C0EE0F2A9551
:10124000EAF7962F9823961302C08E2B0895E09507
:101250008E230895242F462F682F8091CB010E9462
:101260000D090E94E60708950F931F93CF93E09115
:10127000CD01C7E08091CE018E1304C0CF911F91A4
:101280000F9108950E2F10E0CE9FF0011124E1532D
:10129000FE4F208131814281538164817581868135
:1012A0000E94B707F8013196E770E4CF209107025A
:1012B000309108024091090250910A0260910B029C
:1012C00070910C0280910D020E94B70708958091E1
:1012D0000D02803178F480910C02882359F0E0915E
:1012E000CD012091CE01309108024091070257E0D4
:1012F0002E1301C008956E2F70E05E9FF00111243F
:10130000DF01A153BE4F14968C911497882361F18D
:1013100011968C911197831327C08C91841324C04C
:1013200015968C91159781111FC012968D919C91E5
:10133000A0910902B0910A028A1B9B0B883C91057F
:1013400098F480910D028F70806180930D02EB52B2
:10135000FE4F80818F708061808387E092E00E94E1
:1013600045070E9434090895FB013196E770C0CF0C
:10137000E091CD019091CE0127E0E91302C080E019
:101380000895AE2FB0E02E9FF0011124E153FE4FDF
:101390003181361306C03081381303C035813413D0
:1013A00004C0FD013196E770E8CF81E008958F9287
:1013B0009F92AF92BF92DF92EF92FF920F931F9393
:1013C000CF93DF93CDB7DEB72D970FB6F894DEBF7E
:1013D0000FBECDBF8C0186E0F801DE0118960190AA
:1013E0000D928A95E1F7F801E080F580A280B38044
:1013F000848197E0892E92E0992E90910B029111B1
:101400001BC0882309F4FCC0FF2009F43DC1C801BA
:101410000E94A007882309F437C187E0F801D401AE
:1014200001900D928A95E1F7C4010E947C040E940C
:1014300067090E945609E4C0D0900C02209109026D
:1014400030910A02A501421B530BDD2009F4DBC0D9
:10145000483C510508F0A6C0882309F4D1C09091FA
:101460000802918080910D02803108F06BC09912C2
:1014700028C0909107029E1124C0F1105DC08F70AA
:10148000806180930D020E94560987E092E00E94DD
:10149000450780910D02F8018683F12C8F2D2D9642
:1014A0000FB6F894DEBF0FBECDBFDF91CF911F9175
:1014B0000F91FF90EF90DF90BF90AF909F908F9033
:1014C0000895F11039C040E0692D8E2D0E94B809B1
:1014D00040E0692D8E2D0E94B809F82E8111DDCFD4
:1014E000888599850E94D708292F22952F709034DE
:1014F00050F49F70223080F0992399F0F801968182
:10150000903178F4CBCF2A5F2F70223078F0C80169
:101510000E944507FD2CC2CF992319F0882309F4B6
:10152000BDCF805E883008F4B9CFF1CF803F08F49A
:10153000B5CF815F8230F7CF80910D0281608093BB
:101540000D02ABCF991207C0909107029E1103C004
:10155000FF2009F479C0C8010E94A007882309F47C
:1015600093C0FF2009F490C080910D02803288F072
:1015700020910702309108023A832983BC82AB8212
:1015800090910B029D831E828F83CE0101960E9453
:10159000450787E0F801A7E0B2E001900D928A9537
:1015A000E1F745CF90910D029031A0F4488559851F
:1015B0006A857B858C859D850E94AD0787E092E0DA
:1015C0000E94450787E0F40111928A95E9F70E948D
:1015D000560963CF8823A1F0209108028181281346
:1015E000BACF809107028E11B6CFF110B4CF968397
:1015F000C8010E94450787E0F40111928A95E9F736
:10160000FF24F3944BCF483C510508F041C0882398
:10161000B9F3FF20C9F190910802818198132AC083
:10162000809107028E1126C080910D0280FD19C0A5
:101630008031B8F08683807F803F39F08681982F93
:10164000907F905F8F70892B8683C8010E94450729
:1016500087E0F801A7E0B2E001900D928A95E1F7EA
:10166000E8CE87E0F801A7E0B2E001900D928A95FC
:10167000E1F7C6CFC8010E94A00781118ACF8091EF
:101680000D02816080930D02C8010E944507B8CF0A
:10169000488559856A857B858C859D850E94AD0727
:1016A00091CFAEE0B0E0E7E5FBE00C945A25288747
:1016B00039874A875B876C877D878E87CE0108963E
:1016C0000E94D7098823B1F06C85662341F02885F4
:1016D00039854A855B857D858E850E94B70717E031
:1016E0008091CD019091CE0189133EC02E96E3E00A
:1016F0000C94762587E0FE013896DE011196019064
:101700000D928A95E1F72091CE014091CD018C8513
:10171000882329F330E0C90101968770992750E0AA
:101720008417950799F097E0929FD001939FB00D91
:101730001124A153BE4FFE01319601900D929A954E
:10174000E1F78093CE010E943409C9CF0E947E0741
:101750001092CE011092CD0187E0E7E0F2E0DF01C8
:101760001D928A95E9F7BBCF189FC00111248153C0
:101770009E4F0E94D709882309F4B8CFE091CD018C
:101780001E9FF0011124E153FE4F208131814281DF
:1017900053816481758186810E94B7078091CD0154
:1017A00090E00196877099278093CD0199CF809121
:1017B00036028695869586950895809136028770C3
:1017C000089590913602977081E0911101C080E0F8
:1017D000089580916202089590916202982B9093EF
:1017E00062020895982F90958091620289238093D8
:1017F0006202089510926202089590916102982BFE
:10180000909361020895982F9095809161028923A9
:1018100080936102089510926102089508950E94D4
:101820000E0C089590913702292F2823222331F09E
:1018300080958923809337020E940F0C08950895A4
:101840000E941F0C089590913802292F28232817F1
:1018500029F0982B909338020E94200C08959091C3
:101860003802292F2823222331F080958923809361
:1018700038020E94200C089580913802882329F0B4
:101880001092380280E00E94200C0895CF93DF93DD
:10189000C091620280916102C82BD0913802DD2391
:1018A00031F00E94CD1B81110E943C0CCD2B8C2F5E
:1018B000DF91CF910895CF93DF93C0910201D09132
:1018C00003010E94460C8883C0910201D09103015C
:1018D00048E050E06EE272E0CE010E949625892B2E
:1018E00059F088E0FE01AEE2B2E001900D928A95D7
:1018F000E1F7CE010E94581BDF91CF910895CF935D
:10190000DF93C0910001D09101010E94460C8983B0
:10191000C0910001D091010140E250E06EE072E020
:10192000CE010E949625892B59F080E2FE01AEE09F
:10193000B2E001900D928A95E1F7CE010E94631BFF
:10194000DF91CF91089580911901882339F080911A
:10195000A00287FF03C00E947F0C08950E945B0CC9
:10196000089508950E94B10C08959091A10292FFEC
:1019700011C098E0899F90011124622B6093360278
:101980000E94F807809136028695869586950E947A
:10199000B20C08950E94F80708951092360280E074
:1019A0000E94B20C0895909136028095892380930D
:1019B0003602282F277021110DC0891759F09091F8
:1019C000A10292FF07C08695869586950E9404081D
:1019D0000E94CD0C08959091A10292FB222720F93C
:1019E000281769F080FB92F99093A1028091A002E0
:1019F0009091A1020E94340D82E00E94D30C0895C0
:101A00008091A10282FB882780F991E089270E94BA
:101A1000EB0C089581E00E94EB0C089580E00E9499
:101A2000EB0C08956FEF7FEF80E090E00E94E825D7
:101A3000089580E090E00E94B425853E9E4F19F401
:101A40000E947C19089580E0089582E090E00E9451
:101A5000AC25089583E090E00E94AC25089584E0D1
:101A600090E00E94B4250895BC0184E090E00E94BB
:101A7000E8250895AB01BC018FE090E00E94DC25D1
:101A80000895AB01BC0183E190E00E94DC2508953C
:101A900060E070E0CB010E94410D089560E070E0CD
:101AA000CB010E943A0D0E94480D0895A8E0B0E0D5
:101AB000ECE5FDE00C945B2565EE7EEF80E090E0C8
:101AC0000E94E82560E082E090E00E94CA2581E063
:101AD0008093CC0161E083E090E00E94CA2560E041
:101AE00074E184E090E00E94E82560E086E090E008
:101AF0000E94CA2560E087E090E00E94CA2540E08D
:101B000050E0BA0188E090E00E94DC2560E083E2CA
:101B100090E00E94CA2560E08CE090E00E94CA2517
:101B200060E08DE090E00E94CA2519821A821B8233
:101B30001C821D821E821F82188648E050E067E1E9
:101B400070E0CE0101960E94BA2540E050E0BA0153
:101B50008FE190E00E94DC2580E00E9495190E94B0
:101B6000D4190E944E0D2896E2E00C9477250E942D
:101B7000560D0895682F8EE090E00E94CA250895C2
:101B8000A6E0B0E0E6ECFDE00C9459250E94931D20
:101B90008C0180916302909164028017910779F023
:101BA00019821A820E94931DBC0149815A8180E0EA
:101BB00090E00E944C041093640200936302269606
:101BC000E4E00C9475250E949F1D6093750270934C
:101BD00076028093770290937802609371027093FB
:101BE0007202809373029093740208950895089589
:101BF0000E94F60D089508950E94FB0D089585ED4D
:101C000090E10E9441120E94F70D0E94F80D089584
:101C100081E008950E94080E08950E94080E08951C
:101C2000089508950E94100E0E94110E08950E94BA
:101C3000190D811102C00E94B70D0E94250D8093DD
:101C400079020E942F0D9093A1028093A0020E941E
:101C500064120E942A0D0E94CB078091CB010E9442
:101C6000E30708950E948A1D0E94E4190E949211C0
:101C70000E94170E0E9426040E94FC0D0895A6E003
:101C8000B0E0E5E4FEE00C944F250E940A0E8111BD
:101C90000AC00E94C00D0E9492160E94330426962C
:101CA000EEE00C946B250E94A81125E6822E22E01E
:101CB000922E640110E0F601E190F1906F01812F06
:101CC0000E94DF101F5F163009F44DC0E816F906B8
:101CD00091F38091790281FD0E94E8100E940D0E1F
:101CE000782EF12C662463948F2D0E94DF108C01D6
:101CF000F401A190B1904F018A159B0569F1A826C6
:101D0000B926E12CCC24C394D12CC5018C219D2172
:101D1000892BC1F07720B1F0E982FA820E94931DED
:101D20009C838B836D8221E0C8018C219D21892BAE
:101D300009F420E049815A816B817C818D81922F49
:101D40000E944C04E394CC0CDD1CFCE0EF12DDCFD0
:101D5000F401329711830083F39486E0F812C4CF24
:101D60000E94E30D98CFE816F90609F0B2CF91CFA3
:101D70001F93CF93DF930E94E20FEC01811522E5C0
:101D8000920708F053C0811540E5940708F0DDC0C4
:101D9000803E9105F8F48D3C910508F0AEC0883A7C
:101DA000910580F4853A910508F099C0813091053C
:101DB00021F00497813A910550F4CE01DF91CF9143
:101DC0001F910895885A91094B9708F48BC0C0E081
:101DD000D0E0F3CF811550E49507F8F4C11580E207
:101DE000D80708F0CBC0C83ED10538F3CE019A958C
:101DF00081159F4160F78D2F0E948610182FCE010C
:101E000099270E94E20F212F30E0322F2227E9018B
:101E1000CC27DF71C82BD92BD0CF99270E94E20F96
:101E2000CC27DF70C82BD92BD06AC7CF803842E5CA
:101E30009407C8F5803652E5950708F067C0C034AE
:101E400082E5D807B0F08C2F86958695877020E2C2
:101E5000829FC0011124C37021E030E0A90102C0BB
:101E6000440F551FCA95E2F7EA01C82BD92BDC684D
:101E7000A4CFC03252E5D50708F041C08C2F86951B
:101E8000869520E2829FC0011124C37021E030E0DA
:101E9000A90102C0440F551FCA95E2F7EA01C82BF9
:101EA000D92BDD688ACF803C52E5950760F48F71AD
:101EB000C03AD24508F03FC090E0982F8827EC0147
:101EC000C46FD06A7ACF805C9245809708F07FCF4C
:101ED000DC2FCC27CC27DF71C06FD06A6ECFA497E0
:101EE000D0646BCFC85AD0E0CC0FDD1FC05BDE4F93
:101EF0000990D881C02DD46460CFD0655ECFCF71FA
:101F0000D0E0DC2FCC27C16FD06A57CF869586955D
:101F1000877020E2829FC0011124C37021E030E06D
:101F2000A90102C0440F551FCA95E2F7EA01C82B68
:101F3000D92BDA6842CF0E948610C82FD0E0DC2F60
:101F4000CC27CC27DF71D06238CF8F710E948610EA
:101F500065E0D695C7956A95E1F7CF70D0E0DC2FA4
:101F6000CC27282F30E084FF05C054E0220F331F18
:101F70005A95E1F7C22BD32BD0691FCF8D2F8F71CC
:101F80000E948610182FCE0199270E94E20F212F60
:101F900030E0322F222722273F71282B392BE901ED
:101FA000D2CF462F672F763028F44C3018F40E9499
:101FB0001813089580E090E008950E94D10F0E94C8
:101FC000B80E0895803E9105D1F1C8F48133910592
:101FD00009F47FC048F48932910509F46FC08A3250
:101FE000910509F47DC0089589339105E1F08238A7
:101FF0009105C9F08533910509F45BC00895843ECD
:102000009105D1F148F4823E910531F1833E91056D
:1020100041F181EE90E00895863E9105C1F1873E41
:102020009105E1F108952091A0022370211165C06E
:102030002091A10223FF14C089E290E0089520912D
:10204000A00220FD43C03091A10230FF09C024FF4F
:102050004EC080E090E008952091A00222FDF7CFCD
:1020600008952091A00222FD45C03091A10230FDCB
:1020700044C024FFF5CFEDCF2091A10221FFF0CF86
:102080008091A00284FDE5CF87EE90E00895209135
:10209000A00223FFE5CF24FDDCCFF6CF2091A002E4
:1020A00023FD2EC03091A10231FFE3CF84EE90E0FA
:1020B00008952091A00225FFD3CFBECF2091A0028A
:1020C00025FD21C02091A10223FFCACF89E390E022
:1020D00008952091A00226FFC3CF8AE290E00895E0
:1020E0002091A00226FFBCCF81E390E0089583EE0B
:1020F00090E0089582EE90E0089580EE90E00895DB
:1021000086EE90E0089585E390E0AACF9091A0023A
:1021100092FF10C041E0282F2471243009F040E0E4
:1021200031E0282F2871283009F030E0431711F0F2
:102130002CE0822793FF10C041E0282F2471243126
:1021400009F040E031E0282F2871283109F030E013
:10215000431711F02CE082273091A10230FF10C00C
:1021600051E0282F2171213009F050E041E0282F63
:102170002871283009F040E0541711F029E0822737
:1021800031FF10C041E0282F2171213109F040E0DA
:1021900031E0282F2871283109F030E0431711F081
:1021A00029E0822794FD877E089580E008950895B0
:1021B0000E94D710089508950E94DB100895E82F1B
:1021C000F0E0EE0FFF1FE255FD4F808191810895F1
:1021D000089580EA8A95F1F7089500C008950E9455
:1021E000E9100895F894E82FE295EF70F0E041A12E
:1021F0008F7021E030E0B90102C0660F771F8A9529
:10220000E2F7CB01962F9095942391A392A1892B6D
:1022100082A3789408950F931F93CF93DF93C2E91D
:10222000D1E089918F3F11F00E94F21081E0C8390E
:10223000D807B9F7C6E8D1E002E911E089918F3FEC
:1022400011F00E94F2100C171D07C1F7DF91CF911A
:102250001F910F910895A0E0B0E0E1E3F1E10C944B
:102260005425EC01B62E062F10E0C8018E569E4F65
:102270007C01FC0180818F3F09F44FC0F894E82F66
:10228000E295EF70F0E091A18F7021E030E001C0A5
:10229000220F8A95EAF7892F822B81A382A12095AC
:1022A000282322A378940E94ED10E6E8F1E041E0B3
:1022B00050E0C12CD12C21912F3F89F0A22FA29563
:1022C000AF70A05EB0E08C9190E02F7002C0959549
:1022D00087952A95E2F781709A01882311F020E012
:1022E00030E0C22AD32A440F551F81E0E239F807B3
:1022F00011F7F70180818F3F11F00E94F21061E029
:10230000C114D10409F460E08B2D0E94EF10000F7E
:10231000111FC00FD11FD982C882CDB7DEB7E9E047
:102320000C9470250E940B118CE0EEEAF2E0DF01C4
:10233000982F1D929A95E9F7E2EAF2E0DF011D92EB
:102340008A95E9F786E00E94E5110E94D810089569
:10235000ACE0B0E0EEEAF1E10C945825FE013196D4
:102360008CE0DF011D928A95E9F710E0FE2E0F2F19
:10237000612F8F2D902F0E942B111F5F1630C1F7F8
:102380004CE050E06F2D702F82EA92E00E9496257B
:1023900021E0892B81F420E046E06EEA72E082EAD7
:1023A00092E00E94E611182F0E94DC10812F2C96DB
:1023B000E5E00C9474258CE0EF2DF02FA2EAB2E05A
:1023C00001900D928A95E1F7E7CF0895A0E0B0E083
:1023D000ECEEF1E10C945525D82EE92EF62ED72FF0
:1023E000042FC22F222379F081E080937C020E9487
:1023F000931D90937B0280937A0280E0CDB7DEB785
:10240000E8E00C947125C0907C02CC20B1F380915F
:102410007A0290917B020E94BC1D059770F310E038
:10242000000F111FA8016D2D7E2D8F2D9D2F0E9455
:102430009625892B41F0A8016D2D7E2D8F2D9D2F86
:102440000E94A325CC2D10927C028C2FD7CF0E9406
:102450003F0E08950E942C1D0E949A1F0E94FF0D9E
:102460000E94B41F0E94320E0E94C11F0E94C61F0C
:102470000E9427120E94E01F0E94681E0E94120EF6
:10248000F5CF9093A9018093A80108950E94120DA1
:10249000089580E00E94DF10817008950E94A811C5
:1024A0002FEF86E791E0215080409040E1F700C097
:1024B00000000E94A8110E944912882321F00E9466
:1024C00046120E94EF1D08950E944E12089584E066
:1024D000089550E0440F551F98E1699F400D511D2C
:1024E000112490E9899F400D511D1124CA0188963D
:1024F00008950F931F93CF93DF938430C8F4663011
:10250000B8F44C30A8F40E9469128C010E94AC25EA
:10251000C82FD0E0DC2FCC27C80101960E94AC2543
:102520009E01282BC901DF91CF911F910F91089532
:1025300080E090E0F8CF0F931F93CF93DF93122F9B
:10254000032F843078F4663068F44C3058F40E94DD
:102550006912EC01602F0E94CA25612FCE010196FD
:102560000E94CA25DF91CF911F910F9108951F936B
:10257000CF93DF93D0E0C0E011C0412F6C2F8D2F9F
:102580000E9406039C01412F6C2F8D2F0E949B12ED
:102590001F5F1C3091F7CF5FC63011F010E0EDCF18
:1025A000DF5FD43041F7DF91CF911F910895EF9213
:1025B000FF920F931F93CF93DF938C01EA017A016F
:1025C000E60EF71ECE15DF0529F4CDB7DEB7E6E03F
:1025D0000C947325003482E0180740F4C8018896F3
:1025E0000E94AC2589930F5F1F4FECCF80E0FACF9C
:1025F000EF92FF920F931F93CF93DF938C01EA0129
:102600007A01E60EF71ECE15DF0529F4CDB7DEB749
:10261000E6E00C947325003482E0180728F4688102
:10262000C80188960E94CA2521960F5F1F4FEBCFE5
:10263000843038F4663028F44C3018F40E94791253
:10264000089580E090E0089580E1089588E991E0A0
:102650000895EF92FF920F931F93CF93DF938C0116
:10266000EA017A01E60EF71ECE15DF0529F4CDB793
:10267000DEB7E6E00C947325083981E0180748F4CA
:10268000C80188599D4F0E94AC2589930F5F1F4F49
:10269000EBCF80E0FACFEF92FF920F931F93CF938F
:1026A000DF938C01EA017A01E60EF71ECE15DF05F5
:1026B00029F4CDB7DEB7E6E00C947325083981E044
:1026C000180730F46881C80188599D4F0E94CA25B7
:1026D00021960F5F1F4FEACFCF93DF93C8E6D2E07A
:1026E00060E0CE010E94CA252196C11584E0D8077A
:1026F000B9F7DF91CF910895A8E0B0E0E2E8F3E107
:102700000C945525F82E2FE0281708F46FC08FEF92
:1027100093E00E94AC25811169C008E612E0F11037
:1027200038C01A821982FE01339686E0DF011D92BD
:102730008A95E9F76801BFEFCB1ADB0AC8010E944E
:10274000AC2589831A82882309F450C08130D1F4E2
:10275000780122E0E20EF11CC6010E94AC258A83BA
:10276000882309F443C09FEF980F9330F8F4680171
:1027700083E0C80ED11CC7010E94AC258B8388233F
:10278000A9F11C8260E0CE0101960E942618860104
:10279000D1CF011584E0180749F1C8010E94AC258A
:1027A0000F5F1F4F8111F5CFFA94B9CF8430B9F480
:1027B00002E010E0C701AFEFEA1AFA0A0E94AC2566
:1027C000E1E0F0E0EC0FFD1FE00FF11F80838823B4
:1027D00069F08C3731F4FE01E00FF11F12826701BE
:1027E000D1CF0F5F1F4F0730110521F72896E8E082
:1027F0000C947125CF93DF93EB0186319C4719F53B
:102800000E94E90B9D819923A1F08A7A91E08111C0
:1028100001C090E090937D02882349F085E30E94F7
:102820007C1C0E94A30C80E0DF91CF91089589E287
:10283000F6CF80917D02882321F085E30E94931CCE
:10284000F0CF89E2FBCF81E0EFCFCF93DF93EC01B4
:10285000FB018581882309F4D2C09E0130572332C1
:10286000310508F0B2C00E942F0D9093A102809311
:10287000A002FE01E150F047E232F10520F4E45FEE
:10288000F94D0C943E258091A00281608093A002B6
:1028900093C08091A10288608093A1028DC0809135
:1028A000A0028260F3CF8091A0028460EFCF80917C
:1028B000A0028860EBCF8091A1028160EDCF809172
:1028C000A1028260E9CF8091A0028061DFCF809178
:1028D000A0028062DBCF8091A0028064D7CF0E94EB
:1028E0007E078091A0028068D1CF8091A0028C6089
:1028F000CDCF8091A1028360CFCF8091A0028E7F47
:10290000C5CF8091A102877FC7CF8091A0028D7F24
:10291000BDCF8091A0028B7FB9CF8091A002877F2D
:10292000B5CF8091A1028E7FB7CF8091A1028D7F1C
:10293000B3CF8091A0028F7EA9CF8091A0028F7D1E
:10294000A5CF8091A0028F7BA1CF0E947E078091AE
:10295000A0028F779BCF8091A002837F97CF809139
:10296000A1028C7F99CF8091A00282FB992790F9D8
:1029700021E0922790FB82F990FB83F987CF809129
:10298000A102982F909591708E7F892B90FB81F9F1
:1029900083CF9091A002892F8F7B96FF806476CFA2
:1029A0000E947E079091A002892F97FB87F980589B
:1029B0006DCF81E00E94BA0D8091A0029091A1029A
:1029C0000E94340D0E947E0780E0DF91CF91089530
:1029D00080E0F0CF9091A002892F8F7E94FF8061DC
:1029E00055CF9091A002892F8E7F90FF81604ECFAE
:1029F0009091A102892F877F93FF88604DCF81E05E
:102A0000E4CF282F35EB2303C001112497FF04C026
:102A100080589109892F089580589F4FFBCF80914E
:102A2000840280FF0DC06091090170E0660F771F7E
:102A300060387105C0F561157105B9F1862F0895EB
:102A400081FF07C06091090184E0689FB0011124F3
:102A5000EFCF82FF04C06091090188E0F6CF80913A
:102A600083028823E9F0909108016091090170E0E8
:102A7000891730F093E0660F771F9A95E1F7D8CF6A
:102A8000869F9001879F300D112483E0220F331F12
:102A90008A95E1F7692F70E0C9010E942A25C8CF05
:102AA00068E070E0CBCF8FE7089581E008958091D2
:102AB000840280FF0CC06091050170E075956795F8
:102AC000759567956115710561F1862F089581FFF0
:102AD00006C06091050170E075956795F3CF609130
:102AE000050170E082FD15C0209182022223B1F021
:102AF000909104016091050170E0291750F4269F20
:102B0000A001279F500D1124692F70E0CA010E9477
:102B10002A2560387105B0F28FE7089561E070E012
:102B2000D4CF81E00895E3E3E80FE331E0F5F0E08E
:102B3000E25DF94D0C943E250E940F15819580931E
:102B4000880208950E940F15FACF0E940F158195F3
:102B50008093870208950E940F15FACF0E9457159F
:102B60008093890208950E9457158195F9CF0E949C
:102B70005715819580938A0208950E945715FACFC0
:102B8000815D990B21E030E001C0220F8A95EAF7C0
:102B900080918602822B8093860208958091840220
:102BA0008160809384020895809184028260F9CFCD
:102BB000809184028460F5CF409187028D3C59F466
:102BC0008091880287FF0DC010928802442359F437
:102BD0001092830208C08E3C81F4809188021816FE
:102BE0009CF3442381F08091890290918A02892B81
:102BF000811159C01092820208958F3C41F447FF21
:102C0000F0CF10928702809188028823E0CF803D28
:102C100019F41416B4F3E5CF90918902893D29F493
:102C20001916FCF610928902DCCF8A3D19F497FF41
:102C3000D8CFF8CF90918A028B3D29F497FFD1CF5E
:102C400010928A02CECF8C3D19F41916CCF3C9CF5D
:102C50009FE2980F983090F4815D990B21E030E06D
:102C6000B90102C0660F771F8A95E2F7CB01809504
:102C700090918602892380938602B3CF8D3D31F4F3
:102C8000809184028E7F80938402ABCF8E3D21F4AD
:102C9000809184028D7FF7CF8F3D09F0A2CF809184
:102CA00084028B7FF0CF08950E94931D20918702AC
:102CB00030918802232B222321F08093800290936D
:102CC00081022091890230918A02232B222321F054
:102CD00080937E0290937F0285E892E00E94721BAF
:102CE000089586E0E5E8F2E0DF011D928A95E9F7B4
:102CF0001092830210928202109284020895FC01C5
:102D0000828181110DC0838181110AC0848181116A
:102D100007C081E09581911101C080E08170089524
:102D200081E0FCCFA6E0B0E0E8E9F6E10C9458259C
:102D300086E0E5E8F2E09E012F5F3F4FD901019068
:102D40000D928A95E1F710928702109288021092F4
:102D5000890210928A028B819C81892B89018823A8
:102D600091F080918002909181020E94BC1D9C0193
:102D7000809183028823C9F140910A0150E04217F3
:102D8000530708F43FC08D819E81892B882399F0D9
:102D900080917E0290917F020E94BC1D9C018091D7
:102DA0008202882309F467C04091060150E042176F
:102DB000530708F46EC0B80185E892E00E94C41C75
:102DC000811105C085E892E00E947F1681110E9462
:102DD000541686E0F801A5E8B2E001900D928A95BC
:102DE000E1F72696E5E00C94742540910B019AE0FA
:102DF000499FA00111244217530728F68F5F809343
:102E0000830202C08F3FD1F7FB80FF2059F00E9460
:102E10000F1591E01F140CF09FEF899F802D112456
:102E200080938702FC80FF2059F00E940F1591E0EB
:102E30001F140CF09FEF899F802D1124809388022E
:102E400080918702882309F49ECFF0908802FF20AA
:102E500009F499CF0E940115811101C081E080938E
:102E600087028F2D0E940115882319F08093880214
:102E70008ACF81E0FBCF409107019AE0499FA001F2
:102E800011244217530708F096CF8F5F8093820278
:102E900002C08F3FD1F7FD80FF2059F00E945715E7
:102EA00091E01F140CF09FEF899F802D11248093D7
:102EB0008902FE80FF2059F00E94571591E01F14EF
:102EC0000CF09FEF899F802D112480938A028091BE
:102ED0008902882309F46FCFF0908A02FF2009F459
:102EE0006ACF0E940115811101C081E0809389029F
:102EF0008F2D0E940115882319F080938A025BCFE1
:102F000081E0FBCFA0E0B0E0E8E8F7E10C945425C5
:102F1000E82FF0E0E451FD4FB490282F2695269538
:102F2000269530E0F901E457FC4F0491877010E0DA
:102F3000082E02C0159507950A94E2F70170112733
:102F4000F901E458FC4FE490F12C082E02C0F594EE
:102F5000E7940A94E2F791E0E922FF24F901E459A9
:102F6000FC4FC491D0E002C0D595C7958A95E2F791
:102F7000C170DD27C62ED12C0115110549F5E114CC
:102F8000F10431F086EE0E948F04C601009771F5BE
:102F9000B6018B2D0E940A05C601009779F5E11450
:102FA000F104A1F50115110531F081EE0E94D7045D
:102FB000C6010097C9F5CD2B31F08CE20E942205A5
:102FC000C114D104C9F5CDB7DEB7E9E00C94702582
:102FD00081EE0E948F04C601009789F2EFE9FFE0BD
:102FE0003197F1F700C000000197F6CFEFE9FFE05D
:102FF0003197F1F700C000000197C8CFEFE9FFE07B
:103000003197F1F700C000000197C7CF86EE0E940C
:10301000D704C601009731F2EFE9FFE03197F1F7ED
:1030200000C000000197F6CFEFE9FFE03197F1F71C
:1030300000C000000197BDCF8FE99FE00197F1F735
:1030400000C0000091E0C91AD108BACFEF92FF92F8
:103050001F93CF93DF93EC01162F8881882309F407
:103060005AC0813009F053C08981813071F47E01EA
:1030700082E0E80EF11C8A810E942205E701812F7F
:1030800090E00097E1F52196E8CF823041F47E018F
:10309000E2E0EE0EF11C8A810E948F04EFCF8330B4
:1030A00041F47E01F2E0EF0EF11C8A810E94D70408
:1030B000E5CF843011F02196E2CF2A81229680E07C
:1030C00090E06AE0AE014F5F5F4F2053330B2A3030
:1030D000310550F0009799F2EFE9FFE03197F1F7F1
:1030E00000C000000197F6CF689FF001699FF00DC6
:1030F0001124C9018E0F9F1F2981EA01E3CFEFE957
:10310000FFE03197F1F700C000000197BACF612FBF
:103110000E948217B8CFDF91CF911F91FF90EF905F
:1031200008950F931F93CF93DF93C42FD22FFC01E9
:1031300085818823C9F040938D020E94931D90934E
:103140008C0280938B0280E28C0F883040F4C77031
:1031500081E001C0880FCA95EAF70E942B05DF9134
:10316000CF911F910F91089510918D0214133CC0BF
:1031700080918B0290918C020E94BC1D883C91052D
:1031800098F5C0E2CD0F1D1741F180E2810F883024
:1031900040F4177081E001C0880F1A95EAF70E9489
:1031A0003205C83020F0802F0E942205D8CF91E050
:1031B0008D2F877001C0990F8A95EAF7892F0E9499
:1031C0002B05802F0E942205D77081E001C0880F57
:1031D000DA95EAF70E943205C2CF802F0E942205BD
:1031E000C83008F0BCCFF0CF80E28C0F883008F0F8
:1031F000B6CFC77081E001C0880FCA95EAF7EACF61
:103200000F93FC01CB01E851FC47E730F10590F545
:10321000EF5BF94D0C943E2506E221EE41EE6AE1AA
:103220007CE70E94911880E00F91089507E225EE57
:1032300045EE6BE17CE7F5CF06E221EE40EE68E17A
:103240007CE7EFCF07E225EE44EE69E17CE7E9CFCA
:1032500006E221EE42EE6CE17CE7E3CF07E225EEE9
:1032600046EE6DE17CE7DDCF08E221E045EE6EE160
:103270007CE7D7CFFB018581811110928D0281E01F
:10328000D3CFCF93DF939C01FB0127378CE738071F
:1032900039F028373C47F1F081E0DF91CF91089574
:1032A0008581882391F00E9473190E94F8070E947B
:1032B0007919D82F0E947619C82F0E9473194D2FA3
:1032C0006C2F0E942A0980E0E8CF0E9473190E94A7
:1032D0000408EDCF8581882319F00E947619E5CF87
:1032E0000E947619F4CF80910E01089580910D010E
:1032F000089580910C01089584E290E00E94AC252D
:10330000843289F485E290E00E94AC25823159F440
:1033100086E290E00E94AC2591E0833009F090E0D5
:10332000892F8170089580E0FCCF882381F064E2CA
:1033300084E290E00E94CA2562E185E290E00E946A
:10334000CA2563E086E290E00E94CA2508956FEFE7
:1033500084E290E00E94CA256FEF85E290E00E942F
:10336000CA256FEFEFCF0895A4E0B0E0EAEBF9E1F2
:103370000C945B2587E290E00E94AC25282F30E07A
:1033800040E050E0CA01B9012496E2E00C947725B0
:103390000895CF93C62F0E94C8196C2F87E290E042
:1033A0000E94CA25CF91089580E00E94951960E09F
:1033B00070E0CB010E94C9190E94B7120E946C13E1
:1033C00081E00E94951908950E94B3190E94B419D2
:1033D0000E94C8190E947C19811102C00E94D41950
:1033E000089508959C01FB018581882351F0A9016E
:1033F00057574038510530F4822F0E947C1380E0EB
:10340000089581E008952FEFFC01208308950E9424
:10341000031A089580E00895CF92DF92FF920F93F0
:103420001F93CF93DF93CDB7DEB72E970FB6F894E7
:10343000DEBF0FBECDBF8D839E83F62E8D819E8114
:103440000E940A1A811115C0AD81BE81EC91E15034
:10345000E33140F5F0E0E85BF94D0C943E25ED8159
:10346000FE8111828CE082836F2D8D819E810E946E
:103470005E1E2E960FB6F894DEBF0FBECDBFDF9155
:10348000CF911F910F91FF90DF90CF900895AD8164
:10349000BE8111968C91833099F148F4813081F08E
:1034A0008230E9F08FEFAD81BE818C93DDCF843027
:1034B000C9F7ED81FE811282138214821582D4CF66
:1034C0000E949F1D0E9444256F83788789879A8771
:1034D000ED81FE816283738384839583C5CF0E94CF
:1034E000B4190E9444256B877C878D879E87AD81A8
:1034F000BE8112966D937D938D939C931597B4CF57
:10350000ED81FE81028110E06F01B2E0CB0ED11C93
:10351000063011050CF0A8CF802F0E94DF10D601D5
:1035200011969C93119712968C930F5F1F4FEDCFBE
:10353000ED81FE818181823049F0853009F0B2CF82
:10354000ED81FE8182810E94F1198ECFAD81BE8115
:1035500012968D919D910D90BC91A02D89839A8397
:10356000AB83BC83BC01CD010E9444250E94C919D4
:103570007BCFAD81BE8113964C91139712966C91BF
:10358000129711968C910E94791298278927982773
:10359000ED81FE819583848367CFAD81BE811496D2
:1035A0002D913C91159732272327322713964C9162
:1035B000139712966C91129711968C910E949B1200
:1035C00053CF0E94B71250CF6F2D8D819E810E94E4
:1035D000071A4ACF0E942413ED81FE81818344CFD4
:1035E0000E942613982789279827AD81BE811296BD
:1035F0009C938E93119738CFED81FE81638170E0AB
:1036000081819281AF014C5F5F4F9827892798276E
:103610000E94291329CFAD81BE8113966C91139717
:1036200070E011968D919C911297AD014C5F5F4FA8
:103630009827892798270E944B1316CF0E946C1356
:1036400013CF0E946712C8CFAD81BE8113966C91D3
:10365000139770E011968D919C911297AD014C5F7C
:103660005F4F9827892798270E94D712FDCEED81BA
:10367000FE81638170E081819281AF014C5F5F4F79
:103680009827892798270E94F812EECE90939302EC
:10369000809392020895E0919202F0919302309704
:1036A00029F00190F081E02D0995089580E00895BA
:1036B000E0919202F0919302309721F00280F38121
:1036C000E02D09950895DC01E0919202F0919302BA
:1036D000309739F086E08C930480F581E02DCD01A0
:1036E00009950895DC01E0919202F09193023097E0
:1036F00039F082E08C930680F781E02DCD010995A9
:103700000895A3E0B0E0E7E8FBE10C945B259C01A1
:10371000809190029091910282179307A1F03093CB
:10372000910220939002E0919202F09193023097DF
:1037300051F083E089833B832A830084F185E02D67
:10374000CE01019609952396E2E00C947725A3E03B
:10375000B0E0EDEAFBE10C945B259C0180918E02C8
:1037600090918F0282179307A1F030938F022093DC
:103770008E02E0919202F0919302309751F084E032
:1037800089833B832A830084F185E02DCE01019655
:1037900009952396E2E00C9477252091020130915F
:1037A00003012E5F3F4F809119018823A9F080917A
:1037B000A00287FF11C020910001309101012E5F0E
:1037C0003F4F9DE180E0F90140812F5F3F4F411164
:1037D0008F5F9150C0F7089595E0F4CF882321F1D1
:1037E00090911901992311F19091A00297FF1EC0A9
:1037F000982F969596959695803FB0F4E0910001AC
:10380000F0910101E90FF11D228130E0877041E064
:1038100050E0BA0102C0660F771F8A95E2F72623AF
:10382000372381E0232B91F480E008952091020159
:1038300030910301F9013296285F3F4F919198171B
:1038400021F0E217F307D1F7EFCF81E008959C0153
:10385000FC0132968FEF90E04191461751F08F3F77
:1038600019F4411101C0892F9F5F9630A9F78F3F4E
:1038700009F40895280F311D87FD3A95F9016283F7
:1038800008959C01FC013296285F3F4F8191861379
:1038900003C0DF0111971C92E217F307B9F70895EF
:1038A000FC01862F869586958695603F60F4E80F2B
:1038B000F11D677021E030E001C0220F6A95EAF740
:1038C0008281822B82830895FC01862F86958695BE
:1038D0008695603F80F4E80FF11D677081E090E00D
:1038E0009C0102C0220F331F6A95E2F7B90160956F
:1038F0008281682362830895682F8091190188234B
:1039000059F08091A00287FF07C08091000190913B
:1039100001010E94501C08958091020190910301C1
:103920000E94271C0895682F80911901882359F05F
:103930008091A00287FF07C0809100019091010152
:103940000E94641C089580910201909103010E94DD
:10395000411C089580911901882379F08091A0027B
:1039600087FF0BC0E0910001F091010132968EE1DA
:10397000DF011D928A95E9F70895E0910201F09127
:103980000301329686E0F4CFDC01FB0111969C9195
:1039900011978181981322C012968C9112978823D7
:1039A00019F0928189131AC013968C91139788236A
:1039B00019F09381891312C015968C91159788235D
:1039C00019F0958189130AC014969C91992321F0CE
:1039D00081E02481291303C080E001C081E081706F
:1039E000089508950E94F11C08958F5F80939402BA
:1039F0000E94F21C089583E0809394020E94F21CBE
:103A000008950E94F51C089581E0809394020E941D
:103A1000F21C08950E94041D0895089508950E94BF
:103A20000E1D0895089508950E940D1D0895CF93C9
:103A30000E94121D0E94A8110E94131DC0E08C2F2D
:103A40000E94DF10892B31F4CF5FC630C1F780E0D0
:103A5000CF91089581E0FCCF85B7806885BF85B799
:103A6000806885BF08951F921FB61F9211248F93FF
:103A70009F93AF93BF9380919502811113C0809162
:103A8000BA029091BB02A091BC02B091BD024196D6
:103A9000A11DB11D8093BA029093BB02A093BC02FA
:103AA000B093BD02BF91AF919F918F911F901FBEA8
:103AB0001F9018958091C202843031F10E940A044F
:103AC0001092950288E190E020E40FB6F894A89552
:103AD000809360000FBE2093600083B7817F846075
:103AE00083BF83B7816083BF7894889583B78E7FC7
:103AF00083BF0FB6F894A895809160008861809389
:103B00006000109260000FBE08950E947E070E9420
:103B10000F04089582E084BD93E095BD9AEF97BDB0
:103B200080936E0008952FB7F8948091BA02909117
:103B3000BB02A091BC02B091BD022FBF0895A4E0CA
:103B4000B0E0E5EAFDE10C945B258FB7F894209195
:103B5000BA023091BB024091BC025091BD02298350
:103B60003A834B835C838FBF69817A818B819C818F
:103B70002496E2E00C9477259C014FB7F89480914D
:103B8000BA029091BB02A091BC02B091BD024FBF9E
:103B9000821B930B089578941F921FB61F921124D5
:103BA0008F939F93AF93BF938091BA029091BB0282
:103BB000A091BC02B091BD020196A11DB11D8093E0
:103BC000BA029093BB02A093BC02B093BD02BF9116
:103BD000AF919F918F911F901FBE1F90189587E7FF
:103BE00097E7909301088093000888E19AE00FB668
:103BF000F894A895809360000FBE90936000FFCF6B
:103C000088E19AE00FB6F894A895809360000FBE03
:103C100090936000FFCF80919E020895282FCB01E2
:103C2000BA013091C2023430E1F42F702093E900E0
:103C30002FEF3091E80035FD07C035ED3A95F1F7EB
:103C4000000021502111F5CF2091E80025FF09C087
:103C500040E050E00E9459208091E8008E778093E8
:103C6000E8000895BC0143E050E084E00E940E1E8D
:103C70000895BC0146E050E084E00E940E1E0895C5
:103C8000BC0140E250E084E00E940E1E0895CF93F4
:103C9000DF93D82FC92F48E050E0682F792F81E0BB
:103CA0000E940E1E88E0ED2FFC2FA6E9B2E00190E5
:103CB0000D928A95E1F7DF91CF910895792F6032C7
:103CC00031F440E250E0682F82E00E940E1E089519
:103CD000A0E2B0E0EEE6FEE10C945B258091C2022A
:103CE000843081F483E08093E9008091E80082FFD2
:103CF00009C08091E80085FD09C08091E8008B77BC
:103D00008093E800A096E2E00C94772540E050E034
:103D100060E270E0CE0101960E94A8208091E80048
:103D20008B778093E80060E2CE0101960E940C1A26
:103D3000E9CF8091C102811109C00E9430220E9406
:103D40008D228091E20084608093E20008951092B9
:103D5000C10208950E94041D08956091BE0281E091
:103D6000611101C080E00E94FB1C08959091C20285
:103D700081E0943009F080E06091BE020E94011D54
:103D8000089542E061EC81E00E94AC2142E261ECE6
:103D900084E00E94AC2142E261EC82E00E94AC210E
:103DA00042E260EC83E00E94AC219091C20281E08B
:103DB000943009F080E06091BE020E94F51C0895E5
:103DC0008091C402893089F148F4823009F4A1C09D
:103DD000833009F45BC0813041F008958A3009F4E2
:103DE00088C08B3009F46DC008958091C302813A78
:103DF00009F04BC08091E800877F8093E8008091B4
:103E0000C7029091C802892B61F060E080E090E0E9
:103E100070E00E94F7208091E8008B778093E800A3
:103E2000089568E086E992E0F3CF8091C302813281
:103E300061F58091C7029091C8028D7F892B29F589
:103E40008091E800877F8093E8008091E80082FFFE
:103E500018C09091F3008091F200029731F48091A4
:103E6000F100813011F0863021F48091F1008093CF
:103E70009E028091E8008B778093E8000E94E02109
:103E800004C08091C2028111E0CF08958091C302E5
:103E9000813AD9F78091C7029091C802892BA9F77E
:103EA0008091E800877F8093E8008091E80080FFA0
:103EB000FCCF809119018093F1008091E8008E770A
:103EC000DBCF8091C302813201F78091C7029091CC
:103ED000C802892BD1F68091E800877F8093E800A3
:103EE0000E94E0218091C502809319010E947E0703
:103EF00008958091C302813241F68091E800877F66
:103F00008093E8000E94E0218091C60280939F0286
:103F100008958091C302813A09F0B7CF8091E800FB
:103F2000877F8093E8008091E80080FFFCCF80913C
:103F30009F02C1CF84B7877F84BF0FB6F894A8953E
:103F400080916000886180936000109260000FBED5
:103F500080E890E00FB6F894809361009093610040
:103F60000FBE0E940A1D08950E9430220E948D22D9
:103F7000E2EEF0E080818460808378940E941025D6
:103F800008958FE091E00E94461B08958091C2023F
:103F9000853031F48091C202853019F00E94851D70
:103FA00008950E945A1D0E94171D882399F380913D
:103FB000C002882379F30E9443200E947E07EACF43
:103FC00008959A014091C9025091CA020E94E91FC6
:103FD0000895AC01CB01D901252F332723303105BA
:103FE00021F168F42130310509F443C02230310554
:103FF00009F444C080E090E020E030E024C02132A9
:10400000310551F122323105A9F78330910590F73E
:10401000FC01EE0FFF1FE556FE4F208131818856CF
:104020009E4FFC01808190E00EC0CA01992741306B
:1040300069F08230910569F0E0ECF3E0892BD1F66C
:10404000849190E09F012D933C930895ECEAF3E076
:10405000F7CFECE9F3E0F4CF8330910558F6FC019B
:10406000EE0FFF1FEF55FE4F2081318189E090E078
:10407000EACF82E190E02FE134E0E5CF8BE590E0FC
:1040800024EC33E0E0CF80E189BD82E189BD09B451
:1040900000FEFDCF8091D8008F7D8093D800809165
:1040A000E00082608093E0008091E00081FDFCCF21
:1040B0000895AF92BF92CF92DF92FF920F931F931A
:1040C000CF93DF936C01EB018A010E94FF21F82E50
:1040D000811123C00115110539F0F801808191810A
:1040E000C81BD90BC80ED91EA12CB12C2097A9F042
:1040F0008091E80085FD22C08091E8008E77809352
:10410000E80001151105A1F0F801808191818A0D67
:104110009B1D9183808385E0F82E8F2DDF91CF91B9
:104120001F910F91FF90DF90CF90BF90AF900895B7
:104130000E94FF218823E1F2F82EEFCFF601819152
:104140006F018093F1002197FFEFAF1ABF0ACECF26
:10415000AF92BF92CF92DF92FF920F931F93CF93B4
:10416000DF936C01EB018A010E94FF21F82E81117F
:1041700023C00115110539F0F80180819181C81B18
:10418000D90BC80ED91EA12CB12C2097A9F0809173
:10419000E80085FD22C08091E8008B778093E800DD
:1041A00001151105A1F0F801808191818A0D9B1DF7
:1041B0009183808385E0F82E8F2DDF91CF911F9121
:1041C0000F91FF90DF90CF90BF90AF9008950E9425
:1041D000FF218823E1F2F82EEFCF8091F100F60164
:1041E00081936F012197FFEFAF1ABF0ACECFFC0179
:1041F0009B018091C9029091CA028617970718F017
:10420000672B61F0C90140E0009771F441110CC0C7
:104210008091E80082FF35C080E008958091E80039
:104220008E778093E800EECF2091C2022223A9F17D
:104230002530A9F12091E80023FD2DC02091E80050
:1042400022FDE6CF2091E80020FFDECF3091F30081
:104250002091F200009719F02830310558F041E024
:104260002830310509F040E02091E8002E772093B6
:10427000E800CACF41914093F10001972F5F3F4F73
:10428000E9CF8091C202882341F0853041F08091CE
:10429000E80083FFBDCF81E0089582E0089583E0C8
:1042A0000895FC019B018091C9029091CA02861772
:1042B000970718F0672B61F0C90140E0009771F48F
:1042C00041110CC08091E80082FF36C080E0089563
:1042D0008091E8008E778093E800EECF2091C202B3
:1042E0002223B1F12530B1F12091E80023FD2EC049
:1042F0002091E80022FDE6CF2091E80020FFDECFEC
:104300003091F3002091F200009719F02830310528
:1043100058F041E02830310509F040E02091E800F4
:104320002E772093E800CACF44914093F100319654
:1043300001972F5F3F4FE8CF8091C202882341F061
:10434000853041F08091E80083FFBCCF81E0089583
:1043500082E0089583E00895982F973028F08F70B9
:104360008093E90081E008959093E900242F762F4F
:1043700050E0981731F07091EC002091ED005091D1
:10438000F00021FD02C09F5FE8CF3091EB003E7F3F
:104390003093EB003091ED003D7F3093ED00309194
:1043A000EB0031603093EB007093EC002093ED0054
:1043B0005093F0002091EE0027FDE5CF80E00895B6
:1043C0008091C30287FF13C08091E80082FF06C07E
:1043D0008091E8008B778093E80004C08091C2024E
:1043E0008111F2CF08958091C2028823D9F3809180
:1043F000E80080FFF8CF8091E8008E77ECCF209125
:10440000E4003091E50095E6A9018091EC0081700F
:10441000882331F08091E80080FF06C080E0089595
:104420002091E80022FD1BC08091C202882391F0F8
:10443000853091F08091EB0085FD10C02091E40063
:104440003091E5004217530701F391509111DCCFF1
:1044500084E0089582E0089583E0089581E008955E
:104460000E949F220E94A722E0EEF0E080818160FE
:104470008083E8EDF0E080818F77808319BCA7ED21
:10448000B0E08C918E7F8C9380818F7E80831092A0
:10449000C10208950F931F93CF93DF930E949F2231
:1044A0000E94A722C8EDD0E088818F778883888119
:1044B0008068888388818F7D888319BC1092C202AE
:1044C0001092BE021092C0021092BF0200EE10E0E5
:1044D000F80180818B7F808388818160888342E0BE
:1044E00060E080E00E94AC21E1EEF0E080818E7F10
:1044F0008083E2EEF0E0808181608083808188604B
:104500008083F80180818E7F8083888180618883A9
:10451000DF91CF911F910F910895E8EDF0E0808138
:104520008F7E8083E7EDF0E080818160808384E08E
:1045300082BF81E08093C1020E944A220895E8ED83
:10454000F0E080818E7F80831092E20008951092C7
:10455000DA001092E10008951F920F920FB60F92A9
:1045600011242F933F934F935F936F937F938F9378
:104570009F93AF93BF93EF93FF938091E10082FFEE
:104580000BC08091E20082FF07C08091E1008B7F29
:104590008093E1000E940F258091DA0080FF19C00E
:1045A0008091D80080FF15C08091DA008E7F8093C3
:1045B000DA008091D90080FF94C080E189BD82E15A
:1045C00089BD09B400FEFDCF81E08093C2020E9444
:1045D000991E8091E10080FF19C08091E20080FF68
:1045E00015C08091E2008E7F8093E2008091E2000E
:1045F00080618093E2008091D80080628093D8002F
:1046000019BC85E08093C2020E94AD1E8091E1003A
:1046100084FF29C08091E20084FF25C080E189BD2C
:1046200082E189BD09B400FEFDCF8091D8008F7D65
:104630008093D8008091E1008F7E8093E10080918B
:10464000E2008F7E8093E2008091E200816080939F
:10465000E2008091BE02882309F449C084E080937F
:10466000C2020E94B61E8091E10083FF29C08091A2
:10467000E20083FF25C08091E100877F8093E10005
:1046800082E08093C2021092BE028091E1008E7F90
:104690008093E1008091E2008E7F8093E200809120
:1046A000E20080618093E20042E060E080E00E94EE
:1046B000AC218091F00088608093F0000E94AA1ED7
:1046C000FF91EF91BF91AF919F918F917F916F91EA
:1046D0005F914F913F912F910F900FBE0F901F90C0
:1046E000189519BC1092C2020E94A71E72CF809129
:1046F000E30087FF02C083E0B2CF81E0B0CF1F921A
:104700000F920FB60F921124FF920F931F932F93C6
:104710003F934F935F936F937F938F939F93AF9349
:10472000BF93CF93DF93EF93FF9309EE10E0F8016F
:104730008081C091EC00C795CC27C7958F70FC2E67
:10474000F82A1082C0EFD0E08881877F8883789430
:104750000E94C823F8011082888188608883CF2D49
:10476000CF70C083FF91EF91DF91CF91BF91AF9157
:104770009F918F917F916F915F914F913F912F9179
:104780001F910F91FF900F900FBE0F901F901895E3
:10479000AAE2B0E0EEECF3E20C945A2583EC92E04E
:1047A000FC0101962091F100208322E08B3C9207CE
:1047B000B9F70E94E01E8091E80083FF38C0809125
:1047C000C3029091C4029A3090F5E92FF0E0E55AC7
:1047D000F94D0C943E25803889F0823841F580915E
:1047E000C7028F70873018F58093E9008091EB0045
:1047F00085FB882780F91092E90006C08091BF02EE
:104800009091C002911182609091E800977F9093FF
:10481000E8008093F1001092F1008091E8008E771B
:1048200023C0811116C08091C502813011F18091A1
:10483000E80083FF0AC08091E800877F8093E8004A
:104840008091EB0080628093EB00AA96E3E00C94E9
:104850007625823061F78091C502882389F0109215
:10486000E9008091E800877F8093E8000E94E021C2
:10487000DECF81E0933009F080E08093C002EFCF7B
:104880008091C7028F702FEF280F263080F680931B
:10489000E9002091EB0020FFE2CF933031F48091CA
:1048A000EB0080628093EB00DACF9091EB00906197
:1048B0009093EB0021E030E0A90102C0440F551FA6
:1048C0008A95E2F74093EA001092EA008091EB00AB
:1048D0008860E8CF8111ABCF1091C5021F7780911E
:1048E000E3008078812B8093E3008091E800877F4C
:1048F0008093E8000E94E0218091E80080FFFCCFD7
:104900008091E30080688093E30083E0111101C08F
:1049100082E08093C2028BCF8058823008F087CF2C
:104920008091C5029091C6028C3D53E0950799F5A0
:1049300083E08A838AE289834FB7F894DE01139675
:1049400020E03EE051E2E32FF0E0509357008491E5
:1049500020FF03C082958F703F5F8F708A30C8F050
:10496000895C90E08D939D932F5F243161F74FBF59
:104970008091E800877F8093E8006AE270E0CE01D2
:1049800001960E94F7208091E8008B778093E800E1
:104990004ECF805DE6CF6091C7027091C802AE0134
:1049A0004F5F5F4F0E94E11FBC01892B09F43FCF8D
:1049B0008091E800877F8093E80089819A810E9436
:1049C0005121E1CF803809F032CF8091E800877F14
:1049D0008093E8008091BE028093F1001ECF811188
:1049E00026CF9091C502923008F021CF8091E80047
:1049F000877F8093E8009093BE020E94E02180911F
:104A0000BE02882331F084E08093C2020E94C11E5E
:104A10000ECF8091E30087FDF6CF81E0F5CF0895BA
:104A2000CF938091C202882399F08091E900C091D0
:104A3000EC00C795CC27C7958F70C82B1092E90062
:104A40008091E80083FD0E94C823CF70C093E900E5
:104A5000CF91089597FB072E16F4009407D077FDA9
:104A600009D00E94822507FC05D03EF490958195DF
:104A70009F4F0895709561957F4F0895EE0FFF1F2A
:104A80000590F491E02D09946927962769277827E6
:104A90008727782708952F923F924F925F926F92C7
:104AA0007F928F929F92AF92BF92CF92DF92EF92BE
:104AB000FF920F931F93CF93DF93CDB7DEB7CA1B3F
:104AC000DB0B0FB6F894DEBF0FBECDBF09942A886A
:104AD000398848885F846E847D848C849B84AA8412
:104AE000B984C884DF80EE80FD800C811B81AA819F
:104AF000B981CE0FD11D0FB6F894DEBF0FBECDBF6A
:104B0000ED010895AA1BBB1B51E107C0AA1FBB1FE3
:104B1000A617B70710F0A61BB70B881F991F5A9549
:104B2000A9F780959095BC01CD010895FB01DC01AA
:104B300004C08D910190801921F441505040C8F774
:104B4000881B990B0895FB01DC0102C001900D92B6
:104B500041505040D8F70895F999FECF92BD81BDDC
:104B6000F89A992780B50895A8E1B0E042E050E0B6
:104B70000C94F025DC01A40FB51F4150504048F0C3
:104B8000CB01840F951F2E910E94CB2541505040A0
:104B9000D0F70895262FF999FECF92BD81BDF89ADE
:104BA000019700B4021639F01FBA20BD0FB6F89471
:104BB000FA9AF99A0FBE08950396272F0E94CB25E3
:104BC0000E94CA25252F0E94CB25242F0C94CB258B
:104BD0000196272F0E94CB250C94CA25DC01CB011E
:104BE000FC01F999FECF06C0F2BDE1BDF89A3196FD
:104BF00000B40D9241505040B8F70895F894FFCF9B
:104C000077057705BE05BE0523064006A605A60561
:104C10004506B206C306C3067D14F11485144F146D
:104C20005314891457148D1499146314EA146714D7
:104C30009D146B14A114C9146F14A514D014751409
:104C4000AB14B3145B1491145F1495147914AF145E
:104C5000BF14D914E81449148114F8149C15A21532
:104C6000A515AB15C015C015C015C015C015C015CC
:104C7000C015C015AE15B315B715BD15CE15D41595
:104C8000D8151C1922190C19161928192E1934199E
:104C90002F1A471A981AB91ACD1AE11AE41AE41A07
:104CA000E41A521A521AEA1AF01AFC1A0B1B1E1BAB
:104CB000211B241B371BEB23112417241124172439
:0A4CC0006A248C241724E224EF2458
:104CCA0039025902280850011E0A14010302010B75
:104CDA001E471E401E391E321E01E200E900EA008C
:104CEA00B500B600B700CD008301CC008A0192015D
:104CFA0094012102230224022502260227022A0203
:104D0A00B300B4006F0070009F01CB019F02A002A4
:104D1A00E200E900EA00B500B600B700CD00830161
:104D2A00CC008A0192019401210223022402250265
:104D3A00260227022A02B300B4006F0070009F0106
:104D4A00CB019F02A00266949091929397C6353444
:104D5A003236F73133F6F5F44422B60905310453F5
:084D6A0004D603EF030F04005F
:00000001FF
