:100000000C94A7020C94C4020C94C4020C94C40275
:100010000C94C4020C94C4020C94C4020C94C40248
:100020000C94C4020C94C4020C94AE220C94812350
:100030000C94351D0C94C4020C94C4020C94C4029C
:100040000C94C4020C94C4020C94C4020C94C40218
:100050000C94C4020C94CD1D0C94C4020C94C402E4
:100060000C94C4020C94C4020C94C4020C94C402F8
:100070000C94C4020C94C4020C94C4020C94C402E8
:100080000C94C4020C94C4020C94C4020C94C402D8
:100090000C94C4020C94C4020C94C4020C94C402C8
:1000A0000C94C4020C94C4020C94C40235000000E9
:1000B0000000000000000000000000000000000040
:1000C00000004C001E001F00200021002200230021
:1000D00024002500260027002D002E002B001400F0
:1000E0001A000800150017001C0018000C00120070
:1000F00013002A00290004001600070009000A0066
:100100000B000D000E000F0033003400E1001D0055
:100110001B00060019000500110010003600370012
:1001200038002832E000E300007EE20021520000A7
:100130002C0022525000510052004F0001000000DC
:1001400000000000000000000000000000000000AF
:10015000000001003A003B003C003D003E003F0033
:1001600040004100420043004400450001000100FE
:10017000520001004B005F006000610001000100BF
:100180002F0030003900500051004F004E005C003D
:100190005D005E000100010001003100010001006E
:1001A00001000100010059005A005B00010001003C
:1001B0000100280001000100010001000100000011
:1001C000620063004A00010001004D0001000000D0
:1001D000000000000000000000000000000000001F
:1001E0000000010001000100010001000100010008
:1001F000010001000100A800AA00A90001000100FF
:1002000001000100010001000100010001000100E6
:100210002F00300001000100010001000100010079
:100220000100010001000100010031000100010096
:1002300001000100010001000100010001000100B6
:10024000010028120100010001000100010000006E
:100250000100010001000100010001000100000097
:10026000000000000000000000000000000000008E
:100270000000010001000100010001000100010077
:100280000100010001000100010001000100010066
:100290000100010001000100010001000100010056
:1002A0000100010001000100010001000100010046
:1002B0000100010001000100010001000100010036
:1002C0000100010001000100010001000100010026
:1002D0000100010001000100010001000100000017
:1002E0000100010001000100010001000000000008
:1002F000000000002A2B2800000000000000000081
:100300000000000000000029000000002C1E342026
:10031000212224342627252E362D3738271E1F204C
:100320002122232425263333362E37381F04050691
:100330000708090A0B0C0D0E0F10111213141516D5
:100340001718191A1B1C1D2F3130232D35040506D3
:100350000708090A0B0C0D0E0F10111213141516B5
:100360001718191A1B1C1D2F3130354C00000000C6
:10037000000000000000000000000000000000007D
:10038000000000000000000000000000000000006D
:100390007E0F00D4FFFFFFC7000000780E034B0064
:1003A000720074006B00750073000000120373008C
:1003B00077006900660074003500300032000000EC
:1003C0000403090409025B00030100A0FA09040008
:1003D000000103010100092111010001224400076D
:1003E000058103080001090401000203000000095F
:1003F00021110100012222000705820320000107CC
:1004000005030320000109040200010300000009A4
:10041000211101000122B60007058403200001120A
:1004200001000200000008424A1616000101020005
:10043000010660FF0961A1010962150026FF009510
:1004400020750881020963150026FF0095207508B4
:100450009102C005010902A10185020901A100055F
:100460000919012908150025019508750181020562
:1004700001093009311581257F950275088106092A
:10048000381581257F950175088106050C0A38020B
:100490001581257F950175088106C0C00501098079
:1004A000A101850319012AB700150126B70095019E
:1004B00075108100C0050C0901A101850419012AEC
:1004C000A002150126A002950175108100C005014A
:1004D0000906A1018506050719E029E71500250190
:1004E0009508750181020507190029EF15002501FE
:1004F00095F0750181020508190129059505750119
:100500009102950175039101C005010906A101053C
:100510000719E029E7150025019508750181029565
:1005200001750881010507190029FF150026FF0044
:100530009506750881000508190129051500250192
:10054000950575019102950175039101C000112473
:100550001FBECFEFDAE0DEBFCDBF11E0A0E0B1E01B
:10056000EEECFCE402C005900D92A83AB107D9F771
:1005700022E0A8EAB1E001C01D92AB3CB207E1F76E
:100580000E942C120C9400260C9400000F931F93D1
:10059000CF93DF93EC018B010E94EB0B982F9272AB
:1005A000C630D10529F1C1152EE7D20761F0C5305B
:1005B000D10549F5F8018581882329F1923219F591
:1005C0000E949E030AC0F80125812223E1F0817177
:1005D000882349F088EA0E94240580E0DF91CF91CA
:1005E0001F910F9108958AEA9923A9F389EAF3CF1D
:1005F000F8018581882339F0923229F40E94B90DDF
:100600000E94A403EACFB801CE010E942B03E6CFDB
:100610008430B8F46630A8F44C3098F4E42FF0E05D
:100620009CE0699FE00DF11D112498E4899FE00D85
:10063000F11D1124EE0FFF1FE455FF4F859194919A
:10064000089581E090E0089581E008950E942403D8
:10065000089581E008950E942403089508950E945A
:100660002E030895A6E0B0E0E8E3F3E00C945C25E7
:1006700049835A839E833091AF0189819A813111D8
:100680001AC03E81332399F0222389F00E94B008DA
:10069000182F682F89819A810E948C0869817A813C
:1006A000812F0E94D30F2696E3E00C9478250E94B8
:1006B0009E08182FF3CF0E94B00869817A81F1CF8C
:1006C000FC01262F40815181628173818481958153
:1006D0000E9432030895CF93DF93D82FC92F61E092
:1006E0000E9460036D2F7C2F0E942603DF91CF9123
:1006F0000895CF93DF93D82FC92F60E00E94600345
:100700006D2F7C2F0E942F03DF91CF91089581E000
:1007100008950E9487030895CF93C82F0E948007F1
:100720008C2F0E9489032FEF84E39CE021508040AE
:100730009040E1F700C00000CF91089581E00E9451
:100740008C030E94F11D089580E00E948C030E949A
:10075000021E08950F931F93CF93DF938C0161E0E6
:100760000E946003EC01B8010E94F419882309F487
:1007700042C0B801CE010E94C6028823E1F1B8014F
:10078000CE010E9402198823B1F1B801CE010E9466
:100790002714882381F1B801CE010E94FC1388231D
:1007A00051F1B801CE010E944319882321F1F801CB
:1007B0008581882381F0CA35FCE7DF0739F178F4B9
:1007C000C130ECE7DE07F9F0C330FCE7DF07C9F022
:1007D000C115DC4771F0C8010E9429030DC0CB355B
:1007E000ECE7DE07B1F0CC35DC47A9F70E94020D3B
:1007F000F2CF0E949E0380E0DF91CF911F910F9175
:1008000008950E94140D0E94A403F5CF0E940C0DC0
:10081000E2CF0E94100DDFCF0E94111D0E942C0418
:1008200008950E9430040E94161D089581E00895E5
:100830000895CF93DF93D82F0E941604C82F8823E2
:1008400019F08D2F0E9418048C2FDF91CF910895FD
:1008500008950E941904089580E00E9429040895D3
:100860000E944D1B0E9429040895CF930E944D1BA6
:10087000C82F8091AA018C1779F0C093AA010E9419
:10088000A11D6093AB017093AC018093AD01909377
:10089000AE018C2F0E942904CF910895ADE0B0E005
:1008A000E4E5F4E00C945D25488759876A877B87E7
:1008B0008C879D8791110E940D0C1F8286E0FE019E
:1008C0003896DE01119601900D928A95E1F78D819F
:1008D00081110DC029813A814B815C816D817E81BE
:1008E0008F810E94530B2D96E2E00C947925CE0166
:1008F00001960E946B038111EDCFF5CFFC0184813D
:10090000813021F4808191810E94D9080895662365
:1009100029F00E9495150E94561608950E94DE1532
:10092000FACFCF93C82F882399F08CEF8C0F813AA0
:1009300088F48C2F0E94F01B882329F08C2F0E94B2
:10094000951C0E94A50C8C2F0E947E1C0E94A50C59
:10095000CF91089580E28C0F883048F4C77081E011
:1009600001C0880FCA95EAF70E94EE0BEFCF8BE526
:100970008C0F833038F42C2F2452330BC9010E9482
:10098000831BE6CFE8E5EC0FEB3150F4F0E0EE0F1F
:10099000FF1FE65EFE4F808191810E94A91BD8CF88
:1009A00083E38C0F8331A0F661E08C2F0E948704D3
:1009B000CFCF882381F19CEF980F913A28F40E94C1
:1009C000951C0E94A50C089590E2980F983050F461
:1009D000877091E001C0990F8A95EAF7892F0E94EC
:1009E000F40BEFCF9BE5980F933028F480E090E074
:1009F0000E94831B089598E5980F9B3128F480E0AE
:100A000090E00E94A91B089593E3980F933118F486
:100A100060E00E94870408951F93CF93DF93182FFF
:100A2000EB010E949104209739F4812F0E94D90490
:100A3000DF91CF911F9108958FE99FE00197F1F722
:100A400000C000002197EFCF60E070E0893311F41F
:100A500060E570E00E940C050895882321F00E9453
:100A6000EE0B0E94A50C0895882321F00E94F40B40
:100A70000E94A50C0895A0E0B0E0E1E4F5E00C943C
:100A800057256C01D62FC72FFC01158106810295D1
:100A90000F700E94E30BE82E8823F9F0E12E11235A
:100AA000E1F08C2F807F803461F080E28D0F883000
:100AB000F0F08C2F807E803221F4D230C0F0002301
:100AC000B1F08091A10282FF12C082E00E94D50C99
:100AD0000E94E30B91E0E82EE926EC2FE295EF70FF
:100AE000C03CB0F5F0E0EE5FF94D0C944025E12CF0
:100AF000F4CF0C2F0F70C03110F00295007F11233E
:100B000099F0002359F080E28D0F883010F0D11158
:100B100007C0802F0E94EE0B0E94A50C8D2F51C0A4
:100B2000802F0E94FF0BF8CF8D2F0E94D904002345
:100B300079F080E28D0F883010F0D11104C0802F41
:100B40000E94F40B03C0802F0E94050C0E94A50C8C
:100B5000EE2089F00E94DF0B80FD0DC0F6011582AA
:100B60000E94D90B0E94FA07C6010E9447070E9403
:100B7000D90B0E940608CDB7DEB7E8E00C947325C8
:100B8000FC2FFF70FF2EC07FC03219F0F29480EF6F
:100B9000F822DD2341F0D130D1F1112309F444C012
:100BA0000023F1F0BBCF8091A10282FD15C011237B
:100BB00059F0FF2029F08F2D0E94EE0B0E94A50C0A
:100BC00080E00E949104C4CF80E00E94D904FF20FD
:100BD00009F4BECF8F2DB4CF112369F0011104C0E9
:100BE0008F2D0E942D05B4CF013009F0B1CF8F2D8C
:100BF0000E94250CADCF0111ABCF8F2D0E94340583
:100C00008F2D0E94310C8F2D0E94140CA1CF112327
:100C100021F0063008F09CCFE3CF053008F098CFE4
:100C20008F2D0E94340594CF0023D1F3D93349F49A
:100C30002FEF87EE93E0215080409040E1F700C015
:100C400000008D2F0E94D90483CF8C2F8695869526
:100C50008370882369F0813009F07ACF8D2F9C2F23
:100C60009370111102C080E090E00E94A91B70CF28
:100C70008D2F9C2F9370111102C080E090E00E9494
:100C8000831B66CF612F8D2F0E94870461CF8C2F2D
:100C90008370811134C0111124C04D2F42954695A7
:100CA0004770440F440F8D2F8F70042E01C0880FA2
:100CB0000A94EAF7D071DD2341F02FE030E001C063
:100CC000220F4A95EAF7D22FD095C695C695C370E4
:100CD0008D2BC23071F0C33079F0C13039F00E94F1
:100CE000D6070E944D1B0E94290432CF0E94D007D4
:100CF000F8CF0E94DC07F5CF0E94CD07F2CF112379
:100D000039F1C0FFEECF4D2F429546954770440F05
:100D1000440F8D2F8F70042E01C0880F0A94EAF7BC
:100D2000D071DD2341F02FE030E001C0220F4A9561
:100D3000EAF7D22FD095C695C695C3708D2BC230D9
:100D400069F0C33071F0C13031F00E942808C9CF7A
:100D5000823038F2D8CF0E942208C3CF0E942E08DA
:100D6000C0CF0E94E807BDCFCF70112339F08C2F80
:100D70000E94FA078D2F0E942D05B3CF8D2F0E9460
:100D800034058C2F0E940608ACCFD23F31F170F4AD
:100D9000D03FB9F0D13FB1F1112309F44EC0002387
:100DA00009F448C08D2F0E9491049BCFD33FE1F0FE
:100DB000D43F21F11111F3CF01114DC08C2F8F7150
:100DC000E1CF112341F0053008F08BCF8C2F8F71CC
:100DD0000E94160886CF0530F7CF8C2F8F71111126
:100DE000D1CF0E94FA077DCF112329F08C2F8F716C
:100DF0000E94F10776CF0E94ED0773CF8091A10288
:100E000082FD06C08C2F8F71112309F4BBCFE9CF6F
:100E1000112331F063E08C2F8F710E94B70C61CFEA
:100E200081E00E94D50C023008F45BCF82E00E9482
:100E3000D50C57CF8C2F8F71D4CF002309F4BECFA0
:100E4000D93349F4EFEFF7EE23E0E150F0402040D2
:100E5000E1F700C000008D2F0E94D90442CF0F930C
:100E60001F93CF93DF93EC01688179818D810E947C
:100E7000E6088C010E9434080E94CC07B801CE011C
:100E80000E943B05DF91CF911F910F910895CF9361
:100E9000DF93EC018C81882399F0CE010E94AA0394
:100EA000811111C00E94E30B882351F08D818823AA
:100EB00039F08091A10282FF03C082E00E94D50C2C
:100EC000DF91CF910895CE010E942F07CE010E949D
:100ED0007903F6CF80E090E00E94831B80E090E0F1
:100EE0000E94A91B0E940D0C0E94A50C0E94731663
:100EF0000E94561608950E94AC1C0E946A0708952D
:100F00000E94FC0B0E947B070895282F92959F70EA
:100F1000963091F060F4925F9F70923030F481E0EF
:100F2000203F79F030F4283E30F080E008959A5F59
:100F3000F3CF243FD1F7089581E0283EE0F3213F2D
:100F4000F9CF0895FC018481882339F08081918153
:100F50000E94D9080E948507089580E00895A6E0C0
:100F6000B0E0E5EBF7E00C945D252696E2E00C940A
:100F70007925A7E0B0E0EFEBF7E00C945D2527962C
:100F8000E2E00C94792508950E94C30708950E9419
:100F9000C4078093CC01089508950E94C70708955F
:100FA0009091CC01892B0E94C70708959091CC01A4
:100FB00089230E94C70708959091CC0189270E9438
:100FC000C70708950E94C30708950E94E207089585
:100FD0000E94E5078093CB01089580E00E94E80716
:100FE000089591E001C0990F8A95EAF7892F0E9430
:100FF000E807089521E030E001C0220F8A95EAF762
:101000008091CB01822B0E94E807089521E030E017
:10101000A90102C0440F551F8A95E2F7CA018095C5
:101020009091CB0189230E94E807089521E030E0E8
:1010300001C0220F8A95EAF78091CB0182270E9496
:10104000E80708959091CB01892B0E94E807089545
:101050009091CB0189230E94E80708959091CB01DC
:1010600089270E94E807089508959B01677091E021
:1010700001C0990F6A95EAF763E0369527956A955E
:10108000E1F7B901660F771F260F371FFA01E20F4C
:10109000F31F40E050E0682F70E08191DF0111976D
:1010A0009B01042E02C0369527950A94E2F7217021
:1010B00021952827292328272C934F5F5F4F433002
:1010C000510559F708959C01A82FA77083E0369524
:1010D00027958A95E1F7C901880F991F820F931F01
:1010E000FB01E80FF91F40E050E080E0219130E083
:1010F0000A2E02C0369527950A94E2F7217033270D
:10110000042E01C0220F0A94EAF7822B4F5F5F4F33
:101110004330510559F70895282F862F963068F4EB
:101120002C3058F4622F70E02CE0929F600D711DFE
:10113000112440EB51E00E9435080895292F963084
:1011400068F48C3058F490E060EB71E03CE0239F51
:10115000800D911D11240E946308089580E0089578
:10116000A0E0B0E0E6EBF8E00C9458257C0100919B
:10117000CB018091CC01082BC3E0D0E010E0C80186
:101180000C2E02C0959587950A94E2F780FD09C060
:101190002197A8F7D12C8D2DCDB7DEB7E7E00C94C1
:1011A0007425DC2EB7018C2F0E94DF0F019781F38D
:1011B000F2CFCF93DF93D82FC92F0E94B0086D2FA5
:1011C0007C2F0E94DF0FDF91CF9108951F93CF9363
:1011D000DF93162FD72F9091AF01992341F0862FDF
:1011E000972F0E94D908DF91CF911F9108958823EE
:1011F00081F0862F972F0E94B008C82F682F812F6B
:101200009D2F0E948C08612F7D2F8C2F0E94DF0F55
:10121000EACF862F972F0E949E08C82FF4CFE1E0D7
:10122000F0E0DF0102C0AA0FBB1F6A95E2F7BD0123
:10123000DF0102C0AA0FBB1F4A95E2F76A2B01C06B
:10124000EE0F2A95EAF7962F9823961302C08E2B5D
:101250000895E0958E230895242F462F682F8091BE
:10126000CB010E940F090E94E80708950F931F9376
:10127000CF93E091CD01C7E08091CE018E1304C0E1
:10128000CF911F910F9108950E2F10E0CE9FF00186
:101290001124E153FE4F20813181428153816481C9
:1012A000758186810E94B907F8013196E770E4CF15
:1012B00020910702309108024091090250910A02E0
:1012C00060910B0270910C0280910D020E94B9078F
:1012D000089580910D02803178F480910C0288236A
:1012E00059F0E091CD012091CE013091080240915A
:1012F000070257E02E1301C008956E2F70E05E9F25
:10130000F0011124DF01A153BE4F14968C91149764
:10131000882361F111968C911197831327C08C91CA
:10132000841324C015968C91159781111FC01296B5
:101330008D919C91A0910902B0910A028A1B9B0B8E
:10134000883C910598F480910D028F7080618093A4
:101350000D02EB52FE4F80818F708061808387E0A9
:1013600092E00E9447070E9436090895FB013196DA
:10137000E770C0CFE091CD019091CE0127E0E91355
:1013800002C080E00895AE2FB0E02E9FF00111243E
:10139000E153FE4F3181361306C03081381303C04C
:1013A0003581341304C0FD013196E770E8CF81E048
:1013B00008958F929F92AF92BF92DF92EF92FF9229
:1013C0000F931F93CF93DF93CDB7DEB72D970FB653
:1013D000F894DEBF0FBECDBF8C0186E0F801DE01C0
:1013E000189601900D928A95E1F7F801E080F5805A
:1013F000A280B380848197E0892E92E0992E90910B
:101400000B0291111BC0882309F4FCC0FF2009F4D2
:101410003DC1C8010E94A207882309F437C187E0B3
:10142000F801D40101900D928A95E1F7C4010E9460
:101430007E040E9469090E945809E4C0D0900C0201
:101440002091090230910A02A501421B530BDD20B5
:1014500009F4DBC0483C510508F0A6C0882309F414
:10146000D1C090910802918080910D02803108F0E6
:101470006BC0991228C0909107029E1124C0F110F0
:101480005DC08F70806180930D020E94580987E0D3
:1014900092E00E94470780910D02F8018683F12CAB
:1014A0008F2D2D960FB6F894DEBF0FBECDBFDF9106
:1014B000CF911F910F91FF90EF90DF90BF90AF9071
:1014C0009F908F900895F11039C040E0692D8E2DC6
:1014D0000E94BA0940E0692D8E2D0E94BA09F82EAB
:1014E0008111DDCF888599850E94D908292F229501
:1014F0002F70903450F49F70223080F0992399F02F
:10150000F8019681903178F4CBCF2A5F2F7022308A
:1015100078F0C8010E944707FD2CC2CF992319F02B
:10152000882309F4BDCF805E883008F4B9CFF1CFAD
:10153000803F08F4B5CF815F8230F7CF80910D02F4
:10154000816080930D02ABCF991207C09091070282
:101550009E1103C0FF2009F479C0C8010E94A207B0
:10156000882309F493C0FF2009F490C080910D02F4
:10157000803288F020910702309108023A83298353
:10158000BC82AB8290910B029D831E828F83CE0121
:1015900001960E94470787E0F801A7E0B2E00190BA
:1015A0000D928A95E1F745CF90910D029031A0F40C
:1015B000488559856A857B858C859D850E94AF0706
:1015C00087E092E00E94470787E0F40111928A9534
:1015D000E9F70E94580963CF8823A1F020910802FF
:1015E00081812813BACF809107028E11B6CFF110F6
:1015F000B4CF9683C8010E94470787E0F401119297
:101600008A95E9F7FF24F3944BCF483C510508F045
:1016100041C08823B9F3FF20C9F19091080281816C
:1016200098132AC0809107028E1126C080910D0266
:1016300080FD19C08031B8F08683807F803F39F00B
:101640008681982F907F905F8F70892B8683C80149
:101650000E94470787E0F801A7E0B2E001900D92F1
:101660008A95E1F7E8CE87E0F801A7E0B2E00190C3
:101670000D928A95E1F7C6CFC8010E94A207811199
:101680008ACF80910D02816080930D02C8010E9473
:101690004707B8CF488559856A857B858C859D85A8
:1016A0000E94AF0791CFAEE0B0E0E9E5FBE00C941B
:1016B0005C25288739874A875B876C877D878E877B
:1016C000CE0108960E94D9098823B1F06C85662363
:1016D00041F0288539854A855B857D858E850E9408
:1016E000B90717E08091CD019091CE0189133EC0DA
:1016F0002E96E3E00C94782587E0FE013896DE0113
:10170000119601900D928A95E1F72091CE014091BA
:10171000CD018C85882329F330E0C90101968770BB
:10172000992750E08417950799F097E0929FD00190
:10173000939FB00D1124A153BE4FFE01319601902D
:101740000D929A95E1F78093CE010E943609C9CF98
:101750000E9480071092CE011092CD0187E0E7E051
:10176000F2E0DF011D928A95E9F7BBCF189FC00117
:10177000112481539E4F0E94D909882309F4B8CFC0
:10178000E091CD011E9FF0011124E153FE4F208115
:101790003181428153816481758186810E94B907BC
:1017A0008091CD0190E00196877099278093CD01BB
:1017B00099CF809136028695869586950895809179
:1017C00036028770089590913602977081E09111EA
:1017D00001C080E0089580916202089590916202B4
:1017E000982B909362020895982F909580916202B1
:1017F0008923809362020895109262020895909165
:101800006102982B909361020895982F9095809192
:101810006102892380936102089510926102089504
:1018200008950E94100C089590913702292F2823C3
:10183000222331F080958923809337020E94110C76
:10184000089508950E94210C089590913802292F3F
:101850002823281729F0982B909338020E94220CF5
:10186000089590913802292F2823222331F0809562
:101870008923809338020E94220C089580913802B7
:10188000882329F01092380280E00E94220C0895EB
:10189000CF93DF93C091620280916102C82BD091F7
:1018A0003802DD2331F00E94CF1B81110E943E0CD3
:1018B000CD2B8C2FDF91CF910895CF93DF93C091E3
:1018C0000201D09103010E94480C8883C09102015B
:1018D000D091030148E050E06EE272E0CE010E9438
:1018E0009825892B59F088E0FE01AEE2B2E0019024
:1018F0000D928A95E1F7CE010E945A1BDF91CF919C
:101900000895CF93DF93C0910001D09101010E940F
:10191000480C8983C0910001D091010140E250E060
:101920006EE072E0CE010E949825892B59F080E28A
:10193000FE01AEE0B2E001900D928A95E1F7CE0192
:101940000E94651BDF91CF91089580911901882332
:1019500039F08091A00287FF03C00E94810C089596
:101960000E945D0C089508950E94B30C0895909113
:10197000A10292FF11C098E0899F90011124622B6F
:10198000609336020E94FA0780913602869586950A
:1019900086950E94B40C08950E94FA07089510924B
:1019A000360280E00E94B40C089590913602809532
:1019B000892380933602282F277021110DC08917A3
:1019C00059F09091A10292FF07C086958695869561
:1019D0000E9406080E94CF0C08959091A10292FBEC
:1019E000222720F9281769F080FB92F99093A10231
:1019F0008091A0029091A1020E94360D82E00E9487
:101A0000D50C08958091A10282FB882780F991E08E
:101A100089270E94ED0C089581E00E94ED0C089545
:101A200080E00E94ED0C08956FEF7FEF80E090E082
:101A30000E94EA25089580E090E00E94B625853E48
:101A40009E4F19F40E947E19089580E0089582E067
:101A500090E00E94AE25089583E090E00E94AE25BC
:101A6000089584E090E00E94B6250895BC0184E0CA
:101A700090E00E94EA250895AB01BC018FE090E060
:101A80000E94DE250895AB01BC0183E190E00E9435
:101A9000DE25089560E070E0CB010E94430D0895BB
:101AA00060E070E0CB010E943C0D0E944A0D089559
:101AB000A8E0B0E0EEE5FDE00C945D2565EE7EEF7C
:101AC00080E090E00E94EA2560E082E090E00E94E1
:101AD000CC2581E08093CC0161E083E090E00E941E
:101AE000CC2560E074E184E090E00E94EA2560E0AB
:101AF00086E090E00E94CC2560E087E090E00E94C4
:101B0000CC2540E050E0BA0188E090E00E94DE255C
:101B100060E083E290E00E94CC2560E08CE090E001
:101B20000E94CC2560E08DE090E00E94CC251982D7
:101B30001A821B821C821D821E821F82188648E028
:101B400050E067E170E0CE0101960E94BC2540E0C4
:101B500050E0BA018FE190E00E94DE2580E00E9413
:101B600097190E94D6190E94500D2896E2E00C9415
:101B700079250E94580D0895682F8EE090E00E940C
:101B8000CC250895A6E0B0E0E8ECFDE00C945B25E0
:101B90000E94951D8C0180916302909164028017D0
:101BA000910779F019821A820E94951DBC01498122
:101BB0005A8180E090E00E944E04109364020093EA
:101BC00063022696E4E00C9477250E94A11D6093A1
:101BD00075027093760280937702909378026093F7
:101BE000710270937202809373029093740208954D
:101BF000089508950E94F80D089508950E94FD0D1E
:101C0000089587ED90E10E9443120E94F90D0E9411
:101C1000FA0D089581E008950E940A0E08950E9429
:101C20000A0E0895089508950E94120E0E94130E40
:101C300008950E941B0D811102C00E94B90D0E94DF
:101C4000270D809379020E94310D9093A102809319
:101C5000A0020E9466120E942C0D0E94CD07809166
:101C6000CB010E94E50708950E948C1D0E94E61991
:101C70000E9494110E94190E0E9428040E94FE0DD9
:101C80000895A6E0B0E0E7E4FEE00C9451250E9440
:101C90000C0E81110AC00E94C20D0E9494160E946F
:101CA00035042696EEE00C946D250E94AA1125E6D7
:101CB000822E22E0922E640110E0F601E190F19074
:101CC0006F01812F0E94E1101F5F163009F44DC093
:101CD000E816F90691F38091790281FD0E94EA10DD
:101CE0000E940F0E782EF12C662463948F2D0E9493
:101CF000E1108C01F401A190B1904F018A159B0570
:101D000069F1A826B926E12CCC24C394D12CC501B5
:101D10008C219D21892BC1F07720B1F0E982FA82D4
:101D20000E94951D9C838B836D8221E0C8018C21CC
:101D30009D21892B09F420E049815A816B817C81A6
:101D40008D81922F0E944E04E394CC0CDD1CFCE0AC
:101D5000EF12DDCFF401329711830083F39486E014
:101D6000F812C4CF0E94E50D98CFE816F90609F0E5
:101D7000B2CF91CF1F93CF93DF930E94E40FEC017A
:101D8000811522E5920708F053C0811540E59407BC
:101D900008F0DDC0803E9105F8F48D3C910508F017
:101DA000AEC0883A910580F4853A910508F099C053
:101DB0008130910521F00497813A910550F4CE01CC
:101DC000DF91CF911F910895885A91094B9708F49C
:101DD0008BC0C0E0D0E0F3CF811550E49507F8F454
:101DE000C11580E2D80708F0CBC0C83ED10538F352
:101DF000CE019A9581159F4160F78D2F0E94881022
:101E0000182FCE0199270E94E40F212F30E0322FA6
:101E10002227E901CC27DF71C82BD92BD0CF9927F6
:101E20000E94E40FCC27DF70C82BD92BD06AC7CF14
:101E3000803842E59407C8F5803652E5950708F0EA
:101E400067C0C03482E5D807B0F08C2F86958695A0
:101E5000877020E2829FC0011124C37021E030E02E
:101E6000A90102C0440F551FCA95E2F7EA01C82B29
:101E7000D92BDC68A4CFC03252E5D50708F041C0A9
:101E80008C2F8695869520E2829FC0011124C37015
:101E900021E030E0A90102C0440F551FCA95E2F7C6
:101EA000EA01C82BD92BDD688ACF803C52E5950723
:101EB00060F48F71C03AD24508F03FC090E0982F8F
:101EC0008827EC01C46FD06A7ACF805C92458097F6
:101ED00008F07FCFDC2FCC27CC27DF71C06FD06A12
:101EE0006ECFA497D0646BCFC85AD0E0CC0FDD1F63
:101EF000C05BDE4F0990D881C02DD46460CFD0651F
:101F00005ECFCF71D0E0DC2FCC27C16FD06A57CF26
:101F100086958695877020E2829FC0011124C37048
:101F200021E030E0A90102C0440F551FCA95E2F735
:101F3000EA01C82BD92BDA6842CF0E948810C82F3B
:101F4000D0E0DC2FCC27CC27DF71D06238CF8F7167
:101F50000E94881065E0D695C7956A95E1F7CF7025
:101F6000D0E0DC2FCC27282F30E084FF05C054E0E0
:101F7000220F331F5A95E1F7C22BD32BD0691FCF05
:101F80008D2F8F710E948810182FCE0199270E94E3
:101F9000E40F212F30E0322F222722273F71282BF8
:101FA000392BE901D2CF462F672F763028F44C30F9
:101FB00018F40E941A13089580E090E008950E949A
:101FC000D30F0E94BA0E0895803E9105D1F1C8F456
:101FD0008133910509F47FC048F48932910509F4F1
:101FE0006FC08A32910509F47DC008958933910547
:101FF000E1F082389105C9F08533910509F45BC0A1
:102000000895843E9105D1F148F4823E910531F165
:10201000833E910541F181EE90E00895863E910561
:10202000C1F1873E9105E1F108952091A00223704E
:10203000211165C02091A10223FF14C089E290E024
:1020400008952091A00220FD43C03091A10230FFED
:1020500009C024FF4EC080E090E008952091A002C6
:1020600022FDF7CF08952091A00222FD45C03091B6
:10207000A10230FD44C024FFF5CFEDCF2091A10295
:1020800021FFF0CF8091A00284FDE5CF87EE90E0A4
:1020900008952091A00223FFE5CF24FDDCCFF6CFE9
:1020A0002091A00223FD2EC03091A10231FFE3CF89
:1020B00084EE90E008952091A00225FFD3CFBECFFB
:1020C0002091A00225FD21C02091A10223FFCACFAB
:1020D00089E390E008952091A00226FFC3CF8AE211
:1020E00090E008952091A00226FFBCCF81E390E00C
:1020F000089583EE90E0089582EE90E0089580EEDA
:1021000090E0089586EE90E0089585E390E0AACFF0
:102110009091A00292FF10C041E0282F247124303A
:1021200009F040E031E0282F2871283009F030E034
:10213000431711F02CE0822793FF10C041E0282FB5
:102140002471243109F040E031E0282F2871283132
:1021500009F030E0431711F02CE082273091A10202
:1021600030FF10C051E0282F2171213009F050E0DC
:1021700041E0282F2871283009F040E0541711F071
:1021800029E0822731FF10C041E0282F2171213141
:1021900009F040E031E0282F2871283109F030E0C3
:1021A000431711F029E0822794FD877E089580E08F
:1021B000089508950E94D910089508950E94DD1091
:1021C0000895E82FF0E0EE0FFF1FE255FD4F8081EC
:1021D00091810895089580EA8A95F1F7089500C0E5
:1021E00008950E94EB100895F894E82FE295EF709F
:1021F000F0E041A18F7021E030E0B90102C0660F2C
:10220000771F8A95E2F7CB01962F9095942391A39F
:1022100092A1892B82A3789408950F931F93CF9353
:10222000DF93C2E9D1E089918F3F11F00E94F41051
:1022300081E0C839D807B9F7C6E8D1E002E911E072
:1022400089918F3F11F00E94F4100C171D07C1F700
:10225000DF91CF911F910F910895A0E0B0E0E3E3EB
:10226000F1E10C945625EC01B62E062F10E0C801C2
:102270008E569E4F7C01FC0180818F3F09F44FC038
:10228000F894E82FE295EF70F0E091A18F7021E0D3
:1022900030E001C0220F8A95EAF7892F822B81A3B3
:1022A00082A12095282322A378940E94EF10E6E8CB
:1022B000F1E041E050E0C12CD12C21912F3F89F079
:1022C000A22FA295AF70A05EB0E08C9190E02F702D
:1022D00002C0959587952A95E2F781709A01882327
:1022E00011F020E030E0C22AD32A440F551F81E0CC
:1022F000E239F80711F7F70180818F3F11F00E9452
:10230000F41061E0C114D10409F460E08B2D0E9447
:10231000F110000F111FC00FD11FD982C882CDB795
:10232000DEB7E9E00C9472250E940D118CE0EEEA14
:10233000F2E0DF01982F1D929A95E9F7E2EAF2E0C8
:10234000DF011D928A95E9F786E00E94E7110E945D
:10235000DA100895ACE0B0E0E0EBF1E10C945A251E
:10236000FE0131968CE0DF011D928A95E9F710E0BD
:10237000FE2E0F2F612F8F2D902F0E942D111F5F8A
:102380001630C1F74CE050E06F2D702F82EA92E0DA
:102390000E94982521E0892B81F420E046E06EEA36
:1023A00072E082EA92E00E94E811182F0E94DE108B
:1023B000812F2C96E5E00C9476258CE0EF2DF02F04
:1023C000A2EAB2E001900D928A95E1F7E7CF089575
:1023D000A0E0B0E0EEEEF1E10C945725D82EE92E06
:1023E000F62ED72F042FC22F222379F081E080937D
:1023F0007C020E94951D90937B0280937A0280E07C
:10240000CDB7DEB7E8E00C947325C0907C02CC20F9
:10241000B1F380917A0290917B020E94BE1D0597D4
:1024200070F310E0000F111FA8016D2D7E2D8F2D70
:102430009D2F0E949825892B41F0A8016D2D7E2D9E
:102440008F2D9D2F0E94A525CC2D10927C028C2FC4
:10245000D7CF0E94410E08950E942E1D0E949C1FFE
:102460000E94010E0E94B61F0E94340E0E94C31FDC
:102470000E94C81F0E9429120E94E21F0E946A1E29
:102480000E94140EF5CF9093A9018093A80108959E
:102490000E94140D089580E00E94E110817008955B
:1024A0000E94AA112FEF86E791E0215080409040D2
:1024B000E1F700C000000E94AA110E944B1288237D
:1024C00021F00E9448120E94F11D08950E945012AE
:1024D000089584E0089550E0440F551F98E1699FE6
:1024E000400D511D112490E9899F400D511D11246B
:1024F000CA01889608950F931F93CF93DF9384307A
:10250000C8F46630B8F44C30A8F40E946B128C0109
:102510000E94AE25C82FD0E0DC2FCC27C801019641
:102520000E94AE259E01282BC901DF91CF911F91FA
:102530000F91089580E090E0F8CF0F931F93CF9311
:10254000DF93122F032F843078F4663068F44C3018
:1025500058F40E946B12EC01602F0E94CC25612F71
:10256000CE0101960E94CC25DF91CF911F910F9152
:1025700008951F93CF93DF93D0E0C0E011C0412FA7
:102580006C2F8D2F0E9408039C01412F6C2F8D2FE3
:102590000E949D121F5F1C3091F7CF5FC63011F073
:1025A00010E0EDCFDF5FD43041F7DF91CF911F9185
:1025B0000895EF92FF920F931F93CF93DF938C01B7
:1025C000EA017A01E60EF71ECE15DF0529F4CDB734
:1025D000DEB7E6E00C947525003482E0180740F47D
:1025E000C80188960E94AE2589930F5F1F4FECCFDC
:1025F00080E0FACFEF92FF920F931F93CF93DF9378
:102600008C01EA017A01E60EF71ECE15DF0529F4EA
:10261000CDB7DEB7E6E00C947525003482E01807EC
:1026200028F46881C80188960E94CC2521960F5F06
:102630001F4FEBCF843038F4663028F44C3018F458
:102640000E947B12089580E090E0089580E1089553
:1026500088E991E00895EF92FF920F931F93CF9333
:10266000DF938C01EA017A01E60EF71ECE15DF0535
:1026700029F4CDB7DEB7E6E00C947525083981E082
:10268000180748F4C80188599D4F0E94AE258993C8
:102690000F5F1F4FEBCF80E0FACFEF92FF920F93C7
:1026A0001F93CF93DF938C01EA017A01E60EF71EA8
:1026B000CE15DF0529F4CDB7DEB7E6E00C9475251D
:1026C000083981E0180730F46881C80188599D4FA6
:1026D0000E94CC2521960F5F1F4FEACFCF93DF9347
:1026E000C8E6D2E060E0CE010E94CC252196C1155B
:1026F00084E0D807B9F7DF91CF910895A8E0B0E062
:10270000E4E8F3E10C945725F82E2FE0281708F49D
:102710006FC08FEF93E00E94AE25811169C008E67B
:1027200012E0F11038C01A821982FE01339686E059
:10273000DF011D928A95E9F76801BFEFCB1ADB0A2A
:10274000C8010E94AE2589831A82882309F450C0EB
:102750008130D1F4780122E0E20EF11CC6010E9422
:10276000AE258A83882309F443C09FEF980F9330E6
:10277000F8F4680183E0C80ED11CC7010E94AE25A1
:102780008B838823A9F11C8260E0CE0101960E9410
:1027900028188601D1CF011584E0180749F1C80136
:1027A0000E94AE250F5F1F4F8111F5CFFA94B9CF6C
:1027B0008430B9F402E010E0C701AFEFEA1AFA0A78
:1027C0000E94AE25E1E0F0E0EC0FFD1FE00FF11FED
:1027D0008083882369F08C3731F4FE01E00FF11F0C
:1027E00012826701D1CF0F5F1F4F0730110521F70C
:1027F0002896E8E00C947325CF93DF93EB018631A4
:102800009C4719F50E94EB0B9D819923A1F08A7AD0
:1028100091E0811101C090E090937D02882349F0FE
:1028200085E30E947E1C0E94A50C80E0DF91CF9181
:10283000089589E2F6CF80917D02882321F085E317
:102840000E94951CF0CF89E2FBCF81E0EFCFCF93C0
:10285000DF93EC01FB018581882309F4D2C09E013E
:1028600030572332310508F0B2C00E94310D9093E9
:10287000A1028093A002FE01E150F047E232F1058F
:1028800020F4E25FF94D0C9440258091A002816014
:102890008093A00293C08091A10288608093A102DE
:1028A0008DC08091A0028260F3CF8091A0028460ED
:1028B000EFCF8091A0028860EBCF8091A102816070
:1028C000EDCF8091A1028260E9CF8091A00280616A
:1028D000DFCF8091A0028062DBCF8091A002806474
:1028E000D7CF0E9480078091A0028068D1CF8091CD
:1028F000A0028C60CDCF8091A1028360CFCF809168
:10290000A0028E7FC5CF8091A102877FC7CF809123
:10291000A0028D7FBDCF8091A0028B7FB9CF809127
:10292000A002877FB5CF8091A1028E7FB7CF809123
:10293000A1028D7FB3CF8091A0028F7EA9CF80911D
:10294000A0028F7DA5CF8091A0028F7BA1CF0E9496
:1029500080078091A0028F779BCF8091A002837F18
:1029600097CF8091A1028C7F99CF8091A00282FBAA
:10297000992790F921E0922790FB82F990FB83F947
:1029800087CF8091A102982F909591708E7F892B8F
:1029900090FB81F983CF9091A002892F8F7B96FFC6
:1029A000806476CF0E9480079091A002892F97FBC8
:1029B00087F980586DCF81E00E94BC0D8091A00204
:1029C0009091A1020E94360D0E94800780E0DF9165
:1029D000CF91089580E0F0CF9091A002892F8F7E53
:1029E00094FF806155CF9091A002892F8E7F90FF38
:1029F00081604ECF9091A102892F877F93FF8860DD
:102A00004DCF81E0E4CF282F35EB2303C001112403
:102A100097FF04C080589109892F089580589F4FCF
:102A2000FBCF8091840280FF0DC06091090170E0AE
:102A3000660F771F60387105C0F561157105B9F132
:102A4000862F089581FF07C06091090184E0689F87
:102A5000B0011124EFCF82FF04C06091090188E02A
:102A6000F6CF809183028823E9F09091080160916C
:102A7000090170E0891730F093E0660F771F9A958F
:102A8000E1F7D8CF869F9001879F300D112483E016
:102A9000220F331F8A95E1F7692F70E0C9010E9468
:102AA0002C25C8CF68E070E0CBCF8FE7089581E098
:102AB00008958091840280FF0CC06091050170E050
:102AC00075956795759567956115710561F1862F07
:102AD000089581FF06C06091050170E075956795C6
:102AE000F3CF6091050170E082FD15C02091820254
:102AF0002223B1F0909104016091050170E0291743
:102B000050F4269FA001279F500D1124692F70E0DB
:102B1000CA010E942C2560387105B0F28FE7089534
:102B200061E070E0D4CF81E00895E3E3E80FE331A2
:102B3000E0F5F0E0E05DF94D0C9440250E941115A0
:102B400081958093880208950E941115FACF0E9402
:102B5000111581958093870208950E941115FACF6F
:102B60000E9459158093890208950E9459158195F4
:102B7000F9CF0E945915819580938A0208950E9489
:102B80005915FACF815D990B21E030E001C0220F89
:102B90008A95EAF780918602822B809386020895B7
:102BA00080918402816080938402089580918402E0
:102BB0008260F9CF809184028460F5CF40918702D2
:102BC0008D3C59F48091880287FF0DC010928802D5
:102BD000442359F41092830208C08E3C81F4809102
:102BE000880218169CF3442381F080918902909109
:102BF0008A02892B811159C01092820208958F3C5C
:102C000041F447FFF0CF1092870280918802882319
:102C1000E0CF803D19F41416B4F3E5CF909189020A
:102C2000893D29F41916FCF610928902DCCF8A3D01
:102C300019F497FFD8CFF8CF90918A028B3D29F4F1
:102C400097FFD1CF10928A02CECF8C3D19F419167E
:102C5000CCF3C9CF9FE2980F983090F4815D990B27
:102C600021E030E0B90102C0660F771F8A95E2F7D4
:102C7000CB01809590918602892380938602B3CF01
:102C80008D3D31F4809184028E7F80938402ABCF9E
:102C90008E3D21F4809184028D7FF7CF8F3D09F026
:102CA000A2CF809184028B7FF0CF08950E94951D62
:102CB0002091870230918802232B222321F08093D8
:102CC0008002909381022091890230918A02232B05
:102CD000222321F080937E0290937F0285E892E088
:102CE0000E94741B089586E0E5E8F2E0DF011D9282
:102CF0008A95E9F710928302109282021092840260
:102D00000895FC01828181110DC0838181110AC067
:102D10008481811107C081E09581911101C080E01B
:102D20008170089581E0FCCFA6E0B0E0EAE9F6E129
:102D30000C945A2586E0E5E8F2E09E012F5F3F4FB4
:102D4000D90101900D928A95E1F7109287021092B5
:102D500088021092890210928A028B819C81892BB1
:102D60008901882391F080918002909181020E94D4
:102D7000BE1D9C01809183028823C9F140910A0104
:102D800050E04217530708F43FC08D819E81892B84
:102D9000882399F080917E0290917F020E94BE1D4F
:102DA0009C0180918202882309F467C0409106014A
:102DB00050E04217530708F46EC0B80185E892E06E
:102DC0000E94C61C811105C085E892E00E94811610
:102DD00081110E94561686E0F801A5E8B2E0019044
:102DE0000D928A95E1F72696E5E00C9476254091C0
:102DF0000B019AE0499FA00111244217530728F6BE
:102E00008F5F8093830202C08F3FD1F7FB80FF204A
:102E100059F00E94111591E01F140CF09FEF899F4B
:102E2000802D112480938702FC80FF2059F00E949E
:102E3000111591E01F140CF09FEF899F802D112434
:102E40008093880280918702882309F49ECFF090B6
:102E50008802FF2009F499CF0E940315811101C057
:102E600081E0809387028F2D0E940315882319F03B
:102E7000809388028ACF81E0FBCF409107019AE0DE
:102E8000499FA00111244217530708F096CF8F5F86
:102E90008093820202C08F3FD1F7FD80FF2059F05E
:102EA0000E94591591E01F140CF09FEF899F802D0F
:102EB000112480938902FE80FF2059F00E94591549
:102EC00091E01F140CF09FEF899F802D11248093B7
:102ED0008A0280918902882309F46FCFF0908A02D8
:102EE000FF2009F46ACF0E940315811101C081E01F
:102EF000809389028F2D0E940315882319F08093F7
:102F00008A025BCF81E0FBCFA0E0B0E0EAE8F7E126
:102F10000C945625E82FF0E0E451FD4FB490282F93
:102F200026952695269530E0F901E457FC4F04914B
:102F3000877010E0082E02C0159507950A94E2F7F5
:102F400001701127F901E458FC4FE490F12C082E90
:102F500002C0F594E7940A94E2F791E0E922FF2495
:102F6000F901E459FC4FC491D0E002C0D595C79552
:102F70008A95E2F7C170DD27C62ED12C0115110507
:102F800049F5E114F10431F086EE0E949104C60186
:102F9000009771F5B6018B2D0E940C05C6010097B4
:102FA00079F5E114F104A1F50115110531F081EE77
:102FB0000E94D904C6010097C9F5CD2B31F08CE2EF
:102FC0000E942405C114D104C9F5CDB7DEB7E9E0EC
:102FD0000C94722581EE0E949104C601009789F23B
:102FE000EFE9FFE03197F1F700C000000197F6CF5D
:102FF000EFE9FFE03197F1F700C000000197C8CF7B
:10300000EFE9FFE03197F1F700C000000197C7CF6B
:1030100086EE0E94D904C601009731F2EFE9FFE085
:103020003197F1F700C000000197F6CFEFE9FFE01C
:103030003197F1F700C000000197BDCF8FE99FE005
:103040000197F1F700C0000091E0C91AD108BACF8A
:10305000EF92FF921F93CF93DF93EC01162F88819D
:10306000882309F45AC0813009F053C08981813026
:1030700071F47E0182E0E80EF11C8A810E94240531
:10308000E701812F90E00097E1F52196E8CF8230AB
:1030900041F47E01E2E0EE0EF11C8A810E9491046F
:1030A000EFCF833041F47E01F2E0EF0EF11C8A8114
:1030B0000E94D904E5CF843011F02196E2CF2A8115
:1030C000229680E090E06AE0AE014F5F5F4F2053B0
:1030D000330B2A30310550F0009799F2EFE9FFE009
:1030E0003197F1F700C000000197F6CF689FF0011B
:1030F000699FF00D1124C9018E0F9F1F2981EA01DC
:10310000E3CFEFE9FFE03197F1F700C0000001974E
:10311000BACF612F0E948417B8CFDF91CF911F9152
:10312000FF90EF9008950F931F93CF93DF93C42FD9
:10313000D22FFC0185818823C9F040938D020E9423
:10314000951D90938C0280938B0280E28C0F8830C7
:1031500040F4C77081E001C0880FCA95EAF70E9469
:103160002D05DF91CF911F910F91089510918D0240
:1031700014133CC080918B0290918C020E94BE1D62
:10318000883C910598F5C0E2CD0F1D1741F180E212
:10319000810F883040F4177081E001C0880F1A95C4
:1031A000EAF70E943405C83020F0802F0E942405E1
:1031B000D8CF91E08D2F877001C0990F8A95EAF7DB
:1031C000892F0E942D05802F0E942405D77081E051
:1031D00001C0880FDA95EAF70E943405C2CF802F2C
:1031E0000E942405C83008F0BCCFF0CF80E28C0FDD
:1031F000883008F0B6CFC77081E001C0880FCA954B
:10320000EAF7EACF0F93FC01CB01E851FC47E73026
:10321000F10590F5ED5BF94D0C94402506E221EEA9
:1032200041EE6AE17CE70E94931880E00F910895D7
:1032300007E225EE45EE6BE17CE7F5CF06E221EEF5
:1032400040EE68E17CE7EFCF07E225EE44EE69E16E
:103250007CE7E9CF06E221EE42EE6CE17CE7E3CFCA
:1032600007E225EE46EE6DE17CE7DDCF08E221E0E6
:1032700045EE6EE17CE7D7CFFB018581811110928D
:103280008D0281E0D3CFCF93DF939C01FB012737E1
:103290008CE7380739F028373C47F1F081E0DF91BF
:1032A000CF9108958581882391F00E9475190E941D
:1032B000FA070E947B19D82F0E947819C82F0E9404
:1032C00075194D2F6C2F0E942C0980E0E8CF0E94C9
:1032D00075190E940608EDCF8581882319F00E9498
:1032E0007819E5CF0E947819F4CF80910E010895E6
:1032F00080910D01089580910C01089584E290E081
:103300000E94AE25843289F485E290E00E94AE25C9
:10331000823159F486E290E00E94AE2591E084303B
:1033200009F090E0892F8170089580E0FCCF882318
:1033300081F064E284E290E00E94CC2562E185E2C3
:1033400090E00E94CC2564E086E290E00E94CC25CB
:1033500008956FEF84E290E00E94CC256FEF85E244
:1033600090E00E94CC256FEFEFCF0895A4E0B0E08D
:10337000ECEBF9E10C945D2587E290E00E94AE252C
:10338000282F30E040E050E0CA01B9012496E2E085
:103390000C9479250895CF93C62F0E94CA196C2FDB
:1033A00087E290E00E94CC25CF91089580E00E94B2
:1033B000971960E070E0CB010E94CB190E94B9120E
:1033C0000E946E1381E00E94971908950E94B5191A
:1033D0000E94B6190E94CA190E947E19811102C06A
:1033E0000E94D619089508959C01FB0185818823C8
:1033F00051F0A90157574038510530F4822F0E94EF
:103400007E1380E0089581E008952FEFFC01208372
:1034100008950E94051A089580E00895CF92DF92E2
:10342000FF920F931F93CF93DF93CDB7DEB72E9705
:103430000FB6F894DEBF0FBECDBF8D839E83F62EF0
:103440008D819E810E940C1A811115C0AD81BE81B3
:10345000EC91E150E33140F5F0E0E65BF94D0C947E
:103460004025ED81FE8111828CE082836F2D8D815C
:103470009E810E94601E2E960FB6F894DEBF0FBE8E
:10348000CDBFDF91CF911F910F91FF90DF90CF9033
:103490000895AD81BE8111968C91833099F148F4E5
:1034A000813081F08230E9F08FEFAD81BE818C9365
:1034B000DDCF8430C9F7ED81FE8112821382148240
:1034C0001582D4CF0E94A11D0E9446256F83788764
:1034D00089879A87ED81FE816283738384839583D4
:1034E000C5CF0E94B6190E9446256B877C878D87C1
:1034F0009E87AD81BE8112966D937D938D939C9333
:103500001597B4CFED81FE81028110E06F01B2E02A
:10351000CB0ED11C063011050CF0A8CF802F0E94D5
:10352000E110D60111969C93119712968C930F5F20
:103530001F4FEDCFED81FE818181823049F08530D2
:1035400009F0B2CFED81FE8182810E94F3198ECF06
:10355000AD81BE8112968D919D910D90BC91A02D53
:1035600089839A83AB83BC83BC01CD010E9446252D
:103570000E94CB197BCFAD81BE8113964C911397DE
:1035800012966C91129711968C910E947B1298273B
:1035900089279827ED81FE819583848367CFAD814C
:1035A000BE8114962D913C911597322723273227FF
:1035B00013964C91139712966C91129711968C91C9
:1035C0000E949D1253CF0E94B91250CF6F2D8D8152
:1035D0009E810E94091A4ACF0E942613ED81FE8126
:1035E000818344CF0E942813982789279827AD818B
:1035F000BE8112969C938E93119738CFED81FE81F8
:10360000638170E081819281AF014C5F5F4F9827A9
:10361000892798270E942B1329CFAD81BE8113964D
:103620006C91139770E011968D919C911297AD015A
:103630004C5F5F4F9827892798270E944D1316CF1C
:103640000E946E1313CF0E946912C8CFAD81BE8154
:1036500013966C91139770E011968D919C9112972F
:10366000AD014C5F5F4F9827892798270E94D91298
:10367000FDCEED81FE81638170E081819281AF0199
:103680004C5F5F4F9827892798270E94FA12EECE49
:1036900090939302809392020895E0919202F091A8
:1036A0009302309729F00190F081E02D099508955B
:1036B00080E00895E0919202F0919302309721F01A
:1036C0000280F381E02D09950895DC01E0919202DA
:1036D000F0919302309739F086E08C930480F58165
:1036E000E02DCD0109950895DC01E0919202F09161
:1036F0009302309739F082E08C930680F781E02DB9
:10370000CD0109950895A3E0B0E0E9E8FBE10C9450
:103710005D259C0180919002909191028217930700
:10372000A1F03093910220939002E0919202F091E7
:103730009302309751F083E089833B832A8300848E
:10374000F185E02DCE01019609952396E2E00C94D7
:103750007925A3E0B0E0EFEAFBE10C945D259C0144
:1037600080918E0290918F0282179307A1F030937F
:103770008F0220938E02E0919202F0919302309793
:1037800051F084E089833B832A830084F185E02D16
:10379000CE01019609952396E2E00C9479252091BB
:1037A0000201309103012E5F3F4F80911901882360
:1037B000A9F08091A00287FF11C0209100013091F3
:1037C00001012E5F3F4F9DE180E0F90140812F5FB5
:1037D0003F4F41118F5F9150C0F7089595E0F4CFAE
:1037E000882321F190911901992311F19091A00260
:1037F00097FF1EC0982F969596959695803FB0F4AA
:10380000E0910001F0910101E90FF11D228130E00A
:10381000877041E050E0BA0102C0660F771F8A95B9
:10382000E2F72623372381E0232B91F480E00895EB
:103830002091020130910301F9013296285F3F4F38
:103840009191981721F0E217F307D1F7EFCF81E0BC
:1038500008959C01FC0132968FEF90E0419146174C
:1038600051F08F3F19F4411101C0892F9F5F9630AD
:10387000A9F78F3F09F40895280F311D87FD3A9568
:10388000F901628308959C01FC013296285F3F4F45
:103890008191861303C0DF0111971C92E217F30791
:1038A000B9F70895FC01862F869586958695603F29
:1038B00060F4E80FF11D677021E030E001C0220FD5
:1038C0006A95EAF78281822B82830895FC01862F14
:1038D000869586958695603F80F4E80FF11D6770A8
:1038E00081E090E09C0102C0220F331F6A95E2F74D
:1038F000B90160958281682362830895682F809161
:103900001901882359F08091A00287FF07C0809198
:103910000001909101010E94521C089580910201C2
:10392000909103010E94291C0895682F809119012C
:10393000882359F08091A00287FF07C08091000181
:10394000909101010E94661C08958091020190915E
:1039500003010E94431C089580911901882379F086
:103960008091A00287FF0BC0E0910001F09101015E
:1039700032968EE1DF011D928A95E9F70895E09174
:103980000201F0910301329686E0F4CFDC01FB01E5
:1039900011969C9111978181981322C012968C9157
:1039A0001297882319F0928189131AC013968C916B
:1039B0001397882319F09381891312C015968C915F
:1039C0001597882319F0958189130AC014969C9144
:1039D000992321F081E02481291303C080E001C0F4
:1039E00081E08170089508950E94F31C08958F5F0F
:1039F000809394020E94F41C089583E080939402C3
:103A00000E94F41C08950E94F71C089581E08093A1
:103A100094020E94F41C08950E94061D08950895C2
:103A200008950E94101D0895089508950E940F1D85
:103A30000895CF930E94141D0E94AA110E94151D83
:103A4000C0E08C2F0E94E110892B31F4CF5FC6308B
:103A5000C1F780E0CF91089581E0FCCF85B7806801
:103A600085BF85B7806885BF08951F921FB61F92D6
:103A700011248F939F93AF93BF93809195028111EF
:103A800013C08091BA029091BB02A091BC02B09188
:103A9000BD024196A11DB11D8093BA029093BB0255
:103AA000A093BC02B093BD02BF91AF919F918F9143
:103AB0001F901FBE1F9018958091C202843031F173
:103AC0000E940C041092950288E190E020E40FB669
:103AD000F894A895809360000FBE2093600083B790
:103AE000817F846083BF83B7816083BF789488952A
:103AF00083B78E7F83BF0FB6F894A895809160003E
:103B0000886180936000109260000FBE08950E944B
:103B100080070E941104089582E084BD93E095BD62
:103B20009AEF97BD80936E0008952FB7F894809117
:103B3000BA029091BB02A091BC02B091BD022FBF0E
:103B40000895A4E0B0E0E7EAFDE10C945D258FB7AD
:103B5000F8942091BA023091BB024091BC0250917E
:103B6000BD0229833A834B835C838FBF69817A814D
:103B70008B819C812496E2E00C9479259C014FB7BF
:103B8000F8948091BA029091BB02A091BC02B091CE
:103B9000BD024FBF821B930B089578941F921FB6EE
:103BA0001F9211248F939F93AF93BF938091BA027A
:103BB0009091BB02A091BC02B091BD020196A11DE3
:103BC000B11D8093BA029093BB02A093BC02B09344
:103BD000BD02BF91AF919F918F911F901FBE1F900B
:103BE000189587E797E7909301088093000888E18C
:103BF0009AE00FB6F894A895809360000FBE90935A
:103C00006000FFCF88E19AE00FB6F894A895809302
:103C100060000FBE90936000FFCF80919E020895D8
:103C2000282FCB01BA013091C2023430E1F42F7059
:103C30002093E9002FEF3091E80035FD07C035ED06
:103C40003A95F1F7000021502111F5CF2091E800BD
:103C500025FF09C040E050E00E945B208091E80011
:103C60008E778093E8000895BC0143E050E084E043
:103C70000E94101E0895BC0146E050E084E00E94BE
:103C8000101E0895BC0140E250E084E00E94101E26
:103C90000895CF93DF93D82FC92F48E050E0682FC5
:103CA000792F81E00E94101E88E0ED2FFC2FA6E9FD
:103CB000B2E001900D928A95E1F7DF91CF910895DE
:103CC000792F603231F440E250E0682F82E00E94A8
:103CD000101E0895A0E2B0E0E0E7FEE10C945D253F
:103CE0008091C202843081F483E08093E900809166
:103CF000E80082FF09C08091E80085FD09C080913D
:103D0000E8008B778093E800A096E2E00C94792598
:103D100040E050E060E270E0CE0101960E94AA20EF
:103D20008091E8008B778093E80060E2CE010196F5
:103D30000E940E1AE9CF8091C102811109C00E9430
:103D400032220E948F228091E20084608093E20000
:103D500008951092C10208950E94061D0895609171
:103D6000BE0281E0611101C080E00E94FD1C089547
:103D70009091C20281E0943009F080E06091BE022F
:103D80000E94031D089542E061EC81E00E94AE2193
:103D900042E261EC84E00E94AE2142E261EC82E00A
:103DA0000E94AE2142E260EC83E00E94AE2190913D
:103DB000C20281E0943009F080E06091BE020E946E
:103DC000F71C08958091C402893089F148F482304B
:103DD00009F4A1C0833009F45BC0813041F008953B
:103DE0008A3009F488C08B3009F46DC00895809141
:103DF000C302813A09F04BC08091E800877F80932D
:103E0000E8008091C7029091C802892B61F060E0C0
:103E100080E090E070E00E94F9208091E8008B77CC
:103E20008093E800089568E086E992E0F3CF8091FE
:103E3000C302813261F58091C7029091C8028D7FE3
:103E4000892B29F58091E800877F8093E800809195
:103E5000E80082FF18C09091F3008091F200029771
:103E600031F48091F100813011F0863021F480919D
:103E7000F10080939E028091E8008B778093E800A8
:103E80000E94E22104C08091C2028111E0CF089516
:103E90008091C302813AD9F78091C7029091C802FC
:103EA000892BA9F78091E800877F8093E8008091B3
:103EB000E80080FFFCCF809119018093F100809190
:103EC000E8008E77DBCF8091C302813201F78091C9
:103ED000C7029091C802892BD1F68091E800877FB4
:103EE0008093E8000E94E2218091C502809319012D
:103EF0000E94800708958091C302813241F680912B
:103F0000E800877F8093E8000E94E2218091C6024A
:103F100080939F0208958091C302813A09F0B7CF40
:103F20008091E800877F8093E8008091E80080FF1F
:103F3000FCCF80919F02C1CF84B7877F84BF0FB62B
:103F4000F894A89580916000886180936000109239
:103F500060000FBE80E890E00FB6F8948093610097
:103F6000909361000FBE0E940C1D08950E943222A2
:103F70000E948F22E2EEF0E080818460808378945A
:103F80000E94122508958FE091E00E94481B089539
:103F90008091C202853031F48091C202853019F0DF
:103FA0000E94871D08950E945C1D0E94191D882390
:103FB00099F38091C002882379F30E9445200E94E2
:103FC0008007EACF08959A014091C9025091CA0230
:103FD0000E94EB1F0895AC01CB01D901252F332797
:103FE0002330310521F168F42130310509F443C053
:103FF0002230310509F444C080E090E020E030E058
:1040000024C02132310551F122323105A9F7833024
:10401000910590F7FC01EE0FFF1FE556FE4F208142
:10402000318188569E4FFC01808190E00EC0CA010C
:104030009927413069F08230910569F0E0ECF3E0B6
:10404000892BD1F6849190E09F012D933C930895A4
:10405000ECEAF3E0F7CFECE9F3E0F4CF833091053D
:1040600058F6FC01EE0FFF1FEF55FE4F2081318106
:1040700089E090E0EACF82E190E02FE134E0E5CF03
:104080008BE590E024EC33E0E0CF80E189BD82E174
:1040900089BD09B400FEFDCF8091D8008F7D80934B
:1040A000D8008091E00082608093E0008091E00081
:1040B00081FDFCCF0895AF92BF92CF92DF92FF9225
:1040C0000F931F93CF93DF936C01EB018A010E9442
:1040D0000122F82E811123C00115110539F0F801D4
:1040E00080819181C81BD90BC80ED91EA12CB12C7F
:1040F0002097A9F08091E80085FD22C08091E8001A
:104100008E778093E80001151105A1F0F8018081F8
:1041100091818A0D9B1D9183808385E0F82E8F2DE0
:10412000DF91CF911F910F91FF90DF90CF90BF90C3
:10413000AF9008950E9401228823E1F2F82EEFCF7C
:10414000F60181916F018093F1002197FFEFAF1A83
:10415000BF0ACECFAF92BF92CF92DF92FF920F9362
:104160001F93CF93DF936C01EB018A010E94012220
:10417000F82E811123C00115110539F0F801808155
:104180009181C81BD90BC80ED91EA12CB12C209728
:10419000A9F08091E80085FD22C08091E8008B772E
:1041A0008093E80001151105A1F0F801808191814B
:1041B0008A0D9B1D9183808385E0F82E8F2DDF91E2
:1041C000CF911F910F91FF90DF90CF90BF90AF9054
:1041D00008950E9401228823E1F2F82EEFCF80910A
:1041E000F100F60181936F012197FFEFAF1ABF0A2B
:1041F000CECFFC019B018091C9029091CA02861723
:10420000970718F0672B61F0C90140E0009771F43F
:1042100041110CC08091E80082FF35C080E0089514
:104220008091E8008E778093E800EECF2091C20263
:104230002223A9F12530A9F12091E80023FD2DC00A
:104240002091E80022FDE6CF2091E80020FFDECF9C
:104250003091F3002091F200009719F028303105D9
:1042600058F041E02830310509F040E02091E800A5
:104270002E772093E800CACF41914093F100019737
:104280002F5F3F4FE9CF8091C202882341F08530F4
:1042900041F08091E80083FFBDCF81E0089582E086
:1042A000089583E00895FC019B018091C9029091DB
:1042B000CA028617970718F0672B61F0C90140E022
:1042C000009771F441110CC08091E80082FF36C064
:1042D00080E008958091E8008E778093E800EECF2B
:1042E0002091C2022223B1F12530B1F12091E800E2
:1042F00023FD2EC02091E80022FDE6CF2091E800AA
:1043000020FFDECF3091F3002091F200009719F0EA
:104310002830310558F041E02830310509F040E0FF
:104320002091E8002E772093E800CACF4491409373
:10433000F100319601972F5F3F4FE8CF8091C20285
:10434000882341F0853041F08091E80083FFBCCFA5
:1043500081E0089582E0089583E00895982F9730D2
:1043600028F08F708093E90081E008959093E90030
:10437000242F762F50E0981731F07091EC002091A7
:10438000ED005091F00021FD02C09F5FE8CF309119
:10439000EB003E7F3093EB003091ED003D7F30939A
:1043A000ED003091EB0031603093EB007093EC0046
:1043B0002093ED005093F0002091EE0027FDE5CF13
:1043C00080E008958091C30287FF13C08091E800C8
:1043D00082FF06C08091E8008B778093E80004C0DC
:1043E0008091C2028111F2CF08958091C202882388
:1043F000D9F38091E80080FFF8CF8091E8008E77B4
:10440000ECCF2091E4003091E50095E6A901809180
:10441000EC008170882331F08091E80080FF06C0B5
:1044200080E008952091E80022FD1BC08091C20227
:10443000882391F0853091F08091EB0085FD10C0CC
:104440002091E4003091E5004217530701F39150A9
:104450009111DCCF84E0089582E0089583E008950F
:1044600081E008950E94A1220E94A922E0EEF0E0DE
:10447000808181608083E8EDF0E080818F778083A8
:1044800019BCA7EDB0E08C918E7F8C9380818F7EDC
:1044900080831092C10208950F931F93CF93DF93EF
:1044A0000E94A1220E94A922C8EDD0E088818F77C6
:1044B000888388818068888388818F7D888319BC00
:1044C0001092C2021092BE021092C0021092BF025D
:1044D00000EE10E0F80180818B7F8083888181600D
:1044E000888342E060E080E00E94AE21E1EEF0E0EF
:1044F00080818E7F8083E2EEF0E080818160808326
:10450000808188608083F80180818E7F80838881AC
:1045100080618883DF91CF911F910F910895E8ED1D
:10452000F0E080818F7E8083E7EDF0E08081816024
:10453000808384E082BF81E08093C1020E944C228C
:104540000895E8EDF0E080818E7F80831092E20094
:1045500008951092DA001092E10008951F920F92D0
:104560000FB60F9211242F933F934F935F936F9346
:104570007F938F939F93AF93BF93EF93FF9380911C
:10458000E10082FF0BC08091E20082FF07C08091B2
:10459000E1008B7F8093E1000E9411258091DA0079
:1045A00080FF19C08091D80080FF15C08091DA008B
:1045B0008E7F8093DA008091D90080FF94C080E1E3
:1045C00089BD82E189BD09B400FEFDCF81E0809301
:1045D000C2020E949B1E8091E10080FF19C0809161
:1045E000E20080FF15C08091E2008E7F8093E200A0
:1045F0008091E20080618093E2008091D800806227
:104600008093D80019BC85E08093C2020E94AF1E3F
:104610008091E10084FF29C08091E20084FF25C0E1
:1046200080E189BD82E189BD09B400FEFDCF8091A2
:10463000D8008F7D8093D8008091E1008F7E809399
:10464000E1008091E2008F7E8093E2008091E200A1
:1046500081608093E2008091BE02882309F449C002
:1046600084E08093C2020E94B81E8091E10083FF23
:1046700029C08091E20083FF25C08091E100877FFF
:104680008093E10082E08093C2021092BE0280918A
:10469000E1008E7F8093E1008091E2008E7F809325
:1046A000E2008091E20080618093E20042E060E0FD
:1046B00080E00E94AE218091F00088608093F0003D
:1046C0000E94AC1EFF91EF91BF91AF919F918F918E
:1046D0007F916F915F914F913F912F910F900FBEFE
:1046E0000F901F90189519BC1092C2020E94A91E2B
:1046F00072CF8091E30087FF02C083E0B2CF81E0F8
:10470000B0CF1F920F920FB60F921124FF920F930A
:104710001F932F933F934F935F936F937F938F9349
:104720009F93AF93BF93CF93DF93EF93FF9309EEE4
:1047300010E0F8018081C091EC00C795CC27C795A7
:104740008F70FC2EF82A1082C0EFD0E08881877F1E
:10475000888378940E94CA23F80110828881886037
:104760008883CF2DCF70C083FF91EF91DF91CF91E0
:10477000BF91AF919F918F917F916F915F914F9179
:104780003F912F911F910F91FF900F900FBE0F90AF
:104790001F901895AAE2B0E0E0EDF3E20C945C25DE
:1047A00083EC92E0FC0101962091F100208322E04D
:1047B0008B3C9207B9F70E94E21E8091E80083FFCC
:1047C00038C08091C3029091C4029A3090F5E92FCD
:1047D000F0E0E35AF94D0C944025803889F0823896
:1047E00041F58091C7028F70873018F58093E900FA
:1047F0008091EB0085FB882780F91092E90006C0C4
:104800008091BF029091C002911182609091E80066
:10481000977F9093E8008093F1001092F1008091CF
:10482000E8008E7723C0811116C08091C5028130C7
:1048300011F18091E80083FF0AC08091E800877F32
:104840008093E8008091EB0080628093EB00AA9651
:10485000E3E00C947825823061F78091C5028823CB
:1048600089F01092E9008091E800877F8093E8004A
:104870000E94E221DECF81E0933009F080E0809356
:10488000C002EFCF8091C7028F702FEF280F263024
:1048900080F68093E9002091EB0020FFE2CF933077
:1048A00031F48091EB0080628093EB00DACF90913D
:1048B000EB0090619093EB0021E030E0A90102C091
:1048C000440F551F8A95E2F74093EA001092EA00E0
:1048D0008091EB008860E8CF8111ABCF1091C502C9
:1048E0001F778091E3008078812B8093E300809193
:1048F000E800877F8093E8000E94E2218091E80031
:1049000080FFFCCF8091E30080688093E30083E028
:10491000111101C082E08093C2028BCF8058823097
:1049200008F087CF8091C5029091C6028C3D53E07C
:10493000950799F583E08A838AE289834FB7F894D3
:10494000DE01139620E03EE051E2E32FF0E05093C9
:104950005700849120FF03C082958F703F5F8F7056
:104960008A30C8F0895C90E08D939D932F5F24314D
:1049700061F74FBF8091E800877F8093E8006AE28B
:1049800070E0CE0101960E94F9208091E8008B77BB
:104990008093E8004ECF805DE6CF6091C7027091B2
:1049A000C802AE014F5F5F4F0E94E31FBC01892B1D
:1049B00009F43FCF8091E800877F8093E8008981E8
:1049C0009A810E945321E1CF803809F032CF809143
:1049D000E800877F8093E8008091BE028093F10019
:1049E0001ECF811126CF9091C502923008F021CFC1
:1049F0008091E800877F8093E8009093BE020E9438
:104A0000E2218091BE02882331F084E08093C202CB
:104A10000E94C31E0ECF8091E30087FDF6CF81E098
:104A2000F5CF0895CF938091C202882399F08091A9
:104A3000E900C091EC00C795CC27C7958F70C82BB3
:104A40001092E9008091E80083FD0E94CA23CF7094
:104A5000C093E900CF91089597FB072E16F40094B8
:104A600007D077FD09D00E94842507FC05D03EF4CD
:104A7000909581959F4F0895709561957F4F08950A
:104A8000EE0FFF1F0590F491E02D099469279627FA
:104A9000692778278727782708952F923F924F928A
:104AA0005F926F927F928F929F92AF92BF92CF92BE
:104AB000DF92EF92FF920F931F93CF93DF93CDB7C7
:104AC000DEB7CA1BDB0B0FB6F894DEBF0FBECDBF3F
:104AD00009942A88398848885F846E847D848C8410
:104AE0009B84AA84B984C884DF80EE80FD800C8119
:104AF0001B81AA81B981CE0FD11D0FB6F894DEBFFC
:104B00000FBECDBFED010895AA1BBB1B51E107C02D
:104B1000AA1FBB1FA617B70710F0A61BB70B881F4D
:104B2000991F5A95A9F780959095BC01CD010895DC
:104B3000FB01DC0104C08D910190801921F44150EA
:104B40005040C8F7881B990B0895FB01DC0102C097
:104B500001900D9241505040D8F70895F999FECF39
:104B600092BD81BDF89A992780B50895A8E1B0E07B
:104B700042E050E00C94F225DC01A40FB51F415037
:104B8000504048F0CB01840F951F2E910E94CD25F7
:104B900041505040D0F70895262FF999FECF92BD8D
:104BA00081BDF89A019700B4021639F01FBA20BDF2
:104BB0000FB6F894FA9AF99A0FBE08950396272F24
:104BC0000E94CD250E94CC25252F0E94CD25242F83
:104BD0000C94CD250196272F0E94CD250C94CC2531
:104BE000DC01CB01FC01F999FECF06C0F2BDE1BDAD
:104BF000F89A319600B40D9241505040B8F708959C
:104C0000F894FFCF79057905C005C0052506420651
:104C1000A805A8054706B406C506C5067F14F31403
:104C20008714511455148B1459148F149B14651444
:104C3000EC1469149F146D14A314CB147114A714ED
:104C4000D2147714AD14B5145D1493146114971431
:104C50007B14B114C114DB14EA144B148314FA143A
:104C60009E15A415A715AD15C215C215C215C215FE
:104C7000C215C215C215C215B015B515B915BF15A7
:104C8000D015D615DA151E1924190E1918192A1956
:104C900030193619311A491A9A1ABB1ACF1AE31A5F
:104CA000E61AE61AE61A541A541AEC1AF21AFE1AFE
:104CB0000D1B201B231B261B391BED23132419243A
:0E4CC000132419246C248E241924E424F124D6
:104CCE0039025902280850011E0A14010302010D6F
:104CDE001E491E421E3B1E341E01E200E900EA0080
:104CEE00B500B600B700CD008301CC008A01920159
:104CFE0094012102230224022502260227022A02FF
:104D0E00B300B4006F0070009F01CB019F02A002A0
:104D1E00E200E900EA00B500B600B700CD0083015D
:104D2E00CC008A0192019401210223022402250261
:104D3E00260227022A02B300B4006F0070009F0102
:104D4E00CB019F02A00266949091929397C6353440
:104D5E003236F73133F6F5F44422B60905310453F1
:084D6E0004D603EF030F04005B
:00000001FF
