:100000000C94A7020C94C4020C94C4020C94C40275
:100010000C94C4020C94C4020C94C4020C94C40248
:100020000C94C4020C94C4020C9409220C94DC229B
:100030000C94A51C0C94C4020C94C4020C94C4022D
:100040000C94C4020C94C4020C94C4020C94C40218
:100050000C94C4020C942C1D0C94C4020C94C40285
:100060000C94C4020C94C4020C94C4020C94C402F8
:100070000C94C4020C94C4020C94C4020C94C402E8
:100080000C94C4020C94C4020C94C4020C94C402D8
:100090000C94C4020C94C4020C94C4020C94C402C8
:1000A0000C94C4020C94C4020C94C40235000000E9
:1000B0000000000000000000000000000000000040
:1000C00000004C001E001F00200021002200230021
:1000D00024002500260027002D002E002B001400F0
:1000E0001A000800150017001C0018000C00120070
:1000F00013002A00290004001600070009000A0066
:100100000B000D000E000F0033003400E1001D0055
:100110001B00060019000500110010003600370012
:1001200038001E7CE000E300007EE2002152000067
:100130002C0022525000510052004F0001000000DC
:1001400000000000000000000000000000000000AF
:10015000000001003A003B003C003D003E003F0033
:1001600040004100420043004400450001000100FE
:100170005200010001005F00600061000100010009
:100180002F0030003900500051004F0001005C008A
:100190005D005E000100010001003100010001006E
:1001A00001000100010059005A005B00010001003C
:1001B0000100280001000100010001000100000011
:1001C000620063004A004E004B004D000100000039
:1001D000000000000000000000000000000000001F
:1001E0000000010001000100010001000100010008
:1001F000010001000100A800AA00A90001000100FF
:1002000001000100010001000100010001000100E6
:100210002F00300001000100010001000100010079
:100220000100010001000100010031000100010096
:1002300001000100010001000100010001000100B6
:10024000010028120100010001000100010000006E
:10025000010001000100010001002811010000005F
:10026000000000000000000000000000000000008E
:100270000000010001000100010001000100010077
:100280000100010001000100010001000100010066
:100290000100010001000100010001000100010056
:1002A0000100010001000100010001000100010046
:1002B0000100010001000100010001000100010036
:1002C0000100010001000100010001000100010026
:1002D0000100010001000100010001000100000017
:1002E0000100010001000100010001000000000008
:1002F000000000002A2B2800000000000000000081
:100300000000000000000029000000002C1E342026
:10031000212224342627252E362D3738271E1F204C
:100320002122232425263333362E37381F04050691
:100330000708090A0B0C0D0E0F10111213141516D5
:100340001718191A1B1C1D2F3130232D35040506D3
:100350000708090A0B0C0D0E0F10111213141516B5
:100360001718191A1B1C1D2F3130354C00000000C6
:10037000000000000000000000000000000000007D
:10038000000000000000000000000000000000006D
:100390007E0F00D4FFFFFFC7000000780E034B0064
:1003A000720074006B00750073000000120373008C
:1003B00077006900660074003500300032000000EC
:1003C0000403090409025B00030100A0FA09040008
:1003D000000103010100092111010001224400076D
:1003E000058103080001090401000203000000095F
:1003F00021110100012222000705820320000107CC
:1004000005030320000109040200010300000009A4
:10041000211101000122B60007058403200001120A
:1004200001000200000008424A1616000101020005
:10043000010660FF0961A1010962150026FF009510
:1004400020750881020963150026FF0095207508B4
:100450009102C005010902A10185020901A100055F
:100460000919012908150025019508750181020562
:1004700001093009311581257F950275088106092A
:10048000381581257F950175088106050C0A38020B
:100490001581257F950175088106C0C00501098079
:1004A000A101850319012AB700150126B70095019E
:1004B00075108100C0050C0901A101850419012AEC
:1004C000A002150126A002950175108100C005014A
:1004D0000906A1018506050719E029E71500250190
:1004E0009508750181020507190029EF15002501FE
:1004F00095F0750181020508190129059505750119
:100500009102950175039101C005010906A101053C
:100510000719E029E7150025019508750181029565
:1005200001750881010507190029FF150026FF0044
:100530009506750881000508190129051500250192
:10054000950575019102950175039101C000112473
:100550001FBECFEFDAE0DEBFCDBF11E0A0E0B1E01B
:10056000EAE8FBE402C005900D92A83AB107D9F77A
:1005700022E0A8EAB1E001C01D92AB3CB207E1F76E
:100580000E943A120C945E250C9400000F931F9366
:10059000CF93DF93EC018B010E94FD0B982F927299
:1005A000C630D10551F1C1152EE7D20741F0C53053
:1005B000D105D1F0B801CE010E942B030BC0F80188
:1005C00025812115B9F38171811549F088EA0E94CE
:1005D000250580E0DF91CF911F910F9108958AEA60
:1005E0009115A9F389EAF3CFF8018581811511F3FB
:1005F000923201F70E949D03ECCFF80185818115AD
:10060000C9F29232B9F60E94C90D0E94A303E1CF4C
:100610008430B8F46630A8F44C3098F4E42FF0E05D
:100620009CE0699FE00DF11D112498E4899FE00D85
:10063000F11D1124EE0FFF1FE455FF4F859194919A
:10064000089581E090E0089581E008950E942403D8
:10065000089581E0089581E0089508950E942D0392
:100660000895A6E0B0E0E7E3F3E00C94BA244983F0
:100670005A839E833091AF0189819A8131111AC0CA
:100680003E81311599F0211589F00E94B908182F83
:10069000682F89819A810E94950869817A81812FCA
:1006A0000E94DB0F2696E3E00C94D6240E94A70854
:1006B000182FF3CF0E94B90869817A81F1CFFC012C
:1006C000262F4081518162817381848195810E94AE
:1006D00031030895CF93DF93D82FC92F61E00E9493
:1006E0005F036D2F7C2F0E942603DF91CF91089529
:1006F000CF93DF93D82FC92F60E00E945F036D2F47
:100700007C2F0E942E03DF91CF91089581E0089500
:100710000E9486030895CF93C82F0E9483078C2FD1
:100720000E9488032FEF84E39CE02150804090409A
:10073000E1F700C00000CF91089581E00E948B0393
:100740000E94501D089580E00E948B030E94611D4D
:1007500008950F931F93CF93DF938C0161E00E9464
:100760005F03EC01B8010E94CE19811509F442C063
:10077000B801CE010E94C6028115E1F1B801CE0197
:100780000E94E8188115B1F1B801CE010E942D1424
:10079000811581F1B801CE010E940214811551F139
:1007A000B801CE010E942A19811521F1F801858135
:1007B000811581F0CA35FCE7DF0739F178F4C130E3
:1007C000ECE7DE07F9F0C330FCE7DF07C9F0C1153D
:1007D000DC4771F0C8010E9429030DC0CB35ECE75E
:1007E000DE07B1F0CC35DC47A9F70E94130DF2CF3C
:1007F0000E949D0380E0DF91CF911F910F9108959A
:100800000E94240D0E94A303F5CF0E941C0DE2CF8D
:100810000E94200DDFCF0E94811C0E942B040895AE
:100820000E942F040E94861C089581E00895089577
:10083000CF93DF93D82F0E941504C82F811519F08C
:100840008D2F0E9417048C2FDF91CF91089508956A
:100850000E941804089580E00E94280408950E94D0
:10086000BC1A0E9428040895CF930E94BC1AC82F76
:100870008091AA018C1779F0C093AA010E94111DE2
:100880006093AB017093AC018093AD019093AE0186
:100890008C2F0E942804CF910895ADE0B0E0E3E5ED
:1008A000F4E00C94BB24488759876A877B878C8740
:1008B0009D8791110E941F0C1F8286E0FE013896D1
:1008C000DE01119601900D928A95E1F78D818111DB
:1008D0000DC029813A814B815C816D817E818F8140
:1008E0000E94690B2D96E2E00C94D724CE0101966C
:1008F0000E946A038111EDCFF5CFFC018481813024
:1009000021F4808191810E94E2080895611529F007
:100910000E9493150E94541608950E94DC15FACF88
:10092000CF93C82F811599F08CEF8C0F813A88F402
:100930008C2F0E94601B811529F08C2F0E94051CB2
:100940000E94B50C8C2F0E94EE1B0E94B50CCF911B
:10095000089580E28C0F883048F4C77081E001C0B0
:10096000880FCA95EAF70E94000CEFCF8BE58C0F39
:10097000833038F42C2F2452330BC9010E94F21A11
:10098000E6CFE8E5EC0FEB3150F4F0E0EE0FFF1F9F
:10099000E65EFE4F808191810E94181BD8CF83E3D1
:1009A0008C0F8331A0F661E08C2F0E948604CFCF9C
:1009B000811581F19CEF980F913A28F40E94051C53
:1009C0000E94B50C089590E2980F983050F487700B
:1009D00091E001C0990F8A95EAF7892F0E94060CD1
:1009E000EFCF9BE5980F933028F480E090E00E94D1
:1009F000F21A089598E5980F9B3128F480E090E072
:100A00000E94181B089593E3980F933118F460E047
:100A10000E94860408950F931F93CF93C82F8B01D4
:100A20000E9490040115110539F48C2F0E94D804FE
:100A3000CF911F910F9108958FE99FE00197F1F7F2
:100A400000C0000001501109EDCF60E570E089336E
:100A500011F060E070E00E940B050895811521F00F
:100A60000E94000C0E94B50C0895811521F00E948F
:100A7000060C0E94B50C0895A0E0B0E0E2E4F5E0B9
:100A80000C94B5246C01D62FC72FFC011581F6807C
:100A9000F2948FE0F8220E94F50BE82E8115F9F010
:100AA000E12E1115E1F08C2F807F803461F080E21F
:100AB0008D0F8830F8F08C2F807E803221F4D23078
:100AC000C8F0F114B9F08091A10282FF13C082E056
:100AD0000E94E60C0E94F50B91E0E82EE926EC2F2F
:100AE000E295EF70C03C08F065C0F0E0E05AFA4DC6
:100AF0000C949E24E12CF3CF0C2F0F70C03110F01A
:100B00000295007F111599F0011559F080E28D0FC3
:100B1000883010F0D11107C0802F0E94000C0E9475
:100B2000B50C8D2F3FC0802F0E94110CF8CF8D2F58
:100B30000E94D8040115F1F180E28D0F883010F089
:100B4000D11104C0802F0E94060C03C0802F0E9488
:100B5000170C0E94B50C2EC00C2F0F70C07FC03236
:100B600011F00295007FD11579F0D13009F455C00C
:100B7000111509F45FC0F114C9F1F601868180FFF7
:100B8000D0CF8F70868332C08091A10282FD2AC0AF
:100B9000111559F0011529F0802F0E94000C0E94B8
:100BA000B50C80E00E94900405C080E00E94D8044B
:100BB0000111C8CFE11489F00E94F10B80FD0DC036
:100BC000F60115820E94EB0B0E940408C6010E94E8
:100BD0004A070E94EB0B0E941008CDB7DEB7E8E091
:100BE0000C94D124111569F0F11004C0802F0E94DB
:100BF0002E05E0CFF1E0FF12DDCF802F0E94370CF1
:100C0000D9CFF110D7CF802F0E943505802F0E94B9
:100C1000430C802F0E94260CCDCF111521F026E029
:100C2000F21640F6E3CF85E0F81620F6802F0E94FA
:100C30003505C0CFF114D1F3D93349F4FFEF27EED6
:100C400083E0F15020408040E1F700C000008D2F8C
:100C50000E94D804AFCF8C2F86958695837081151E
:100C600069F0813009F0A6CF8D2F9C2F9370111160
:100C700002C080E090E00E94181B9CCF8D2F9C2F1B
:100C80009370111102C080E090E00E94F21A92CF9E
:100C9000612F8D2F0E9486048DCF8C2F8370811140
:100CA00034C0111124C04D2F429546954770440F12
:100CB000440F8D2F8F70042E01C0880F0A94EAF71D
:100CC0002D2F2071D4FF07C02FE030E001C0220F8C
:100CD0004A95EAF72095C695C695C370822BC23017
:100CE00071F0C33079F0C13039F00E94E0070E9402
:100CF000BC1A0E9428045ECF0E94DA07F8CF0E9437
:100D0000E607F5CF0E94D707F2CF111539F1C0FFE2
:100D1000EECF4D2F429546954770440F440F8D2FCF
:100D20008F70042E01C0880F0A94EAF72D2F2071CE
:100D3000D4FF07C02FE030E001C0220F4A95EAF748
:100D40002095C695C695C370822BC23069F0C3301A
:100D500071F0C13031F00E943208C9CF823038F2D0
:100D6000D8CF0E942C08C3CF0E943808C0CF0E9461
:100D7000F207BDCFCF70111539F08C2F0E940408F7
:100D80008D2F0E942E05B3CF8D2F0E9435058C2FFD
:100D90000E941008ACCFD23F51F170F4D03FC9F09F
:100DA000D13F91F0111509F449C0F11409F443C081
:100DB0008D2F0E9490049BCFD33F01F1D43F91F738
:100DC0008091A10282FD24C08C2F8F71111501F337
:100DD00012C0111549F095E0F91608F088CF8C2F54
:100DE0008F710E94200883CFE6E0FE16F6CF8C2F8D
:100DF0008F711111CDCF0E94040879CF111529F000
:100E00008C2F8F710E94FB0772CF0E94F7076FCF64
:100E1000111531F063E08C2F8F710E94C70C67CFE2
:100E200081E00E94E60CF2E0FF1608F460CF82E059
:100E30000E94E60C5CCF8C2F8F71DDCFF11479F01E
:100E4000D93349F42FEF87EE93E021508040904052
:100E5000E1F700C000008D2F0E94D80448CF8C2FEE
:100E60008F7196CF0F931F93CF93DF93EC0168811F
:100E700079818D810E94EF088C010E943E080E94BA
:100E8000D607B801CE010E943C05DF91CF911F919A
:100E90000F910895CF93DF93EC018C81811599F028
:100EA000CE010E94A903811111C00E94F50B81158A
:100EB00051F08D81811539F08091A10282FF03C02C
:100EC00082E00E94E60CDF91CF910895CE010E944E
:100ED0003207CE010E947803F6CF80E090E00E94B6
:100EE000F21A80E090E00E94181B0E941F0C0E94E2
:100EF000B50C0E9471160E94541608950E941C1C85
:100F00000E946D0708950E940E0C0E947E070895AE
:100F1000282F92959F70963099F060F4925F9F70A1
:100F2000923030F4203FB1F038F481E0283E38F0C0
:100F300080E008959A5FF3CF81E0243FC9F70895D8
:100F400091E0813F09F090E081E0283E08F080E0E8
:100F5000892B089581E00895FC018481811539F081
:100F6000808191810E94E2080E948807089580E0B4
:100F70000895A6E0B0E0EFEBF7E00C94BB242696D2
:100F8000E2E00C94D724A7E0B0E0E9ECF7E00C94A1
:100F9000BB242796E2E00C94D72408950E94CD0745
:100FA00008950E94CE078093CC01089508950E9471
:100FB000D10708959091CC01892B0E94D107089503
:100FC0009091CC0189230E94D10708959091CC0182
:100FD00089270E94D10708950E94CD0708950E9495
:100FE000EC0708950E94EF078093CB01089580E0FD
:100FF0000E94F207089591E001C0990F8A95EAF7DF
:10100000892F0E94F207089521E030E001C0220FED
:101010008A95EAF78091CB01822B0E94F20708950E
:1010200021E030E0A90102C0440F551F8A95E2F784
:10103000CA0180959091CB0189230E94F2070895FF
:1010400021E030E001C0220F8A95EAF78091CB01C0
:1010500082270E94F20708959091CB01892B0E946C
:10106000F20708959091CB0189230E94F207089519
:101070009091CB0189270E94F207089508959B0162
:10108000677091E001C0990F6A95EAF763E03695C1
:1010900027956A95E1F7B901660F771F260F371F6D
:1010A000FA01E20FF31F40E050E0682F70E08191F9
:1010B000DF019B01042E02C0369527950A94E2F7C2
:1010C000217021952827292328272E934F5F5F4FD2
:1010D0004330510561F708959C01A82FA77083E064
:1010E000369527958A95E1F7C901880F991F820FD8
:1010F000931FFB01E80FF91F40E050E080E02191D1
:1011000030E00A2E02C0369527950A94E2F7217046
:101110003327042E01C0220F0A94EAF7822B4F5F77
:101120005F4F4330510559F70895282F862F963089
:1011300068F42C3058F4622F70E02CE0929F600D20
:10114000711D112440EB51E00E943F080895292FA2
:10115000963068F48C3058F490E060EB71E03CE03D
:10116000239F800D911D11240E946C08089580E03A
:101170000895A0E0B0E0EFEBF8E00C94B6247C0119
:101180000091CB018091CC01082BC3E0D0E010E0AE
:10119000C8010C2E02C0959587950A94E2F780FD50
:1011A00009C02197A8F7D12C8D2DCDB7DEB7E7E088
:1011B0000C94D224DC2EB7018C2F0E94E70F0197EC
:1011C00081F3F2CFCF93DF93D82FC92F0E94B908B4
:1011D0006D2F7C2F0E94E70FDF91CF9108951F9311
:1011E000CF93DF93162FD72F9091AF01911541F038
:1011F000862F972F0E94E208DF91CF911F910895CB
:10120000811581F0862F972F0E94B908C82F682F6B
:10121000812F9D2F0E949508612F7D2F8C2F0E947A
:10122000E70FEACF862F972F0E94A708C82FF4CF89
:10123000E1E0F0E0DF0102C0AA0FBB1F6A95E2F710
:10124000BD01DF0102C0AA0FBB1F4A95E2F76A2B5E
:1012500001C0EE0F2A95EAF7962F9823961302C045
:101260008E2B0895E0958E230895242F462F682F06
:101270008091CB010E9418090E94F20708950F93F4
:101280001F93CF93E091CD01C7E08091CE018E13E3
:1012900004C0CF911F910F9108950E2F10E0CE9FA3
:1012A000F0011124E153FE4F2081318142815381AD
:1012B0006481758186810E94C307F8013196E770C9
:1012C000E4CF209107023091080240910902509129
:1012D0000A0260910B0270910C0280910D020E9433
:1012E000C307089580910D02803178F480910C023B
:1012F000811559F0E091CD012091CE013091080285
:101300004091070257E02E1301C008956E2F70E040
:101310005E9FF0011124DF01A153BE4F14968C9102
:101320001497811561F111968C911197831327C041
:101330008C91841324C015968C91159781111FC030
:1013400012968D919C91A0910902B0910A028A1B7C
:101350009B0B883C910598F480910D028F70806101
:1013600080930D02EB52FE4F80818F7080618083ED
:1013700087E092E00E944A070E943F090895FB011E
:101380003196E770C0CFE091CD019091CE0127E07A
:10139000E91302C080E00895AE2FB0E02E9FF00167
:1013A0001124E153FE4F3181361306C030813813CA
:1013B00003C03581341304C0FD013196E770E8CFD6
:1013C00081E008958F929F92AF92BF92DF92EF9249
:1013D000FF920F931F93CF93DF93CDB7DEB72D9777
:1013E0000FB6F894DEBF0FBECDBF8C0186E0F801CA
:1013F000DE01189601900D928A95E1F7D8011596B5
:10140000FC90159714968C9197E0892E92E0992E76
:1014100090910B0291111BC0811509F409C1F114BF
:1014200009F44AC1C8010E94AC07811509F444C1FE
:1014300087E0F801D40101900D928A95E1F7C4018B
:101440000E947D040E9472090E946109F1C0F801A6
:10145000E080A280B380D0900C02209109023091EC
:101460000A02A501421B530BD11409F4E4C0483C05
:10147000510508F0B4C0811509F4DAC09091080252
:10148000918080910D02803108F079C0991229C0B5
:10149000909107029E1125C0F1105EC08F7080618F
:1014A00080930D020E94610987E092E00E944A0742
:1014B00080910D02D80116968C93F12C8F2D2D96CC
:1014C0000FB6F894DEBF0FBECDBFDF91CF911F9155
:1014D0000F91FF90EF90DF90BF90AF909F908F9013
:1014E0000895F11039C040E0692D8E2D0E94C30986
:1014F00040E0692D8E2D0E94C309F82E8111DDCFA9
:10150000888599850E94E208292F22952F709034B2
:1015100050F49F70223080F0911599F0F801968177
:10152000903178F4CBCF2A5F2F70223078F0C80149
:101530000E944A07FD2CC2CF911519F0811509F4BC
:10154000BDCF805E883008F4B9CFF1CF803F08F47A
:10155000B5CF815F8330F7CF80910D02816080939A
:101560000D0287E092E00E944A0787E0E7E0F2E0A0
:10157000DF011D928A95E9F70E9461099ECF9912B9
:1015800007C0909107029E1103C0F11409F474C0C2
:10159000C8010E94AC07811509F48EC0F11409F44A
:1015A0008BC080910D02803288F02091070230912B
:1015B00008023A832983BC82AB8290910B029D83FF
:1015C0001E828F83CE0101960E944A0787E0F801B0
:1015D000A7E0B2E001900D928A95E1F733CF9091A8
:1015E0000D02903178F4488559856A857B858C8514
:1015F0009D850E94B90787E092E00E944A0787E034
:10160000D401B7CF8115A1F0209108028181281360
:10161000BFCF809107028E11BBCFF110B9CF968357
:10162000C8010E944A0787E0D4011D928A95E9F714
:10163000FF24F39443CF483C510508F041C0811585
:10164000B9F3F114C9F190910802818198132AC06D
:10165000809107028E1126C080910D0280FD19C075
:101660008031B8F08683807F803F39F08681982F63
:10167000907F905F8F70892B8683C8010E944A07F4
:1016800087E0F801A7E0B2E001900D928A95E1F7BA
:10169000DBCE87E0F801A7E0B2E001900D928A95D9
:1016A000E1F7C6CFC8010E94AC0781118FCF8091AE
:1016B0000D02816080930D02C8010E944A07B8CFD5
:1016C000488559856A857B858C859D850E94B907EB
:1016D00096CFAEE0B0E0EFE6FBE00C94BA242887AA
:1016E00039874A875B876C877D878E87CE0108960E
:1016F0000E94E2096C858115A9F0611541F02885E9
:1017000039854A855B857D858E850E94C30717E0F4
:101710008091CD019091CE0189133AC02E96E3E0DD
:101720000C94D62487E0FE013896DE0111960190D4
:101730000D928A95E1F7611551F3A091CE018A2FA0
:1017400090E00196877099272091CD0128171906FE
:1017500089F097E09A9FD0011124A153BE4FFE015A
:10176000319601900D929A95E1F78093CE010E94F7
:101770003F09CDCF0E9483071092CE011092CD0178
:1017800087E0E7E0F2E0DF011D928A95E9F7BFCF3D
:10179000189FC001112481539E4F0E94E2098115B8
:1017A00009F4BCCFE091CD011E9FF0011124E1535B
:1017B000FE4F208131814281538164817581868110
:1017C0000E94C3078091CD0190E001968770992710
:1017D0008093CD019DCF8091360286958695869522
:1017E000089580913602877008959091360297701F
:1017F00081E0911101C080E0089580916202089516
:1018000090916202982B909362020895982F909580
:10181000809162028923809362020895109262028D
:10182000089590916102982B909361020895982FEA
:1018300090958091610289238093610208951092AE
:101840006102089508950E94220C08959091370234
:10185000292F2823211531F0809589238093370281
:101860000E94230C089508950E94330C08959091CE
:101870003802292F2823281729F0982B9093380213
:101880000E94340C089590913802292F28232115A5
:1018900031F080958923809338020E94340C08959A
:1018A00080913802811529F01092380280E00E9460
:1018B000340C0895CF93C091620280916102C82BCD
:1018C00080913802811531F0C82B0E943E1B811196
:1018D0000E94500C8C2FCF910895CF93DF93C0912D
:1018E0000201D09103010E945A0C8883C091020129
:1018F000D091030148E050E06EE272E0CE010E9418
:10190000F624892B59F088E0FE01AEE2B2E00190A6
:101910000D928A95E1F7CE010E94C91ADF91CF910D
:101920000895CF93DF93C0910001D09101010E94EF
:101930005A0C8983C0910001D091010140E250E02E
:101940006EE072E0CE010E94F624892B59F080E20D
:10195000FE01AEE0B2E001900D928A95E1F7CE0172
:101960000E94D41ADF91CF910895809119018115B9
:1019700039F08091A00287FF03C00E94910C089566
:101980000E946D0C089508950E94C30C0895962F2F
:101990002091A10222FF11C0682F660F660F660F0B
:1019A000692B609336020E94040880913602869566
:1019B000869586950E94C40C08950E940408089597
:1019C0001092360280E00E94C40C08959091360275
:1019D0008095892380933602282F277021110DC00E
:1019E000891759F09091A10292FF07C086958695BC
:1019F00086950E9410080E94E00C08959091A10223
:101A000092FB222720F9281769F080FB92F9909326
:101A1000A1028091A0029091A1020E94460D82E055
:101A20000E94E60C08958091A102002482FF039495
:101A3000802D0E94FE0C089581E00E94FE0C089506
:101A400080E00E94FE0C08956FEF7FEF80E090E051
:101A50000E944825089580E090E00E941425853E6C
:101A60009E4F19F40E946519089580E0089582E060
:101A700090E00E940C25089583E090E00E940C25E0
:101A8000089584E090E00E9414250895BC0184E04C
:101A900090E00E9448250895AB01BC018FE090E0E2
:101AA0000E943C250895AB01BC0183E190E00E94B7
:101AB0003C25089560E070E0CB010E94530D08952D
:101AC00060E070E0CB010E944C0D0E945A0D089519
:101AD000A8E0B0E0EEE6FDE00C94BB2465EE7EEFFE
:101AE00080E090E00E94482560E082E090E00E9463
:101AF0002A2581E08093CC0161E083E090E00E94A0
:101B00002A2560E074E184E090E00E94482560E0CE
:101B100086E090E00E942A2560E087E090E00E9445
:101B20002A2540E050E0BA0188E090E00E943C2580
:101B300060E083E290E00E942A2560E08CE090E083
:101B40000E942A2560E08DE090E00E942A251982FB
:101B50001A821B821C821D821E821F82188648E008
:101B600050E067E170E0CE0101960E941A2540E046
:101B700050E0BA018FE190E00E943C2580E00E9495
:101B80007E190E94B0190E94600D2896E2E00C9424
:101B9000D7240E94680D0895682F8EE090E00E947F
:101BA0002A250895A6E0B0E0E8EDFDE00C94B92404
:101BB0000E94051D8C018091630290916402801740
:101BC000910779F019821A820E94051DBC01498192
:101BD0005A8180E090E00E944D04109364020093CB
:101BE00063022696E4E00C94D5240E94111D6093B4
:101BF00075027093760280937702909378026093D7
:101C0000710270937202809373029093740208952C
:101C1000089508950E94080E089508950E940D0EDB
:101C200008958CED90E10E9451120E94090E0E94CD
:101C30000A0E089581E0089581E008950E941A0E29
:101C40000895089508950E94210E0E94220E08957D
:101C50000E942B0D811102C00E94C90D0E94370DF8
:101C6000809379020E94410D9093A1028093A0027B
:101C70000E9474120E943C0D0E94D7078091CB01F4
:101C80000E94EF0708950E94FC1C0E94C0190E9448
:101C9000A2110E94280E0E9427040E940E0E089591
:101CA000A6E0B0E0E6E5FEE00C94AF240E941C0E36
:101CB00081110AC00E94D20D0E9492160E94340423
:101CC0002696EEE00C94CB240E94B81125E6822ED5
:101CD00022E0922E540110E0F501619071905F01B5
:101CE000812F0E94E6106C011F5F163009F44AC074
:101CF0006816790689F38091790281FD0E94EF10C0
:101D00000E941E0E782E10E066246394812F0E949C
:101D1000E6107C01F401A190B1904F018A159B055A
:101D200059F1A826BF2400E0CC24C394D12CC501CE
:101D30008C219D21892BC1F07114B1F009831A8384
:101D40000E94051D9C838B836D8221E0C7018C213D
:101D50009D21892B09F420E049815A816B817C8186
:101D60008D81922F0E944D040F5FCC0CDD1C0C3036
:101D7000F1F6F401F292E2921F5F163039F60E94FA
:101D8000F50D9ACF6816790609F0B5CF93CF1F935A
:101D9000CF93DF930E94EC0FEC01811522E59207AF
:101DA00008F05DC0811540E5940708F0DBC0803E77
:101DB000910528F58D3C910508F0ACC0883A910555
:101DC00078F4853A910508F0A2C08130910509F4B4
:101DD00041C00497813A9105E8F1C0E0D0E03AC0F3
:101DE000885A91094B97C8F7C85AD0E0CC0FDD1F2D
:101DF000C05BDE4F0990D881C02DD4642BC0811503
:101E000050E49507F8F4C11580E2D80708F0C0C087
:101E1000C83ED105F8F0CE019A9581159F41E8F6AC
:101E20008D2F0E948D10182FCE0199270E94EC0F44
:101E3000212F30E0322F2227E901CC27DF71C82B78
:101E4000D92B08C099270E94EC0FCC27DF70C82B34
:101E5000D92BD06ACE01DF91CF911F9108958038A0
:101E600042E59407C8F5803652E5950708F05BC057
:101E7000C03482E5D807D0F4C03292E5D90708F023
:101E80004BC08C2F8695869520E2829FC00111243D
:101E9000C37021E030E0A90102C0440F551FCA956C
:101EA000E2F7EA01C82BD92BDD68D4CF8C2F8695B9
:101EB0008695877050E2859FC0011124C37021E090
:101EC00030E0A90102C0440F551FCA95E2F7EA01AC
:101ED000C82BD92BDC68BECF803C52E5950758F45F
:101EE0008F71C03AD245A0F590E0982F8827EC0179
:101EF000C46FD06AAFCF805C9245809708F06DCFF9
:101F0000DC2FCC27CC27DF71C06FD06AA3CFA4977A
:101F1000D064A0CFD0659ECFCF71D0E0DC2FCC278E
:101F2000C16FD06A97CF86958695877020E2829F91
:101F3000C0011124C37021E030E0A90102C0440FA8
:101F4000551FCA95E2F7EA01C82BD92BDA6882CF70
:101F50000E948D10C82FD0E0DC2FCC27CC27DF715A
:101F6000D06278CF8F710E948D1053E0CC0FDD1FAF
:101F70005A95E1F7CC27DF70282F30E084FF04C0AA
:101F800050E1859F90011124C22BD32BD06962CFE1
:101F90008D2F8F710E948D10182FCE0199270E94CE
:101FA000EC0F212F30E0322F222722273F71282BE0
:101FB000392BE901D5CF462F672F763028F44C30E6
:101FC00018F40E942813089580E090E008950E947C
:101FD000DB0F0E94C70E08959C01803E910509F415
:101FE00048C0D8F48133910509F47DC048F48932A2
:101FF000910509F46DC08A9709F47CC0C901089560
:102000008933910551F18238910539F1C597B1F7BE
:102010008091A00285FFF2CF29C0843E910509F48A
:1020200047C048F4823E910599F1833E9105A9F19C
:1020300021EE30E0E3CF863E910509F444C0873EAF
:102040009105E1F68091A00283FD61C09091A1020B
:1020500091FF2BC024EE30E0D1CF8091A00283709D
:10206000811152C08091A10283FFC8CF29E230E0E4
:10207000C5CF8091A00280FD33C09091A10290FF56
:10208000BDCF23EE30E084FFB9CF20E030E0B6CF03
:102090008091A00282FDF5CFB1CF8091A00282FD98
:1020A00030C09091A10290FD2FC084FFA7CFEDCF4B
:1020B0008091A10281FFA2CF8091A00227EE30E0A3
:1020C00084FDE3CF9BCF8091A00283FDF7CF96CF15
:1020D0008091A00285FD1EC08091A10283FF8ECF5A
:1020E00029E330E08BCF8091A00286FF87CF2AE2E0
:1020F00030E084CF8091A00286FF80CF21E330E0E2
:102100007DCF22EE30E07ACF20EE30E077CF26EEA2
:1021100030E074CF25E330E071CF9091A00292FFC0
:1021200010C041E0282F2471243009F040E031E054
:10213000282F2871283009F030E0431711F02CE0E7
:10214000822793FF10C041E0282F2471243109F029
:1021500040E031E0282F2871283109F030E04317A2
:1021600011F02CE082273091A10230FF10C051E025
:10217000282F2171213009F050E041E0282F2871EB
:10218000283009F040E0541711F029E0822731FF90
:1021900010C041E0282F2171213109F040E031E0E9
:1021A000282F2871283109F030E0431711F029E079
:1021B000822794FD877E089580E0089508950E9407
:1021C000DE10089508950E94E2100895E82FF0E0CF
:1021D000EE0FFF1FE255FD4F808191810895089514
:1021E00080EA8A95F1F7089500C008950E94F010E2
:1021F0000895F894E82FE295EF70F0E041A18F7018
:1022000021E030E0B90102C0660F771F8A95E2F73E
:10221000CB01962F9095942391A392A1892B82A311
:1022200078940895CF93DF93C2E9D1E089918F3FED
:1022300011F00E94F91081E0C839D807B9F7C6E853
:10224000D1E089918F3F11F00E94F91081E0C239ED
:10225000D807B9F7DF91CF9108958F929F92BF92DF
:10226000CF92DF92EF92FF920F931F93CF93DF9362
:102270008C01B62EE62EF12CC7018E569E4F6C01B6
:10228000FC0180818F3F09F451C0F894E82FE2955A
:10229000EF70F0E091A18F7021E030E001C0220FDB
:1022A0008A95EAF7892F822B81A382A12095282382
:1022B00022A378940E94F410E6E8F1E021E030E0F7
:1022C000812C912C41914F3F81F0A42FA295AF70AA
:1022D000A05EB0E08C9190E04F7002C0959587951C
:1022E0004A95E2F7E90180FF04C080E0C82F90E042
:1022F000D92F8C2A9D2A220F331F81E0E239F8075B
:1023000009F7F60180818F3F11F00E94F91061E01A
:102310008114910409F460E08B2D0E94F610EE0CFC
:10232000FF1C0E0D1F1DF80191828082DF91CF915D
:102330001F910F91FF90EF90DF90CF90BF909F90F3
:102340008F9008950E9412118CE0EEEAF2E0DF0116
:10235000982F1D929A95E9F7E2EAF2E0DF011D92CB
:102360008A95E9F786E00E94F5110E94DF10089532
:10237000ACE0B0E0EEEBF1E10C94B824FE01319654
:102380008CE0DF011D928A95E9F710E0FE2E0F2FF9
:10239000612F8F2D902F0E942D111F5F1630C1F7D6
:1023A0004CE050E06F2D702F82EA92E00E94F624FC
:1023B00021E0892B81F420E046E06EEA72E082EAB7
:1023C00092E00E94F611182F0E94E310812F2C96A4
:1023D000E5E00C94D4248CE0EF2DF02FA2EAB2E0DB
:1023E00001900D928A95E1F7E7CF0895A0E0B0E063
:1023F000ECEFF1E10C94B524D82EE92EF62ED72F70
:10240000042FC22F211579F081E080937C020E9475
:10241000051D90937B0280937A0280E0CDB7DEB7F2
:10242000E8E00C94D124C0907C02C114B1F38091F7
:102430007A0290917B020E941D1D059770F310E0B7
:10244000000F111FA8016D2D7E2D8F2D9D2F0E9435
:10245000F624892B41F0A8016D2D7E2D8F2D9D2F07
:102460000E940325CC2D10927C028C2FD7CF0E9486
:10247000500E08950E949E1C0E94F81E0E94110E8C
:102480000E94121F0E94430E0E941F1F0E94241FC1
:102490000E9437120E943E1F0E94C81D0E94230EF8
:1024A000F5CF9093A9018093A80108950E94240D6F
:1024B000089580E00E94E610817008950E94B8118E
:1024C0002FEF86E791E0215080409040E1F700C077
:1024D00000000E94B8110E945912811521F00E943B
:1024E00056120E94501D08950E945E12089584E0C5
:1024F000089550E0440F551F98E1699F400D511D0C
:10250000112490E9899F400D511D1124CA0188961C
:1025100008950F931F93CF93DF938430C8F46630F0
:10252000B8F44C30A8F40E9479128C010E940C255A
:10253000C82FD0E0DC2FCC27C80101960E940C25C3
:102540009E01282BC901DF91CF911F910F91089512
:1025500080E090E0F8CF0F931F93CF93DF93122F7B
:10256000032F843078F4663068F44C3058F40E94BD
:102570007912EC01602F0E942A25612FCE0101966D
:102580000E942A25DF91CF911F910F9108951F93EB
:10259000CF93DF93D0E0C0E011C0412F6C2F8D2F7F
:1025A0000E9408039C01412F6C2F8D2F0E94AB12BB
:1025B0001F5F1C3091F7CF5FC63011F010E0EDCFF8
:1025C000DF5FD43041F7DF91CF911F910895EF92F3
:1025D000FF920F931F93CF93DF938C01EA017A014F
:1025E000E60EF71ECE15DF0529F4CDB7DEB7E6E01F
:1025F0000C94D324003482E0180740F4C801889674
:102600000E940C2589930F5F1F4FECCF80E0FACF1B
:10261000EF92FF920F931F93CF93DF938C01EA0108
:102620007A01E60EF71ECE15DF0529F4CDB7DEB729
:10263000E6E00C94D324003482E0180728F4688183
:10264000C80188960E942A2521960F5F1F4FEBCF65
:10265000843038F4663028F44C3018F40E94891223
:10266000089580E090E0089580E1089588E991E080
:102670000895EF92FF920F931F93CF93DF938C01F6
:10268000EA017A01E60EF71ECE15DF0529F4CDB773
:10269000DEB7E6E00C94D324083981E0180748F44B
:1026A000C80188599D4F0E940C2589930F5F1F4FC9
:1026B000EBCF80E0FACFEF92FF920F931F93CF936F
:1026C000DF938C01EA017A01E60EF71ECE15DF05D5
:1026D00029F4CDB7DEB7E6E00C94D324083981E0C5
:1026E000180730F46881C80188599D4F0E942A2537
:1026F00021960F5F1F4FEACFCF93DF93C8E6D2E05A
:1027000060E0CE010E942A252196C11584E0D807F9
:10271000B9F7DF91CF910895A8E0B0E0E2E9F3E1E5
:102720000C94B324F82E20E1821708F067C08FEFD5
:1027300093E00E940C25811161C008E612E0F110BF
:1027400033C0FE0131965F0188E011928A95E9F766
:102750006801FFEFCF1ADF0AC8010E940C258983A8
:102760001A82811509F44AC08130C1F4780122E04F
:10277000E20EF11CC6010E940C258A838115F1F13D
:102780009FEF980F9330E8F482E0C80ED11CC70188
:102790000E940C258B83811589F11C8260E0C501A4
:1027A0000E9417188601D4CF011584E0180731F173
:1027B000C8010E940C250F5F1F4F8111F5CFFA94BD
:1027C000BECF8430A1F402E010E0C701EFEFEE1AB3
:1027D000FE0A0E940C25F501E00FF11F8083811590
:1027E00069F08C3731F4FE01E00FF11F12826701AE
:1027F000D5CF0F5F1F4F0730110539F72896EAE054
:102800000C94CF24CF93DF93EB0186319C4719F5CD
:102810000E94FD0B9D819115A1F08A7A91E08111B2
:1028200001C090E090937D02811549F085E30E94FC
:10283000EE1B0E94B50C80E0DF91CF91089589E2F4
:10284000F6CF80917D02811521F085E30E94051C61
:10285000F0CF89E2FBCF81E0EFCFCF93DF93EC01A4
:10286000FB018581811509F4CFC09E0130572332C9
:10287000310508F0AFC00E94410D9093A1028093F2
:10288000A002FE01E150F047E232F10520F4E459E4
:10289000FA4D0C949E248091A00281608093A00246
:1028A00090C08091A10288608093A1028AC080912B
:1028B000A0028260F3CF8091A0028460EFCF80916C
:1028C000A0028860EBCF8091A1028160EDCF809162
:1028D000A1028260E9CF8091A0028061DFCF809168
:1028E000A0028062DBCF8091A0028064D7CF0E94DB
:1028F00083078091A0028068D1CF8091A0028C6074
:10290000CDCF8091A1028360CFCF8091A0028E7F36
:10291000C5CF8091A102877FC7CF8091A0028D7F14
:10292000BDCF8091A0028B7FB9CF8091A002877F1D
:10293000B5CF8091A1028E7FB7CF8091A1028D7F0C
:10294000B3CF8091A0028F7EA9CF8091A0028F7D0E
:10295000A5CF8091A0028F7BA1CF0E948307809199
:10296000A0028F779BCF8091A002837F97CF809129
:10297000A1028C7F99CF8091A002992782FF939525
:1029800090FB82F990FB83F989CF8091A102982F67
:10299000909590FB80F990FB81F986CF9091A002F1
:1029A000892F8F7B96FF806479CF0E948307909157
:1029B000A002892F97FB87F9805870CF81E00E9491
:1029C000CC0D8091A0029091A1020E94460D0E9420
:1029D000830780E0DF91CF91089580E0F0CF909160
:1029E000A002892F8F7E94FF806158CF9091A00222
:1029F000892F8E7F90FF816051CF9091A102892F06
:102A0000877F93FF886050CF81E0E4CF282F35EB9C
:102A10002303C001112497FF04C080589109892F16
:102A2000089580589F4FFBCF8091840280FF0DC096
:102A30006091090170E0660F771F60387105B0F58D
:102A400061157105A9F1862F089581FF07C0609176
:102A5000090184E0689FB0011124EFCF82FF04C018
:102A60006091090188E0F6CF909183029115D9F029
:102A70002091080180910901682F70E0921730F0D1
:102A800043E0660F771F4A95E1F7D7CF899FC001D2
:102A9000112433E0880F991F3A95E1F7622F70E017
:102AA0000E948A24CACF68E070E0CDCF8FE70895F6
:102AB00081E008958091840280FF0CC0609105013F
:102AC00070E075956795759567956115710549F184
:102AD000862F089581FF06C06091050170E075950D
:102AE0006795F3CF6091050182FD0BC09091820242
:102AF0009115A1F06091040180910501961738F0BD
:102B0000682F70E06038710500F38FE70895899FA2
:102B1000C001112470E00E948A24F4CF61E070E0CB
:102B2000D7CF81E00895E3E3E80FE331E0F5F0E08B
:102B3000E257FA4D0C949E240E94141581958093BF
:102B4000880208950E941415FACF0E9414158195E9
:102B50008093870208950E941415FACF0E945A1597
:102B60008093890208950E945A158195F9CF0E9499
:102B70005A15819580938A0208950E945A15FACFBA
:102B8000815D990B21E030E001C0220F8A95EAF7C0
:102B900080918602822B8093860208958091840220
:102BA0008160809384020895809184028260F9CFCD
:102BB000809184028460F5CF409187028D3C59F466
:102BC0008091880287FF0DC010928802411559F448
:102BD0001092830208C08E3C81F4809188021816FE
:102BE0009CF3411581F08091890290918A02892B92
:102BF000811159C01092820208958F3C41F447FF21
:102C0000F0CF10928702809188028115E0CF803D3D
:102C100019F41416B4F3E5CF90918902893D29F493
:102C20001916FCF610928902DCCF8A3D19F497FF41
:102C3000D8CFF8CF90918A028B3D29F497FFD1CF5E
:102C400010928A02CECF8C3D19F41916CCF3C9CF5D
:102C50009FE2980F983090F4815D990B21E030E06D
:102C6000B90102C0660F771F8A95E2F7CB01809504
:102C700090918602892380938602B3CF8D3D31F4F3
:102C8000809184028E7F80938402ABCF8E3D21F4AD
:102C9000809184028D7FF7CF8F3D09F0A2CF809184
:102CA00084028B7FF0CF08950E94051D209187023A
:102CB00030918802232B211521F08093800290937C
:102CC00081022091890230918A02232B211521F063
:102CD00080937E0290937F0285E892E00E94E31A3F
:102CE000089586E0E5E8F2E0DF011D928A95E9F7B4
:102CF0001092830210928202109284020895FC01C5
:102D0000828181110DC0838181110AC0848181116A
:102D100007C081E09581911101C080E08170089524
:102D200081E0FCCFA6E0B0E0E8E9F6E10C94B52440
:102D300086E0E5E8F2E09E012F5F3F4FD901019068
:102D40000D928A95E1F710928702109288021092F4
:102D5000890210928A028B819C81892B79018115CD
:102D600089F080918002909181020E941D1D6C016A
:102D7000809183028115B9F190910A019C151D047F
:102D800008F43EC08D819E81892B811591F0809140
:102D90007E0290917F020E941D1D8C018091820213
:102DA000811509F45FC0909106019017110608F48F
:102DB00067C0B70185E892E00E94361C811105C00A
:102DC00085E892E00E947F1681110E94541686E0E9
:102DD000F701A5E8B2E001900D928A95E1F72696F9
:102DE000E8E00C94D12420910B019AE0299F9001F6
:102DF00011242C153D0530F68F5F8093830202C0AD
:102E00008F3FD1F7DB80D11459F00E94141591E067
:102E10001D140CF09FEF899F802D11248093870251
:102E2000DC80D11459F00E94141591E01D140CF0AF
:102E30009FEF899F802D11248093880280918702C3
:102E4000811509F49FCFD0908802D11409F49ACF4C
:102E50000E940615809387028D2D0E94061580938F
:102E6000880290CF209107019AE0299F90011124B8
:102E70002017310708F09DCF8F5F8093820202C038
:102E80008F3FD1F71D81111559F00E945A1591E01D
:102E900011160CF09FEF899F802D112480938902D9
:102EA0001E81111559F00E945A1591E011160CF06F
:102EB0009FEF899F802D112480938A02809189023F
:102EC000811509F476CF10918A02111509F471CF9A
:102ED0000E94061580938902812F0E940615809317
:102EE0008A0267CFA0E0B0E0E8E7F7E10C94B424F1
:102EF000E82FF0E0E451FD4FB490282F2695269559
:102F0000269530E0F901E457FC4F0491877010E0FA
:102F1000082E02C0159507950A94E2F70170112753
:102F2000F901E458FC4FE490F12C082E02C0F5940E
:102F3000E7940A94E2F7E0FAEE24FF24E0F8F901BE
:102F4000E459FC4FC491D0E002C0D595C7958A954D
:102F5000E2F7C170DD27C62ED12C0115110549F508
:102F6000E114F10431F086EE0E949004C60100974E
:102F700071F5B6018B2D0E940B05C601009779F5FE
:102F8000E114F104A1F50115110531F081EE0E9463
:102F9000D804C6010097C9F5CD2B31F08CE20E9410
:102FA0002505C114D104C9F5CDB7DEB7E9E00C940D
:102FB000D02481EE0E949004C601009789F2EFE9C7
:102FC000FFE03197F1F700C000000197F6CFEFE97D
:102FD000FFE03197F1F700C000000197C8CFEFE99B
:102FE000FFE03197F1F700C000000197C7CF86EEF0
:102FF0000E94D804C601009731F2EFE9FFE0319753
:10300000F1F700C000000197F6CFEFE9FFE031973C
:10301000F1F700C000000197BDCF8FE99FE0019755
:10302000F1F700C0000091E0C91AD108BACFEF92C1
:10303000FF921F93CF93DF93EC01162F88818115A8
:1030400009F45AC0813009F053C08981813071F48C
:103050007E0182E0E80EF11C8A810E942505E701CD
:10306000812F90E00097E1F52196E8CF823041F47E
:103070007E01E2E0EE0EF11C8A810E949004EFCF07
:10308000833041F47E01F2E0EF0EF11C8A810E9450
:10309000D804E5CF843011F02196E2CF2A81229620
:1030A00080E090E06AE0AE014F5F5F4F2053330B4A
:1030B0002A30310550F0009799F2EFE9FFE031979F
:1030C000F1F700C000000197F6CF689FF001699FFB
:1030D000F00D1124C9018E0F9F1F2981EA01E3CF52
:1030E000EFE9FFE03197F1F700C000000197BACF98
:1030F000612F0E947217B8CFDF91CF911F91FF907F
:10310000EF9008950F931F93CF93DF93C42FD22F87
:10311000FC0185818115C9F040938D020E94051D37
:1031200090938C0280938B0280E28C0F883040F465
:10313000C77081E001C0880FCA95EAF70E942E058A
:10314000DF91CF911F910F91089510918D0214136B
:1031500033C080918B0290918C020E941D1D883C8F
:10316000910550F5C0E2CD0F1D17C1F080E2810F2F
:10317000883040F4177081E001C0880F1A95EAF793
:103180000E943505C83050F491E08D2F877001C042
:10319000990F8A95EAF7892F0E942E05802F0E94A9
:1031A0002505C83068F6D77081E001C0880FDA9530
:1031B000EAF70E943505C4CF80E28C0F883008F012
:1031C000BFCFC77081E001C0880FCA95EAF7F1CF81
:1031D0000F93DB01FC01E851FC47E730F10598F55E
:1031E000EF55FA4D0C949E2406E221EE41EE6AE181
:1031F0007CE7CD010E94821880E00F91089507E2DC
:1032000025EE45EE6BE17CE7F4CF06E221EE40EEE1
:1032100068E17CE7EECF07E225EE44EE69E17CE76A
:10322000E8CF06E221EE42EE6CE17CE7E2CF07E276
:1032300025EE46EE6DE17CE7DCCF08E221E045EECD
:103240006EE17CE7D6CF15968C91811110928D029C
:1032500081E0D3CFCF93DF939C01FB0127378CE72D
:10326000380739F028373C47F1F081E0DF91CF9102
:1032700008958581811591F00E945C190E940408CF
:103280000E946219D82F0E945F19C82F0E945C19F2
:103290004D2F6C2F0E94350980E0E8CF0E945C1909
:1032A0000E941008EDCF8581811519F00E945F19E9
:1032B000E5CF0E945F19F4CF80910E0108958091AF
:1032C0000D01089580910C01089584E290E00E9420
:1032D0000C25853289F485E290E00E940C2583302C
:1032E00059F486E290E00E940C2591E0803109F0CB
:1032F00090E0892F8170089580E0FCCFCF93C82F94
:1033000065E2811101C06FEF84E290E00E942A25FE
:1033100063E0C11101C06FEF85E290E00E942A25B1
:1033200060E1C11101C06FEF86E290E00E942A25A2
:10333000CF910895089587E290E00E940C25682FB0
:1033400070E080E090E008950895CF93C62F0E942A
:10335000A4196C2F87E290E00E942A25CF9108954E
:1033600080E00E947E1960E070E0CB010E94A51908
:103370000E94C7120E947C1381E00E947E1908956A
:103380000E949A190E949B190E94A4190E94651913
:10339000811102C00E94B019089508959C01FB019B
:1033A0008581811551F0A90157574038510530F4F6
:1033B000822F0E948C1380E0089581E008952FEF02
:1033C000FC01208308950E94DF19089580E008958C
:1033D000CF92DF92FF920F931F93CF93DF93EC0175
:1033E000F62E0E94E619811110C0E881E150E33108
:1033F000E0F4F0E0E855FA4D0C949E2419828CE03C
:103400008A836F2DCE010E94BE1DDF91CF911F9147
:103410000F91FF90DF90CF90089589818330F9F06C
:1034200038F4813061F0823099F08FEF8883E9CFF2
:103430008430D9F71A821B821C821D82E2CF0E943F
:10344000111D0E94A4246A837B838C839D83D9CF22
:103450000E949B191A821B821C826D83D2CF0A8123
:1034600010E06E01F2E0CF0ED11C063011054CF6D3
:10347000802F0E94E610F601918382830F5F1F4F19
:10348000F1CF8981823031F0853079F68A810E94CE
:10349000CD19B7CF6A817B818C819D810E94A42444
:1034A0000E94A519AECF4B816A8189810E94891241
:1034B0009827892798279D838C83A3CF2C813D81D2
:1034C0003227232732274B816A8189810E94AB12E0
:1034D00098CF0E94C71295CF6F2DCE010E94E3199D
:1034E00090CF0E94341389838CCF0E943613982783
:1034F000892798279A83898384CF6B8170E089819B
:103500009A81AE014C5F5F4F9827892798270E94C8
:10351000391377CF6B8170E089819A81AE014C5F5E
:103520005F4F9827892798270E945B136ACF0E94D4
:103530007C1367CF0E947712D6CF6B8170E08981B0
:103540009A81AE014C5F5F4F9827892798270E9488
:10355000E71257CF6B8170E089819A81AE014C5F91
:103560005F4F9827892798270E9408134ACF909386
:103570009302809392020895E0919202F091930257
:10358000309729F00190F081E02D0995089580E0B1
:103590000895E0919202F0919302309721F0028019
:1035A000F381E02D09950895DC01E0919202F091FC
:1035B0009302309739F086E08C930480F581E02DFA
:1035C000CD0109950895DC01E0919202F0919302FA
:1035D000309739F082E08C930680F781E02DCD01A1
:1035E00009950895A3E0B0E0E8EFFAE10C94BB245C
:1035F0009C01809190029091910282179307A1F013
:103600003093910220939002E0919202F091930204
:10361000309751F083E089833B832A830084F185CE
:10362000E02DCE01019609952396E2E00C94D72473
:10363000A3E0B0E0EEE1FBE10C94BB249C0180919F
:103640008E0290918F0282179307A1F030938F0220
:1036500020938E02E0919202F0919302309751F004
:1036600084E089833B832A830084F185E02DCE01A9
:10367000019609952396E2E00C94D724209102014B
:10368000309103012E5F3F4F80911901811579F030
:103690008091A00287FF0BC02091000130910101B1
:1036A0002E5F3F4F9EE180E0915018F4089596E020
:1036B000FACFF90141919F014115B1F38F5FF4CF2A
:1036C0008115A1F190911901911521F09091A0021D
:1036D00097FD0FC02091020130910301F90132964C
:1036E000285F3F4F9191981719F1E217F307D1F72F
:1036F0001DC0982F969596959695803FB8F4E091C9
:103700000001F0910101E90FF11D228130E0877085
:1037100041E050E0BA0102C0660F771F8A95E2F7D8
:10372000CB012623392381E0232B19F480E008956F
:1037300081E008959C01FC0132968FEF90E0419169
:10374000461751F08F3F19F4411101C0892F9F5F37
:103750009630A9F78F3F09F40895280F311D87FD92
:103760003A95F901628308959C01FC013296285F25
:103770003F4F8191861302C0DF011E92E217F307CB
:10378000C1F70895FC01862F869586958695603F42
:1037900060F4E80FF11D677021E030E001C0220FF6
:1037A0006A95EAF78281822B82830895FC01862F35
:1037B000869586958695603F80F4E80FF11D6770C9
:1037C00081E090E09C0102C0220F331F6A95E2F76E
:1037D000B90160958281682362830895682F809182
:1037E0001901811559F08091A00287FF07C08091CF
:1037F0000001909101010E94C21B08958091020175
:10380000909103010E949A1B0895682F80911901DD
:10381000811559F08091A00287FF07C080910001B7
:10382000909101010E94D61B089580910201909110
:1038300003010E94B41B089580911901811579F04C
:103840008091A00287FF0BC0E0910001F09101017F
:1038500032968EE1DF011D928A95E9F70895E09195
:103860000201F0910301329686E0F4CFDC01FB0106
:1038700011969C9111978181981322C012968C9178
:103880001297811519F0928189131AC013968C91A1
:103890001397811519F09381891312C015968C9195
:1038A0001597811519F0958189130AC014969C917A
:1038B000911521F081E02481291303C080E001C02B
:1038C00081E08170089508950E94631C08958F5FC0
:1038D000809394020E94641C089583E08093940274
:1038E0000E94641C08950E94671C089581E08093E3
:1038F00094020E94641C08950E94761C0895089505
:1039000008950E94801C0895089508950E947F1CC8
:103910000895CF930E94841C0E94B8110E94851CB8
:10392000C0E08C2F0E94E610892B31F4CF5FC630A7
:10393000C1F780E0CF91089581E0FCCF85B7806822
:1039400085BF85B7806885BF08951F921FB61F92F7
:1039500011248F939F93AF93BF9380919502811110
:1039600013C08091BA029091BB02A091BC02B091A9
:10397000BD024196A11DB11D8093BA029093BB0276
:10398000A093BC02B093BD02BF91AF919F918F9164
:103990001F901FBE1F9018958091C202843031F194
:1039A0000E940B041092950288E190E020E40FB68B
:1039B000F894A895809360000FBE2093600083B7B1
:1039C000817F846083BF83B7816083BF789488954B
:1039D00083B78E7F83BF0FB6F894A895809160005F
:1039E000886180936000109260000FBE08950E946D
:1039F00083070E941004089582E084BD93E095BD82
:103A00009AEF97BD80936E0008952FB7F894809138
:103A1000BA029091BB02A091BC02B091BD022FBF2F
:103A200008952FB7F8946091BA027091BB0280910B
:103A3000BC029091BD022FBF08959C014FB7F8942E
:103A40008091BA029091BB02A091BC02B091BD02DC
:103A50004FBF821B930B089578941F921FB61F923D
:103A600011248F939F93AF93BF938091BA0290914B
:103A7000BB02A091BC02B091BD020196A11DB11D77
:103A80008093BA029093BB02A093BC02B093BD0294
:103A9000BF91AF919F918F911F901FBE1F9018955E
:103AA00087E797E7909301088093000888E19AE000
:103AB0000FB6F894A895809360000FBE90936000B5
:103AC000FFCF88E19AE00FB6F894A8958093600044
:103AD0000FBE90936000FFCF80919E020895282F23
:103AE000CB01BA013091C2023430D9F42F70209347
:103AF000E9002FEF3091E80035FD06C035ED3A952D
:103B0000F1F700002A95B1F72091E80025FF09C0E0
:103B100040E050E00E94B41F8091E8008E778093CF
:103B2000E8000895BC0143E050E084E00E946F1D6E
:103B30000895BC0146E050E084E00E946F1D0895A6
:103B4000BC0140E250E084E00E946F1D0895CF93D5
:103B5000DF93D82FC92F48E050E0682F792F81E0FC
:103B60000E946F1D88E0ED2FFC2FA6E9B2E00190C6
:103B70000D928A95E1F7DF91CF910895792F603208
:103B800031F440E250E0682F82E00E946F1D0895FA
:103B9000A0E2B0E0EEECFDE10C94BB248091C20207
:103BA000843009F583E08093E9008091E80082FF8A
:103BB0001AC08091E80090E085FF09C040E050E025
:103BC00060E270E0CE0101960E94042091E08091B5
:103BD000E8008B778093E800911529F060E2CE0130
:103BE00001960E94E819A096E2E00C94D7248091F7
:103BF000C102811109C00E948D210E94EA21809199
:103C0000E20084608093E20008951092C10208955A
:103C10000E94761C08956091BE0281E0611101C08E
:103C200080E00E946D1C08959091C20281E0943062
:103C300009F080E06091BE020E94731C089542E08A
:103C400061EC81E00E94092142E261EC84E00E9483
:103C5000092142E261EC82E00E94092142E260EC2B
:103C600083E00E9409219091C20281E0943009F022
:103C700080E06091BE020E94671C08958091C4029A
:103C8000893089F148F4823009F4A1C0833009F405
:103C90005BC0813041F008958A3009F488C08B30D0
:103CA00009F46DC008958091C302813A09F04BC0B8
:103CB0008091E800877F8093E8008091C70290910F
:103CC000C802892B61F060E080E090E070E00E9423
:103CD00054208091E8008B778093E800089568E095
:103CE00086E992E0F3CF8091C302813261F5809141
:103CF000C7029091C8028D7F892B29F58091E80039
:103D0000877F8093E8008091E80082FF18C090913F
:103D1000F3008091F200029731F48091F10081303C
:103D200011F0863021F48091F10080939E02809101
:103D3000E8008B778093E8000E943D2108958091F0
:103D4000C2028111E0CF08958091C302813AD9F770
:103D50008091C7029091C802892BA9F78091E80051
:103D6000877F8093E8008091E80080FFFCCF8091FE
:103D700019018093F1008091E8008E77DBCF80916C
:103D8000C302813201F78091C7029091C802892B4A
:103D9000D1F68091E800877F8093E8000E943D2162
:103DA0008091C502809319010E9483070895809134
:103DB000C302813241F68091E800877F8093E8005A
:103DC0000E943D218091C60280939F0208958091B8
:103DD000C302813A09F0B7CF8091E800877F8093D2
:103DE000E8008091E80080FFFCCF80919F02C1CF66
:103DF00084B7877F84BF0FB6F894A8958091600040
:103E0000886180936000109260000FBE80E890E0AF
:103E10000FB6F89480936100909361000FBE0E94EA
:103E20007C1C08950E948D210E94EA21E2EEF0E0C0
:103E300080818460808378940E94702408958FE04C
:103E400091E00E94B71A08958091C202853031F442
:103E50008091C202853019F00E94F71C08950E94DB
:103E6000CC1C0E94891C811599F38091C002811598
:103E700079F30E949E1F0E948307EACF08959A015A
:103E80004091C9025091CA020E94471F0895FC0147
:103E9000AB01D901892F992783309105C1F068F4CE
:103EA0008130910509F445C0029761F48BE590E0FB
:103EB00024EC33E02D933C93089581329105E1F099
:103EC000829739F180E090E020E030E0F3CFCF013D
:103ED0009927E13059F08230910559F0E0ECF3E098
:103EE000892B81F7849190E09F01E4CFECEAF3E025
:103EF000F9CFECE9F3E0F6CF6330710518F7FB0179
:103F0000EE0FFF1FEF55FE4F2081318189E090E0D9
:103F1000D1CF63307105B0F6FB01EE0FFF1FE55600
:103F2000FE4F2081318148565E4FFA01808190E03A
:103F3000C1CF82E190E02FE134E0BCCF80E189BDC8
:103F400082E189BD09B400FEFDCF8091D8008F7D4C
:103F50008093D8008091E00082608093E00080919F
:103F6000E00081FDFCCF0895AF92BF92CF92DF9227
:103F7000EF92FF920F931F93CF936C018B017A0105
:103F80000E945C21C82F811123C0E114F10439F093
:103F9000F70180819181081B190BC80ED91EA12C35
:103FA000B12C01151105A1F08091E80085FD21C01B
:103FB0008091E8008E778093E800E114F10499F095
:103FC000F701808191818A0D9B1D91838083C5E0DB
:103FD0008C2FCF911F910F91FF90EF90DF90CF909A
:103FE000BF90AF9008950E945C218115E9F2C82F1F
:103FF000EFCFF60181916F018093F100015011091B
:10400000FFEFAF1ABF0ACDCFAF92BF92CF92DF9230
:10401000EF92FF920F931F93CF936C018B017A0164
:104020000E945C21C82F811123C0E114F10439F0F2
:10403000F70180819181081B190BC80ED91EA12C94
:10404000B12C01151105A1F08091E80085FD21C07A
:104050008091E8008B778093E800E114F10499F0F7
:10406000F701808191818A0D9B1D91838083C5E03A
:104070008C2FCF911F910F91FF90EF90DF90CF90F9
:10408000BF90AF9008950E945C218115E9F2C82F7E
:10409000EFCF8091F100F60181936F01015011097A
:1040A000FFEFAF1ABF0ACDCFFC019B018091C9027F
:1040B0009091CA028617970718F0672B61F0C90123
:1040C00040E0009771F441110CC08091E80082FF3C
:1040D00035C080E008958091E8008E778093E800F5
:1040E000EECF2091C2022115A9F12530A9F120912E
:1040F000E80023FD2DC02091E80022FDE6CF2091AD
:10410000E80020FFDECF3091F3002091F20000970D
:1041100019F02830310558F041E02830310509F018
:1041200040E02091E8002E772093E800CACF41912B
:104130004093F10001972F5F3F4FE9CF8091C2027A
:10414000811541F0853041F08091E80083FFBDCFBB
:1041500081E0089582E0089583E00895FC019B01C9
:104160008091C9029091CA028617970718F0672BB1
:1041700061F0C90140E0009771F441110CC08091D9
:10418000E80082FF36C080E008958091E8008E77D5
:104190008093E800EECF2091C2022115B1F12530C5
:1041A000B1F12091E80023FD2EC02091E80022FD0E
:1041B000E6CF2091E80020FFDECF3091F300209180
:1041C000F200009719F02830310558F041E028300E
:1041D000310509F040E02091E8002E772093E800B7
:1041E000CACF44914093F100319601972F5F3F4F22
:1041F000E8CF8091C202811541F0853041F0809175
:10420000E80083FFBCCF81E0089582E0089583E059
:104210000895982F973028F08F708093E90081E0FF
:1042200008959093E900242F762F50E0981731F0ED
:104230007091EC002091ED005091F00021FD02C042
:104240009F5FE8CF3091EB003E7F3093EB003091E1
:10425000ED003D7F3093ED003091EB003160309305
:10426000EB007093EC002093ED005093F000209150
:10427000EE0027FDE5CF80E008958091C30287FF1F
:1042800013C08091E80082FF06C08091E8008B7720
:104290008093E80008958091C2028111F2CF0895C1
:1042A0008091C2028115D9F38091E80080FFF8CF98
:1042B0008091E8008E77ECCF2091E4003091E5000A
:1042C00095E6A9012091EC00822F817020FF06C0A5
:1042D0008091E80080FF06C080E008952091E8000A
:1042E00022FD1AC08091C202811589F0853089F0C3
:1042F0008091EB0085FD0FC02091E4003091E50036
:1043000042175307F9F29A95E1F684E0089582E0A6
:10431000089583E0089581E008950E94FC210E94A1
:104320000422E0EEF0E0808181608083E8EDF0E03F
:1043300080818F77808319BCA7EDB0E08C918E7F50
:104340008C9380818F7E80831092C10208950F9399
:104350001F93CF93DF930E94FC210E940422C8ED9B
:10436000D0E088818F77888388818068888388817E
:104370008F7D888319BC1092C2021092BE021092E7
:10438000C0021092BF0200EE10E0F80180818B7F26
:10439000808388818160888342E060E080E00E94C1
:1043A0000921E1EEF0E080818E7F8083E2EEF0E093
:1043B000808181608083808188608083F801808132
:1043C0008E7F8083888180618883DF91CF911F9168
:1043D0000F910895E8EDF0E080818F7E8083E7ED16
:1043E000F0E080818160808384E082BF81E08093FF
:1043F000C1020E94A7210895E8EDF0E080818E7F40
:1044000080831092E20008951092DA001092E10089
:1044100008951F920F920FB60F9211242F933F937E
:104420004F935F936F937F938F939F93AF93BF93BC
:10443000EF93FF938091E10082FF0BC08091E20037
:1044400082FF07C08091E1008B7F8093E1000E9492
:104450006F248091DA0080FF19C08091D80080FF1E
:1044600015C08091DA008E7F8093DA008091D900A8
:1044700080FF94C080E189BD82E189BD09B400FE5E
:10448000FDCF81E08093C2020E94F71D8091E10080
:1044900080FF19C08091E20080FF15C08091E2008A
:1044A0008E7F8093E2008091E20080618093E20041
:1044B0008091D80080628093D80019BC85E08093F9
:1044C000C2020E940B1E8091E10084FF29C08091EE
:1044D000E20084FF25C080E189BD82E189BD09B485
:1044E00000FEFDCF8091D8008F7D8093D800809111
:1044F000E1008F7E8093E1008091E2008F7E8093C7
:10450000E2008091E20081608093E2008091BE022F
:10451000811509F449C084E08093C2020E94141EF0
:104520008091E10083FF29C08091E20083FF25C0D4
:104530008091E100877F8093E10082E08093C20256
:104540001092BE028091E1008E7F8093E100809105
:10455000E2008E7F8093E2008091E2008061809390
:10456000E20042E060E080E00E9409218091F000DA
:1045700088608093F0000E94081EFF91EF91BF9128
:10458000AF919F918F917F916F915F914F913F91EB
:104590002F910F900FBE0F901F90189519BC10927D
:1045A000C2020E94051E72CF8091E30087FF02C005
:1045B00083E0B2CF81E0B0CF1F920F920FB60F927F
:1045C0001124EF92FF920F931F932F933F934F93DA
:1045D0005F936F937F938F939F93AF93BF93CF938B
:1045E000EF93FF9309EE10E0F8018081C091EC0099
:1045F0008F70C795CC27C795C82B108280EFE82E07
:10460000F12CF7018081877F808378940E94272393
:10461000F8011082F701808188608083CF70F801F3
:10462000C083FF91EF91CF91BF91AF919F918F91F7
:104630007F916F915F914F913F912F911F910F91BA
:10464000FF90EF900F900FBE0F901F901895AAE269
:10465000B0E0EDE2F3E20C94B92483EC92E0FC01CB
:1046600001962091F100208322E08B3C9207B9F75C
:104670000E943E1E8091E80083FF38C08091C302F3
:104680009091C4029A3090F5E92FF0E0E554FA4D8C
:104690000C949E24803889F0823841F58091C702BD
:1046A0008F70873018F58093E9008091EB0085FBCF
:1046B000882780F91092E90006C08091C002880F17
:1046C0009091BF02892B9091E800977F9093E8002A
:1046D0008093F1001092F1008091E8008E7723C062
:1046E000811116C08091C502813011F18091E800DE
:1046F00083FF0AC08091E800877F8093E800809163
:10470000EB0080628093EB00AA96E4E00C94D52441
:10471000823061F78091C502811589F01092E9001D
:104720008091E800877F8093E8000E943D21DECFE2
:1047300081E0933009F080E08093C002EFCF809158
:10474000C7028F702FEF280F263080F68093E90084
:104750002091EB0020FFE2CF933031F48091EB0009
:1047600080628093EB00DACF9091EB0090619093A0
:10477000EB0021E030E0A90102C0440F551F8A95EB
:10478000E2F74093EA001092EA008091EB00886023
:10479000E8CF8111ABCF1091C5021F778091E30064
:1047A0008078812B8093E3008091E800877F80935D
:1047B000E8000E943D218091E80080FFFCCF8091BD
:1047C000E30080688093E30083E0111101C082E080
:1047D0008093C2028BCF8058823008F087CF8091BF
:1047E000C5029091C6028C3D53E0950799F583E090
:1047F0008A838AE289834FB7F894DE01139620E01A
:104800003EE051E2E32FF0E050935700849120FF07
:1048100003C082958F703F5F8F708A30C8F0895CCB
:1048200090E08D939D932F5F243161F74FBF80916E
:10483000E800877F8093E8006AE270E0CE0101968D
:104840000E9454208091E8008B778093E8004ECF3F
:10485000805DE6CF6091C7027091C802AE014F5FE4
:104860005F4F0E943F1F8C01892B09F43FCF80913D
:10487000E800877F8093E800B80189819A810E94CF
:10488000AE20E0CF803809F031CF8091E800877FFB
:104890008093E8008091BE028093F1001DCF8111CA
:1048A00025CF9091C502923008F020CF8091E8008A
:1048B000877F8093E8009093BE020E943D21809103
:1048C000BE02811531F084E08093C2020E941F1E57
:1048D0000DCF8091E30087FDF6CF81E0F5CF0895FD
:1048E000CF938091C202811599F08091E900C09127
:1048F000EC008F70C795CC27C795C82B1092E900A4
:104900008091E80083FD0E942723CF70C093E900C7
:10491000CF91089597FB072E16F4009407D077FDEA
:1049200009D00E94E22407FC05D03EF490958195C1
:104930009F4F0895709561957F4F0895EE0FFF1F6B
:104940000590F491E02D0994692796276927782727
:104950008727782708952F923F924F925F926F9208
:104960007F928F929F92AF92BF92CF92DF92EF92FF
:10497000FF920F931F93CF93DF93CDB7DEB7CA1B80
:10498000DB0B0FB6F894DEBF0FBECDBF09942A88AB
:10499000398848885F846E847D848C849B84AA8453
:1049A000B984C884DF80EE80FD800C811B81AA81E0
:1049B000B981CE0FD11D0FB6F894DEBF0FBECDBFAB
:1049C000ED010895AA1BBB1B51E107C0AA1FBB1F25
:1049D000A617B70710F0A61BB70B881F991F5A958B
:1049E000A9F780959095BC01CD010895FB01DC01EC
:1049F00004C08D910190801921F441505040C8F7B6
:104A0000881B990B0895FB01DC0102C001900D92F7
:104A100041505040D8F70895F999FECF92BD81BD1D
:104A2000F89A992780B50895A8E1B0E042E050E0F7
:104A30000C945025DC01A40FB51F4150504048F0A4
:104A4000CB01840F951F2E910E942B254150504081
:104A5000D0F70895262FF999FECF92BD81BDF89A1F
:104A6000019700B4021639F01FBA20BD0FB6F894B2
:104A7000FA9AF99A0FBE08950396272F0E942B25C4
:104A80000E942A25252F0E942B25242F0C942B25AC
:104A90000196272F0E942B250C942A25DC01CB019F
:104AA000FC01F999FECF06C0F2BDE1BDF89A31963E
:104AB00000B40D9241505040B8F70895F894FFCFDC
:104AC0007C057C05AC05AC052B064806DA05DA0545
:104AD0004D06BA06CB06CB068514F6148D14571472
:104AE0005B1491145F149514A1146B14EF146F14DC
:104AF000A5147314A914CE147714AD14D5147D1411
:104B0000B314BB146314991467149D148114B7145F
:104B1000C514DE14ED1451148914FD149C15A2154E
:104B2000A515AB15C015C015C015C015C015C0150D
:104B3000C015C015AE15B315B715BD15CE15D415D6
:104B4000D81505190B19F418FF18111917191D1983
:104B5000FE190D1A411A531A5E1A691A6C1A6C1A48
:104B60006C1A151A151A711A751A7D1A8A1A971A5B
:104B70009A1A9D1AAA1A4A23702376237023762341
:0A4B8000C923EB23762342244F24BF
:104B8A0039025902280850011E0A14010302016C55
:104B9A001DA71DA01D991D921D01E200E900EA0052
:104BAA00B500B600B700CD008301CC008A0192019E
:104BBA0094012102230224022502260227022A0244
:104BCA00B300B4006F0070009F01CB019F02A002E6
:104BDA00E200E900EA00B500B600B700CD008301A3
:104BEA00CC008A01920194012102230224022502A7
:104BFA00260227022A02B300B4006F0070009F0148
:104C0A00CB019F02A0029293F4F5F6F731343533C3
:104C1A0032366697C69490914422B60905310453F8
:084C2A0004D603EF030F0400A0
:00000001FF
