:1000000039C2000054C2000052C2000050C20000B9
:100010004EC200004CC200004AC2000048C20000AC
:1000200046C2000044C200000C94821E0C944E1F75
:100030000C9480193CC200003AC2000038C2000093
:1000400036C2000034C2000032C2000030C20000DC
:100050002EC200000C94F7192AC2000028C200002A
:1000600026C2000024C2000022C2000020C20000FC
:100070001EC200001CC200001AC2000018C200000C
:1000800016C2000014C2000012C2000010C200001C
:100090000EC200000CC200000AC2000008C200002C
:1000A00006C2000004C2000002C2000035000000C9
:1000B0000000000000000000000000000000000040
:1000C00000004C001E001F00200021002200230021
:1000D00024002500260027002D002E002B001400F0
:1000E0001A000800150017001C0018000C00120070
:1000F00013002A00290004001600070009000A0066
:100100000B000D000E000F0033003400E1001D0055
:100110001B00060019000500110010003600370012
:1001200038002832E000E300007EE20021520000A7
:100130002C0022525000510052004F0001000000DC
:1001400000000000000000000000000000000000AF
:10015000000053003A003B003C003D003E003F00E1
:1001600040004100420043004400450049000100B6
:10017000520001004B005F006000610001000100BF
:10018000010001003900500051004F004E005C009A
:100190005D005E0001002F003000310028220100C8
:1001A00001000100010059005A005B00010001003C
:1001B0000100010001000100010001000100000038
:1001C000620063004A00010001004D0001000000D0
:1001D000000000000000000000000000000000001F
:1001E00000004600010001000100010001000100C3
:1001F000010001000100A800AA00A90001000100FF
:100200000100010001000100010001000100540093
:10021000550056000100010001000100010001002D
:100220000100010001000100010057000100010070
:1002300001000100010001000100010001000100B6
:10024000010028120100010001000100010000006E
:100250000100010001000100010028110000000060
:10026000000000002A2B2800000000000000000011
:100270000000000000000029000000002C1E3420B7
:10028000212224342627252E362D3738271E1F20DD
:100290002122232425263333362E37381F04050622
:1002A0000708090A0B0C0D0E0F1011121314151666
:1002B0001718191A1B1C1D2F3130232D3504050664
:1002C0000708090A0B0C0D0E0F1011121314151646
:1002D0001718191A1B1C1D2F3130354C0000000057
:1002E000000000000000000000000000000000000E
:1002F00000000000000000000000000000000000FE
:100300007E0F00D4FFFFFFC7000000780E034B00F4
:10031000720074006B00750073000000120373001C
:10032000770069006600740035003000320000007C
:100330000403090409025B00030100A0FA09040098
:1003400000010301010009211101000122440007FD
:1003500005810308000109040100020300000009EF
:10036000211101000122220007058203200001075C
:100370000503032000010904020001030000000935
:100380002111010001226D000705840320000112E4
:1003900001000200000008424A1616000101020096
:1003A000010660FF0961A1010962150026FF0095A1
:1003B00020750881020963150026FF009520750845
:1003C0009102C005010980A101850319012AB70026
:1003D000150126B700950175108100C0050C0901B3
:1003E000A101850419012AA002150126A002950188
:1003F00075108100C005010906A1018506050719D0
:10040000E029E71500250195087501810205071906
:100410000029EF1500250195F075018102050819E5
:10042000012905950575019102950175039101C09A
:1004300005010906A101050719E029E715002501B5
:10044000950875018102950175088101050719005C
:1004500029FF150026FF009506750881000508197B
:100460000129051500250195057501910295017574
:10047000039101C011241FBECFEFDAE0DEBFCDBF74
:1004800011E0A0E0B1E0EEE9F3E402C005900D92C6
:10049000A43AB107D9F722E0A4EAB1E001C01D9265
:1004A000A73BB207E1F70E94B3100C948721A8CDB7
:1004B0000F931F93CF93DF93EC018B010E94CE0A21
:1004C000982F9272C630D10571F1C1152EE7D2076F
:1004D00039F0C530D105F9F0B801CE0154D00BC0C8
:1004E000F80125812115A1F0817151F082EE90E093
:1004F0000E94D61780E0DF91CF911F910F91089550
:10050000911519F089EE90E0F3CF8AEE90E0F0CFEC
:1005100080E090E0EDCFF80185818115E9F292321B
:10052000D9F602D1E7CFF80185818115A9F292327F
:1005300099F60E94F80BFCD0DDCF8330C8F466300A
:10054000B8F44C30A8F450E09CE0699F400D511D78
:10055000112498E4899F400D511D1124FA01EE0FDA
:10056000FF1FE455FF4F85919491282F822F089506
:1005700021E090E0FBCF81E0089581E00895FBCF7A
:10058000089581E0089581E0089508950895FDCFCC
:10059000089508950895A6E0B0E0E1EDF2E00C942E
:1005A000FF2049835A839E833091AB0189819A81D0
:1005B000311117C03E81311589F0211579F0E2D44F
:1005C000182F682F89819A81BCD469817A81812F03
:1005D0000E94DA0D2696E3E00C941B21C3D4182F59
:1005E000F4CFD0D469817A81F3CFFC01262F4081EA
:1005F00051816281738184819581CDCFCF93DF93C7
:10060000EC0161E0F2DFBE01B8DF811529F061E0A5
:10061000CE01EBDFBE01B3DFDF91CF9108950F93E1
:100620001F93CF93DF93EC0160E0DFDF8C01BE010D
:10063000ADDFBE01C801ABDFDF91CF911F910F91FC
:1006400008950F931F93CF93DF93EC0161E0CDDF0B
:100650008C01BE0196DF811106C080E0DF91CF9151
:100660001F910F910895BE01C80122DF8115A9F3E2
:10067000BE01C8010E946716811579F3BE01C80149
:100680000E94A715811549F3BE01C8010E946A1393
:10069000811519F3BE01C8010E9442138115E9F2C8
:1006A000BE01C8010E94E7158115B9F2BE01C8015B
:1006B0000E94DA0E811589F2BE01C8010E94EC0E7B
:1006C000811559F2BE01C8010E94060FC7CF91E003
:1006D00001C0990F8A95EAF7892F92C3CF93C82F4B
:1006E00081E00C2E01C0880F0A94EAF70E94030CE7
:1006F0008C2FEDDFCF91089581E0089581E008957A
:10070000FBCF0895CF93C82F2CD38C2FF7DF8C2FDE
:10071000F7DF8FEF94E32CE0815090402040E1F729
:1007200000C00000CF91089581E0ECDF0C941B1A0B
:1007300080E0E8DF0C942C1A2CDF0E94571917C0B8
:1007400018D028DF0C945B1981E008950895CF93A9
:10075000DF93C82FF9DFD82F811511F08C2FF6DF2A
:100760008D2FDF91CF9108950895F1CF089580E006
:10077000FCCF0E948117F9CFCF930E948117C82F19
:100780008091A6018C1771F0C093A6010E94EB190D
:100790006093A7017093A8018093A9019093AA0187
:1007A0008C2FE3DFCF910895ADE0B0E0EAEDF3E008
:1007B0000C940021488759876A877B878C879D879F
:1007C00091110ED71F8286E0FE0138969E012F5FA1
:1007D0003F4FD90101900D928A95E1F78D818111EA
:1007E0000CC029813A814B815C816D817E818F8132
:1007F00042D62D96E2E00C941C21CE010196FEDE3D
:100800008111EFCFF6CFFC012481213019F48081D2
:100810009181E4C30895CF93C82F811581F084504E
:10082000813A78F48C2F0E943018811521F08C2F9A
:100830000E94CD1860D78C2F0E94B6185CD7CF913C
:1008400008958C2F805E883048F481E0C1FD84E0FB
:10085000C0FD880FC2FD8295A4D6F0CF8C2F855A9B
:10086000833030F48C2F8452990B0E94AF17E7CF5E
:10087000C85ACB3120F7EC2FF0E0EE0FFF1FE95EF6
:10088000FE4F808191810E94D617D9CF811521F129
:10089000982F9450913A18F40E94CD182CC7982F95
:1008A000905E983050F4982F81E091FD84E090FDA7
:1008B000880F92FD82957BD6F1CF982F955A933071
:1008C00020F480E090E00C94AF17885A8B3120F42C
:1008D00080E090E00C94D61708951F93CF93DF9398
:1008E000182FEB0198DF209731F4812FCFDFDF91B4
:1008F000CF911F9108958FE99FE00197F1F700C014
:1009000000002197F0CF60E570E0893311F068E2D4
:1009100070E0E3CF811511F044D6EDC6089581153E
:1009200011F045D6E8C60895A0E0B0E0EAE9F4E0A9
:100930000C94FA206C01D62FC72FFC011581F6808C
:10094000F2948FE0F82222D6E82E8115E9F0E12E0C
:100950001115D1F08C2F807F803461F08D2F805E57
:100960008830B8F18C2F807E803221F4D23088F12B
:10097000F11479F180918D0282FF2BC082E0DFD6E5
:1009800005D691E08927E82E8C2F82958F708830CC
:1009900009F4D8C088F58430F0F4823008F43CC003
:1009A0000C2F0F70C07FC03211F00295007FD13044
:1009B00008F45CC009F485C0111509F48FC0F11466
:1009C00009F46CC0F601868180FF39C08F70868380
:1009D00065C0E12CD9CF09F499C0E11409F4DDC058
:1009E000D1D580FDDAC0F6011582C6D52BD2C6015D
:1009F0008DD1C2D530D2D1C0893009F40AC18A5F05
:100A00008F70823050F7D23F09F010C18C2F8F7158
:100A100011110AC117D2BEC00C2F0F70C03110F0D7
:100A20000295007F111581F0011549F08D2F805E30
:100A3000883010F0D11105C0802FB3D55CD68D2F32
:100A400021C0802FBFD5FACF8D2F20DF011509F4EB
:100A5000C4CF8D2F805E883010F0D11103C0802F5D
:100A6000A6D502C0802FB4D546D6B7CF80918D02CF
:100A700082FD10C0111541F0011519F0802F91D59C
:100A80003AD680E0C8DEA9CF80E000DF011509F486
:100A9000A4CFE5CF111561F0F11003C0802F3ADF2C
:100AA0009CCF8F2D813009F098CF802FADD595CF79
:100AB000F11093CF802F33DF802FB1D5802F96D5C3
:100AC0008CCF8F2D111521F0863008F086CFE6CF20
:100AD000853008F082CF802F22DF7FCFF114D9F349
:100AE000D93361F48FEF97EE23E08150904020409E
:100AF000E1F700C000008D2FC9DE6FCF8FEF93EFBD
:100B000021E0815090402040E1F7F3CF8C2F869573
:100B100086958370813060F009F05FCF8D2F9C2F18
:100B20009370111102C080E090E00E94D61755CF5B
:100B30008D2F9C2F9370111102C080E090E00E94D5
:100B4000AF174BCF8C2F837099F5111123C09D2FB8
:100B5000929596959770990F990F4D2F4F70092E7A
:100B600001C0440F0A94EAF78D2F8071D4FF07C0AB
:100B70002FE001C0220F9A95EAF7822F8095C69543
:100B8000C695C370842BC23079F0C33079F0C13080
:100B900049F03CD10E948117E8DDCDB7DEB7E8E02F
:100BA0000C9416212FD1F6CF35D1F4CF29D1F2CF25
:100BB000111531F1C0FFEECF9D2F9295969597704C
:100BC000990F990F4D2F4F70092E01C0440F0A94B1
:100BD000EAF78D2F8071D4FF07C02FE001C0220FEC
:100BE0009A95EAF7822F8095C695C695C370842B97
:100BF000C23059F0C33059F0C13029F044D1CACFC6
:100C0000823040F2D9CF3BD1C5CF41D1C3CF0CD137
:100C1000C1CFCF70111529F08C2F14D18D2F7ADE12
:100C2000B9CF8D2F7CDE8C2F16D1B4CF60F4D03F9E
:100C3000B9F0D13F81F0111509F439C0F114A1F1D7
:100C40008D2FE9DDA7CFD33FB9F0D43FA1F7809135
:100C50008D0282FD19C08C2F8F71111529F3DACE08
:100C60008F2D111539F0853008F094CF8C2F8F71AE
:100C7000FDD090CF8630F8CF111521F08C2F8F71D9
:100C8000DAD088CFD6D086CF111529F063E08C2F2B
:100C90008F713ED57FCF81E052D58F2D823008F401
:100CA00079CF82E04CD576CF8C2F8F71B3CEF114F3
:100CB000B1F0D93361F48FEF97EE23E0815090408B
:100CC0002040E1F700C000008D2FE0DD63CF8FEF03
:100CD00093EF21E0815090402040E1F7F3CF8C2F3B
:100CE0008F71A2CF0F931F93CF93DF93EC01688195
:100CF00079818D817CD18C01CED081D0B801CE019B
:100D000013DEDF91CF911F910F910895CF93DF9361
:100D1000EC018C81811581F0CE0193DC81110FC033
:100D200035D4811549F08D81811531F080918D0286
:100D300082FF02C082E003D5DF91CF910895CE01FA
:100D4000D1DFCE016CDCF8CF80E090E00E94AF17DD
:100D500080E090E00E94D61743D4CDC40E94E418EE
:100D6000F3CF2DD4FBCF282F92959F70963099F01A
:100D700060F4925F9F70923030F4203FB1F038F40D
:100D800081E0283E38F080E008959A5FF3CF81E05B
:100D9000243FC9F7089591E0813F09F090E081E098
:100DA000283E08F080E0892B089581E00895FC0139
:100DB0002481211521F08081918110D1D4CF80E050
:100DC0000895A6E0B0E0E7EEF6E00C940021269648
:100DD000E2E00C941C21A7E0B0E0E1EFF6E00C9417
:100DE00000212796E2E00C941C210895FECF08957F
:100DF000FDCF0895FADFFCDF8093C80108950895C0
:100E0000F9CF08959091C801892BF4CF9091C80132
:100E10008923F0CF9091C8018927ECCFE6CF0895C0
:100E2000FDCF0895E2CF0895FDDFFADF8093C7017B
:100E3000089580E0F9CF91E001C0990F8A95EAF713
:100E4000892FF2CF21E001C0220F8A95EAF7809125
:100E5000C701822BE9CF21E001C0220F8A95EAF772
:100E6000822F80959091C7018923DECF21E001C0B8
:100E7000220F8A95EAF78091C7018227D5CF9091FA
:100E8000C701892BD1CF9091C7018923CDCF9091F4
:100E9000C7018927C9CF0895CF93C1E061FDC4E0A0
:100EA00060FDCC0F62FDC29593E0769567959A95AB
:100EB000E1F79B01220F331F260F371F420F531FED
:100EC000FA0140E050E090E06191DF019C01042EC6
:100ED00002C0369527950A94E2F72695220B26271D
:100EE0002C2326272E934F5F5F4F4330510561F728
:100EF000CF910895A82FA77023E0969587952A95FE
:100F0000E1F79C01220F331F820F931F680F791F97
:100F1000FB0140E050E080E0219130E00A2E02C069
:100F2000369527950A94E2F72170042E01C0220F0E
:100F30000A94EAF7822B4F5F5F4F4330510561F708
:100F40000895262F963068F48C3058F4682F70E09E
:100F50008CE0989F600D711D11244CEA51E0822FA6
:100F60009BCF0895292F963058F48C3048F490E0A8
:100F70006CEA71E03CE0239F800D911D1124BACFF3
:100F800080E00895CF92DF92FF920F931F93CF934B
:100F9000DF936C010091C7018091C801082BC5E067
:100FA000D0E010E0C8010C2E02C0959587950A94F8
:100FB000E2F780FD0CC02197A8F7F12C8F2DDF916F
:100FC000CF911F910F91FF90DF90CF900895FC2E4D
:100FD000B6018C2FF9D5019771F3F0CFCF93DF9342
:100FE000EC01D0DFBE01F0D5DF91CF9108950F93D2
:100FF0001F93CF938B019091AB01911531F0CB01F1
:10100000EDDFCF911F910F910895811551F0CB0124
:10101000B9DFC82F682FC80194DFB8018C2FD4D551
:10102000F0CFCB019FDFC82FF8CFE1E0F0E0DF0188
:1010300001C0AA0F6A95EAF76A2FDF0101C0AA0F63
:101040004A95EAF76A2B01C0EE0F2A95EAF7962F28
:101050009823961302C08E2B0895E0958E23089551
:10106000242F462F682F8091C701DFDFDDCE0F933D
:101070001F930091C9018091CA01801303C01F9181
:101080000F91089587E0089FF0011124E553FE4F6A
:1010900020813181428153816481758186819BDE0B
:1010A0000F5F1F4F0770E7CF2091030230910402BA
:1010B000409105025091060260910702709108026A
:1010C0008091090288CE80910902803170F480916C
:1010D0000802811551F0E091C9012091CA013091B7
:1010E0000402409103022E1301C00895BF0187E05E
:1010F000E89FF0011124DF01A553BE4F14968C9197
:101100001497811549F111968C911197831324C07E
:101110008C91841321C015968C91159781111CC058
:1011200012968D919D91A0910502B09106028A1BA5
:101130009B0B883C910580F4809109028F7080613F
:1011400080930902EF52FE4F80818F70806180830F
:1011500083E092E0DBDD8BCF6F5F7F4FFB01E770B9
:10116000C2CFE091C9019091CA01E91302C080E0A9
:1011700008959F0157E0E59FF0011124E553FE4FCC
:101180005181561306C05081581303C05581541322
:1011900005C02F5F3F4FF901E770E7CF81E0089569
:1011A0008F929F92AF92BF92DF92EF92FF920F9336
:1011B0001F93CF93DF93CDB7DEB72D970FB6F8947B
:1011C000DEBF0FBECDBF8C0186E0F801DE011896B0
:1011D00001900D928A95E1F7F801F580848193E002
:1011E000892E92E0992E90910702911117C08115D6
:1011F00009F4F4C0F11409F433C1C801D8DD811534
:1012000009F42EC187E0F801D40101900D928A956E
:10121000E1F7C401F8DA57DF47DFE0C0E080A280E1
:10122000B380D09008022091050230910602A501FA
:10123000421B530BD11409F4D4C0483C510508F0AB
:10124000A8C0811509F4CAC09091040291808091D0
:101250000902803108F06FC0991226C090910302F4
:101260009E1122C0F11057C08F70806180930902D7
:101270001BDF83E092E04ADD80910902F80186835A
:10128000F12C8F2D2D960FB6F894DEBF0FBECDBF7B
:10129000DF91CF911F910F91FF90EF90DF90BF9062
:1012A000AF909F908F900895F11035C040E0692D68
:1012B0008E2D57DF40E0692D8E2D53DFF82E8111E2
:1012C000DFCF888599858ADE292F22952F7090346B
:1012D00050F49F70223078F0911591F0F8019681CA
:1012E000903170F4CECF2A5F2F70223070F0C80199
:1012F0000DDDFD2CC6CF911519F0811509F4C1CF74
:10130000805E883008F4BDCFF2CF803F08F4B9CFBB
:10131000815F8330F7CF8091090281608093090259
:1013200083E092E0F3DCE3E0F2E087E011928A955B
:10133000E9F7BADEA5CF991207C0909103029E117A
:1013400003C0F11409F46EC0C80131DD811509F440
:1013500087C0F11409F484C080910902803280F0C2
:10136000209103023091040229833A83AB82BC822C
:10137000909107029D831E828F83CE010196C6DC69
:1013800087E0F801A3E0B2E001900D928A95E1F7C1
:1013900042CF90910902903160F4488559856A8561
:1013A0007B858C859D850DDD83E092E0AFDCF401CB
:1013B000BCCF811599F02091040281812813C4CFFC
:1013C000809103028E11C0CFF110BECF9683C80169
:1013D0009DDCF40187E011928A95E9F7FF24F394EC
:1013E00050CF483C510508F03EC08115B9F3F114C7
:1013F000B9F1909104028181981329C08091030270
:101400008E1125C08091090280FD18C08031B0F096
:101410008683807F803F39F08681982F907F905F10
:101420008F70892B8683C80171DC87E0F801A3E007
:10143000B2E001900D928A95E1F7EECE87E0F801D7
:10144000A3E0B2E001900D928A95E1F7C7CFC80101
:10145000AEDC811195CF80910902816080930902F1
:10146000C80154DCBBCF488559856A857B858C854E
:101470009D85A7DC9CCFAEE0B0E0E1E4FAE00C94FF
:10148000FF20288739874A875B876C877D878E870F
:10149000CE01089685DE6C85811599F0611539F0CD
:1014A000288539854A855B857D858E8594DC80918C
:1014B000C9019091CA0189133DC02E96E3E00C94B6
:1014C0001B2187E09E01285F3F4FF901275031091A
:1014D000D90101900D928A95E1F7611541F3A09130
:1014E000CA018A2F90E08395877090E0AC0120912B
:1014F000C9012417150691F097E09A9FD001112495
:10150000A553BE4F9E012F5F3F4FF90101900D92F1
:101510009A95E1F74093CA01AADDC9CF22DC109267
:10152000CA011092C901E3E0F2E087E011928A95C6
:10153000E9F7BDCF17E0189FC001112485539E4FD6
:101540002FDE811509F4B9CFE091C9011E9FF0018A
:101550001124E553FE4F2081318142815381648102
:101560007581868138DC8091C9019091CA0101960C
:1015700087708093C9019BCF8091320286958695B2
:101580008695089580913202877008959091320275
:10159000977081E0911101C080E0089580915E0212
:1015A000089590915E02982B90935E020895809525
:1015B000982F80915E02892380935E020895109295
:1015C0005E02089590915D02982B90935D020895BC
:1015D0008095982F80915D02892380935D02089504
:1015E00010925D0208950895FECF08959091330200
:1015F000292F282329F08095892380933302F4CF63
:1016000008950895FECF089590913402292F28233C
:10161000281721F0982B90933402F4CF08959091DD
:101620003402292F282329F08095892380933402BE
:10163000E9CF089580913402811521F0109234028F
:1016400080E0E0CF0895CF93C0915E0280915D026B
:10165000C82B80913402811529F0C82B0E940A18EA
:101660008111E8DF8C2FCF910895CF93DF93C09144
:101670000201D0910301E7DF8883C0910201D0917C
:10168000030148E050E06AE272E0CE010E942721A7
:10169000892B59F088E0FE01AAE2B2E001900D9298
:1016A0008A95E1F7CE010E949017DF91CF910895BE
:1016B000CF93DF93C0910001D0910101C4DF8983F2
:1016C000C0910001D091010140E250E06AE072E077
:1016D000CE010E942721892B59F080E2FE01AAE069
:1016E000B2E001900D928A95E1F7CE010E949D171C
:1016F000DF91CF9108950E947A17811529F080918A
:101700008C0287FF01C0D4CFB0CF0895FECF0895DB
:1017100090918D0292FF0EC0982F990F990F990FFB
:10172000962B909332028EDB8091320286958695BD
:101730008695ECCF87CB1092320280E0E7CF909174
:1017400032028095892380933202282F277059F422
:10175000891749F090918D0292FF05C08695869574
:10176000869579DBE8CF089590918D0292FB222730
:1017700020F9281749F080FB92F990938D028CE8AC
:1017800092E045D082E0DBCF089580918D02002465
:1017900082FF0394802DE8CF81E0E6CF80E0E4CFA4
:1017A00080E090E0BC0197C380E090E0BC018DD365
:1017B000F7CFA3E0B0E0EFEDFBE00C94002140D3C5
:1017C0004BD31B82CE0103965ED381E08093C80188
:1017D00064D3198284E18A83CE0101966FD30E947B
:1017E0005316E2DF2396E2E00C941C21E2CF089529
:1017F00039C3089526D381110C941B16089538C35C
:10180000089547C3089549C308954CC3089556C326
:10181000089567C30895A6E0B0E0E1E1FCE00C9410
:10182000FE200E94DF198C0180915F02909160027E
:101830008017910779F019821A820E94DF19BC0182
:1018400049815A8180E090E00E94D40300935F02B6
:10185000109360022696E4E00C941A210E94EB1982
:10186000609371027093720280937302909374027A
:1018700060936D0270936E0280936F02909370027A
:10188000089508950895FDCF08950895FEDFFBCFD4
:101890000895FECF08950895FEDFFBCF88ED9EE00A
:1018A00075D4F0DFF3CF81E0089581E00895FBCF98
:1018B0000895089508950895FCDFFCDFFCCF9ADFBA
:1018C000811101C093DF85E792E099DF8CE892E017
:1018D0009CDF7BD496DF94DA8091C701A1CA0E9475
:1018E000D6190E945E16B5D3EADF0E94B403D4CFA6
:1018F000A6E0B0E0EEE7FCE00C94F520D6DF811125
:1019000007C089DF0E94BC032696EDE00C941121EC
:10191000B0D321E6822E22E0922E740110E0F7016E
:10192000C080D180812FE8D21F5F163009F448C0F3
:1019300022E0E20EF11CC816D90689F380917502E7
:1019400081FDE3D2B4DF782E10E0812FD5D27C0167
:10195000F401A190B1904F018A159B0561F1A82671
:10196000BF2400E091E0C92ED12CC5018C219D211E
:10197000892BC9F07114B9F009831A830E94DF1909
:101980008B839C8381E08D8321E0C7018C219D2185
:10199000892B09F420E049815A816B817C818D81FA
:1019A000922F0E94D4030F5FCC0CDD1C0C30E9F6A3
:1019B000F401F292E2921F5F163039F64FDFA2CFA8
:1019C000C816D90609F0BACF9CCF0F931F93CF93B7
:1019D000DF93FCD0EC01D23508F050C0D03508F0D0
:1019E000C8C0C03ED10530F5CD3CD10508F09DC042
:1019F000C83AD10578F4C53AD10508F093C0C13092
:101A0000D105B1F1CE010497813A910588F1C0E08A
:101A1000D0E02EC0CE01885A91094B97C0F7C85A22
:101A2000D0E0CC0FDD1FC35BDE4F0990D881C02D05
:101A3000D4641EC0D034A8F4D03208F0ADC0C83E83
:101A4000D105B0F0CE0191509F3108F78D2F61D1B3
:101A5000082F8C2F90E0BAD0D02FDF71C82FD92B50
:101A600007C08C2F90E0B2D0DF70C82FD92BD06A7E
:101A7000CE01DF91CF911F910F910895C03882E57B
:101A8000D807B8F5C03682E5D80708F056C0C0348C
:101A900082E5D807C8F4C03282E5D80708F047C00D
:101AA0008C2F8695869520E2829FC0011124C370F9
:101AB00021E030E002C0220F331FCA95E2F7E901AE
:101AC000C82BD92BDD68D4CF8C2F8695869587704F
:101AD00020E2829FC0011124C37021E030E002C0E7
:101AE000220F331FCA95E2F7E901C82BD92BDC6816
:101AF000BFCFC03C82E5D80750F48C2F8F71C03A1D
:101B0000D24580F5982F84EF906AEC01B1CFCE01D9
:101B1000805C9245809708F07ACFDC2FDF71C0EFB0
:101B2000D06AA6CFA497D064A3CFD065A1CF8C2FC5
:101B30008F71D82FC1EFD06A9BCF8C2F8695869559
:101B4000877020E2829FC0011124C37021E030E041
:101B500002C0220F331FCA95E2F7E901C82BD92B27
:101B6000DA6886CFD6D0982F80E09F71EC01D062E2
:101B70007FCF8C2F8F71CDD053E0CC0FDD1F5A95C6
:101B8000E1F7DF70282F84FF04C090E1899F900166
:101B90001124C22FD0696CCF8D2F8F71BAD0082F2E
:101BA0008C2F90E013D0302F3F71282F392B3062CB
:101BB000E9015ECF462F763020F46C3010F4672FA9
:101BC00069C380E090E00895F5DFFFCE803E910587
:101BD000D1F1C8F48133910509F481C048F4893208
:101BE000910509F471C08A32910509F47FC0089506
:101BF00089339105E1F082389105C9F0853391056B
:101C000009F45DC00895843E9105D1F148F4823E07
:101C1000910531F1833E910541F181EE90E0089507
:101C2000863E9105C1F1873E9105F1F1089520911D
:101C30008C02237009F064C020918D0223FF14C030
:101C400089E290E0089520918C0220FD45C03091FA
:101C50008D0230FF09C024FD24C083EE90E008957A
:101C600020918C0222FDF7CF089520918C0222FD55
:101C700044C030918D0230FD43C024FFF5CF11C028
:101C800020918D0221FFF0CF80918C0284FD09C04C
:101C900087EE90E0089520918C0223FFE5CF24FF8A
:101CA000F7CF80E090E0089520918C0223FD2BC0B7
:101CB00030918D0231FFE1CF84EE90E008952091C4
:101CC0008C0225FFD1CFBCCF20918C0225FD1EC0F8
:101CD00020918D0223FFC8CF89E390E008952091E1
:101CE0008C0226FFC1CF8AE290E0089520918C02F9
:101CF00026FFBACF81E390E0089582EE90E0089548
:101D000080EE90E0089586EE90E0089585E390E0FF
:101D1000089590918C0292FF10C041E0282F247109
:101D2000243009F040E031E0282F2871283009F0F4
:101D300030E0431711F02CE0822793FF10C041E000
:101D4000282F2471243109F040E031E0282F287138
:101D5000283109F030E0431711F02CE08227309150
:101D60008D0230FF10C051E0282F2171213009F081
:101D700050E041E0282F2871283009F040E0541746
:101D800011F029E0822731FF10C041E0282F217196
:101D9000213109F040E031E0282F2871283109F085
:101DA00030E0431711F029E0822794FD877E0895E3
:101DB00080E00895CF939C01205E3245C1E020323F
:101DC000310538F4FB01C581C11103C08F710E9438
:101DD0006E038C2FCF9108959C01FB0185818115A5
:101DE00099F02B359CE7390769F02C359CE73907CA
:101DF00021F02A353C4721F00895C7DC80E00895A2
:101E0000CBDCFCCFCBDCFACF81E008959C01FB0159
:101E10008581811599F021309CE7390761F02330E5
:101E20009CE7390739F021153C4749F40E94940397
:101E300080E00895DDDC0E949803FACF81E00895E8
:101E4000089580E090E00E9445219C0181E0233EBE
:101E50003E4F09F080E0089563EE7EEF80E090E071
:101E60000C9473216FEF7FEF80E090E00C9473216E
:101E7000CF93DF93EC0182E090E00E943D218883C4
:101E8000DF91CF910895FC01608182E090E00C9495
:101E9000592183E090E00C943D21682F83E090E08D
:101EA0000C945921CF93DF93EC0184E090E00E94E1
:101EB000452188839983DF91CF910895FC0160814A
:101EC000718184E090E00C947321AB01BC018FE040
:101ED00090E00C946B21AB01BC0183E190E00C9489
:101EE0006B21682F8EE090E00C9459210895FECF6D
:101EF00008950895FECF0895E82FF0E0EE0FFF1F3C
:101F0000E656FD4F808191810895089580EA8A9573
:101F1000F1F7089500C00895F9CF0895F894E82FD7
:101F2000E295EF70F0E041A18F7021E001C0220F37
:101F30008A95EAF7922F9095942391A392A1822FEC
:101F4000892B82A378940895CF93DF93CFE8D1E0D3
:101F500089918F3F09F0E2DF81E0C539D807C1F7E9
:101F6000C3E8D1E089918F3F09F0D8DF81E0CF3815
:101F7000D807C1F7DF91CF910895AF92BF92DF925A
:101F8000EF92FF920F931F93CF93DF935C01D62EB6
:101F9000C62FD0E08E0101571E4FF80180818F3F80
:101FA00009F44BC0F894E82FE295EF70F0E091A1AE
:101FB0008F7021E001C0220F8A95EAF7892F822BCA
:101FC00081A382A12095282322A37894A3DFE3E8AC
:101FD000F1E021E030E0E12CF12C41914F3F79F02C
:101FE000A42FA295AF70A05EB0E08C9190E04F70EE
:101FF00002C0959587954A95E2F780FF28C080E05A
:1020000090E0E82AF92A220F331F81E0EF38F80721
:1020100021F7F80180818F3F09F080DF61E0E11452
:10202000F10409F460E08D2D77DFCC0FDD1FC501D1
:102030008C0F9D1FEC01E882F982DF91CF911F91F7
:102040000F91FF90EF90DF90BF90AF900895C9017E
:10205000D8CF7ADFEAE9F2E08CE011928A95E9F7CD
:10206000EEE8F2E08CE011928A95E9F786E03DD047
:102070003ECFACE0B0E0EFE3F0E10C94FD20FE01D8
:102080003196DF018CE01D928A95E9F710E00E2F62
:10209000FF2E612F802F9F2D70DF812F8F5F182FD4
:1020A0008630B9F74CE050E0602F7F2D8EE892E04B
:1020B0000E94272121E0892B71F420E046E06AE9A3
:1020C00072E08EE892E012D0182F14DF812F2C9648
:1020D000E5E00C9419218CE0E02FFF2DAEE8B2E092
:1020E00001900D928A95E1F7E9CF0895A0E0B0E064
:1020F000ECE7F0E10C94FA207C016B01042FC22F75
:10210000211579F081E0809378020E94DF19809395
:1021100076029093770280E0CDB7DEB7E8E00C94CA
:102120001621D0917802D115B1F380917602909169
:1021300077020E947019059770F310E0000F111FCD
:10214000A801B701C6010E942721892B31F0A801FF
:10215000B701C6010E943421CD2F109278028C2F36
:10216000DBCFC6CB08950E9479190E94941B96DBA1
:102170000E94AC1BB4DB0E94B51B0E94B81BF1DFB0
:102180000E94CE1B0E94801A97DBF7CF8093A40198
:102190009093A501089531C708952ACB089580E052
:1021A000ABDE8170089565DF8FEF96E721E0815007
:1021B00090402040E1F700C000005BDFF0DF8115B8
:1021C00019F0EBDF0C941B1A0895EDCF0895A1E0F0
:1021D000B0E0EDEEF0E10C94FC207C01FC016081AC
:1021E0007181828193819E012F5F3F4F890140E081
:1021F00050E09D0194D1F70180819181A281B3814A
:102200000196A11DB11D80839183A283B38389812F
:102210002196E6E00C94182186E00895C7C0089541
:10222000EFC008951F93CF93DF93BED0D0E0C0E0FE
:1022300010C0412F6C2F8D2F0E949D029C01412FB9
:102240006C2F8D2FDDD01F5F1C3099F7CF5FC6300C
:1022500011F010E0EECFDF5FD63049F7DF91CF917C
:102260001F9108950F931F938A019B0140E050E056
:10227000BC01CA01EBD01F910F9108950F931F93DA
:102280008A019B0140E050E0BC01CA010CD11F91C2
:102290000F910895863028F4663018F44C3008F415
:1022A00085C080E090E0089580E1089533D1CB01AE
:1022B00008950F931F938A019B0140E050E0BC01F9
:1022C000CA012DD11F910F9108950F931F938A0179
:1022D0009B0140E050E0BC01CA0167D11F910F9102
:1022E000089563D094C16F927F928F929F92BF9214
:1022F000CF92DF92EF92FF920F931F93CF93DF93D2
:1023000000D000D0CDB7DEB7B82E803118F502D19D
:1023100061507109810991097E012FEFE21AF20AD9
:10232000870121E030E040E050E0F9D0898181115F
:1023300011C0F0D03B014C01E12CF12C6701B11030
:102340001BC0C982DA82EB82FC8248E2B80187EEC8
:1023500090E12BD30F900F900F900F90DF91CF91C2
:102360001F910F91FF90EF90DF90CF90BF909F90C3
:102370008F907F906F900895C301D401C816D9063D
:10238000EA06FB0639F321E030E040E050E0B60118
:10239000C701C5D089819FEFC91AD90AE90AF90A8C
:1023A0008111EACFBA94CBCF089508950F931F936C
:1023B000CF93DF93863008F56630F8F44C30E8F4BC
:1023C000C42FD0E0CC0FDD1F98E1699FC00DD11D57
:1023D000112490E9899FC00DD11D1124CE01899649
:1023E0000E943D21082FCE018A960E943D21902F08
:1023F000DF91CF911F910F91089580E090E0F8CF89
:102400001F93CF93DF93122F8630E0F46630D0F421
:102410004C30C0F4C42FD0E0CC0FDD1F28E1629F08
:10242000C00DD11D112490E9899FC00DD11D11242B
:10243000632FCE0189960E945921612FCE018A9681
:102440000E945921DF91CF911F910895A0E0B0E043
:10245000ECE2F2E10C94F6206B017C01E8012C0D1A
:102460003D1D4E1D5F1D49015A01C814D904EA04DF
:10247000FB0429F4CDB7DEB7ECE00C94122180E622
:10248000C81683E0D806E104F10458F4C601899621
:102490000E943D2189938FEFC81AD80AE80AF80AEA
:1024A000E4CF80E0F7CF8F929F92AF92BF92CF920E
:1024B000DF92EF92FF920F931F936B017C012C0D23
:1024C0003D1D4E1D5F1D49015A01C814D904EA047F
:1024D000FB0459F41F910F91FF90EF90DF90CF9084
:1024E000BF90AF909F908F90089580E6C81683E0CC
:1024F000D806E104F10430F4F8016081C601899640
:102500000E9459210F5F1F4F8FEFC81AD80AE80A9F
:10251000F80ADBCF67E770E080E090E008954F9223
:102520005F926F927F928F929F92AF92BF92EF9243
:10253000FF920F931F93CF93DF934B015C0129010F
:102540003A01E8017B0187E7E81A8CEFF80A00E01E
:1025500010E0C201D301081719071A061B0678F00C
:10256000DF91CF911F910F91FF90EF90BF90AF90AF
:102570009F908F907F906F905F904F900895C401CF
:10258000D501800F911FA11DB11D87379105A105B0
:10259000B10548F4C701800F911F0E943D21899326
:1025A0000F5F1F4FD6CF80E0FACFA0E0B0E0EBED99
:1025B000F2E10C94F4206B017C0149015A013801CD
:1025C000EB01C757DC4F8D01C401D501081719076E
:1025D0001A061B0628F0CDB7DEB7EEE00C941021EA
:1025E000C601D701800F911FA11DB11D873791052D
:1025F000A105B10548F4F301E00FF11F6081CE01A0
:10260000800F911F0E9459210F5F1F4FDDCFA0E166
:10261000B0E0EDE0F3E10C94F220FE013196DF0131
:1026200080E11D928A95E9F708E010E097E7492ECE
:10263000512C612C712C29E8A22E23E0B22E9E2E63
:102640008F2E6201730181E1481651046104710407
:102650001CF080E1C82ED12CA601B501892D982D42
:102660000E944A21AC0CBD1C0D2C000C00084C181B
:102670005D08600870080150104019F76096E0E1AD
:102680000C940E21CF93DF93EB0186319C4701F52B
:102690000E94CE0A9D81911591F08A7A91E0811174
:1026A00001C090E090937902811539F085E35ED501
:1026B00022D880E0DF91CF91089589E2F8CF809110
:1026C0007902811519F085E368D5F2CF89E2FCCF54
:1026D00081E0F0CFCF93DF93EC01FB018581811581
:1026E00009F4CAC09E0130572332310508F0AAC050
:1026F0008CE892E08AD8FE01E150F047E232F10521
:1027000020F4E757FE4D0C94E32080918C02816009
:1027100080938C0290C080918D02886080938D029E
:102720008AC080918C028260F3CF80918C02846099
:10273000EFCF80918C028860EBCF80918D02816019
:10274000EDCF80918D028260E9CF80918C02806113
:10275000DFCF80918C028062DBCF80918C0280641D
:10276000D7CF0E94B10680918C028068D1CF809132
:102770008C028C60CDCF80918D028360CFCF809111
:102780008C028E7FC5CF80918D02877FC7CF8091CD
:102790008C028D7FBDCF80918C028B7FB9CF8091D1
:1027A0008C02877FB5CF80918D028E7FB7CF8091CD
:1027B0008D028D7FB3CF80918C028F7EA9CF8091C7
:1027C0008C028F7DA5CF80918C028F7BA1CF0E9440
:1027D000B10680918C028F779BCF80918C02837F92
:1027E00097CF80918D028C7F99CF90918C02892F09
:1027F0008B7F92FF8460877F92FF886089CF809172
:102800008D02982F909590FB80F990FB81F986CFEF
:1028100090918C02892F8F7B96FF806479CF0E94E4
:10282000B10690918C02892F97FB87F9805870CF61
:1028300081E00E94090C8CE892E00E94070C0E9443
:10284000B10680E0DF91CF91089580E0F2CF9091C2
:102850008C02892F8F7E94FF80615ACF90918C02D9
:10286000892F8E7F90FF816053CF90918D02892FA9
:10287000877F93FF886052CF81E0E4CFA0E0B0E093
:10288000E4E4F4E10C94F920E82FF0E0E45AFD4F81
:102890009491B92E282F26952695269530E0F9019A
:1028A000E450FD4FE4908770F12C082E02C0F5949F
:1028B000E7940A94E2F7F901E451FD4FC490D12C5A
:1028C000082E02C0D594C7940A94E2F724523D4FD3
:1028D000F901049110E002C0159507958A95E2F779
:1028E000C62FD0E0E0FC25C0C0FE06C086EE0E94E8
:1028F0000B04CE01009759F5BE018B2D0E946D048B
:10290000CE01009761F5C0FC32C0E0FE06C081EE4A
:102910000E944604CE010097C1F500FF05C08CE27D
:102920000E9483042097C9F5CDB7DEB7E9E00C9487
:10293000152181EE0E940B04CE010097A9F2EFE968
:10294000FFE03197F1F700C000000197F6CFEFE903
:10295000FFE03197F1F700C000000197CBCFEFE91E
:10296000FFE03197F1F700C000000197CACF86EE73
:102970000E944604CE01009741F2EFE9FFE0319753
:10298000F1F700C000000197F6CFEFE9FFE03197C3
:10299000F1F700C000000197BECF8FE99FE00197DB
:1029A000F1F700C000002197BDCFA0E0B0E0EBED53
:1029B000F4E10C94F9208C017B01B42EC701F801DD
:1029C00009958130A0F009F058C0C701F8010995B8
:1029D000C82F813089F4C701F80109950E9483044A
:1029E0008B2D90E0009709F040C0C111E7CFCDB723
:1029F000DEB7E9E00C941521823031F4C701F8010B
:102A000009950E940B04ECCF833031F4C701F80123
:102A100009950E944604E4CF843011F7C701F801FC
:102A20000995C82FC12CD12CDAE08C2F8053990B3B
:102A30008A30910568F0C114D10491F2EFE9FFE00A
:102A40003197F1F700C0000081E0C81AD108F3CF38
:102A5000DC9D9001DD9D300D1124820F931F6C01D0
:102A6000C701F8010995C82FE0CFEFE9FFE03197E2
:102A7000F1F700C000000197B5CF6B2DFFDE9ECFB0
:102A80000F931F93CF93DF93C42FD22FFC01858127
:102A90008115C9F040937C0292D480937A0290937E
:102AA0007B028C2F805E883048F481E0C1FD84E099
:102AB000C0FD880FC2FD82950E948A04DF91CF91EC
:102AC0001F910F91089510917C02141333C08091CF
:102AD0007A0290917B0204D4883C910558F5CD2F61
:102AE000C05E1D17C1F0812F805E883048F481E000
:102AF00011FD84E010FD880F12FD82950E948F0465
:102B0000C83048F481E0D1FD84E0D0FD880FD2FDCB
:102B100082950E948A04802F0E94830481E0D1FD67
:102B200084E0D0FD880FD2FD8295C83038F60E942F
:102B30008F04C4CF8C2F805E883008F0BFCF81E037
:102B4000C1FD84E0C0FD880FC2FD8295F0CF0F93D8
:102B5000FC01CB01E851FC47E730F10588F5E5556C
:102B6000FE4D0C94E32006E221EE41EE6AE17CE7A3
:102B700087DF80E00F91089507E225EE45EE6BE1D7
:102B80007CE7F6CF06E221EE40EE68E17CE7F0CF8D
:102B900007E225EE44EE69E17CE7EACF06E221EEAA
:102BA00042EE6CE17CE7E4CF07E225EE46EE6DE114
:102BB0007CE7DECF08E221E045EE6EE17CE7D8CF8E
:102BC000FB018581811110927C0281E0D3CFCF93EC
:102BD000DF9387372CE7920739F088379C47D1F08D
:102BE00081E0DF91CF910895FB018581811571F01E
:102BF00019D00E9422071CD0C82F17D0D82F12D06E
:102C00004C2F6D2F0E94300880E0EBCF0BD00E943C
:102C10002B07F1CFFB018581811511F006D0E9CF9B
:102C200004D0F5CF809106010895809105010895A3
:102C3000809104010895A3E0B0E0E1E2F6E10C9494
:102C40000021CE010196AC010196BC01019604D190
:102C50008B81853239F48A81813121F481E0998137
:102C6000903109F080E081702396E2E00C941C2101
:102C7000811521F040E161E185E214C14FEF6FEF72
:102C80008FEFFBCF08950895CF92DF92EF92FF92DE
:102C90006B017C01F8DFB601C70123D1FF90EF90F3
:102CA000DF90CF900895D7D080E0E2DF80E090E021
:102CB000BC01EADFB7DA15DB81E0DACFE3DF08D168
:102CC000E2DFB9DF811101C0EECF089508959C01C4
:102CD000FB018581811549F0A901575740385105FD
:102CE00028F4822F00DB80E0089581E008952FEF23
:102CF000FC0120830895FBCF089580E008951F9381
:102D0000CF93DF93EC01162FF8DF81110FC0E8811C
:102D1000E150E331B8F4F0E0EE54FE4D0C94E320C2
:102D200019828CE08A83612FCE0135DADF91CF9151
:102D30001F91089589818330C9F038F4813061F0A2
:102D4000823091F08FEF8883EECF8430D9F71A82EA
:102D50001B821C821D82E7CF3ED30E94E9206A833A
:102D60007B838C839D83DFCFB3D0F7CF8A8190E0C4
:102D7000FE0186309105BCF63296118212820196D0
:102D8000F8CF8981823029F08530E1F68A819EDF93
:102D9000CACF6A817B818C819D810E94E92074DF8A
:102DA000C2CF4B816A81898139DA9C013827232778
:102DB00032272C833D83B7CF2C813D8132272327B7
:102DC00032274B816A8189812BDAADCF2BDAABCFE9
:102DD000612FCE0190DFA7CF67DA8983A4CF66DAAF
:102DE0009C0138272327322729833A839CCF6B8184
:102DF00070E089819A81982789279827AE014C5FD6
:102E00005F4F57DA90CF6B8170E089819A81982764
:102E100089279827AE014C5F5F4F57DA84CF61DA7C
:102E200082CFFAD9DACF6B8170E089819A819827B5
:102E300089279827AE014C5F5F4F14DA74CF6B81FE
:102E400070E089819A81982789279827AE014C5F85
:102E50005F4F14DA68CF0895EF92FF920F931F939C
:102E6000CF93DF937C018B01EA01892B31F085E25E
:102E700090E00E943D21F70180830115110531F09A
:102E800086E290E00E943D21F8018083209729F09E
:102E900087E290E00E943D218883CDB7DEB7E6E06F
:102EA0000C941821CF93DF93C62FD42F682F85E27F
:102EB00090E00E9459216C2F86E290E00E945921F7
:102EC0006D2F87E290E00E945921DF91CF91089504
:102ED00088E290E00E943D21682F70E080E090E061
:102EE000089588E290E00C94592180938102909398
:102EF00082020895BBD1982F81E0913009F080E0E3
:102F00000895E0918102F0918202309739F00190AA
:102F1000F081E02D309711F00995089580E0089533
:102F2000E0918102F0918202309731F00280F381CA
:102F3000E02D309709F009950895E0918102F09114
:102F40008202309759F024813581232B39F026E015
:102F5000DC012C930480F581E02D09950895A3E010
:102F6000B0E0E5EBF7E10C94002120917F02309175
:102F7000800228173907B1F080937F029093800276
:102F8000E0918102F0918202309761F00084F18536
:102F9000E02D309739F023E029838A839B83CE018B
:102FA000019609952396E2E00C941C21A3E0B0E081
:102FB000ECEDF7E10C94002120917D0230917E022E
:102FC00028173907B1F080937D0290937E02E0913B
:102FD0008102F0918202309761F00084F185E02D4A
:102FE000309739F024E029838A839B83CE010196B0
:102FF00009952396E2E00C941C21E0918102F09166
:103000008202309731F00284F385E02D309709F089
:1030100009950895CF93DF93C0910201D0910301E8
:1030200069DF811521F080918C0287FD11C09E011E
:103030002E5F3F4F96E080E09150F90140812F5F75
:103040003F4F41118F5F9111F7CFDF91CF910895DD
:1030500020910001309101012E5F3F4F9EE1EBCFA7
:10306000CF93C82F811102C080E02EC043DF8115AD
:1030700021F080918C0287FD0FC080910201909118
:103080000301FC013296089620812C17F9F0319645
:10309000E817F907C9F7E8CF8C2F869586958695AE
:1030A000C03F10F7E0910001F0910101E80FF11D20
:1030B000228130E0C77081E001C0880FCA95EAF72D
:1030C000282381E0232B81F2CF91089581E0FCCF6A
:1030D0009C01FC01329680E09FEF4081461759F039
:1030E00031969F3F19F4411101C0982F8F5F8630B0
:1030F000A1F79F3F09F40895290F311D97FD3A95D7
:10310000F90162830895FC013296089621912613F5
:1031100002C0DF011E92E817F907C1F70895262FB4
:10312000269526952695603F60F4820F911DFC013F
:10313000677021E001C0220F6A95EAF78281822B35
:1031400082830895262F269526952695603F68F45C
:10315000820F911DFC019DEF61FD97EF60FF95953A
:1031600062FD92958281892382830895CF93C82F2F
:10317000C1DE6C2F811559F080918C0287FF07C04A
:103180008091000190910101CADFCF910895809153
:103190000201909103019CDFF8CFCF93C82FAADEE4
:1031A0006C2F811559F080918C0287FF07C08091A8
:1031B000000190910101C6DFCF9108958091020135
:1031C00090910301A0DFF8CF95DE811571F0809119
:1031D0008C0287FF0AC0E0910001F0910101329654
:1031E0008EE111928A95E9F70895E0910201F0913C
:1031F0000301329686E0F5CF0895FECF08958F5FE4
:1032000080930A0160910701709108018091090182
:1032100090910A01F2CF83E080930A016091070147
:10322000709108018091090190910A01E6CFE7CFE2
:10323000089581E080930A0160910701709108016F
:103240008091090190910A01D8CFF3CF089591E0C0
:10325000811101C090E09093090160910701709184
:1032600008018091090190910A01C7CF809109015D
:103270000895809308016091070170910801809181
:10328000090190910A01B9CF8091080108958093B6
:1032900007016091070170910801809109019091E7
:1032A0000A01ABCF80910701089508950895FECFDC
:1032B000089508950895F9CF0895CF93FADF0E94F5
:1032C0003910F8DFC0E08C2F0E947C0F892B31F47D
:1032D000CF5FC630C1F780E0CF91089581E0FCCF89
:1032E000CF93DF93EC016BD08C1B9D0BDF91CF91C3
:1032F000089585B7806885BF85B7806885BF0895C4
:103300001F921FB61F9211248F939F93AF93BF9369
:1033100080918302811113C08091A6029091A7022F
:10332000A091A802B091A9024196A11DB11D809360
:10333000A6029093A702A093A802B093A902BF91FE
:10334000AF919F918F911F901FBE1F9018958091F4
:10335000AE02843031F10E949C031092830288E116
:1033600090E020E40FB6F894A895809360000FBE1B
:103370002093600083B7817F846083BF83B78160BF
:1033800083BF7894889583B78E7F83BF0FB6F894F8
:10339000A895809160008861809360001092600021
:1033A0000FBE08950E94B1060C94A00382E084BD74
:1033B00093E095BD9AEF97BD80936E0008952FB767
:1033C000F8948091A6029091A702A091A802B091D2
:1033D000A9022FBF08952FB7F8946091A6027091AB
:1033E000A7028091A8029091A9022FBF0895789416
:1033F0001F921FB61F9211248F939F93AF93BF9379
:103400008091A6029091A702A091A802B091A90272
:103410000196A11DB11D8093A6029093A702A093CF
:10342000A802B093A902BF91AF919F918F911F9075
:103430001FBE1F90189587E797E780930008909329
:10344000010888E19AE00FB6F894A895809360008F
:103450000FBE90936000FFCF88E19AE00FB6F8941A
:10346000A895809360000FBE90936000FFCF0895F1
:103470009B01BA019091AE029430D9F48F70809381
:10348000E9009FEF8091E80085FD06C085ED8A95F3
:10349000F1F700009150B1F78091E80085FF09C075
:1034A00040E050E0C901EED18091E8008E77809332
:1034B000E8000895603229F440E250E0BC0182E067
:1034C000D7CF089543E050E0BC0184E0D1CF40E283
:1034D00050E0BC0184E0CCCFCF93DF93EC01C6DE9B
:1034E00048E050E0BE0181E0C3DF88E0FE01A4E8CF
:1034F000B2E001900D928A95E1F7DF91CF910895A6
:10350000A0E2B0E0E5E8FAE17BC68091AE0284304B
:10351000F1F483E08093E9008091E80082FF17C016
:103520008091E80090E085FF07C040E050E0BD01D9
:10353000CE010196F3D191E08091E8008B778093E2
:10354000E800911521F060E2CE010196D8DBA0964B
:10355000E2E072C68091AD02811107C066D3B6D396
:103560008091E20084608093E20008951092AD02A1
:1035700008955FDE81E06BCE6091AA0281E0611167
:1035800001C080E048CE9091AE0281E0943009F015
:1035900080E06091AA024BCE42E061EC81E0C1D2B2
:1035A00042E261EC84E0BDD242E261EC82E0B9D259
:1035B00042E260EC83E0B5D29091AE0281E09430BB
:1035C00009F080E06091AA021ACE8091B0028930A1
:1035D00081F148F4823009F497C0833009F458C06F
:1035E000813041F008958A3009F481C08B3009F4AC
:1035F00069C008958091AF02813A09F048C0809176
:10360000E800877F8093E8008091B3029091B40234
:10361000892B59F060E080E090E070E0CBD18091A0
:10362000E8008B778093E800089568E084E892E0F2
:10363000F4CF8091AF02813251F58091B302909125
:10364000B4028D7F892B19F58091E800877F8093E4
:10365000E8008091E80082FF16C02091F30080917D
:10366000F200922F029731F48091F100813011F035
:10367000863019F48091F100FCDD8091E8008B77B1
:103680008093E80082C28091AE028111E2CF08955A
:103690008091AF02813AD9F78091B3029091B40240
:1036A000892BA9F78091E800877F8093E8008091BB
:1036B000E80080FFFCCFDADD8093F1008091E80024
:1036C0008E77DECF8091AF02813209F78091B3020D
:1036D0009091B402892BD9F68091E800877F80937E
:1036E000E80053D28091B102B2DD0C94B106809112
:1036F000AF02813261F68091E800877F8093E80015
:1037000044D28091B202C3CD8091AF02813A09F0D8
:10371000BECF8091E800877F8093E8008091E80029
:1037200080FFFCCFBFDDC8CF84B7877F84BF0FB6D3
:10373000F894A89580916000886180936000109251
:1037400060000FBE80E890E00FB6F89480936100AF
:10375000909361000FBE79CD68D2B8D2E2EEF0E06E
:10376000808184608083789415C58BE091E0BDCB27
:103770008091AE02853029F48091AE02853011F03F
:1037800011CE0895E4DD99DD8115B1F38091AC028D
:10379000811591F361D00E94B106EECF08959A0190
:1037A0004091B5025091B60200C0492F50E043301D
:1037B0005105D1F078F44130510509F448C0423048
:1037C000510571F48BE590E044E353E0F901408347
:1037D0005183089541325105E9F04232510539F1E2
:1037E00080E090E040E0F2CF482F50E0813061F07F
:1037F0004230510561F0E0E3F3E04115510581F7F6
:10380000849190E0AF01E2CFECE1F3E0F9CFECE09E
:10381000F3E0F6CF6330710518F7660F771FFB01F1
:10382000E256FE4F4081518189E090E0CFCF633076
:103830007105B0F6FB01EE0FFF1FE856FE4F408109
:1038400051816B567E4FFB01808190E0BFCF82E1BA
:1038500090E04FE853E0BACF80E189BD82E189BDB5
:1038600009B400FEFDCF8091D8008F7D8093D800F1
:103870008091E00082608093E0008091E00081FD13
:10388000FCCF0895AF92BF92CF92DF92EF92FF925A
:103890001F93CF93DF937C01EB016A0195D1182F21
:1038A000811122C0C114D10439F0F60180819181C7
:1038B000C81BD90BE80EF91EA12CB12C2097A1F042
:1038C0008091E80085FD20C08091E8008E7780938C
:1038D000E800C114D10499F0F601808191818A0D2C
:1038E0009B1D8083918315E0812FDF91CF911F91E4
:1038F000FF90EF90DF90CF90BF90AF90089564D18C
:103900008115F1F2182FF0CFF70181917F0180939B
:10391000F10021978FEFA81AB80AD0CFAF92BF92CB
:10392000CF92DF92EF92FF921F93CF93DF937C01B0
:10393000EB016A0149D1182F811122C0C114D104B1
:1039400039F0F60180819181C81BD90BE80EF91E70
:10395000A12CB12C2097A1F08091E80085FD20C01A
:103960008091E8008B778093E800C114D10499F02E
:10397000F601808191818A0D9B1D8083918315E0E2
:10398000812FDF91CF911F91FF90EF90DF90CF902B
:10399000BF90AF90089518D18115F1F2182FF0CF94
:1039A0008091F100F70181937F0121978FEFA81A91
:1039B000B80AD0CFFC018091B5029091B60286176B
:1039C000970720F06115710561F0CB0140E0009789
:1039D00071F441110CC08091E80082FF36C080E094
:1039E00008958091E8008E778093E800EECF2091D3
:1039F000AE022115B1F12530B1F12091E80023FD8F
:103A00002EC02091E80022FDE6CF2091E80020FFA3
:103A1000DECF4091F3002091F200342F009719F08F
:103A20002830310558F041E02830310509F040E0F8
:103A30002091E8002E772093E800C9CF4191409370
:103A4000F10001972F5F3F4FE9CF8091AE028115C2
:103A500041F0853041F08091E80083FFBCCF81E0E8
:103A6000089582E0089583E00895FC018091B502F5
:103A70009091B6028617970720F06115710561F0E5
:103A8000CB0140E0009771F441110CC08091E80037
:103A900082FF37C080E008958091E8008E778093A0
:103AA000E800EECF2091AE022115B9F12530B9F131
:103AB0002091E80023FD2FC02091E80022FDE6CFF1
:103AC0002091E80020FFDECF4091F3002091F2002A
:103AD000342F009719F02830310558F041E0283094
:103AE000310509F040E02091E8002E772093E800AE
:103AF000C9CF44914093F100319601972F5F3F4F1A
:103B0000E8CF8091AE02811541F0853041F080917F
:103B1000E80083FFBBCF81E0089582E0089583E051
:103B20000895982F973028F08F708093E90081E0F6
:103B300008959093E900242F762F50E0981731F0E4
:103B40007091EC002091ED005091F00021FD02C039
:103B50009F5FE8CF3091EB003E7F3093EB003091D8
:103B6000ED003D7F3093ED003091EB0031603093FC
:103B7000EB007093EC002093ED005093F000209147
:103B8000EE0027FDE5CF80E008958091AF0287FF2A
:103B900013C08091E80082FF06C08091E8008B7717
:103BA0008093E80008958091AE028111F2CF0895CC
:103BB0008091AE028115D9F38091E80080FFF8CFA3
:103BC0008091E8008E77ECCF2091E4003091E50001
:103BD00095E6A9012091EC00822F817020FF06C09C
:103BE0008091E80080FF06C080E008952091E80001
:103BF00022FD1AC08091AE02811589F0853089F0CE
:103C00008091EB0085FD0FC02091E4003091E5002C
:103C100042175307F9F29150E1F684E0089582E0EB
:103C2000089583E0089581E008955FD066D0E0EEC6
:103C3000F0E0808181608083E8ED80818F778083F0
:103C400019BCA7EDB0E08C918E7F8C9380818F7E24
:103C500080831092AD020895CF93DF9346D04DD06C
:103C6000C8EDD0E088818F778883888180688883D9
:103C700088818F7D888319BC1092AE021092AA02AF
:103C80001092AC021092AB02E0EEF0E080818B7FEC
:103C9000808388818160888342E060E080E041DF4A
:103CA000E1EEF0E080818E7F8083E2EE80818160B2
:103CB0008083808188608083E0EE80818E7F808336
:103CC000888180618883DF91CF910895E8EDF0E0ED
:103CD00080818F7E8083E7ED80818160808384E0B6
:103CE00082BF81E08093AD02B7CFE8EDF0E0808144
:103CF0008E7F80831092E20008951092DA00109275
:103D0000E10008951F920F920FB60F9211242F9386
:103D10003F934F935F936F937F938F939F93AF9353
:103D2000BF93EF93FF938091E10082FF0AC08091DF
:103D3000E20082FF06C08091E1008B7F8093E1006A
:103D400028D28091DA0080FF18C08091D80080FFCF
:103D500014C08091DA008E7F8093DA008091D900C0
:103D600080FF8FC080E189BD82E189BD09B400FE7A
:103D7000FDCF81E08093AE02EDDB8091E10080FF1A
:103D800018C08091E20080FF14C08091E2008E7F15
:103D90008093E2008091E20080618093E200809154
:103DA000D80080628093D80019BC85E08093AE0271
:103DB000E3DB8091E10084FF28C08091E20084FF72
:103DC00024C080E189BD82E189BD09B400FEFDCF38
:103DD0008091D8008F7D8093D8008091E1008F7E04
:103DE0008093E1008091E2008F7E8093E2008091D9
:103DF000E20081608093E2008091AA02811509F4BB
:103E000045C084E08093AE02BEDB8091E10083FF79
:103E100027C08091E20083FF23C08091E100877F6B
:103E20008093E10082E08093AE021092AA0280911A
:103E3000E1008E7F8093E1008091E2008E7F80938D
:103E4000E2008091E20080618093E20042E060E065
:103E500080E067DE8091F00088608093F00089DB6D
:103E6000FF91EF91BF91AF919F918F917F916F9152
:103E70005F914F913F912F910F900FBE0F901F9028
:103E8000189519BC1092AE0271DB77CF8091E300D8
:103E900087FF02C083E0B6CF81E0B4CF1F920F92BC
:103EA0000FB60F9211241F932F933F934F935F935D
:103EB0006F937F938F939F93AF93BF93CF93DF9332
:103EC000EF93FF93E9EEF0E080811091EC008F70AA
:103ED00010FB112717F9182B1082C0EFD0E0888152
:103EE000877F888378941CD0E9EEF0E01082888187
:103EF000886088831F701083FF91EF91DF91CF91CD
:103F0000BF91AF919F918F917F916F915F914F91F1
:103F10003F912F911F910F900FBE0F901F901895FA
:103F2000AAE2B0E0E5E9FFE16AC18FEA92E0FC01B4
:103F300001962091F100208322E0873B9207B9F798
:103F400044DB8091E80083FF37C08091AF029091FD
:103F5000B0029A3088F5E92FF0E0EB53FE4D33C103
:103F6000803889F0823841F58091B3028F708730B4
:103F700018F58093E9008091EB0085FB882780F994
:103F80001092E90006C08091AC02880F9091AB02BC
:103F9000892B9091E800977F9093E8008093F1003F
:103FA0001092F1008091E8008E7722C0811115C037
:103FB0008091B102813001F18091E80083FF0AC055
:103FC0008091E800877F8093E8008091EB00806219
:103FD0008093EB00AA96E3E02EC1823069F78091CE
:103FE000B102811579F01092E9008091E800877F95
:103FF0008093E800CADDE0CF933009F080E0809341
:10400000AC02F1CF8091B3028F70282F215026305F
:1040100098F68093E9002091EB0020FFE4CF9330E5
:1040200031F48091EB0080628093EB00DCCF9091C3
:10403000EB0090619093EB0021E001C0220F8A9584
:10404000EAF72093EA001092EA008091EB00886082
:10405000EBCF8111B1CF8091B1028F77182F809172
:10406000E3008078812B8093E3008091E800877FD4
:104070008093E8008ADD8091E80080FFFCCF80918A
:10408000E30080688093E30083E0111101C082E0C7
:104090008093AE0291CF8058823008F08DCF80910E
:1040A000B1029091B2028C3D23E0920789F583E042
:1040B0008A838AE289834FB7F894DE01139620E061
:1040C0003EE051E2E32FF0E050935700849120FF4F
:1040D00003C082958F703F5F8F708A30B8F0895C23
:1040E0008D931D922F5F243169F74FBF8091E800B7
:1040F000877F8093E8006AE270E0CE0101965ADC87
:104100008091E8008B778093E80056CF805DE8CF00
:104110006091B3027091B4029E012F5F3F4FA901DD
:104120003EDBBC01892B09F447CF9091E800977FD3
:104130009093E80089819A8198DCE2CF803809F079
:104140003BCF8091E800877F8093E8008091AA02AE
:104150008093F10027CF81112FCF9091B10292303F
:1041600008F02ACF8091E800877F8093E800909341
:10417000AA020BDD8091AA02811529F084E08093C8
:10418000AE020ADA19CF8091E30087FDF7CF81E014
:10419000F6CF0895CF938091AE02811591F0809172
:1041A000E900C091EC008F70C0FBCC27C7F9C82B89
:1041B0001092E9008091E80083FDB2DECF70C093D9
:1041C000E900CF910895EE0FFF1F0590F491E02DC7
:1041D00009946927962769277827872778270895DC
:1041E0002F923F924F925F926F927F928F929F9207
:1041F000AF92BF92CF92DF92EF92FF920F931F93F5
:10420000CF93DF93CDB7DEB7CA1BDB0B0FB6F894A5
:10421000DEBF0FBECDBF09942A88398848885F84E5
:104220006E847D848C849B84AA84B984C884DF8056
:10423000EE80FD800C811B81AA81B981CE0FD11D3A
:104240000FB6F894DEBF0FBECDBFED010895FB01A0
:10425000DC0104C08D910190801921F4415050403F
:10426000C8F7881B990B0895FB01DC0102C001907F
:104270000D9241505040D8F70895F999FECF92BD64
:1042800081BDF89A992780B50895A8E1B0E042E091
:1042900050E02FC0DC01A40FB51F4150504040F04A
:1042A000CB01840F951F2E9105D041505040D8F777
:1042B0000895262FF999FECF92BD81BDF89A0197F6
:1042C00000B4021639F01FBA20BD0FB6F894FA9A5E
:1042D000F99A0FBE08950396272FECDFEADF252F0A
:1042E000E9DF242FE7CF0196272FE4DFE2CFDC01BF
:1042F000CB01FC01F999FECF06C0F2BDE1BDF89AF1
:10430000319600B40D9241505040B8F70895F8949A
:10431000FFCFBF132E14C71391139513CB1399130B
:10432000CF13DB13A5132714A913DF13AD13E31366
:104330000814B113E7130F14B713ED13F5139D13FE
:10434000D313A113D713BB13F113FF1318142514A0
:104350008B13C3133514C215C815B315BC15CE1570
:10436000D415DA1590169A16C116D116DC16E61673
:10437000E816E816E816A216A216EC16EF16F716BF
:1043800003170F17111713171F17B01FD61FDC1FA6
:0E439000D61FDC1F29204B20DC1F9E20AB20F7
:10439E00350255020302010000010044196C1A6730
:1043AE001A371A621A5A1AE200E900EA00B500B684
:1043BE0000B700CD008301CC008A01920194012147
:1043CE0002230224022502260227022A02B300B487
:1043DE00006F0070009F01CB019F02A002E200E976
:1043EE0000EA00B500B600B700CD008301CC008A0C
:1043FE0001920194012102230224022502260227A2
:10440E00022A02B300B4006F0070009F01CB019F1F
:10441E0002A00266949091929397C635343236F785
:10442E003133F6F5F444226D3004A103C303460381
:04443E005F037F0396
:00000001FF
