:100000000C9482020C949F020C949F020C949F0209
:100010000C949F020C949F020C949F020C949F02DC
:100020000C949F020C949F020C94CF1F0C94A2205E
:100030000C947E1A0C949F020C949F020C949F02C5
:100040000C949F020C949F020C949F020C949F02AC
:100050000C949F020C94F61A0C949F020C949F022D
:100060000C949F020C949F020C949F020C949F028C
:100070000C949F020C949F020C949F020C949F027C
:100080000C949F020C949F020C949F020C949F026C
:100090000C949F020C949F020C949F020C949F025C
:1000A0000C949F020C949F020C949F023500000058
:1000B0000000000000000000000000000000000040
:1000C00000004C001E001F00200021002200230021
:1000D00024002500260027002D002E002B001400F0
:1000E0001A000800150017001C0018000C00120070
:1000F00013002A00290004001600070009000A0066
:100100000B000D000E000F0033003400E1001D0055
:100110001B00060019000500110010003600370012
:1001200038001E7CE000E300007EE2002152000067
:100130002C0022525000510052004F0001000000DC
:1001400000000000000000000000000000000000AF
:10015000000001003A003B003C003D003E003F0033
:1001600040004100420043004400450001000100FE
:100170005200010001005F00600061000100010009
:100180002F0030003900500051004F0001005C008A
:100190005D005E000100010001003100010001006E
:1001A00001000100010059005A005B00010001003C
:1001B0000100280001000100010001000100000011
:1001C000620063004A004E004B004D000100000039
:1001D000000000000000000000000000000000001F
:1001E0000000010001000100010001000100010008
:1001F000010001000100A800AA00A90001000100FF
:1002000001000100010001000100010001000100E6
:100210002F00300001000100010001000100010079
:100220000100010001000100010031000100010096
:1002300001000100010001000100010001000100B6
:10024000010028120100010001000100010000006E
:10025000010001000100010001002811010000005F
:10026000000000000000000000000000000000008E
:100270000000010001000100010001000100010077
:100280000100010001000100010001000100010066
:100290000100010001000100010001000100010056
:1002A0000100010001000100010001000100010046
:1002B0000100010001000100010001000100010036
:1002C0000100010001000100010001000100010026
:1002D0000100010001000100010001000100000017
:1002E0000100010001000100010001000000000008
:1002F000000000002A2B2800000000000000000081
:100300000000000000000029000000002C1E342026
:10031000212224342627252E362D3738271E1F204C
:100320002122232425263333362E37381F04050691
:100330000708090A0B0C0D0E0F10111213141516D5
:100340001718191A1B1C1D2F3130232D35040506D3
:100350000708090A0B0C0D0E0F10111213141516B5
:100360001718191A1B1C1D2F3130354C00000000C6
:10037000000000000000000000000000000000007D
:10038000000000000000000000000000000000006D
:100390007E0F00D4FFFFFFC7000000780E034B0064
:1003A000720074006B00750073000000120373008C
:1003B00077006900660074003500300032000000EC
:1003C0000403090409025B00030100A0FA09040008
:1003D000000103010100092111010001224400076D
:1003E000058103080001090401000203000000095F
:1003F00021110100012222000705820320000107CC
:1004000005030320000109040200010300000009A4
:100410002111010001226D00070584032000011253
:1004200001000200000008424A1616000101020005
:10043000010660FF0961A1010962150026FF009510
:1004400020750881020963150026FF0095207508B4
:100450009102C005010980A101850319012AB70095
:10046000150126B700950175108100C0050C090122
:10047000A101850419012AA002150126A0029501F7
:1004800075108100C005010906A10185060507193F
:10049000E029E71500250195087501810205071976
:1004A0000029EF1500250195F07501810205081955
:1004B000012905950575019102950175039101C00A
:1004C00005010906A101050719E029E71500250125
:1004D00095087501810295017508810105071900CC
:1004E00029FF150026FF00950675088100050819EB
:1004F00001290515002501950575019102950175E4
:10050000039101C011241FBECFEFDAE0DEBFCDBFE3
:1005100011E0A0E0B1E0E8E8F6E402C005900D9239
:10052000A23AB107D9F722E0A2EAB1E001C01D92D8
:10053000A53BB207E1F70E9485120C94FC220C94B3
:1005400000000F931F93CF93DF93EC018B010E9468
:10055000260C982F9272C630D10589F1C1152EE76D
:10056000D20741F0C530D10509F1B801CE010E9492
:1005700011030CC0F80125812115A9F081718115A5
:1005800051F082EE90E00E94C11880E0DF91CF919F
:100590001F910F910895911519F089EE90E0F3CF16
:1005A0008AEE90E0F0CF80E090E0EDCFF801858119
:1005B0008115D9F29232C9F60E94B803E6CFF8014C
:1005C0008581811591F2923281F60E94F50D0E948B
:1005D000BE03DBCF8430B8F46630A8F44C3098F416
:1005E000E42FF0E09CE0699FE00DF11D112498E4F8
:1005F000899FE00DF11D1124EE0FFF1FE455FF4F01
:1006000085919491089581E090E0089581E00895A6
:1006100081E008950E940603089581E0089581E035
:10062000089581E00895089508950E9413030895A0
:1006300008950895A6E0B0E0E0E2F3E00C946C22A7
:1006400049835A839E833091A90189819A8131110E
:100650001AC03E81311599F0211589F00E94E208F7
:10066000182F682F89819A810E94BE0869817A813A
:10067000812F0E9414102696E3E00C9488220E9499
:10068000D008182FF3CF0E94E20869817A81F1CF58
:10069000FC01262F40815181628173818481958183
:1006A0000E941A030895CF93DF93D82FC92F61E0DA
:1006B0000E9448036D2F7C2F0E940803811549F08A
:1006C00061E08D2F9C2F0E9448036D2F7C2F0E948C
:1006D0000A03DF91CF9108950F931F93CF93DF9378
:1006E000D82FC92F60E00E9448038C016D2F7C2F0A
:1006F0000E9414036D2F7C2FC8010E941503DF9107
:10070000CF911F910F91089591E001C0990F8A95A3
:10071000EAF7892F0E9400080895CF93C82F81E03F
:100720000C2E01C0880F0A94EAF70E946A0D8C2FE4
:100730000E948403CF91089581E0089581E0089597
:100740000E949C030895CF93C82F0E94AC078C2F62
:100750000E949E038C2F0E94A0032FEF84E39CE055
:10076000215080409040E1F700C00000CF910895F3
:1007700081E00E94A3030E941A1B089580E00E945A
:10078000A3030E942B1B08950F931F93CF93DF9316
:100790008C0161E00E944803EC01B8010E940F0344
:1007A000811509F450C0B801CE010E94A102811543
:1007B00009F449C0B801CE010E948617811509F4D9
:1007C00042C0B801CE010E94A0168115E1F1B80126
:1007D000CE010E9445148115B1F1B801CE010E94ED
:1007E0001A14811581F1B801CE010E94E21681151B
:1007F00051F1B801CE010E941711811521F1F801C4
:100800008581811581F0CA35FCE7DF0739F178F47D
:10081000C130ECE7DE07F9F0C330FCE7DF07C9F0D1
:10082000C115DC4771F0C8010E940D030DC0CB3526
:10083000ECE7DE07B1F0CC35DC47A9F70E943C0DB0
:10084000F2CF0E94B80380E0DF91CF911F910F910A
:1008500008950E944D0D0E94BE03F5CF0E94450DE4
:10086000E2CF0E94490DDFCF0E9418030E94501A68
:100870000E94580408950E945C040E9419030E947B
:10088000551A089581E008950895CF93DF93D82FE6
:100890000E944204C82F811519F08D2F0E94440434
:1008A0008C2FDF91CF91089508950E9445040895FB
:1008B00080E00E94550408950E9474180E94550417
:1008C0000895CF930E947418C82F8091A4018C17AB
:1008D00079F0C093A4010E94EA1A6093A501709375
:1008E000A6018093A7019093A8018C2F0E94550424
:1008F000CF910895ADE0B0E0E0E8F4E00C946D2213
:10090000488759876A877B878C879D8791110E94CA
:10091000480C1F8286E0FE013896DE011196019098
:100920000D928A95E1F78D8181110DC029813A815F
:100930004B815C816D817E818F810E94920B2D960F
:10094000E2E00C948922CE0101960E9453038111AA
:10095000EDCFF5CFFC018481813021F4808191813C
:100960000E940B090895CF93C82F811599F08CEF41
:100970008C0F813A88F48C2F0E940919811529F077
:100980008C2F0E94B2190E94DE0C8C2F0E949819A5
:100990000E94DE0CCF91089580E28C0F883048F4DD
:1009A000C77081E001C0880FCA95EAF70E94290C40
:1009B000EFCF8BE58C0F833038F42C2F2452330B80
:1009C000C9010E949B18E6CFC85ACB3118F7EC2F0B
:1009D000F0E0EE0FFF1FEB5EFE4F808191810E94E1
:1009E000C118D8CF811539F19CEF980F913A28F4AE
:1009F0000E94B2190E94DE0C089590E2980F983080
:100A000050F4877091E001C0990F8A95EAF7892F19
:100A10000E942F0CEFCF9BE5980F933028F480E0D5
:100A200090E00E949B180895885A8B3120F480E052
:100A300090E00E94C11808950F931F93CF93C82F81
:100A40008B010E94B3040115110539F48C2F0E940B
:100A5000F204CF911F910F9108958FE99FE00197C4
:100A6000F1F700C0000001501109EDCF60E570E022
:100A7000893311F068E270E00E941C050895811529
:100A800021F00E94290C0E94DE0C0895811521F0AE
:100A90000E942F0C0E94DE0C0895A0E0B0E0E3E578
:100AA000F5E00C9467226C01D62FC72FFC0105815D
:100AB000F680F2948FE0F8220E941E0CE82E811539
:100AC000F9F0E02E0115E1F08C2F807F803461F089
:100AD00080E28D0F8830D0F18C2F807E803221F41F
:100AE000D230A0F1F11491F180918B0282FF2EC0DF
:100AF00082E00E940F0D0E941E0C91E0E82EE92674
:100B00008C2F82958F70883009F4F2C0C8F584303C
:100B1000F8F41C2F1F70823008F443C0C07FC0322D
:100B200011F01295107FD11509F46AC0D13009F483
:100B30009AC0011509F4A6C0F11409F47DC0F601AC
:100B4000868180FF41C08F70868376C0E12CD8CF2C
:100B5000843009F4B0C0E11409F4F8C00E941A0C02
:100B600080FDF4C0F60115820E94140C0E942D082D
:100B7000C6010E9477070E94140C0E943908E6C043
:100B8000893009F426C18A5F8F70823020F7D23F06
:100B900009F030C18C2F8F71011129C10E942D08DD
:100BA000D1C0C03110F01295107F011599F01115C8
:100BB00059F080E28D0F883010F0D11107C0812FDD
:100BC0000E94290C0E94DE0C8D2F28C0812F0E94CC
:100BD0003A0CF8CF8D2F0E94F204111509F4BBCF07
:100BE00080E28D0F883010F0D11104C0812F0E9457
:100BF0002F0C03C0812F0E94400C0E94DE0CABCF53
:100C000080918B0282FD14C0011559F0111529F055
:100C1000812F0E94290C0E94DE0C80E00E94B30408
:100C20009ACF80E00E94F204111509F494CFDECF30
:100C3000011569F0F11004C0812F0E943F058BCF90
:100C4000F1E0FF1288CF812F0E94600C84CFF11059
:100C500082CF812F0E944605812F0E946C0C812F2C
:100C60000E944F0C78CF011529F026E0F21608F00B
:100C700072CFE2CF85E0F81608F06DCF812F0E9489
:100C8000460569CFF114D1F3D93369F4FFEF27EEAC
:100C900083E0F15020408040E1F700C000008D2F3C
:100CA0000E94F20458CF9FEFE3EFF1E09150E04053
:100CB000F040E1F7F2CF8C2F8695869583708115F1
:100CC00069F0813009F047CF8D2F9C2F937001116F
:100CD00002C080E090E00E94C1183DCF8D2F9C2F74
:100CE0009370011102C080E090E00E949B1833CF06
:100CF0008C2F8370811138C0011124C04D2F429573
:100D000046954770440F440F8D2F8F70042E01C0FD
:100D1000880F0A94EAF72D2F2071D4FF07C02FE027
:100D200030E001C0220F4A95EAF72095C695C69596
:100D3000C370822BC23091F0C33099F0C13059F0AA
:100D40000E9409080E9474180E945504CDB7DEB7AE
:100D5000E8E00C9483220E940308F4CF0E940F085D
:100D6000F1CF0E940008EECF011539F1C0FFEACFA4
:100D70004D2F429546954770440F440F8D2F8F702D
:100D8000042E01C0880F0A94EAF72D2F2071D4FF9A
:100D900007C02FE030E001C0220F4A95EAF7209506
:100DA000C695C695C370822BC23069F0C33071F00E
:100DB000C13031F00E945B08C5CF823018F2D8CF25
:100DC0000E945508BFCF0E946108BCCF0E941B083B
:100DD000B9CFCF70011539F08C2F0E942D088D2FBF
:100DE0000E943F05AFCF8D2F0E9446058C2F0E9499
:100DF0003908A8CF68F4D03FC1F0D13F89F0011580
:100E000009F441C0F114E1F18D2F0E94B3049ACF8F
:100E1000D33FC9F0D43F99F780918B0282FD1DC06A
:100E20008C2F8F71011519F3B9CE011549F025E00A
:100E3000F21608F087CF8C2F8F710E94490882CF5D
:100E400086E0F816F6CF011529F08C2F8F710E94DD
:100E5000240878CF0E94200875CF011531F063E097
:100E60008C2F8F710E94F00C6DCF81E00E940F0DCE
:100E700092E0F91608F466CF82E00E940F0D62CF6F
:100E80008C2F8F718BCEF114B9F0D93369F4EFEF59
:100E9000F7EE23E0E150F0402040E1F700C0000011
:100EA0008D2F0E94F2044ECF8FEF93EFE1E081503F
:100EB0009040E040E1F7F2CF8C2F8F7198CF0F93E5
:100EC0001F93CF93DF93EC01688179818D810E941C
:100ED00018098C010E9467080E94FF07B801CE0123
:100EE0000E944D05DF91CF911F910F910895CF93EF
:100EF000DF93EC018C81811599F0CE010E94C4032F
:100F0000811111C00E941E0C811551F08D81811537
:100F100039F080918B0282FF03C082E00E940F0DA6
:100F2000DF91CF910895CE010E945F07CE010E940C
:100F30006C03F6CF80E090E00E949B1880E090E088
:100F40000E94C1180E94480C0E94DE0C08950E9465
:100F5000CC190E949A0708950E94370C0E94A70797
:100F60000895282F92959F70963099F060F4925FC3
:100F70009F70923030F4203FB1F038F481E0283E89
:100F800038F080E008959A5FF3CF81E0243FC9F7FD
:100F9000089591E0813F09F090E081E0283E08F05B
:100FA00080E0892B089581E00895FC0184818115FA
:100FB00039F0808191810E940B090E94B107089548
:100FC00080E00895A6E0B0E0E8EEF7E00C946D2232
:100FD0002696E2E00C948922A7E0B0E0E2EFF7E089
:100FE0000C946D222796E2E00C94892208950E94C9
:100FF000F60708950E94F7078093C60108950895A3
:101000000E94FA0708959091C601892B0E94FA0761
:1010100008959091C60189230E94FA07089590913E
:10102000C60189270E94FA0708950E94F6070895CD
:101030000E94150808950E9418088093C50108951C
:1010400080E00E941B08089591E001C0990F8A95E5
:10105000EAF7892F0E941B08089521E030E001C0C3
:10106000220F8A95EAF78091C501822B0E941B0806
:10107000089521E030E0A90102C0440F551F8A9570
:10108000E2F7CA0180959091C50189230E941B084F
:10109000089521E030E001C0220F8A95EAF780919F
:1010A000C50182270E941B0808959091C501892BD4
:1010B0000E941B0808959091C50189230E941B0876
:1010C00008959091C50189270E941B0808950895ED
:1010D0009B01677091E001C0990F6A95EAF763E0A0
:1010E000369527956A95E1F7B901660F771F260FA8
:1010F000371FFA01E20FF31F40E050E0682F70E065
:101100008191DF019B01042E02C0369527950A9438
:10111000E2F7217021952827292328272E934F5F56
:101120005F4F4330510561F708959C01A82FA770C8
:1011300083E0369527958A95E1F7C901880F991FB5
:10114000820F931FFB01E80FF91F40E050E080E0A1
:10115000219130E00A2E02C0369527950A94E2F7D5
:1011600021703327042E01C0220F0A94EAF7822B44
:101170004F5F5F4F4330510559F70895282F862F51
:10118000963068F42C3058F4622F70E02CE0929F77
:10119000600D711D11244AEA51E00E94680808950B
:1011A000292F963068F48C3058F490E06AEA71E0A8
:1011B0003CE0239F800D911D11240E949508089505
:1011C00080E00895A0E0B0E0E8EEF8E00C9468223A
:1011D0007C010091C5018091C601082BC3E0D0E0DD
:1011E00010E0C8010C2E02C0959587950A94E2F78D
:1011F00080FD09C02197A8F7D12C8D2DCDB7DEB782
:10120000E7E00C948422DC2EB7018C2F0E94201082
:10121000019781F3F2CFCF93DF93D82FC92F0E948C
:10122000E2086D2F7C2F0E942010DF91CF9108954E
:101230001F93CF93DF93162FD72F9091A90191156C
:1012400041F0862F972F0E940B09DF91CF911F91BC
:101250000895811581F0862F972F0E94E208C82FEC
:10126000682F812F9D2F0E94BE08612F7D2F8C2F0C
:101270000E942010EACF862F972F0E94D008C82FF7
:10128000F4CFE1E0F0E0DF0102C0AA0FBB1F6A95D6
:10129000E2F7BD01DF0102C0AA0FBB1F4A95E2F7CA
:1012A0006A2B01C0EE0F2A95EAF7962F9823961322
:1012B00002C08E2B0895E0958E230895242F462F8B
:1012C000682F8091C5010E9441090E941B08089562
:1012D0000F931F93CF93E091C701C7E08091C8019E
:1012E0008E1304C0CF911F910F9108950E2F10E01F
:1012F000CE9FF0011124E753FE4F208131814281BE
:1013000053816481758186810E94EC07F8013196D2
:10131000E770E4CF20910102309102024091030274
:1013200050910402609105027091060280910702BB
:101330000E94EC07089580910702803178F4809133
:101340000602811559F0E091C7012091C801309142
:1013500002024091010257E02E1301C008956E2F42
:1013600070E05E9FF0011124DF01A753BE4F149679
:101370008C911497811561F111968C9111978313BB
:1013800027C08C91841324C015968C9115978111D8
:101390001FC012968D919C91A0910302B0910402FE
:1013A0008A1B9B0B883C910598F4809107028F70F3
:1013B000806180930702E153FE4F80818F708061CE
:1013C000808381E092E00E9477070E946809089577
:1013D000FB013196E770C0CFE091C7019091C80141
:1013E00027E0E91302C080E00895AE2FB0E02E9F01
:1013F000F0011124E753FE4F3181361306C03081CE
:10140000381303C03581341304C0FD013196E770F1
:10141000E8CF81E008958F929F92AF92BF92DF92C2
:10142000EF92FF920F931F93CF93DF93CDB7DEB769
:101430002D970FB6F894DEBF0FBECDBF8C0186E0AE
:10144000F801DE01189601900D928A95E1F7D80116
:101450001596FC90159714968C9191E0892E92E048
:10146000992E9091050291111BC0811509F409C1B3
:10147000F11409F44AC1C8010E94D507811509F485
:1014800044C187E0F801D40101900D928A95E1F7FB
:10149000C4010E94AA040E949B090E948A09F1C00B
:1014A000F801E080A280B380D09006022091030270
:1014B00030910402A501421B530BD11409F4E4C07E
:1014C000483C510508F0B4C0811509F4DAC0909188
:1014D0000202918080910702803108F079C0991250
:1014E00029C0909101029E1125C0F1105EC08F703D
:1014F0008061809307020E948A0981E092E00E9445
:10150000770780910702D80116968C93F12C8F2DC6
:101510002D960FB6F894DEBF0FBECDBFDF91CF91F1
:101520001F910F91FF90EF90DF90BF90AF909F9031
:101530008F900895F11039C040E0692D8E2D0E94E2
:10154000EC0940E0692D8E2D0E94EC09F82E8111E6
:10155000DDCF888599850E940B09292F22952F7050
:10156000903450F49F70223080F0911599F0F8017A
:101570009681903178F4CBCF2A5F2F70223078F0AB
:10158000C8010E947707FD2CC2CF911519F0811573
:1015900009F4BDCF805E883008F4B9CFF1CF803F29
:1015A00008F4B5CF815F8330F7CF80910702816067
:1015B0008093070281E092E00E94770787E0E1E0F4
:1015C000F2E0DF011D928A95E9F70E948A099ECF19
:1015D000991207C0909101029E1103C0F11409F401
:1015E00074C0C8010E94D507811509F48EC0F1149A
:1015F00009F48BC080910702803288F020910102AB
:10160000309102023A832983BC82AB829091050219
:101610009D831E828F83CE0101960E94770787E00B
:10162000F801A1E0B2E001900D928A95E1F733CF85
:1016300090910702903178F4488559856A857B85B9
:101640008C859D850E94E20781E092E00E947707E9
:1016500087E0D401B7CF8115A1F0209102028181EA
:101660002813BFCF809101028E11BBCFF110B9CFEB
:101670009683C8010E94770787E0D4011D928A955E
:10168000E9F7FF24F39443CF483C510508F041C0EB
:101690008115B9F3F114C9F1909102028181981377
:1016A0002AC0809101028E1126C08091070280FD20
:1016B00019C08031B8F08683807F803F39F0868101
:1016C000982F907F905F8F70892B8683C8010E942E
:1016D000770787E0F801A1E0B2E001900D928A95CA
:1016E000E1F7DBCE87E0F801A1E0B2E001900D92D6
:1016F0008A95E1F7C6CFC8010E94D50781118FCF27
:1017000080910702816080930702C8010E947707D9
:10171000B8CF488559856A857B858C859D850E94D3
:10172000E20796CFAEE0B0E0E8E9FBE00C946C2273
:10173000288739874A875B876C877D878E87CE01AC
:1017400008960E940B0A6C858115A9F0611541F07D
:10175000288539854A855B857D858E850E94EC07C5
:1017600017E08091C7019091C80189133AC02E9665
:10177000E3E00C94882287E0FE013896DE011196A2
:1017800001900D928A95E1F7611551F3A091C8017E
:101790008A2F90E00196877099272091C70128171A
:1017A000190689F097E09A9FD0011124A753BE4FE4
:1017B000FE01319601900D929A95E1F78093C80150
:1017C0000E946809CDCF0E94AC071092C801109208
:1017D000C70187E0E1E0F2E0DF011D928A95E9F7B9
:1017E000BFCF189FC001112487539E4F0E940B0A40
:1017F000811509F4BCCFE091C7011E9FF0011124AF
:10180000E753FE4F2081318142815381648175818C
:1018100086810E94EC078091C70190E00196877055
:1018200099278093C7019DCF809130028695869538
:1018300086950895809130028770089590913002C6
:10184000977081E0911101C080E0089580915C0261
:10185000089590915C02982B90935C020895982FC4
:10186000909580915C02892380935C020895109288
:101870005C02089590915B02982B90935B0208950F
:10188000982F909580915B02892380935B02089545
:1018900010925B02089508950E944B0C0895909158
:1018A0003102292F2823211531F080958923809337
:1018B00031020E944C0C089508950E945C0C08951A
:1018C00090913202292F2823281729F0982B9093E2
:1018D00032020E945D0C089590913202292F282334
:1018E000211531F080958923809332020E945D0C8E
:1018F000089580913202811529F01092320280E021
:101900000E945D0C0895CF93C0915C0280915B02B0
:10191000C82B80913202811531F0C82B0E94E71844
:1019200081110E94790C8C2FCF910895CF93DF9372
:10193000C0910201D09103010E94830C8883C09161
:101940000201D091030148E050E068E272E0CE016C
:101950000E949422892B59F088E0FE01A8E2B2E0AF
:1019600001900D928A95E1F7CE010E948118DF91D6
:10197000CF910895CF93DF93C0910001D0910101E1
:101980000E94830C8983C0910001D091010140E243
:1019900050E068E072E0CE010E949422892B59F059
:1019A00080E2FE01A8E0B2E001900D928A95E1F795
:1019B000CE010E948C18DF91CF9108950E942B1ABE
:1019C000813039F480918A0287FF03C00E94BA0CEB
:1019D00008950E94960C089508950E94EC0C0895B5
:1019E000962F20918B0222FF11C0682F660F660F81
:1019F000660F692B609330020E942D08809130029F
:101A00008695869586950E94ED0C08950E942D0876
:101A100008951092300280E00E94ED0C089590919C
:101A200030028095892380933002282F277021115E
:101A30000DC0891759F090918B0292FF07C08695CF
:101A4000869586950E9439080E94090D0895909107
:101A50008B0292FB222720F9281769F080FB92F96C
:101A600090938B0280918A0290918B020E94750D57
:101A700082E00E940F0D089580918B02002482FF66
:101A80000394802D0E94270D089581E00E94270D68
:101A9000089580E00E94270D08956FEF7FEF80E0AA
:101AA00090E00E94E622089580E090E00E94B22239
:101AB000853E9E4F19F40E941D17089580E00895F9
:101AC00082E090E00E94AA22089583E090E00E94C4
:101AD000AA220895682F83E090E00E94C82208950A
:101AE00084E090E00E94B2220895BC0184E090E07E
:101AF0000E94E6220895AB01BC018FE090E00E94B5
:101B0000DA220895AB01BC0183E190E00E94DA2261
:101B1000089560E070E0CB010E94820D089560E0BE
:101B200070E0CB010E947B0D0E94890D0895A8E012
:101B3000B0E0EDE9FDE00C946D2265EE7EEF80E013
:101B400090E00E94E62260E082E090E00E94C822DD
:101B500081E08093C6010E946A0D60E074E184E038
:101B600090E00E94E62260E086E090E00E94C822B9
:101B700060E087E090E00E94C82240E050E0BA01B7
:101B800088E090E00E94DA2260E083E290E00E9428
:101B9000C82260E08CE090E00E94C82260E08DE006
:101BA00090E00E94C82219821A821B821C821D8228
:101BB0001E821F82188648E050E067E170E0CE0187
:101BC00001960E94B82240E050E0BA018FE190E017
:101BD0000E94DA2280E00E9436170E9468170E9455
:101BE0008F0D2896E2E00C9489220E94970D0895AB
:101BF000682F8EE090E00E94C8220895A6E0B0E031
:101C0000E4E0FEE00C946B220E94DE1A8C018091CD
:101C10005D0290915E028017910779F019821A8215
:101C20000E94DE1ABC0149815A8180E090E00E9446
:101C30007A0410935E0200935D022696E4E00C9411
:101C400087220E94EA1A60936F0270937002809359
:101C500071029093720260936B0270936C02809396
:101C60006D0290936E020895089508950E94340EB7
:101C7000089508950E94390E0E94360E0895089521
:101C80000E943F0E089508950E94430E0E94400E48
:101C9000089585E191E10E949C120E94350E0E94F8
:101CA0003A0E089581E0089581E008950E94520E51
:101CB00008950895089508950E94590E0E945A0E9D
:101CC0000E945B0E08950E94540D811102C00E9473
:101CD000F50D0E94600D809373020E94700D909329
:101CE0008B0280938A020E94BF120E94650D0E949F
:101CF00000088091C5010E94180808950E94D51A15
:101D00000E9478170E94ED110E94630E0E945404F5
:101D10000E94440E0895A6E0B0E0E1E9FEE00C94D4
:101D200061220E94540E811108C00E94FE0D0E9483
:101D300061042696EEE00C947D220E9403122FE5AA
:101D4000822E22E0922E540110E0F50161907190F4
:101D50005F01812F0E9431116C011F5F163009F461
:101D60004AC06816790689F38091730281FD0E944A
:101D70003A110E94560E782E10E066246394812F4B
:101D80000E9431117C01F401A190B1904F018A159C
:101D90009B0559F1A826BF2400E0CC24C394D12C84
:101DA000C5018C219D21892BC1F07114B1F00983EB
:101DB0001A830E94DE1A9C838B836D8221E0C70107
:101DC0008C219D21892B09F420E049815A816B8166
:101DD0007C818D81922F0E947A040F5FCC0CDD1CD8
:101DE0000C30F1F6F401F292E2921F5F163039F6F0
:101DF0000E94210E9CCF6816790609F0B5CF95CFC9
:101E00001F93CF93DF930E942510EC01811522E5EB
:101E1000920708F05DC0811540E5940708F0DBC02B
:101E2000803E910528F58D3C910508F0ACC0883ABC
:101E3000910578F4853A910508F0A2C081309105AA
:101E400009F441C00497813A9105E8F1C0E0D0E07F
:101E50003AC0885A91094B97C8F7C85AD0E0CC0FBE
:101E6000DD1FC55BDE4F0990D881C02DD4642BC027
:101E7000811550E49507F8F4C11580E2D80708F001
:101E8000C0C0C83ED105F8F0CE019A9581159F419A
:101E9000E8F68D2F0E94C610182FCE0199270E94B8
:101EA0002510212F30E0322F2227E901CC27DF71C6
:101EB000C82BD92B08C099270E942510CC27DF708A
:101EC000C82BD92BD06ACE01DF91CF911F910895F5
:101ED000803842E59407C8F5803652E5950708F04A
:101EE0005BC0C03482E5D807D0F4C03292E5D90790
:101EF00008F04BC08C2F8695869520E2829FC0010A
:101F00001124C37021E030E0A90102C0440F551F25
:101F1000CA95E2F7EA01C82BD92BDD68D4CF8C2F04
:101F200086958695877050E2859FC0011124C37005
:101F300021E030E0A90102C0440F551FCA95E2F725
:101F4000EA01C82BD92BDC68BECF803C52E595074F
:101F500058F48F71C03AD245A0F590E0982F8827A9
:101F6000EC01C46FD06AAFCF805C9245809708F0D7
:101F70006DCFDC2FCC27CC27DF71C06FD06AA3CF09
:101F8000A497D064A0CFD0659ECFCF71D0E0DC2FD6
:101F9000CC27C16FD06A97CF86958695877020E24F
:101FA000829FC0011124C37021E030E0A90102C06A
:101FB000440F551FCA95E2F7EA01C82BD92BDA68FE
:101FC00082CF0E94C610C82FD0E0DC2FCC27CC27B0
:101FD000DF71D06278CF8F710E94C61053E0CC0FB2
:101FE000DD1F5A95E1F7CC27DF70282F30E084FF02
:101FF00004C050E1859F90011124C22BD32BD069DE
:1020000062CF8D2F8F710E94C610182FCE01992795
:102010000E942510212F30E0322F222722273F71E6
:10202000282B392BE901D5CF462F672F763028F49E
:102030004C3018F40E948713089580E090E00895D2
:102040000E9414100E94000F08959C01803E91058B
:1020500009F448C0D8F48133910509F47DC048F4EF
:102060008932910509F46DC08A9709F47CC0C901D1
:1020700008958933910551F18238910539F1C59759
:10208000B1F780918A0285FFF2CF29C0843E910585
:1020900009F447C048F4823E910599F1833E9105C9
:1020A000A9F121EE30E0E3CF863E910509F444C06A
:1020B000873E9105E1F680918A0283FD61C090918F
:1020C0008B0291FF2BC024EE30E0D1CF80918A02A9
:1020D0008370811152C080918B0283FFC8CF29E2A7
:1020E00030E0C5CF80918A0280FD33C090918B0291
:1020F00090FFBDCF23EE30E084FFB9CF20E030E089
:10210000B6CF80918A0282FDF5CFB1CF80918A024D
:1021100082FD30C090918B0290FD2FC084FFA7CF2D
:10212000EDCF80918B0281FFA2CF80918A0227EEB2
:1021300030E084FDE3CF9BCF80918A0283FDF7CF0F
:1021400096CF80918A0285FD1EC080918B0283FF0D
:102150008ECF29E330E08BCF80918A0286FF87CF34
:102160002AE230E084CF80918A0286FF80CF21E38B
:1021700030E07DCF22EE30E07ACF20EE30E077CF36
:1021800026EE30E074CF25E330E071CF90918A02E3
:1021900092FF10C041E0282F2471243009F040E064
:1021A00031E0282F2871283009F030E0431711F072
:1021B0002CE0822793FF10C041E0282F24712431A6
:1021C00009F040E031E0282F2871283109F030E093
:1021D000431711F02CE0822730918B0230FF10C0A2
:1021E00051E0282F2171213009F050E041E0282FE3
:1021F0002871283009F040E0541711F029E08227B7
:1022000031FF10C041E0282F2171213109F040E059
:1022100031E0282F2871283109F030E0431711F000
:1022200029E0822794FD877E089580E00895CF936A
:102230009C01FB01805E9245C1E0809738F4C58126
:10224000C11104C0822F8F710E948D038C2FCF91FA
:10225000089508950E942911089508950E942D114E
:102260000895E82FF0E0EE0FFF1FE856FD4F808144
:1022700091810895089580EA8A95F1F7089500C044
:1022800008950E943B110895F894E82FE295EF70AD
:10229000F0E041A18F7021E030E0B90102C0660F8B
:1022A000771F8A95E2F7CB01962F9095942391A3FF
:1022B00092A1892B82A378940895CF93DF93CDE8E0
:1022C000D1E089918F3F11F00E94441181E0C33920
:1022D000D807B9F7C1E8D1E089918F3F11F00E948A
:1022E000441181E0CD38D807B9F7DF91CF91089537
:1022F0008F929F92BF92CF92DF92EF92FF920F93B5
:102300001F93CF93DF938C01B62EE62EF12CC701DD
:1023100083579E4F6C01FC0180818F3F09F451C0AF
:10232000F894E82FE295EF70F0E091A18F7021E032
:1023300030E001C0220F8A95EAF7892F822B81A312
:1023400082A12095282322A378940E943F11E1E8DE
:10235000F1E021E030E0812C912C41914F3F81F060
:10236000A42FA295AF70A05EB0E08C9190E04F706A
:1023700002C0959587954A95E2F7E90180FF04C070
:1023800080E0C82F90E0D92F8C2A9D2A220F331F7E
:1023900081E0ED38F80709F7F60180818F3F11F0F1
:1023A0000E94441161E08114910409F460E08B2DD6
:1023B0000E944111EE0CFF1C0E0D1F1DF8019182B1
:1023C0008082DF91CF911F910F91FF90EF90DF906E
:1023D000CF90BF909F908F9008950E945D118CE0E8
:1023E000E8E9F2E0DF01982F1D929A95E9F7ECE811
:1023F000F2E0DF011D928A95E9F786E00E94401223
:102400000E942A110895ACE0B0E0E9E0F2E10C94FA
:102410006A22FE0131968CE0DF011D928A95E9F770
:1024200010E0FE2E0F2F612F8F2D902F0E9478111C
:102430001F5F1630C1F74CE050E06F2D702F8CE815
:1024400092E00E94942221E0892B81F420E046E072
:1024500068E972E08CE892E00E944112182F0E9415
:102460002E11812F2C96E5E00C9486228CE0EF2D26
:10247000F02FACE8B2E001900D928A95E1F7E7CF3A
:102480000895A0E0B0E0E7E4F2E10C946722D82ED2
:10249000E92EF62ED72F042FC22F211579F081E0D7
:1024A000809376020E94DE1A9093750280937402E4
:1024B00080E0CDB7DEB7E8E00C948322C0907602CE
:1024C000C114B1F380917402909175020E946D1A4B
:1024D000059770F310E0000F111FA8016D2D7E2DE0
:1024E0008F2D9D2F0E949422892B41F0A8016D2DE4
:1024F0007E2D8F2D9D2F0E94A122CC2D1092760231
:102500008C2FD7CF0E948B0E08950E94771A0E94BD
:10251000BE1C0E94490E0E94D81C0E947E0E0E9482
:10252000E51C0E94EA1C0E9482120E94041D0E9467
:102530008B1B0E945C0EF5CF9093A3018093A201A8
:1025400008950E944D0D089580E00E943111817020
:1025500008950E9403122FEF86E791E021508040FA
:102560009040E1F700C000000E9403120E94A412F4
:10257000811521F00E94A1120E941A1B08950E9449
:10258000A91208950F931F93CF93DF938C01FC0141
:10259000C081D181CE010E94AA222196F801D18367
:1025A000C083DF91CF911F910F91089584E008952A
:1025B00050E0440F551F98E1699F400D511D1124B3
:1025C00090E9899F400D511D1124CA0188960895F4
:1025D0000F931F93CF93DF938430C8F46630B8F421
:1025E0004C30A8F40E94D8128C010E94AA22C82F55
:1025F000D0E0DC2FCC27C80101960E94AA229E01C0
:10260000282BC901DF91CF911F910F91089580E090
:1026100090E0F8CF0F931F93CF93DF93122F032FE8
:10262000843078F4663068F44C3058F40E94D81244
:10263000EC01602F0E94C822612FCE0101960E94FA
:10264000C822DF91CF911F910F9108951F93CF93CF
:10265000DF93D0E0C0E011C0412F6C2F8D2F0E947E
:10266000EA029C01412F6C2F8D2F0E940A131F5FDD
:102670001C3091F7CF5FC63011F010E0EDCFDF5F77
:10268000D43041F7DF91CF911F910895EF92FF92DF
:102690000F931F93CF93DF938C01EA017A01E60E2B
:1026A000F71ECE15DF0529F4CDB7DEB7E6E00C94B2
:1026B0008522003482E0180740F4C80188960E9401
:1026C000AA2289930F5F1F4FECCF80E0FACFEF92E1
:1026D000FF920F931F93CF93DF938C01EA017A014E
:1026E000E60EF71ECE15DF0529F4CDB7DEB7E6E01E
:1026F0000C948522003482E0180728F46881C80110
:1027000088960E94C82221960F5F1F4FEBCF84301E
:1027100038F4663028F44C3018F40E94E81208951A
:1027200080E090E0089580E1089588E991E00895BF
:10273000EF92FF920F931F93CF93DF938C01EA01E7
:102740007A01E60EF71ECE15DF0529F4CDB7DEB708
:10275000E6E00C948522083981E0180748F4C801A6
:1027600088599D4F0E94AA2289930F5F1F4FEBCF7C
:1027700080E0FACFEF92FF920F931F93CF93DF93F6
:102780008C01EA017A01E60EF71ECE15DF0529F469
:10279000CDB7DEB7E6E00C948522083981E0180752
:1027A00030F46881C80188599D4F0E94C822219643
:1027B0000F5F1F4FEACFCF93DF93C8E6D2E060E010
:1027C000CE010E94C8222196C11584E0D807B9F72E
:1027D000DF91CF910895A2E0B0E0E1EFF3E10C9436
:1027E0006A22F82E80E1F816A0F48FEF93E00E94A1
:1027F000AA2281110EC008E612E0F1100EC01A8361
:10280000098348E2BE016F5F7F4F82EC92E10E9434
:10281000C3152296E5E00C948622011584E0180782
:10282000C1F3C8010E94AA220F5F1F4F8111F5CF8B
:10283000FA94E3CFCF93DF93EB0186319C4719F5F0
:102840000E94260C9D819115A1F08A7A91E0811158
:1028500001C090E090937702811549F085E30E94D2
:1028600098190E94DE0C80E0DF91CF91089589E2F3
:10287000F6CF80917702811521F085E30E94B2198D
:10288000F0CF89E2FBCF81E0EFCFCF93DF93EC0174
:10289000FB018581811509F4CFC09E013057233299
:1028A000310508F0AFC00E94700D90938B028093A9
:1028B0008A02FE01E150F047E232F10520F4E250D5
:1028C000FD4D0C94502280918A02816080938A028F
:1028D00090C080918B02886080938B028AC0809127
:1028E0008A028260F3CF80918A028460EFCF809168
:1028F0008A028860EBCF80918B028160EDCF80915E
:102900008B028260E9CF80918A028061DFCF809163
:102910008A028062DBCF80918A028064D7CF0E94D6
:10292000AC0780918A028068D1CF80918A028C6046
:10293000CDCF80918B028360CFCF80918A028E7F32
:10294000C5CF80918B02877FC7CF80918A028D7F10
:10295000BDCF80918A028B7FB9CF80918A02877F19
:10296000B5CF80918B028E7FB7CF80918B028D7F08
:10297000B3CF80918A028F7EA9CF80918A028F7D0A
:10298000A5CF80918A028F7BA1CF0E94AC07809156
:102990008A028F779BCF80918A02837F97CF809125
:1029A0008B028C7F99CF80918A02992782FF939521
:1029B00090FB82F990FB83F989CF80918B02982F4D
:1029C000909590FB80F990FB81F986CF90918A02D7
:1029D000892F8F7B96FF806479CF0E94AC079091FE
:1029E0008A02892F97FB87F9805870CF81E00E9477
:1029F000F80D80918A0290918B020E94750D0E94C1
:102A0000AC0780E0DF91CF91089580E0F0CF909106
:102A10008A02892F8F7E94FF806158CF90918A021D
:102A2000892F8E7F90FF816051CF90918B02892FEB
:102A3000877F93FF886050CF81E0E4CFA0E0B0E0D3
:102A4000E4E2F5E10C946622E82FF0E0E451FD4F5A
:102A5000B490282F26952695269530E0F901E45765
:102A6000FC4F0491877010E0082E02C01595079561
:102A70000A94E2F701701127F901E458FC4FE49041
:102A8000F12C082E02C0F594E7940A94E2F7E0FADC
:102A9000EE24FF24E0F8F901E459FC4FC491D0E0A2
:102AA00002C0D595C7958A95E2F7C170DD27C62E7D
:102AB000D12C0115110549F5E114F10431F086EE30
:102AC0000E94B304C601009771F5B6018B2D0E94D8
:102AD0001C05C601009779F5E114F104A1F5011573
:102AE000110531F081EE0E94F204C6010097C9F58C
:102AF000CD2B31F08CE20E943605C114D104C9F50A
:102B0000CDB7DEB7E9E00C94822281EE0E94B304D7
:102B1000C601009789F2EFE9FFE03197F1F700C0B5
:102B200000000197F6CFEFE9FFE03197F1F700C021
:102B300000000197C8CFEFE9FFE03197F1F700C03F
:102B400000000197C7CF86EE0E94F204C6010097ED
:102B500031F2EFE9FFE03197F1F700C00000019793
:102B6000F6CFEFE9FFE03197F1F700C000000197E1
:102B7000BDCF8FE99FE00197F1F700C0000091E021
:102B8000C91AD108BACFA0E0B0E0E9ECF5E10C94A5
:102B900066227C01D62F172F042F8D2F912FF7013E
:102BA00009958115B9F0813009F060C08D2F912F02
:102BB000F7010995C82F813091F48D2F912FF701DE
:102BC00009950E943605802F90E0009709F046C0D5
:102BD000C111E3CFCDB7DEB7E9E00C948222823099
:102BE00039F48D2F912FF70109950E94B304EBCF93
:102BF000833039F48D2F912FF70109950E94F2044B
:102C0000E2CF843001F78D2F912FF7010995C82F5E
:102C1000C12CD12C8AE0B82E2C2F2053330BC901A4
:102C20002A30310568F0C114D10469F28FE99FE0C0
:102C30000197F1F700C0000091E0C91AD108F3CF65
:102C4000BC9C9001BD9C300D11246C01C20ED31EA2
:102C50008D2F912FF7010995C82FDECFEFE9FFE007
:102C60003197F1F700C000000197AFCF602F0E94AD
:102C70001E1593CF0F931F93CF93DF93C42FD22FA3
:102C8000FC0185818115C9F040937A020E94DE1A09
:102C9000909379028093780280E28C0F883040F420
:102CA000C77081E001C0880FCA95EAF70E943F050E
:102CB000DF91CF911F910F91089510917A02141313
:102CC00033C080917802909179020E946D1A883CFD
:102CD000910550F5C0E2CD0F1D17C1F080E2810FC4
:102CE000883040F4177081E001C0880F1A95EAF728
:102CF0000E944605C83050F491E08D2F877001C0C6
:102D0000990F8A95EAF7892F0E943F05802F0E942C
:102D10003605C83068F6D77081E001C0880FDA95B3
:102D2000EAF70E944605C4CF80E28C0F883008F095
:102D3000BFCFC77081E001C0880FCA95EAF7F1CF15
:102D40000F93DB01FC01E851FC47E730F10598F5F2
:102D5000E05EFC4D0C94502206E221EE41EE6AE169
:102D60007CE7CD010E943A1680E00F91089507E2BA
:102D700025EE45EE6BE17CE7F4CF06E221EE40EE76
:102D800068E17CE7EECF07E225EE44EE69E17CE7FF
:102D9000E8CF06E221EE42EE6CE17CE7E2CF07E20B
:102DA00025EE46EE6DE17CE7DCCF08E221E045EE62
:102DB0006EE17CE7D6CF15968C91811110927A0244
:102DC00081E0D3CFCF93DF939C01FB0127378CE7C2
:102DD000380739F028373C47F1F081E0DF91CF9197
:102DE00008958581811591F00E9414170E942D0885
:102DF0000E941A17D82F0E941717C82F0E94141765
:102E00004D2F6C2F0E945E0980E0E8CF0E941417BE
:102E10000E943908EDCF8581811519F00E9417179E
:102E2000E5CF0E941717F4CF809106010895809195
:102E30000501089580910401089584E290E00E94C4
:102E4000AA22853289F485E290E00E94AA22863087
:102E500059F486E290E00E94AA2291E0833109F0C1
:102E600090E0892F8170089580E0FCCFCF93C82F28
:102E700065E2811101C06FEF84E290E00E94C822F8
:102E800066E0C11101C06FEF85E290E00E94C822A8
:102E900063E1C11101C06FEF86E290E00E94C82299
:102EA000CF910895089587E290E00E94AA22682FAA
:102EB00070E080E090E008950895CF93C62F0E94BF
:102EC0005C176C2F87E290E00E94C822CF91089592
:102ED00080E00E94361760E070E0CB010E945D1731
:102EE0000E9426130E94DB1381E00E94361708958A
:102EF0000E9452170E9453170E945C170E941D17D0
:102F0000811102C00E946817089508959C01FB0179
:102F10008581811551F0A90157574038510530F48A
:102F2000822F0E94EB1380E0089581E008952FEF37
:102F3000FC01208308950E949717089580E008956A
:102F4000CF92DF92FF920F931F93CF93DF93EC0109
:102F5000F62E0E949E17811110C0E881E150E331E6
:102F6000E0F4F0E0E95DFC4D0C94502219828CE015
:102F70008A836F2DCE010E94811BDF91CF911F911B
:102F80000F91FF90DF90CF90089589818330F9F001
:102F900038F4813061F0823099F08FEF8883E9CF87
:102FA0008430D9F71A821B821C821D82E2CF0E94D4
:102FB000EA1A0E9456226A837B838C839D83D9CF31
:102FC0000E9453171A821B821C826D83D2CF0A8102
:102FD00010E06E01F2E0CF0ED11C063011054CF668
:102FE000802F0E943111F601918382830F5F1F4F62
:102FF000F1CF8981823031F0853079F68A810E9463
:103000008517B7CF6A817B818C819D810E94562272
:103010000E945D17AECF4B816A8189810E94E812C0
:103020009827892798279D838C83A3CF2C813D8166
:103030003227232732274B816A8189810E940A1314
:1030400098CF0E94261395CF6F2DCE010E949B171B
:1030500090CF0E94931389838CCF0E949513982759
:10306000892798279A83898384CF6B8170E089812F
:103070009A81AE014C5F5F4F9827892798270E945D
:10308000981377CF6B8170E089819A81AE014C5F94
:103090005F4F9827892798270E94BA136ACF0E940A
:1030A000DB1367CF0E94D612D6CF6B8170E0898187
:1030B0009A81AE014C5F5F4F9827892798270E941D
:1030C000461357CF6B8170E089819A81AE014C5FC6
:1030D0005F4F9827892798270E9467134ACF9093BC
:1030E000800280937F020895E0917F02F091800238
:1030F000309729F00190F081E02D0995089580E046
:103100000895E0917F02F0918002309721F00280D3
:10311000F381E02D09950895DC01E0917F02F091A3
:103120008002309739F086E08C930480F581E02DA1
:10313000CD0109950895A3E0B0E0E1EAF8E10C942F
:103140006D229C0180917D0290917E0282179307EF
:10315000A1F030937E0220937D02E0917F02F091F6
:103160008002309751F083E089833B832A83008477
:10317000F185E02DCE01019609952396E2E00C94AD
:103180008922A3E0B0E0E7ECF8E10C946D229C0109
:1031900080917B0290917C0282179307A1F030937B
:1031A0007C0220937B02E0917F02F09180023097B5
:1031B00051F084E089833B832A830084F185E02DEC
:1031C000CE01019609952396E2E00C948922CF93D3
:1031D000DF93C0910201D091030122960E942B1A25
:1031E000813081F480918A0287FF0CC0C091000178
:1031F000D091010122969EE180E0915028F4DF9168
:10320000CF91089596E0F8CF29912115B1F38F5F02
:10321000F4CFCF93C82F811102C080E031C00E944B
:103220002B1A813021F480918A0287FD0EC0809193
:10323000020190910301FC013296089621912C170E
:1032400009F1E817F907D1F7E8CF8C2F8695869515
:103250008695C03F10F7E0910001F0910101E80F61
:10326000F11D228130E0C77081E090E002C0880F3C
:10327000991FCA95E2F72823392381E0232B69F2AD
:10328000CF91089581E0FCCF9C01FC0132968FEF35
:1032900090E04191461751F08F3F19F4411101C060
:1032A000892F9F5F9630A9F78F3F09F40895280F63
:1032B000311D87FD3A95F901628308959C01FC0157
:1032C0003296285F3F4F8191861302C0DF011E9224
:1032D000E217F307C1F70895FC01862F86958695BE
:1032E0008695603F60F4E80FF11D677021E030E0E3
:1032F00001C0220F6A95EAF78281822B82830895AA
:10330000FC01862F869586958695603F80F4E80FB0
:10331000F11D677081E090E09C0102C0220F331F15
:103320006A95E2F7B9016095828168236283089506
:10333000CF93C82F0E942B1A6C2F813061F480919B
:103340008A0287FF08C080910001909101010E94CC
:103350006C19CF91089580910201909103010E9410
:103360004419F7CFCF93C82F0E942B1A6C2F8130AE
:1033700061F480918A0287FF08C0809100019091DA
:1033800001010E948019CF910895809102019091CE
:1033900003010E945E19F7CF0E942B1A813079F445
:1033A00080918A0287FF0BC0E0910001F09101013A
:1033B00032968EE1DF011D928A95E9F70895E0913A
:1033C0000201F0910301329686E0F4CF08950E9445
:1033D000E61908958F5F80930A016091070170914B
:1033E00008018091090190910A010E94E71908954E
:1033F00083E080930A016091070170910801809138
:10340000090190910A010E94E71908950E94EA19A2
:10341000089581E080930A0160910701709108018D
:103420008091090190910A010E94E71908950E9474
:10343000091A089591E0811101C090E0909309016B
:1034400060910701709108018091090190910A0132
:103450000E94E71908958091090108958093080159
:1034600060910701709108018091090190910A0112
:103470000E94E7190895809108010895809307013B
:1034800060910701709108018091090190910A01F2
:103490000E94E719089580910701089508950895FD
:1034A0000E944F1A0895089508950E944E1A089593
:1034B000CF930E94531A0E9403120E94541AC0E034
:1034C0008C2F0E943111892B31F4CF5FC630C1F7A8
:1034D00080E0CF91089581E0FCCFCF93DF93EC01A2
:1034E0000E94DE1A8C1B9D0BDF91CF91089585B74A
:1034F000806885BF85B7806885BF08951F921FB615
:103500001F9211248F939F93AF93BF938091810259
:10351000811113C08091A4029091A502A091A602EE
:10352000B091A7024196A11DB11D8093A402909372
:10353000A502A093A602B093A702BF91AF919F915D
:103540008F911F901FBE1F9018958091AC02843000
:1035500031F10E9434041092810288E190E020E46D
:103560000FB6F894A895809360000FBE209360007A
:1035700083B7817F846083BF83B7816083BF789482
:10358000889583B78E7F83BF0FB6F894A8958091F6
:103590006000886180936000109260000FBE089503
:1035A0000E94AC070E943B04089582E084BD93E032
:1035B00095BD9AEF97BD80936E0008952FB7F8944C
:1035C0008091A4029091A502A091A602B091A702B9
:1035D0002FBF08952FB7F8946091A4027091A502AF
:1035E0008091A6029091A7022FBF089578941F9210
:1035F0001FB61F9211248F939F93AF93BF93809117
:10360000A4029091A502A091A602B091A7020196F2
:10361000A11DB11D8093A4029093A502A093A602C0
:10362000B093A702BF91AF919F918F911F901FBE42
:103630001F90189587E797E79093010880930008FB
:1036400088E19AE00FB6F894A895809360000FBEC9
:1036500090936000FFCF88E19AE00FB6F894A895A8
:10366000809360000FBE90936000FFCF0895282FD5
:10367000CB01BA013091AC023430D9F42F702093D1
:10368000E9002FEF3091E80035FD06C035ED3A95A1
:10369000F1F700002A95B1F72091E80025FF09C055
:1036A00040E050E00E947A1D8091E8008E77809380
:1036B000E8000895BC0143E050E084E00E94371B1D
:1036C0000895BC0140E250E084E00E94371B089559
:1036D000CF93DF93D82FC92F0E942B1A48E050E0D8
:1036E0006D2F7C2F81E00E94371B88E0ED2FFC2F8F
:1036F000A2E8B2E001900D928A95E1F7DF91CF91B7
:103700000895792F603231F440E250E0682F82E072
:103710000E94371B0895A0E2B0E0E1E9FBE10C94C0
:103720006D228091AC02843009F583E08093E9003A
:103730008091E80082FF1AC08091E80090E085FF48
:1037400009C040E050E060E270E0CE0101960E94C6
:10375000CA1D91E08091E8008B778093E800911575
:1037600029F060E2CE0101960E94A017A096E2E047
:103770000C9489228091AB02811109C00E94531FD1
:103780000E94B01F8091E20084608093E20008955F
:103790001092AB0208950E94091A81E00E941A1A41
:1037A00008956091A80281E0611101C080E00E944B
:1037B000F81908959091AC0281E0943009F080E00E
:1037C0006091A8020E94061A089542E061EC81E02F
:1037D0000E94CF1E42E261EC84E00E94CF1E42E2D2
:1037E00061EC82E00E94CF1E42E260EC83E00E9426
:1037F000CF1E9091AC0281E0943009F080E060919E
:10380000A8020E94EA1908958091AE02893089F1D8
:1038100048F4823009F4A1C0833009F45BC08130E0
:1038200041F008958A3009F488C08B3009F46DC0E6
:1038300008958091AD02813A09F04BC08091E80073
:10384000877F8093E8008091B1029091B202892B2A
:1038500061F060E080E090E070E00E941A1E8091CC
:10386000E8008B778093E800089568E082E892E0B2
:10387000F3CF8091AD02813261F58091B1029091D8
:10388000B2028D7F892B29F58091E800877F809394
:10389000E8008091E80082FF18C09091F3008091C9
:1038A000F200029731F48091F100813011F08630FE
:1038B00021F48091F1000E942E1A8091E8008B770C
:1038C0008093E8000E94031F08958091AC0281114B
:1038D000E0CF08958091AD02813AD9F78091B1028D
:1038E0009091B202892BA9F78091E800877F80939D
:1038F000E8008091E80080FFFCCF0E942B1A8093A3
:10390000F1008091E8008E77DBCF8091AD028132AB
:1039100001F78091B1029091B202892BD1F680918A
:10392000E800877F8093E8000E94031F8091AF0228
:103930000E941A1A0E94AC0708958091AD0281324C
:1039400041F68091E800877F8093E8000E94031F82
:103950008091B0020E943E1A08958091AD02813A92
:1039600009F0B7CF8091E800877F8093E8008091CD
:10397000E80080FFFCCF0E944B1AC1CF84B7877F3D
:1039800084BF0FB6F894A8958091600088618093F9
:103990006000109260000FBE80E890E00FB6F894CF
:1039A00080936100909361000FBE0E94171A0895E2
:1039B0000E94531F0E94B01FE2EEF0E080818460FD
:1039C000808378940E94362208958BE091E00E94D3
:1039D0006F1808958091AC02853031F48091AC026B
:1039E000853019F00E94D01A08950E94A51A0E94ED
:1039F000581A811599F38091AA02811579F30E94D2
:103A0000641D0E94AC07EACF08959A014091B30269
:103A10005091B4020E940D1D0895FC01AB01D90123
:103A2000892F992783309105C1F068F48130910581
:103A300009F445C0029761F48BE590E024EC33E093
:103A40002D933C93089581329105E1F0829739F1ED
:103A500080E090E020E030E0F3CFCF019927E13023
:103A600059F08230910559F0E0ECF3E0892B81F7B1
:103A7000849190E09F01E4CFECEAF3E0F9CFECE928
:103A8000F3E0F6CF6330710518F7FB01EE0FFF1F6F
:103A9000E456FE4F2081318189E090E0D1CF633040
:103AA0007105B0F6FB01EE0FFF1FEA56FE4F2081B5
:103AB00031814D565E4FFA01808190E0C1CF82E1A5
:103AC00090E02FE134E0BCCF80E189BD82E189BD87
:103AD00009B400FEFDCF8091D8008F7D8093D8007F
:103AE0008091E00082608093E0008091E00081FDA1
:103AF000FCCF0895AF92BF92CF92DF92EF92FF92E8
:103B00000F931F93CF936C018B017A010E94221FA8
:103B1000C82F811123C0E114F10439F0F70180812D
:103B20009181081B190BC80ED91EA12CB12C0115AF
:103B30001105A1F08091E80085FD21C08091E80089
:103B40008E778093E800E114F10499F0F701808109
:103B500091818A0D9B1D91838083C5E08C2FCF912D
:103B60001F910F91FF90EF90DF90CF90BF90AF909B
:103B700008950E94221F8115E9F2C82FEFCFF601A8
:103B800081916F018093F10001501109FFEFAF1A8D
:103B9000BF0ACDCFAF92BF92CF92DF92EF92FF924A
:103BA0000F931F93CF936C018B017A010E94221F08
:103BB000C82F811123C0E114F10439F0F70180818D
:103BC0009181081B190BC80ED91EA12CB12C01150F
:103BD0001105A1F08091E80085FD21C08091E800E9
:103BE0008B778093E800E114F10499F0F70180816C
:103BF00091818A0D9B1D91838083C5E08C2FCF918D
:103C00001F910F91FF90EF90DF90CF90BF90AF90FA
:103C100008950E94221F8115E9F2C82FEFCF8091ED
:103C2000F100F60181936F0101501109FFEFAF1A06
:103C3000BF0ACDCFFC019B018091B3029091B402E9
:103C40008617970718F0672B61F0C90140E00097CD
:103C500071F441110CC08091E80082FF35C080E012
:103C600008958091E8008E778093E800EECF209150
:103C7000AC022115A9F12530A9F12091E80023FD1E
:103C80002DC02091E80022FDE6CF2091E80020FF22
:103C9000DECF3091F3002091F200009719F0283028
:103CA000310558F041E02830310509F040E020911D
:103CB000E8002E772093E800CACF41914093F100AD
:103CC00001972F5F3F4FE9CF8091AC02811541F002
:103CD000853041F08091E80083FFBDCF81E00895F9
:103CE00082E0089583E00895FC019B018091B30276
:103CF0009091B4028617970718F0672B61F0C901FD
:103D000040E0009771F441110CC08091E80082FFFF
:103D100036C080E008958091E8008E778093E800B7
:103D2000EECF2091AC022115B1F12530B1F12091F7
:103D3000E80023FD2EC02091E80022FDE6CF20916F
:103D4000E80020FFDECF3091F3002091F2000097D1
:103D500019F02830310558F041E02830310509F0DC
:103D600040E02091E8002E772093E800CACF4491EC
:103D70004093F100319601972F5F3F4FE8CF80913C
:103D8000AC02811541F0853041F08091E80083FF5D
:103D9000BCCF81E0089582E0089583E00895982FD4
:103DA000973028F08F708093E90081E00895909318
:103DB000E900242F762F50E0981731F07091EC0035
:103DC0002091ED005091F00021FD02C09F5FE8CFEF
:103DD0003091EB003E7F3093EB003091ED003D7F62
:103DE0003093ED003091EB0031603093EB00709335
:103DF000EC002093ED005093F0002091EE0027FDA1
:103E0000E5CF80E008958091AD0287FF13C08091D7
:103E1000E80082FF06C08091E8008B778093E8007D
:103E200008958091AC028111F2CF08958091AC0287
:103E30008115D9F38091E80080FFF8CF8091E800E8
:103E40008E77ECCF2091E4003091E50095E6A90152
:103E50002091EC00822F817020FF06C08091E80045
:103E600080FF06C080E008952091E80022FD1AC07E
:103E70008091AC02811589F0853089F08091EB004A
:103E800085FD0FC02091E4003091E50042175307F3
:103E9000F9F29A95E1F684E0089582E0089583E0CE
:103EA000089581E008950E94C21F0E94CA1FE0EE9B
:103EB000F0E0808181608083E8EDF0E080818F77A1
:103EC000808319BCA7EDB0E08C918E7F8C938081AC
:103ED0008F7E80831092AB0208950F931F93CF9330
:103EE000DF930E94C21F0E94CA1FC8EDD0E08881E4
:103EF0008F77888388818068888388818F7D888395
:103F000019BC1092AC021092A8021092AA02109250
:103F1000A90200EE10E0F80180818B7F8083888108
:103F20008160888342E060E080E00E94CF1EE1EE85
:103F3000F0E080818E7F8083E2EEF0E0808181601E
:103F40008083808188608083F80180818E7F808378
:103F5000888180618883DF91CF911F910F910895AF
:103F6000E8EDF0E080818F7E8083E7EDF0E08081F6
:103F70008160808384E082BF81E08093AB020E94F5
:103F80006D1F0895E8EDF0E080818E7F80831092B0
:103F9000E20008951092DA001092E10008951F9255
:103FA0000F920FB60F9211242F933F934F935F936D
:103FB0006F937F938F939F93AF93BF93EF93FF93F1
:103FC0008091E10082FF0BC08091E20082FF07C078
:103FD0008091E1008B7F8093E1000E9435228091E7
:103FE000DA0080FF19C08091D80080FF15C0809151
:103FF000DA008E7F8093DA008091D90080FF94C030
:1040000080E189BD82E189BD09B400FEFDCF81E078
:104010008093AC020E94BA1B8091E10080FF19C01E
:104020008091E20080FF15C08091E2008E7F809336
:10403000E2008091E20080618093E2008091D800EC
:1040400080628093D80019BC85E08093AC020E9406
:10405000D11B8091E10084FF29C08091E20084FFA0
:1040600025C080E189BD82E189BD09B400FEFDCF94
:104070008091D8008F7D8093D8008091E1008F7E61
:104080008093E1008091E2008F7E8093E200809136
:10409000E20081608093E2008091A802811509F41A
:1040A00049C084E08093AC020E94DA1B8091E10059
:1040B00083FF29C08091E20083FF25C08091E10049
:1040C000877F8093E10082E08093AC021092A80287
:1040D0008091E1008E7F8093E1008091E2008E7FED
:1040E0008093E2008091E20080618093E20042E0F0
:1040F00060E080E00E94CF1E8091F0008860809395
:10410000F0000E94CB1BFF91EF91BF91AF919F9167
:104110008F917F916F915F914F913F912F910F9070
:104120000FBE0F901F90189519BC1092AC020E9400
:10413000C81B72CF8091E30087FF02C083E0B2CF3B
:1041400081E0B0CF1F920F920FB60F921124EF9221
:10415000FF920F931F932F933F934F935F936F9310
:104160007F938F939F93AF93BF93CF93EF93FF93DF
:1041700009EE10E0F8018081C091EC008F70C795C6
:10418000CC27C795C82B108280EFE82EF12CF701C1
:104190008081877F808378940E94ED20F8011082CF
:1041A000F701808188608083CF70F801C083FF9120
:1041B000EF91CF91BF91AF919F918F917F916F912F
:1041C0005F914F913F912F911F910F91FF90EF9031
:1041D0000F900FBE0F901F901895AAE2B0E0E3EF8A
:1041E000F0E20C946B228DEA92E0FC0101962091A2
:1041F000F100208322E0853B9207B9F70E94041C5E
:104200008091E80083FF38C08091AD029091AE02AA
:104210009A3090F5E92FF0E0E65CFC4D0C945022CA
:10422000803889F0823841F58091B1028F708730F3
:1042300018F58093E9008091EB0085FB882780F9D1
:104240001092E90006C08091AA02880F9091A902FD
:10425000892B9091E800977F9093E8008093F1007C
:104260001092F1008091E8008E7723C0811116C072
:104270008091AF02813011F18091E80083FF0AC084
:104280008091E800877F8093E8008091EB00806256
:104290008093EB00AA96E4E00C948722823061F7C9
:1042A0008091AF02811589F01092E9008091E800B9
:1042B000877F8093E8000E94031FDECF81E0933068
:1042C00009F080E08093AA02EFCF8091B1028F7055
:1042D0002FEF280F263080F68093E9002091EB0025
:1042E00020FFE2CF933031F48091EB008062809325
:1042F000EB00DACF9091EB0090619093EB0021E01E
:1043000030E0A90102C0440F551F8A95E2F740939F
:10431000EA001092EA008091EB008860E8CF8111FA
:10432000ABCF1091AF021F778091E3008078812B93
:104330008093E3008091E800877F8093E8000E94EB
:10434000031F8091E80080FFFCCF8091E30080682C
:104350008093E30083E0111101C082E08093AC02FE
:104360008BCF8058823008F087CF8091AF02909138
:10437000B0028C3D53E0950799F583E08A838AE289
:1043800089834FB7F894DE01139620E03EE051E2B6
:10439000E32FF0E050935700849120FF03C08295F3
:1043A0008F703F5F8F708A30C8F0895C90E08D938A
:1043B0009D932F5F243161F74FBF8091E800877F85
:1043C0008093E8006AE270E0CE0101960E941A1E16
:1043D0008091E8008B778093E8004ECF805DE6CF38
:1043E0006091B1027091B202AE014F5F5F4F0E94C7
:1043F000051D8C01892B09F43FCF8091E800877F50
:104400008093E800B80189819A810E94741EE0CFF0
:10441000803809F031CF8091E800877F8093E800F1
:104420008091A8028093F1001DCF811125CF90913A
:10443000AF02923008F020CF8091E800877F809310
:10444000E8009093A8020E94031F8091A8028115A2
:1044500031F084E08093AC020E94E51B0DCF809187
:10446000E30087FDF6CF81E0F5CF0895CF938091EB
:10447000AC02811599F08091E900C091EC008F7039
:10448000C795CC27C795C82B1092E9008091E8000A
:1044900083FD0E94ED20CF70C093E900CF91089575
:1044A000EE0FFF1F0590F491E02D099469279627E0
:1044B000692778278727782708952F923F924F9270
:1044C0005F926F927F928F929F92AF92BF92CF92A4
:1044D000DF92EF92FF920F931F93CF93DF93CDB7AD
:1044E000DEB7CA1BDB0B0FB6F894DEBF0FBECDBF25
:1044F00009942A88398848885F846E847D848C84F6
:104500009B84AA84B984C884DF80EE80FD800C81FE
:104510001B81AA81B981CE0FD11D0FB6F894DEBFE1
:104520000FBECDBFED010895FB01DC0104C08D91EC
:104530000190801921F441505040C8F7881B990B15
:104540000895FB01DC0102C001900D9241505040E2
:10455000D8F70895F999FECF92BD81BDF89A9927B1
:1045600080B50895A8E1B0E042E050E00C94EE225E
:10457000DC01A40FB51F4150504048F0CB01840F1F
:10458000951F2E910E94C92241505040D0F70895A6
:10459000262FF999FECF92BD81BDF89A019700B4FC
:1045A000021639F01FBA20BD0FB6F894FA9AF99A9C
:1045B0000FBE08950396272F0E94C9220E94C82289
:1045C000252F0E94C922242F0C94C9220196272F3F
:1045D0000E94C9220C94C822DC01CB01FC01F9998C
:1045E000FECF06C0F2BDE1BDF89A319600B40D923F
:1045F00041505040B8F70895F894FFCF9D140E1520
:10460000A5146F147314A9147714AD14B91483147A
:1046100007158714BD148B14C114E6148F14C51428
:10462000ED149514CB14D3147B14B1147F14B5146A
:104630009914CF14DD14F61405156914A114151579
:10464000BD16C316AC16B716C916CF16D516B617B3
:10465000C517F9170B181618211824182418241830
:10466000CD17CD1729182D18351842184F18521884
:1046700055186218102136213C2136213C218F210A
:08468000B1213C2108221522A2
:1046880033025302030201000001003B1A681B6158
:104698001B361B5A1BE200E900EA00B500B600B75A
:1046A80000CD008301CC008A0192019401210223EC
:1046B8000224022502260227022A02B300B4006F50
:1046C8000070009F01CB019F02A002E200E900EA0E
:1046D80000B500B600B700CD008301CC008A019276
:1046E8000194012102230224022502260227022A1C
:1046F80002B300B4006F0070009F01CB019F02A0BD
:104708000266949091929397C635343236F73133D6
:10471800F6F5F444226DC00431045304D603EF03C4
:024728000F047C
:00000001FF
