:100000000C94A7020C94C4020C94C4020C94C40275
:100010000C94C4020C94C4020C94C4020C94C40248
:100020000C94C4020C94C4020C94F4210C94C722C6
:100030000C94901C0C94C4020C94C4020C94C40242
:100040000C94C4020C94C4020C94C4020C94C40218
:100050000C94C4020C94171D0C94C4020C94C4029A
:100060000C94C4020C94C4020C94C4020C94C402F8
:100070000C94C4020C94C4020C94C4020C94C402E8
:100080000C94C4020C94C4020C94C4020C94C402D8
:100090000C94C4020C94C4020C94C4020C94C402C8
:1000A0000C94C4020C94C4020C94C40235000000E9
:1000B0000000000000000000000000000000000040
:1000C00000004C001E001F00200021002200230021
:1000D00024002500260027002D002E002B001400F0
:1000E0001A000800150017001C0018000C00120070
:1000F00013002A00290004001600070009000A0066
:100100000B000D000E000F0033003400E1001D0055
:100110001B00060019000500110010003600370012
:1001200038001E7CE000E300007EE2002152000067
:100130002C0022525000510052004F0001000000DC
:1001400000000000000000000000000000000000AF
:10015000000001003A003B003C003D003E003F0033
:1001600040004100420043004400450001000100FE
:100170005200010001005F00600061000100010009
:100180002F0030003900500051004F0001005C008A
:100190005D005E000100010001003100010001006E
:1001A00001000100010059005A005B00010001003C
:1001B0000100280001000100010001000100000011
:1001C000620063004A004E004B004D000100000039
:1001D000000000000000000000000000000000001F
:1001E0000000010001000100010001000100010008
:1001F000010001000100A800AA00A90001000100FF
:1002000001000100010001000100010001000100E6
:100210002F00300001000100010001000100010079
:100220000100010001000100010031000100010096
:1002300001000100010001000100010001000100B6
:10024000010028120100010001000100010000006E
:100250000100010001000100010001000100000097
:10026000000000000000000000000000000000008E
:100270000000010001000100010001000100010077
:100280000100010001000100010001000100010066
:100290000100010001000100010001000100010056
:1002A0000100010001000100010001000100010046
:1002B0000100010001000100010001000100010036
:1002C0000100010001000100010001000100010026
:1002D0000100010001000100010001000100000017
:1002E0000100010001000100010001000000000008
:1002F000000000002A2B2800000000000000000081
:100300000000000000000029000000002C1E342026
:10031000212224342627252E362D3738271E1F204C
:100320002122232425263333362E37381F04050691
:100330000708090A0B0C0D0E0F10111213141516D5
:100340001718191A1B1C1D2F3130232D35040506D3
:100350000708090A0B0C0D0E0F10111213141516B5
:100360001718191A1B1C1D2F3130354C00000000C6
:10037000000000000000000000000000000000007D
:10038000000000000000000000000000000000006D
:100390007E0F00D4FFFFFFC7000000780E034B0064
:1003A000720074006B00750073000000120373008C
:1003B00077006900660074003500300032000000EC
:1003C0000403090409025B00030100A0FA09040008
:1003D000000103010100092111010001224400076D
:1003E000058103080001090401000203000000095F
:1003F00021110100012222000705820320000107CC
:1004000005030320000109040200010300000009A4
:10041000211101000122B60007058403200001120A
:1004200001000200000008424A1616000101020005
:10043000010660FF0961A1010962150026FF009510
:1004400020750881020963150026FF0095207508B4
:100450009102C005010902A10185020901A100055F
:100460000919012908150025019508750181020562
:1004700001093009311581257F950275088106092A
:10048000381581257F950175088106050C0A38020B
:100490001581257F950175088106C0C00501098079
:1004A000A101850319012AB700150126B70095019E
:1004B00075108100C0050C0901A101850419012AEC
:1004C000A002150126A002950175108100C005014A
:1004D0000906A1018506050719E029E71500250190
:1004E0009508750181020507190029EF15002501FE
:1004F00095F0750181020508190129059505750119
:100500009102950175039101C005010906A101053C
:100510000719E029E7150025019508750181029565
:1005200001750881010507190029FF150026FF0044
:100530009506750881000508190129051500250192
:10054000950575019102950175039101C000112473
:100550001FBECFEFDAE0DEBFCDBF11E0A0E0B1E01B
:10056000E0E6FBE402C005900D92A83AB107D9F786
:1005700022E0A8EAB1E001C01D92AB3CB207E1F76E
:100580000E9425120C9449250C9400000F931F9390
:10059000CF93DF93EC018B010E94E80B982F9272AE
:1005A000C630D10551F1C1152EE7D20741F0C53053
:1005B000D105D1F0B801CE010E942B030BC0F80188
:1005C00025812115B9F38171811549F088EA0E94CE
:1005D000250580E0DF91CF911F910F9108958AEA60
:1005E0009115A9F389EAF3CFF8018581811511F3FB
:1005F000923201F70E949D03ECCFF80185818115AD
:10060000C9F29232B9F60E94B40D0E94A303E1CF61
:100610008430B8F46630A8F44C3098F4E42FF0E05D
:100620009CE0699FE00DF11D112498E4899FE00D85
:10063000F11D1124EE0FFF1FE455FF4F859194919A
:10064000089581E090E0089581E008950E942403D8
:10065000089581E0089581E0089508950E942D0392
:100660000895A6E0B0E0E7E3F3E00C94A524498305
:100670005A839E833091AF0189819A8131111AC0CA
:100680003E81311599F0211589F00E94B108182F8B
:10069000682F89819A810E948D0869817A81812FD2
:1006A0000E94C60F2696E3E00C94C1240E949F0886
:1006B000182FF3CF0E94B10869817A81F1CFFC0134
:1006C000262F4081518162817381848195810E94AE
:1006D00031030895CF93DF93D82FC92F61E00E9493
:1006E0005F036D2F7C2F0E942603DF91CF91089529
:1006F000CF93DF93D82FC92F60E00E945F036D2F47
:100700007C2F0E942E03DF91CF91089581E0089500
:100710000E9486030895CF93C82F0E947B078C2FD9
:100720000E9488032FEF84E39CE02150804090409A
:10073000E1F700C00000CF91089581E00E948B0393
:100740000E943B1D089580E00E948B030E944C1D77
:1007500008950F931F93CF93DF938C0161E00E9464
:100760005F03EC01B8010E94B919811509F442C078
:10077000B801CE010E94C6028115E1F1B801CE0197
:100780000E94D3188115B1F1B801CE010E9418144E
:10079000811581F1B801CE010E94ED13811551F14F
:1007A000B801CE010E941519811521F1F80185814A
:1007B000811581F0CA35FCE7DF0739F178F4C130E3
:1007C000ECE7DE07F9F0C330FCE7DF07C9F0C1153D
:1007D000DC4771F0C8010E9429030DC0CB35ECE75E
:1007E000DE07B1F0CC35DC47A9F70E94FE0CF2CF52
:1007F0000E949D0380E0DF91CF911F910F9108959A
:100800000E940F0D0E94A303F5CF0E94070DE2CFB7
:100810000E940B0DDFCF0E946C1C0E942B040895D8
:100820000E942F040E94711C089581E0089508958C
:10083000CF93DF93D82F0E941504C82F811519F08C
:100840008D2F0E9417048C2FDF91CF91089508956A
:100850000E941804089580E00E94280408950E94D0
:10086000A71A0E9428040895CF930E94A71AC82FA0
:100870008091AA018C1779F0C093AA010E94FC1CF8
:100880006093AB017093AC018093AD019093AE0186
:100890008C2F0E942804CF910895ADE0B0E0E3E5ED
:1008A000F4E00C94A624488759876A877B878C8755
:1008B0009D8791110E940A0C1F8286E0FE013896E6
:1008C000DE01119601900D928A95E1F78D818111DB
:1008D0000DC029813A814B815C816D817E818F8140
:1008E0000E94540B2D96E2E00C94C224CE01019696
:1008F0000E946A038111EDCFF5CFFC018481813024
:1009000021F4808191810E94DA080895611529F00F
:100910000E947E150E943F1608950E94C715FACFC7
:10092000CF93C82F811599F08CEF8C0F813A88F402
:100930008C2F0E944B1B811529F08C2F0E94F01BDD
:100940000E94A00C8C2F0E94D91B0E94A00CCF915A
:10095000089580E28C0F883048F4C77081E001C0B0
:10096000880FCA95EAF70E94EB0BEFCF8BE58C0F4F
:10097000833038F42C2F2452330BC9010E94DD1A26
:10098000E6CFE8E5EC0FEB3150F4F0E0EE0FFF1F9F
:10099000E65EFE4F808191810E94031BD8CF83E3E6
:1009A0008C0F8331A0F661E08C2F0E948604CFCF9C
:1009B000811581F19CEF980F913A28F40E94F01B69
:1009C0000E94A00C089590E2980F983050F4877020
:1009D00091E001C0990F8A95EAF7892F0E94F10BE7
:1009E000EFCF9BE5980F933028F480E090E00E94D1
:1009F000DD1A089598E5980F9B3128F480E090E087
:100A00000E94031B089593E3980F933118F460E05C
:100A10000E94860408950F931F93CF93C82F8B01D4
:100A20000E9490040115110539F48C2F0E94D804FE
:100A3000CF911F910F9108958FE99FE00197F1F7F2
:100A400000C0000001501109EDCF60E570E089336E
:100A500011F060E070E00E940B050895811521F00F
:100A60000E94EB0B0E94A00C0895811521F00E94BA
:100A7000F10B0E94A00C0895A0E0B0E0E2E4F5E0E4
:100A80000C94A0246C01D62FC72FFC011581068180
:100A900002950F700E94E00BE82E8115F9F0E12E0F
:100AA0001115E1F08C2F807F803461F080E28D0F92
:100AB0008830F0F08C2F807E803221F4D230C0F06C
:100AC0000115B1F08091A10282FF12C082E00E9464
:100AD000D10C0E94E00B91E0E82EE926EC2FE29584
:100AE000EF70C03CB0F5F0E0E55BFA4D0C94892462
:100AF000E12CF4CF0C2F0F70C03110F00295007F65
:100B0000111599F0011559F080E28D0F883010F021
:100B1000D11107C0802F0E94EB0B0E94A00C8D2FDB
:100B200051C0802F0E94FC0BF8CF8D2F0E94D8045B
:100B3000011579F080E28D0F883010F0D11104C0DA
:100B4000802F0E94F10B03C0802F0E94020C0E9494
:100B5000A00CE11489F00E94DC0B80FD0DC0F601B1
:100B600015820E94D60B0E94FC07C6010E94420714
:100B70000E94D60B0E940808CDB7DEB7E8E00C94BF
:100B8000BC24FC2FFF70FF2EC07FC03219F0F294FE
:100B900080EFF822D11541F0D130D1F1111509F4CF
:100BA00044C00115F1F0BBCF8091A10282FD15C0B8
:100BB000111559F0F11429F08F2D0E94EB0B0E94B2
:100BC000A00C80E00E949004C4CF80E00E94D80472
:100BD000F11409F4BECF8F2DB4CF111569F00111B6
:100BE00004C08F2D0E942E05B4CF013009F0B1CF83
:100BF0008F2D0E94220CADCF0111ABCF8F2D0E9403
:100C000035058F2D0E942E0C8F2D0E94110CA1CF27
:100C1000111521F0063008F09CCFE3CF053008F025
:100C200098CF8F2D0E94350594CF0115D1F3D9337C
:100C300049F42FEF87EE93E0215080409040E1F798
:100C400000C000008D2F0E94D80483CF8C2F869582
:100C500086958370811569F0813009F07ACF8D2FE8
:100C60009C2F9370111102C080E090E00E94031B42
:100C700070CF8D2F9C2F9370111102C080E090E0F7
:100C80000E94DD1A66CF612F8D2F0E94860461CFEE
:100C90008C2F8370811134C0111124C04D2F4295C7
:100CA00046954770440F440F8D2F8F70042E01C05E
:100CB000880F0A94EAF72D2F2071D4FF07C02FE088
:100CC00030E001C0220F4A95EAF72095C695C695F7
:100CD000C370822BC23071F0C33079F0C13039F06B
:100CE0000E94D8070E94A71A0E94280432CF0E94AF
:100CF000D207F8CF0E94DE07F5CF0E94CF07F2CFD0
:100D0000111539F1C0FFEECF4D2F42954695477032
:100D1000440F440F8D2F8F70042E01C0880F0A944A
:100D2000EAF72D2F2071D4FF07C02FE030E001C07B
:100D3000220F4A95EAF72095C695C695C370822B77
:100D4000C23069F0C33071F0C13031F00E942A081E
:100D5000C9CF823038F2D8CF0E942408C3CF0E9476
:100D60003008C0CF0E94EA07BDCFCF70111539F00F
:100D70008C2F0E94FC078D2F0E942E05B3CF8D2F44
:100D80000E9435058C2F0E940808ACCFD23F41F15C
:100D900070F4D03FC9F0D13F91F0111509F446C06D
:100DA000011509F440C08D2F0E9490049BCFD33FC2
:100DB000F1F0D43F91F78091A10282FD22C08C2FE7
:100DC0008F71111501F310C0111541F0053008F0B5
:100DD00089CF8C2F8F710E94180884CF0630F7CFEF
:100DE0008C2F8F711111CFCF0E94FC077BCF111573
:100DF00029F08C2F8F710E94F30774CF0E94EF07A8
:100E000071CF111531F063E08C2F8F710E94B20CFD
:100E100069CF81E00E94D10C023008F463CF82E0F8
:100E20000E94D10C5FCF8C2F8F71DECF011579F02E
:100E3000D93349F4EFEFF7EE23E0E150F0402040E2
:100E4000E1F700C000008D2F0E94D8044BCF8C2FFB
:100E50008F7199CF0F931F93CF93DF93EC0168812C
:100E600079818D810E94E7088C010E9436080E94DA
:100E7000CE07B801CE010E943C05DF91CF911F91B2
:100E80000F910895CF93DF93EC018C81811599F038
:100E9000CE010E94A903811111C00E94E00B8115AF
:100EA00051F08D81811539F08091A10282FF03C03C
:100EB00082E00E94D10CDF91CF910895CE010E9473
:100EC0002A07CE010E947803F6CF80E090E00E94CE
:100ED000DD1A80E090E00E94031B0E940A0C0E9431
:100EE000A00C0E945C160E943F1608950E94071CE9
:100EF0000E94650708950E94F90B0E9476070895E5
:100F0000282F92959F70963099F060F4925F9F70B1
:100F1000923030F4203FB1F038F481E0283E38F0D0
:100F200080E008959A5FF3CF81E0243FC9F70895E8
:100F300091E0813F09F090E081E0283E08F080E0F8
:100F4000892B089581E00895FC018481811539F091
:100F5000808191810E94DA080E948007089580E0D4
:100F60000895A6E0B0E0E7EBF7E00C94A6242696FF
:100F7000E2E00C94C224A7E0B0E0E1ECF7E00C94CE
:100F8000A6242796E2E00C94C22408950E94C50787
:100F900008950E94C6078093CC01089508950E9489
:100FA000C90708959091CC01892B0E94C907089523
:100FB0009091CC0189230E94C90708959091CC019A
:100FC00089270E94C90708950E94C50708950E94B5
:100FD000E40708950E94E7078093CB01089580E01D
:100FE0000E94EA07089591E001C0990F8A95EAF7F7
:100FF000892F0E94EA07089521E030E001C0220F06
:101000008A95EAF78091CB01822B0E94EA07089526
:1010100021E030E0A90102C0440F551F8A95E2F794
:10102000CA0180959091CB0189230E94EA07089517
:1010300021E030E001C0220F8A95EAF78091CB01D0
:1010400082270E94EA0708959091CB01892B0E9484
:10105000EA0708959091CB0189230E94EA07089539
:101060009091CB0189270E94EA07089508959B017A
:10107000677091E001C0990F6A95EAF763E03695D1
:1010800027956A95E1F7B901660F771F260F371F7D
:10109000FA01E20FF31F40E050E0682F70E0819109
:1010A000DF019B01042E02C0369527950A94E2F7D2
:1010B000217021952827292328272E934F5F5F4FE2
:1010C0004330510561F708959C01A82FA77083E074
:1010D000369527958A95E1F7C901880F991F820FE8
:1010E000931FFB01E80FF91F40E050E080E02191E1
:1010F00030E00A2E02C0369527950A94E2F7217057
:101100003327042E01C0220F0A94EAF7822B4F5F87
:101110005F4F4330510559F70895282F862F963099
:1011200068F42C3058F4622F70E02CE0929F600D30
:10113000711D112440EB51E00E9437080895292FBA
:10114000963068F48C3058F490E060EB71E03CE04D
:10115000239F800D911D11240E946408089580E052
:101160000895A0E0B0E0E7EBF8E00C94A1247C0146
:101170000091CB018091CC01082BC3E0D0E010E0BE
:10118000C8010C2E02C0959587950A94E2F780FD60
:1011900009C02197A8F7D12C8D2DCDB7DEB7E7E098
:1011A0000C94BD24DC2EB7018C2F0E94D20F019726
:1011B00081F3F2CFCF93DF93D82FC92F0E94B108CC
:1011C0006D2F7C2F0E94D20FDF91CF9108951F9336
:1011D000CF93DF93162FD72F9091AF01911541F048
:1011E000862F972F0E94DA08DF91CF911F910895E3
:1011F000811581F0862F972F0E94B108C82F682F84
:10120000812F9D2F0E948D08612F7D2F8C2F0E9492
:10121000D20FEACF862F972F0E949F08C82FF4CFB6
:10122000E1E0F0E0DF0102C0AA0FBB1F6A95E2F720
:10123000BD01DF0102C0AA0FBB1F4A95E2F76A2B6E
:1012400001C0EE0F2A95EAF7962F9823961302C055
:101250008E2B0895E0958E230895242F462F682F16
:101260008091CB010E9410090E94EA0708950F9314
:101270001F93CF93E091CD01C7E08091CE018E13F3
:1012800004C0CF911F910F9108950E2F10E0CE9FB3
:10129000F0011124E153FE4F2081318142815381BD
:1012A0006481758186810E94BB07F8013196E770E1
:1012B000E4CF209107023091080240910902509139
:1012C0000A0260910B0270910C0280910D020E9443
:1012D000BB07089580910D02803178F480910C0253
:1012E000811559F0E091CD012091CE013091080295
:1012F0004091070257E02E1301C008956E2F70E051
:101300005E9FF0011124DF01A153BE4F14968C9112
:101310001497811561F111968C911197831327C051
:101320008C91841324C015968C91159781111FC040
:1013300012968D919C91A0910902B0910A028A1B8C
:101340009B0B883C910598F480910D028F70806111
:1013500080930D02EB52FE4F80818F7080618083FD
:1013600087E092E00E9442070E9437090895FB013E
:101370003196E770C0CFE091CD019091CE0127E08A
:10138000E91302C080E00895AE2FB0E02E9FF00177
:101390001124E153FE4F3181361306C030813813DA
:1013A00003C03581341304C0FD013196E770E8CFE6
:1013B00081E008958F929F92AF92BF92DF92EF9259
:1013C000FF920F931F93CF93DF93CDB7DEB72D9787
:1013D0000FB6F894DEBF0FBECDBF8C0186E0F801DA
:1013E000DE01189601900D928A95E1F7F801F580DB
:1013F000848197E0892E92E0992E90910B029111B1
:101400001BC0811509F4FFC0F11409F440C1C801E3
:101410000E94A407811509F43AC187E0F801D401BC
:1014200001900D928A95E1F7C4010E947D040E940B
:101430006A090E945909E7C0E080A280B380D09079
:101440000C022091090230910A02A501421B530BA4
:10145000D11409F4DBC0483C510508F0A6C0811541
:1014600009F4D1C090910802918080910D028031E1
:1014700008F06BC0991228C0909107029E1124C0F9
:10148000F1105DC08F70806180930D020E94590938
:1014900087E092E00E94420780910D02F801868366
:1014A000F12C8F2D2D960FB6F894DEBF0FBECDBF59
:1014B000DF91CF911F910F91FF90EF90DF90BF9040
:1014C000AF909F908F900895F11039C040E0692D42
:1014D0008E2D0E94BB0940E0692D8E2D0E94BB0914
:1014E000F82E8111DDCF888599850E94DA08292F91
:1014F00022952F70903450F49F70223080F0911517
:1015000099F0F8019681903178F4CBCF2A5F2F7053
:10151000223078F0C8010E944207FD2CC2CF9115FD
:1015200019F0811509F4BDCF805E883008F4B9CF79
:10153000F1CF803F08F4B5CF815F8330F7CF809142
:101540000D02816080930D02ABCF991207C090917C
:1015500007029E1103C0F11409F479C0C8010E946A
:10156000A407811509F493C0F11409F490C0809187
:101570000D02803288F020910702309108023A83F0
:101580002983BC82AB8290910B029D831E828F8344
:10159000CE0101960E94420787E0F801A7E0B2E081
:1015A00001900D928A95E1F742CF90910D02903112
:1015B000A0F4488559856A857B858C859D850E9428
:1015C000B10787E092E00E94420787E0F4011192A0
:1015D0008A95E9F70E94590963CF8115A1F02091FE
:1015E000080281812813BACF809107028E11B6CFED
:1015F000F110B4CF9683C8010E94420787E0F4013E
:1016000011928A95E9F7FF24F3944BCF483C51059A
:1016100008F041C08115B9F3F114C9F190910802A5
:10162000818198132AC0809107028E1126C0809173
:101630000D0280FD19C08031B8F08683807F803F25
:1016400039F08681982F907F905F8F70892B8683E9
:10165000C8010E94420787E0F801A7E0B2E00190CC
:101660000D928A95E1F7E5CE87E0F801A7E0B2E0B8
:1016700001900D928A95E1F7C6CFC8010E94A40798
:1016800081118ACF80910D02816080930D02C80183
:101690000E944207B8CF488559856A857B858C852D
:1016A0009D850E94B10791CFAEE0B0E0EAE5FBE096
:1016B0000C94A524288739874A875B876C877D87A8
:1016C0008E87CE0108960E94DA096C858115A9F0F3
:1016D000611541F0288539854A855B857D858E8534
:1016E0000E94BB0717E08091CD019091CE01891334
:1016F0003AC02E96E3E00C94C12487E0FE013896B0
:10170000DE01119601900D928A95E1F7611551F372
:10171000A091CE018A2F90E00196877099272091A1
:10172000CD012817190689F097E09A9FD00111245E
:10173000A153BE4FFE01319601900D929A95E1F7AB
:101740008093CE010E943709CDCF0E947B07109273
:10175000CE011092CD0187E0E7E0F2E0DF011D92BB
:101760008A95E9F7BFCF189FC001112481539E4F7E
:101770000E94DA09811509F4BCCFE091CD011E9FCA
:10178000F0011124E153FE4F2081318142815381C8
:101790006481758186810E94BB078091CD0190E0B4
:1017A0000196877099278093CD019DCF8091360255
:1017B000869586958695089580913602877008955E
:1017C00090913602977081E0911101C080E00895F8
:1017D00080916202089590916202982B9093620228
:1017E0000895982F909580916202892380936202D8
:1017F000089510926202089590916102982B90933F
:1018000061020895982F90958091610289238093B9
:101810006102089510926102089508950E940D0CCE
:10182000089590913702292F2823211531F08095B2
:101830008923809337020E940E0C089508950E9418
:101840001E0C089590913802292F2823281729F07B
:10185000982B909338020E941F0C089590913802A3
:10186000292F2823211531F0809589238093380270
:101870000E941F0C089580913802811529F0109262
:10188000380280E00E941F0C0895CF93C09162023D
:1018900080916102C82B80913802811531F0C82BEC
:1018A0000E94291B81110E943B0C8C2FCF9108951F
:1018B000CF93DF93C0910201D09103010E94450CA8
:1018C0008883C0910201D091030148E050E06EE2AC
:1018D00072E0CE010E94E124892B59F088E0FE01DC
:1018E000AEE2B2E001900D928A95E1F7CE010E943E
:1018F000B41ADF91CF910895CF93DF93C091000187
:10190000D09101010E94450C8983C0910001D091C2
:10191000010140E250E06EE072E0CE010E94E1245D
:10192000892B59F080E2FE01AEE0B2E001900D9209
:101930008A95E1F7CE010E94BF1ADF91CF910895F9
:1019400080911901811539F08091A00287FF03C0B1
:101950000E947C0C08950E94580C089508950E94DE
:10196000AE0C0895962F2091A10222FF11C0682F7E
:10197000660F660F660F692B609336020E94FC07A4
:10198000809136028695869586950E94AF0C0895C3
:101990000E94FC0708951092360280E00E94AF0C6E
:1019A0000895909136028095892380933602282FDE
:1019B000277021110DC0891759F09091A10292FF53
:1019C00007C08695869586950E9408080E94CB0CD4
:1019D00008959091A10292FB222720F9281769F01F
:1019E00080FB92F99093A1028091A0029091A102B4
:1019F0000E94310D82E00E94D10C08958091A102D5
:101A0000002482FF0394802D0E94E90C089581E058
:101A10000E94E90C089580E00E94E90C08956FEFA0
:101A20007FEF80E090E00E943325089580E090E011
:101A30000E94FF24853E9E4F19F40E94501908957C
:101A400080E0089582E090E00E94F724089583E00A
:101A500090E00E94F724089584E090E00E94FF2423
:101A60000895BC0184E090E00E9433250895AB0105
:101A7000BC018FE090E00E9427250895AB01BC01D6
:101A800083E190E00E942725089560E070E0CB019B
:101A90000E943E0D089560E070E0CB010E94370D7A
:101AA0000E94450D0895A8E0B0E0E9E5FDE00C9442
:101AB000A62465EE7EEF80E090E00E94332560E092
:101AC00082E090E00E94152581E08093CC0161E0E6
:101AD00083E090E00E94152560E074E184E090E0EE
:101AE0000E94332560E086E090E00E94152560E0CA
:101AF00087E090E00E94152540E050E0BA0188E0C0
:101B000090E00E94272560E083E290E00E94152586
:101B100060E08CE090E00E94152560E08DE090E0B0
:101B20000E94152519821A821B821C821D821E8228
:101B30001F82188648E050E067E170E0CE01019610
:101B40000E94052540E050E0BA018FE190E00E943C
:101B5000272580E00E9469190E949B190E944B0D65
:101B60002896E2E00C94C2240E94530D0895682F39
:101B70008EE090E00E9415250895A6E0B0E0E3EC29
:101B8000FDE00C94A4240E94F01C8C01809163025F
:101B9000909164028017910779F019821A820E944D
:101BA000F01CBC0149815A8180E090E00E944D0404
:101BB00010936402009363022696E4E00C94C02420
:101BC0000E94FC1C609375027093760280937702EA
:101BD0009093780260937102709372028093730203
:101BE000909374020895089508950E94F30D089546
:101BF00008950E94F80D089587EC90E10E943C1230
:101C00000E94F40D0E94F50D089581E0089581E091
:101C100008950E94050E0895089508950E940C0EDF
:101C20000E940D0E08950E94160D811102C00E949F
:101C3000B40D0E94220D809379020E942C0D909386
:101C4000A1028093A0020E945F120E94270D0E94B1
:101C5000CF078091CB010E94E70708950E94E71CFF
:101C60000E94AB190E948D110E94130E0E9427043E
:101C70000E94F90D0895A6E0B0E0E1E4FEE00C94C6
:101C80009A240E94070E81110AC00E94BD0D0E9475
:101C90007D160E9434042696EEE00C94B6240E9431
:101CA000A31125E6822E22E0922E540110E0F501C8
:101CB000619071905F01812F0E94D1106C011F5FB4
:101CC000163009F44AC06816790689F380917902C2
:101CD00081FD0E94DA100E94090E782E10E0662421
:101CE0006394812F0E94D1107C01F401A190B190E6
:101CF0004F018A159B0559F1A826BF2400E0CC248A
:101D0000C394D12CC5018C219D21892BC1F0711464
:101D1000B1F009831A830E94F01C9C838B836D822F
:101D200021E0C7018C219D21892B09F420E0498104
:101D30005A816B817C818D81922F0E944D040F5FAF
:101D4000CC0CDD1C0C30F1F6F401F292E2921F5F34
:101D5000163039F60E94E00D9ACF6816790609F020
:101D6000B5CF93CF1F93CF93DF930E94D70FEC0192
:101D7000811522E5920708F05DC0811540E59407C2
:101D800008F0DBC0803E910528F58D3C910508F0F8
:101D9000ACC0883A910578F4853A910508F0A2C064
:101DA0008130910509F441C00497813A9105E8F129
:101DB000C0E0D0E03AC0885A91094B97C8F7C85A9A
:101DC000D0E0CC0FDD1FC05BDE4F0990D881C02D65
:101DD000D4642BC0811550E49507F8F4C11580E256
:101DE000D80708F0C0C0C83ED105F8F0CE019A95DA
:101DF00081159F41E8F68D2F0E947810182FCE0193
:101E000099270E94D70F212F30E0322F2227E90196
:101E1000CC27DF71C82BD92B08C099270E94D70F78
:101E2000CC27DF70C82BD92BD06ACE01DF91CF91A0
:101E30001F910895803842E59407C8F5803652E531
:101E4000950708F05BC0C03482E5D807D0F4C032F3
:101E500092E5D90708F04BC08C2F8695869520E235
:101E6000829FC0011124C37021E030E0A90102C0AB
:101E7000440F551FCA95E2F7EA01C82BD92BDD683C
:101E8000D4CF8C2F86958695877050E2859FC001B0
:101E90001124C37021E030E0A90102C0440F551F96
:101EA000CA95E2F7EA01C82BD92BDC68BECF803C8B
:101EB00052E5950758F48F71C03AD245A0F590E0ED
:101EC000982F8827EC01C46FD06AAFCF805C924511
:101ED000809708F06DCFDC2FCC27CC27DF71C06F47
:101EE000D06AA3CFA497D064A0CFD0659ECFCF7186
:101EF000D0E0DC2FCC27C16FD06A97CF869586952E
:101F0000877020E2829FC0011124C37021E030E07D
:101F1000A90102C0440F551FCA95E2F7EA01C82B78
:101F2000D92BDA6882CF0E947810C82FD0E0DC2F3E
:101F3000CC27CC27DF71D06278CF8F710E947810C8
:101F400053E0CC0FDD1F5A95E1F7CC27DF70282F27
:101F500030E084FF04C050E1859F90011124C22B22
:101F6000D32BD06962CF8D2F8F710E947810182FDC
:101F7000CE0199270E94D70F212F30E0322F222740
:101F800022273F71282B392BE901D5CF462F672F08
:101F9000763028F44C3018F40E941313089580E032
:101FA00090E008950E94C60F0E94B20E08959C0111
:101FB000803E910509F448C0D8F48133910509F4B5
:101FC0007DC048F48932910509F46DC08A9709F4FF
:101FD0007CC0C90108958933910551F1823891057A
:101FE00039F1C597B1F78091A00285FFF2CF29C0E2
:101FF000843E910509F447C048F4823E910599F169
:10200000833E9105A9F121EE30E0E3CF863E9105B4
:1020100009F444C0873E9105E1F68091A00283FD5A
:1020200061C09091A10291FF2BC024EE30E0D1CF8E
:102030008091A0028370811152C08091A10283FF20
:10204000C8CF29E230E0C5CF8091A00280FD33C027
:102050009091A10290FFBDCF23EE30E084FFB9CF75
:1020600020E030E0B6CF8091A00282FDF5CFB1CF65
:102070008091A00282FD30C09091A10290FD2FC0FE
:1020800084FFA7CFEDCF8091A10281FFA2CF8091E5
:10209000A00227EE30E084FDE3CF9BCF8091A00229
:1020A00083FDF7CF96CF8091A00285FD1EC0809161
:1020B000A10283FF8ECF29E330E08BCF8091A00275
:1020C00086FF87CF2AE230E084CF8091A00286FF8E
:1020D00080CF21E330E07DCF22EE30E07ACF20EEDA
:1020E00030E077CF26EE30E074CF25E330E071CFDB
:1020F0009091A00292FF10C041E0282F247124305B
:1021000009F040E031E0282F2871283009F030E054
:10211000431711F02CE0822793FF10C041E0282FD5
:102120002471243109F040E031E0282F2871283152
:1021300009F030E0431711F02CE082273091A10222
:1021400030FF10C051E0282F2171213009F050E0FC
:1021500041E0282F2871283009F040E0541711F091
:1021600029E0822731FF10C041E0282F2171213161
:1021700009F040E031E0282F2871283109F030E0E3
:10218000431711F029E0822794FD877E089580E0AF
:10219000089508950E94C910089508950E94CD10D1
:1021A0000895E82FF0E0EE0FFF1FE255FD4F80810C
:1021B00091810895089580EA8A95F1F7089500C005
:1021C00008950E94DB100895F894E82FE295EF70CF
:1021D000F0E041A18F7021E030E0B90102C0660F4C
:1021E000771F8A95E2F7CB01962F9095942391A3C0
:1021F00092A1892B82A378940895CF93DF93C2E9AB
:10220000D1E089918F3F11F00E94E41081E0C8393C
:10221000D807B9F7C6E8D1E089918F3F11F00E9445
:10222000E41081E0C239D807B9F7DF91CF91089562
:102230008F929F92BF92CF92DF92EF92FF920F9375
:102240001F93CF93DF938C01B62EE62EF12CC7019E
:102250008E569E4F6C01FC0180818F3F09F451C066
:10226000F894E82FE295EF70F0E091A18F7021E0F3
:1022700030E001C0220F8A95EAF7892F822B81A3D3
:1022800082A12095282322A378940E94DF10E6E8FB
:10229000F1E021E030E0812C912C41914F3F81F021
:1022A000A42FA295AF70A05EB0E08C9190E04F702B
:1022B00002C0959587954A95E2F7E90180FF04C031
:1022C00080E0C82F90E0D92F8C2A9D2A220F331F3F
:1022D00081E0E239F80709F7F60180818F3F11F0BC
:1022E0000E94E41061E08114910409F460E08B2DF8
:1022F0000E94E110EE0CFF1C0E0D1F1DF8019182D3
:102300008082DF91CF911F910F91FF90EF90DF902E
:10231000CF90BF909F908F9008950E94FD108CE009
:10232000EEEAF2E0DF01982F1D929A95E9F7E2EAD2
:10233000F2E0DF011D928A95E9F786E00E94E01144
:102340000E94CA100895ACE0B0E0E9EAF1E10C9413
:10235000A324FE0131968CE0DF011D928A95E9F7F6
:1023600010E0FE2E0F2F612F8F2D902F0E9418113D
:102370001F5F1630C1F74CE050E06F2D702F82EADE
:1023800092E00E94E12421E0892B81F420E046E0E4
:102390006EEA72E082EA92E00E94E111182F0E9438
:1023A000CE10812F2C96E5E00C94BF248CE0EF2D0D
:1023B000F02FA2EAB2E001900D928A95E1F7E7CF03
:1023C0000895A0E0B0E0E7EEF1E10C94A024D82E4F
:1023D000E92EF62ED72F042FC22F211579F081E098
:1023E00080937C020E94F01C90937B0280937A027F
:1023F00080E0CDB7DEB7E8E00C94BC24C0907C024E
:10240000C114B1F380917A0290917B020E94081D61
:10241000059770F310E0000F111FA8016D2D7E2DA0
:102420008F2D9D2F0E94E124892B41F0A8016D2D55
:102430007E2D8F2D9D2F0E94EE24CC2D10927C029C
:102440008C2FD7CF0E943B0E08950E94891C0E94BA
:10245000E31E0E94FC0D0E94FD1E0E942E0E0E9493
:102460000A1F0E940F1F0E9422120E94291F0E9411
:10247000B31D0E940E0EF5CF9093A9018093A80181
:1024800008950E940F0D089580E00E94D110817080
:1024900008950E94A3112FEF86E791E0215080401C
:1024A0009040E1F700C000000E94A3110E94441276
:1024B000811521F00E9441120E943B1D08950E9447
:1024C0004912089584E0089550E0440F551F98E1A3
:1024D000699F400D511D112490E9899F400D511DA8
:1024E0001124CA01889608950F931F93CF93DF9309
:1024F0008430C8F46630B8F44C30A8F40E946412FA
:102500008C010E94F724C82FD0E0DC2FCC27C80113
:1025100001960E94F7249E01282BC901DF91CF91DB
:102520001F910F91089580E090E0F8CF0F931F93D3
:10253000CF93DF93122F032F843078F4663068F442
:102540004C3058F40E946412EC01602F0E94152553
:10255000612FCE0101960E941525DF91CF911F9129
:102560000F9108951F93CF93DF93D0E0C0E011C087
:10257000412F6C2F8D2F0E9408039C01412F6C2F3F
:102580008D2F0E9496121F5F1C3091F7CF5FC630CF
:1025900011F010E0EDCFDF5FD43041F7DF91CF9144
:1025A0001F910895EF92FF920F931F93CF93DF93A4
:1025B0008C01EA017A01E60EF71ECE15DF0529F43B
:1025C000CDB7DEB7E6E00C94BE24003482E01807F5
:1025D00040F4C80188960E94F72489930F5F1F4F2B
:1025E000ECCF80E0FACFEF92FF920F931F93CF933F
:1025F000DF938C01EA017A01E60EF71ECE15DF05A6
:1026000029F4CDB7DEB7E6E00C94BE24003482E0B6
:10261000180728F46881C80188960E94152521961C
:102620000F5F1F4FEBCF843038F4663028F44C3006
:1026300018F40E947412089580E090E0089580E1FB
:10264000089588E991E00895EF92FF920F931F9308
:10265000CF93DF938C01EA017A01E60EF71ECE15C7
:10266000DF0529F4CDB7DEB7E6E00C94BE240839C7
:1026700081E0180748F4C80188599D4F0E94F7244B
:1026800089930F5F1F4FEBCF80E0FACFEF92FF925D
:102690000F931F93CF93DF938C01EA017A01E60E2B
:1026A000F71ECE15DF0529F4CDB7DEB7E6E00C94B2
:1026B000BE24083981E0180730F46881C8018859C0
:1026C0009D4F0E94152521960F5F1F4FEACFCF9394
:1026D000DF93C8E6D2E060E0CE010E941525219686
:1026E000C11584E0D807B9F7DF91CF910895A8E02C
:1026F000B0E0EDE7F3E10C949E24F82E20E1821780
:1027000008F067C08FEF93E00E94F724811161C049
:1027100008E612E0F11033C0FE0131965F0188E057
:1027200011928A95E9F76801FFEFCF1ADF0AC80115
:102730000E94F72489831A82811509F44AC08130E6
:10274000C1F4780122E0E20EF11CC6010E94F724D8
:102750008A838115F1F19FEF980F9330E8F482E0BE
:10276000C80ED11CC7010E94F7248B83811589F103
:102770001C8260E0C5010E9402188601D4CF0115B9
:1027800084E0180731F1C8010E94F7240F5F1F4F42
:102790008111F5CFFA94BECF8430A1F402E010E0AD
:1027A000C701EFEFEE1AFE0A0E94F724F501E00FD1
:1027B000F11F8083811569F08C3731F4FE01E00F41
:1027C000F11F12826701D5CF0F5F1F4F0730110530
:1027D00039F72896EAE00C94BA24CF93DF93EB0103
:1027E00086319C4719F50E94E80B9D819115A1F057
:1027F0008A7A91E0811101C090E090937D02811569
:1028000049F085E30E94D91B0E94A00C80E0DF9173
:10281000CF91089589E2F6CF80917D02811521F054
:1028200085E30E94F01BF0CF89E2FBCF81E0EFCF80
:10283000CF93DF93EC01FB018581811509F4CFC0B3
:102840009E0130572332310508F0AFC00E942C0D95
:102850009093A1028093A002FE01E150F047E23282
:10286000F10520F4E95AFA4D0C9489248091A002D4
:1028700081608093A00290C08091A10288608093C3
:10288000A1028AC08091A0028260F3CF8091A00251
:102890008460EFCF8091A0028860EBCF8091A1028D
:1028A0008160EDCF8091A1028260E9CF8091A0028A
:1028B0008061DFCF8091A0028062DBCF8091A00297
:1028C0008064D7CF0E947B078091A0028068D1CF1F
:1028D0008091A0028C60CDCF8091A1028360CFCF88
:1028E0008091A0028E7FC5CF8091A102877FC7CF44
:1028F0008091A0028D7FBDCF8091A0028B7FB9CF48
:102900008091A002877FB5CF8091A1028E7FB7CF43
:102910008091A1028D7FB3CF8091A0028F7EA9CF3D
:102920008091A0028F7DA5CF8091A0028F7BA1CF47
:102930000E947B078091A0028F779BCF8091A0029D
:10294000837F97CF8091A1028C7F99CF8091A00245
:10295000992782FF939590FB82F990FB83F989CFA9
:102960008091A102982F909590FB80F990FB81F9BE
:1029700086CF9091A002892F8F7B96FF806479CFBC
:102980000E947B079091A002892F97FB87F98058BE
:1029900070CF81E00E94B70D8091A0029091A102BA
:1029A0000E94310D0E947B0780E0DF91CF91089556
:1029B00080E0F0CF9091A002892F8F7E94FF8061FC
:1029C00058CF9091A002892F8E7F90FF816051CFC8
:1029D0009091A102892F877F93FF886050CF81E07B
:1029E000E4CF282F35EB2303C001112497FF04C047
:1029F00080589109892F089580589F4FFBCF80916F
:102A0000840280FF0DC06091090170E0660F771F9E
:102A100060387105B0F561157105A9F1862F08952B
:102A200081FF07C06091090184E0689FB001112413
:102A3000EFCF82FF04C06091090188E0F6CF90914A
:102A400083029115D9F02091080180910901682F26
:102A500070E0921730F043E0660F771F4A95E1F778
:102A6000D7CF899FC001112433E0880F991F3A9571
:102A7000E1F7622F70E00E947524CACF68E070E031
:102A8000CDCF8FE7089581E008958091840280FF83
:102A90000CC06091050170E0759567957595679517
:102AA0006115710549F1862F089581FF06C0609177
:102AB000050170E075956795F3CF6091050182FD82
:102AC0000BC0909182029115A1F060910401809158
:102AD0000501961738F0682F70E06038710500F333
:102AE0008FE70895899FC001112470E00E9475242A
:102AF000F4CF61E070E0D7CF81E00895E3E3E80F21
:102B0000E331E0F5F0E0E758FA4D0C9489240E9497
:102B1000FF1481958093880208950E94FF14FACFD4
:102B20000E94FF1481958093870208950E94FF14EC
:102B3000FACF0E9445158093890208950E94451599
:102B40008195F9CF0E944515819580938A02089559
:102B50000E944515FACF815D990B21E030E001C05C
:102B6000220F8A95EAF780918602822B8093860253
:102B700008958091840281608093840208958091F9
:102B800084028260F9CF809184028460F5CF409105
:102B900087028D3C59F48091880287FF0DC0109206
:102BA0008802411559F41092830208C08E3C81F4CA
:102BB0008091880218169CF3411581F0809189025A
:102BC00090918A02892B811159C010928202089536
:102BD0008F3C41F447FFF0CF10928702809188022A
:102BE0008115E0CF803D19F41416B4F3E5CF909130
:102BF0008902893D29F41916FCF610928902DCCF6E
:102C00008A3D19F497FFD8CFF8CF90918A028B3D77
:102C100029F497FFD1CF10928A02CECF8C3D19F4C0
:102C20001916CCF3C9CF9FE2980F983090F4815DCC
:102C3000990B21E030E0B90102C0660F771F8A9539
:102C4000E2F7CB01809590918602892380938602DA
:102C5000B3CF8D3D31F4809184028E7F80938402C6
:102C6000ABCF8E3D21F4809184028D7FF7CF8F3DD5
:102C700009F0A2CF809184028B7FF0CF08950E944B
:102C8000F01C2091870230918802232B211521F01E
:102C900080938002909381022091890230918A0270
:102CA000232B211521F080937E0290937F0285E8EB
:102CB00092E00E94CE1A089586E0E5E8F2E0DF0196
:102CC0001D928A95E9F71092830210928202109267
:102CD00084020895FC01828181110DC083818111DC
:102CE0000AC08481811107C081E09581911101C0E2
:102CF00080E08170089581E0FCCFA6E0B0E0E3E8D9
:102D0000F6E10C94A02486E0E5E8F2E09E012F5F56
:102D10003F4FD90101900D928A95E1F710928702F9
:102D2000109288021092890210928A028B819C81F3
:102D3000892B7901811589F080918002909181021F
:102D40000E94081D6C01809183028115B9F1909158
:102D50000A019C151D0408F43EC08D819E81892BBB
:102D6000811591F080917E0290917F020E94081D52
:102D70008C0180918202811509F45FC09091060157
:102D80009017110608F467C0B70185E892E00E9429
:102D9000211C811105C085E892E00E946A1681110C
:102DA0000E943F1686E0F701A5E8B2E001900D927F
:102DB0008A95E1F72696E8E00C94BC2420910B015B
:102DC0009AE0299F900111242C153D0530F68F5F64
:102DD0008093830202C08F3FD1F7DB80D11459F07A
:102DE0000E94FF1491E01D140CF09FEF899F802D2D
:102DF000112480938702DC80D11459F00E94FF14C3
:102E000091E01D140CF09FEF899F802D1124809379
:102E1000880280918702811509F49FCFD0908802A3
:102E2000D11409F49ACF0E94F114809387028D2D5A
:102E30000E94F1148093880290CF209107019AE0BC
:102E4000299F900111242017310708F09DCF8F5F33
:102E50008093820202C08F3FD1F71D81111559F076
:102E60000E94451591E011160CF09FEF899F802D6F
:102E70001124809389021E81111559F00E94451575
:102E800091E011160CF09FEF899F802D1124809303
:102E90008A0280918902811509F476CF10918A0205
:102EA000111509F471CF0E94F11480938902812FCA
:102EB0000E94F11480938A0267CFA0E0B0E0E3E6BD
:102EC000F7E10C949F24E82FF0E0E451FD4FB4901B
:102ED000282F26952695269530E0F901E457FC4FDA
:102EE0000491877010E0082E02C0159507950A948A
:102EF000E2F701701127F901E458FC4FE490F12C3E
:102F0000082E02C0F594E7940A94E2F7E0FAEE2462
:102F1000FF24E0F8F901E459FC4FC491D0E002C06D
:102F2000D595C7958A95E2F7C170DD27C62ED12CBD
:102F30000115110549F5E114F10431F086EE0E9406
:102F40009004C601009771F5B6018B2D0E940B0508
:102F5000C601009779F5E114F104A1F501151105F9
:102F600031F081EE0E94D804C6010097C9F5CD2B3F
:102F700031F08CE20E942505C114D104C9F5CDB70A
:102F8000DEB7E9E00C94BB2481EE0E949004C601F8
:102F9000009789F2EFE9FFE03197F1F700C00000F8
:102FA0000197F6CFEFE9FFE03197F1F700C000009D
:102FB0000197C8CFEFE9FFE03197F1F700C00000BB
:102FC0000197C7CF86EE0E94D804C601009731F260
:102FD000EFE9FFE03197F1F700C000000197F6CF6D
:102FE000EFE9FFE03197F1F700C000000197BDCF96
:102FF0008FE99FE00197F1F700C0000091E0C91A46
:10300000D108BACFEF92FF921F93CF93DF93EC01D9
:10301000162F8881811509F45AC0813009F053C0F8
:103020008981813071F47E0182E0E80EF11C8A8191
:103030000E942505E701812F90E00097E1F5219698
:10304000E8CF823041F47E01E2E0EE0EF11C8A818D
:103050000E949004EFCF833041F47E01F2E0EF0E46
:10306000F11C8A810E94D804E5CF843011F02196AA
:10307000E2CF2A81229680E090E06AE0AE014F5FC5
:103080005F4F2053330B2A30310550F0009799F2EF
:10309000EFE9FFE03197F1F700C000000197F6CFAC
:1030A000689FF001699FF00D1124C9018E0F9F1FC9
:1030B0002981EA01E3CFEFE9FFE03197F1F700C0A2
:1030C00000000197BACF612F0E945D17B8CFDF9142
:1030D000CF911F91FF90EF9008950F931F93CF937F
:1030E000DF93C42FD22FFC0185818115C9F0409355
:1030F0008D020E94F01C90938C0280938B0280E2E0
:103100008C0F883040F4C77081E001C0880FCA95E9
:10311000EAF70E942E05DF91CF911F910F9108953C
:1031200010918D02141333C080918B0290918C0208
:103130000E94081D883C910550F5C0E2CD0F1D1777
:10314000C1F080E2810F883040F4177081E001C047
:10315000880F1A95EAF70E943505C83050F491E0BF
:103160008D2F877001C0990F8A95EAF7892F0E94E9
:103170002E05802F0E942505C83068F6D77081E0A3
:1031800001C0880FDA95EAF70E943505C4CF80E2C6
:103190008C0F883008F0BFCFC77081E001C0880F66
:1031A000CA95EAF7F1CF0F93DB01FC01E851FC4728
:1031B000E730F10598F5E457FA4D0C94892406E2BE
:1031C00021EE41EE6AE17CE7CD010E946D1880E0BE
:1031D0000F91089507E225EE45EE6BE17CE7F4CF11
:1031E00006E221EE40EE68E17CE7EECF07E225EE55
:1031F00044EE69E17CE7E8CF06E221EE42EE6CE1C5
:103200007CE7E2CF07E225EE46EE6DE17CE7DCCF1E
:1032100008E221E045EE6EE17CE7D6CF15968C9171
:10322000811110928D0281E0D3CFCF93DF939C0167
:10323000FB0127378CE7380739F028373C47F1F096
:1032400081E0DF91CF9108958581811591F00E94F1
:1032500047190E94FC070E944D19D82F0E944A1955
:10326000C82F0E9447194D2F6C2F0E942D0980E016
:10327000E8CF0E9447190E940808EDCF858181158B
:1032800019F00E944A19E5CF0E944A19F4CF8091A3
:103290000E01089580910D01089580910C0108950B
:1032A00084E290E00E94F724843289F485E290E081
:1032B0000E94F724823159F486E290E00E94F724BC
:1032C00091E0853009F090E0892F8170089580E0C9
:1032D000FCCFCF93C82F64E2811101C06FEF84E26D
:1032E00090E00E94152562E1C11101C06FEF85E2F7
:1032F00090E00E94152565E0C11101C06FEF86E2E4
:1033000090E00E941525CF910895089587E290E0FE
:103310000E94F724682F70E080E090E008950895FF
:10332000CF93C62F0E948F196C2F87E290E00E94E6
:103330001525CF91089580E00E94691960E070E042
:10334000CB010E9490190E94B2120E94671381E083
:103350000E94691908950E9485190E9486190E9489
:103360008F190E945019811102C00E949B19089563
:1033700008959C01FB018581811551F0A9015757E2
:103380004038510530F4822F0E94771380E0089571
:1033900081E008952FEFFC01208308950E94CA194F
:1033A000089580E00895CF92DF92FF920F931F93CC
:1033B000CF93DF93EC01F62E0E94D119811110C03A
:1033C000E881E150E331E0F4F0E0ED56FA4D0C9481
:1033D000892419828CE08A836F2DCE010E94A91D59
:1033E000DF91CF911F910F91FF90DF90CF900895C3
:1033F00089818330F9F038F4813061F0823099F0BE
:103400008FEF8883E9CF8430D9F71A821B821C8220
:103410001D82E2CF0E94FC1C0E948F246A837B8362
:103420008C839D83D9CF0E9486191A821B821C82AD
:103430006D83D2CF0A8110E06E01F2E0CF0ED11C75
:10344000063011054CF6802F0E94D110F6019183B1
:1034500082830F5F1F4FF1CF8981823031F0853039
:1034600079F68A810E94B819B7CF6A817B818C81F5
:103470009D810E948F240E949019AECF4B816A815A
:1034800089810E9474129827892798279D838C83AD
:10349000A3CF2C813D813227232732274B816A819C
:1034A00089810E94961298CF0E94B21295CF6F2DFB
:1034B000CE010E94CE1990CF0E941F1389838CCF1A
:1034C0000E9421139827892798279A83898384CF7C
:1034D0006B8170E089819A81AE014C5F5F4F9827C4
:1034E000892798270E94241377CF6B8170E0898108
:1034F0009A81AE014C5F5F4F9827892798270E94D9
:1035000046136ACF0E94671367CF0E946212D6CF1C
:103510006B8170E089819A81AE014C5F5F4F982783
:10352000892798270E94D21257CF6B8170E089813A
:103530009A81AE014C5F5F4F9827892798270E9498
:10354000F3124ACF90939302809392020895E091F0
:103550009202F0919302309729F00190F081E02DD2
:103560000995089580E00895E0919202F091930208
:10357000309721F00280F381E02D09950895DC0158
:10358000E0919202F0919302309739F086E08C93AB
:103590000480F581E02DCD0109950895DC01E091CD
:1035A0009202F0919302309739F082E08C9306807A
:1035B000F781E02DCD0109950895A3E0B0E0E3EE99
:1035C000FAE10C94A6249C018091900290919102C2
:1035D00082179307A1F03093910220939002E0911B
:1035E0009202F0919302309751F083E089833B83FC
:1035F0002A830084F185E02DCE010196099523965A
:10360000E2E00C94C224A3E0B0E0E9E0FBE10C941A
:10361000A6249C0180918E0290918F0282179307BD
:10362000A1F030938F0220938E02E0919202F091EC
:103630009302309751F084E089833B832A8300848E
:10364000F185E02DCE01019609952396E2E00C94D8
:10365000C22420910201309103012E5F3F4F8091DF
:103660001901811579F08091A00287FF0BC020918C
:103670000001309101012E5F3F4F9EE180E09150AB
:1036800018F4089596E0FACFF90141919F01411590
:10369000B1F38F5FF4CF8115A1F1909119019115CC
:1036A00021F09091A00297FD0FC02091020130916E
:1036B0000301F9013296285F3F4F9191981719F154
:1036C000E217F307D1F71DC0982F9695969596951A
:1036D000803FB8F4E0910001F0910101E90FF11D84
:1036E000228130E0877041E050E0BA0102C0660FED
:1036F000771F8A95E2F7CB012623392381E0232B1C
:1037000019F480E0089581E008959C01FC0132964F
:103710008FEF90E04191461751F08F3F19F441111E
:1037200001C0892F9F5F9630A9F78F3F09F4089554
:10373000280F311D87FD3A95F901628308959C0198
:10374000FC013296285F3F4F8191861302C0DF0152
:103750001E92E217F307C1F70895FC01862F8695A4
:1037600086958695603F60F4E80FF11D677021E053
:1037700030E001C0220F6A95EAF78281822B8283B2
:103780000895FC01862F869586958695603F80F486
:10379000E80FF11D677081E090E09C0102C0220FEC
:1037A000331F6A95E2F7B9016095828168236283CD
:1037B0000895682F80911901811559F08091A00218
:1037C00087FF07C080910001909101010E94AD1B0D
:1037D000089580910201909103010E94851B089534
:1037E000682F80911901811559F08091A00287FFFF
:1037F00007C080910001909101010E94C11B0895B2
:1038000080910201909103010E949F1B0895809175
:103810001901811579F08091A00287FF0BC0E0911A
:103820000001F091010132968EE1DF011D928A952F
:10383000E9F70895E0910201F0910301329686E0E4
:10384000F4CFDC01FB0111969C91119781819813B3
:1038500022C012968C911297811519F092818913CA
:103860001AC013968C911397811519F093818913BF
:1038700012C015968C911597811519F095818913B1
:103880000AC014969C91911521F081E0248129139E
:1038900003C080E001C081E08170089508950E9416
:1038A0004E1C08958F5F809394020E944F1C0895D0
:1038B00083E0809394020E944F1C08950E94521C42
:1038C000089581E0809394020E944F1C08950E9405
:1038D000611C0895089508950E946B1C0895089531
:1038E00008950E946A1C0895CF930E946F1C0E9445
:1038F000A3110E94701CC0E08C2F0E94D110892B54
:1039000031F4CF5FC630C1F780E0CF91089581E0F8
:10391000FCCF85B7806885BF85B7806885BF08956F
:103920001F921FB61F9211248F939F93AF93BF9343
:1039300080919502811113C08091BA029091BB02CF
:10394000A091BC02B091BD024196A11DB11D809312
:10395000BA029093BB02A093BC02B093BD02BF9188
:10396000AF919F918F911F901FBE1F9018958091CE
:10397000C202843031F10E940B041092950288E15A
:1039800090E020E40FB6F894A895809360000FBEF5
:103990002093600083B7817F846083BF83B7816099
:1039A00083BF7894889583B78E7F83BF0FB6F894D2
:1039B000A8958091600088618093600010926000FB
:1039C0000FBE08950E947B070E941004089582E0B4
:1039D00084BD93E095BD9AEF97BD80936E000895E6
:1039E0002FB7F8948091BA029091BB02A091BC02CB
:1039F000B091BD022FBF08952FB7F8946091BA021D
:103A00007091BB028091BC029091BD022FBF0895BE
:103A10009C014FB7F8948091BA029091BB02A0919B
:103A2000BC02B091BD024FBF821B930B08957894E6
:103A30001F921FB61F9211248F939F93AF93BF9332
:103A40008091BA029091BB02A091BC02B091BD02DC
:103A50000196A11DB11D8093BA029093BB02A09361
:103A6000BC02B093BD02BF91AF919F918F911F9007
:103A70001FBE1F90189587E797E7909301088093E2
:103A8000000888E19AE00FB6F894A895809360004A
:103A90000FBE90936000FFCF88E19AE00FB6F894D4
:103AA000A895809360000FBE90936000FFCF809137
:103AB0009E020895282FCB01BA013091C202343002
:103AC000D9F42F702093E9002FEF3091E80035FDF5
:103AD00006C035ED3A95F1F700002A95B1F720912F
:103AE000E80025FF09C040E050E00E949F1F809140
:103AF000E8008E778093E8000895BC0143E050E031
:103B000084E00E945A1D0895BC0146E050E084E024
:103B10000E945A1D0895BC0140E250E084E00E94DA
:103B20005A1D0895CF93DF93D82FC92F48E050E056
:103B3000682F792F81E00E945A1D88E0ED2FFC2F1D
:103B4000A6E9B2E001900D928A95E1F7DF91CF915D
:103B50000895792F603231F440E250E0682F82E01E
:103B60000E945A1D0895A0E2B0E0E9EBFDE10C943B
:103B7000A6248091C202843009F583E08093E90095
:103B80008091E80082FF1AC08091E80090E085FFF4
:103B900009C040E050E060E270E0CE0101960E9472
:103BA000EF1F91E08091E8008B778093E8009115FA
:103BB00029F060E2CE0101960E94D319A096E2E0BE
:103BC0000C94C2248091C102811109C00E94782105
:103BD0000E94D5218091E20084608093E2000895E4
:103BE0001092C10208950E94611C08956091BE0266
:103BF00081E0611101C080E00E94581C08959091FD
:103C0000C20281E0943009F080E06091BE020E941F
:103C10005E1C089542E061EC81E00E94F42042E2E3
:103C200061EC84E00E94F42042E261EC82E00E94B8
:103C3000F42042E260EC83E00E94F4209091C20202
:103C400081E0943009F080E06091BE020E94521C35
:103C500008958091C402893089F148F4823009F4D2
:103C6000A1C0833009F45BC0813041F008958A30EF
:103C700009F488C08B3009F46DC008958091C302A7
:103C8000813A09F04BC08091E800877F8093E8007B
:103C90008091C7029091C802892B61F060E080E0BA
:103CA00090E070E00E943F208091E8008B77809345
:103CB000E800089568E086E992E0F3CF8091C302BE
:103CC000813261F58091C7029091C8028D7F892B66
:103CD00029F58091E800877F8093E8008091E800D3
:103CE00082FF18C09091F3008091F200029731F4A6
:103CF0008091F100813011F0863021F48091F10043
:103D000080939E028091E8008B778093E8000E9468
:103D1000282108958091C2028111E0CF08958091F9
:103D2000C302813AD9F78091C7029091C802892BCA
:103D3000A9F78091E800877F8093E8008091E800F0
:103D400080FFFCCF809119018093F1008091E80001
:103D50008E77DBCF8091C302813201F78091C70259
:103D60009091C802892BD1F68091E800877F8093DB
:103D7000E8000E9428218091C502809319010E94C9
:103D80007B0708958091C302813241F68091E8005B
:103D9000877F8093E8000E9428218091C60280934B
:103DA0009F0208958091C302813A09F0B7CF8091B4
:103DB000E800877F8093E8008091E80080FFFCCFD7
:103DC00080919F02C1CF84B7877F84BF0FB6F894DC
:103DD000A8958091600088618093600010926000D7
:103DE0000FBE80E890E00FB6F89480936100909346
:103DF00061000FBE0E94671C08950E9478210E94F6
:103E0000D521E2EEF0E080818460808378940E9486
:103E10005B2408958FE091E00E94A21A089580919A
:103E2000C202853031F48091C202853019F00E94BF
:103E3000E21C08950E94B71C0E94741C811599F31E
:103E40008091C002811579F30E94891F0E947B072F
:103E5000EACF08959A014091C9025091CA020E9486
:103E6000321F0895FC01AB01D901892F99278330B6
:103E70009105C1F068F48130910509F445C00297BD
:103E800061F48BE590E024EC33E02D933C930895AE
:103E900081329105E1F0829739F180E090E020E0F5
:103EA00030E0F3CFCF019927E13059F0823091050E
:103EB00059F0E0ECF3E0892B81F7849190E09F01C9
:103EC000E4CFECEAF3E0F9CFECE9F3E0F6CF6330CE
:103ED000710518F7FB01EE0FFF1FEF55FE4F208114
:103EE000318189E090E0D1CF63307105B0F6FB01FC
:103EF000EE0FFF1FE556FE4F2081318148565E4F81
:103F0000FA01808190E0C1CF82E190E02FE134E0BE
:103F1000BCCF80E189BD82E189BD09B400FEFDCF3F
:103F20008091D8008F7D8093D8008091E0008260DE
:103F30008093E0008091E00081FDFCCF0895AF9276
:103F4000BF92CF92DF92EF92FF920F931F93CF9386
:103F50006C018B017A010E944721C82F811123C077
:103F6000E114F10439F0F70180819181081B190BEC
:103F7000C80ED91EA12CB12C01151105A1F08091FC
:103F8000E80085FD21C08091E8008E778093E800ED
:103F9000E114F10499F0F701808191818A0D9B1D54
:103FA00091838083C5E08C2FCF911F910F91FF905B
:103FB000EF90DF90CF90BF90AF9008950E9447217F
:103FC0008115E9F2C82FEFCFF60181916F0180933F
:103FD000F10001501109FFEFAF1ABF0ACDCFAF9228
:103FE000BF92CF92DF92EF92FF920F931F93CF93E6
:103FF0006C018B017A010E944721C82F811123C0D7
:10400000E114F10439F0F70180819181081B190B4B
:10401000C80ED91EA12CB12C01151105A1F080915B
:10402000E80085FD21C08091E8008B778093E8004F
:10403000E114F10499F0F701808191818A0D9B1DB3
:1040400091838083C5E08C2FCF911F910F91FF90BA
:10405000EF90DF90CF90BF90AF9008950E944721DE
:104060008115E9F2C82FEFCF8091F100F60181931D
:104070006F0101501109FFEFAF1ABF0ACDCFFC014C
:104080009B018091C9029091CA028617970718F088
:10409000672B61F0C90140E0009771F441110CC039
:1040A0008091E80082FF35C080E008958091E800AB
:1040B0008E778093E800EECF2091C2022115A9F1FE
:1040C0002530A9F12091E80023FD2DC02091E800C2
:1040D00022FDE6CF2091E80020FFDECF3091F300F3
:1040E0002091F200009719F02830310558F041E096
:1040F0002830310509F040E02091E8002E77209328
:10410000E800CACF41914093F10001972F5F3F4FE4
:10411000E9CF8091C202811541F0853041F0809154
:10412000E80083FFBDCF81E0089582E0089583E039
:104130000895FC019B018091C9029091CA028617E3
:10414000970718F0672B61F0C90140E0009771F400
:1041500041110CC08091E80082FF36C080E00895D4
:104160008091E8008E778093E800EECF2091C20224
:104170002115B1F12530B1F12091E80023FD2EC0C9
:104180002091E80022FDE6CF2091E80020FFDECF5D
:104190003091F3002091F200009719F0283031059A
:1041A00058F041E02830310509F040E02091E80066
:1041B0002E772093E800CACF44914093F1003196C6
:1041C00001972F5F3F4FE8CF8091C202811541F0E8
:1041D000853041F08091E80083FFBCCF81E00895F5
:1041E00082E0089583E00895982F973028F08F702B
:1041F0008093E90081E008959093E900242F762FC1
:1042000050E0981731F07091EC002091ED00509142
:10421000F00021FD02C09F5FE8CF3091EB003E7FB0
:104220003093EB003091ED003D7F3093ED00309105
:10423000EB0031603093EB007093EC002093ED00C5
:104240005093F0002091EE0027FDE5CF80E0089527
:104250008091C30287FF13C08091E80082FF06C0EF
:104260008091E8008B778093E80008958091C202E6
:104270008111F2CF08958091C2028115D9F3809106
:10428000E80080FFF8CF8091E8008E77ECCF209196
:10429000E4003091E50095E6A9012091EC00822F21
:1042A000817020FF06C08091E80080FF06C080E09A
:1042B00008952091E80022FD1AC08091C202811564
:1042C00089F0853089F08091EB0085FD0FC0209149
:1042D000E4003091E50042175307F9F29A95E1F6B0
:1042E00084E0089582E0089583E0089581E00895D0
:1042F0000E94E7210E94EF21E0EEF0E080818160E2
:104300008083E8EDF0E080818F77808319BCA7ED92
:10431000B0E08C918E7F8C9380818F7E8083109211
:10432000C10208950F931F93CF93DF930E94E7215B
:104330000E94EF21C8EDD0E088818F778883888143
:104340008068888388818F7D888319BC1092C2021F
:104350001092BE021092C0021092BF0200EE10E056
:10436000F80180818B7F808388818160888342E02F
:1043700060E080E00E94F420E1EEF0E080818E7F3A
:104380008083E2EEF0E080818160808380818860BC
:104390008083F80180818E7F80838881806188831B
:1043A000DF91CF911F910F910895E8EDF0E08081AA
:1043B0008F7E8083E7EDF0E080818160808384E000
:1043C00082BF81E08093C1020E9492210895E8EDAE
:1043D000F0E080818E7F80831092E2000895109239
:1043E000DA001092E10008951F920F920FB60F921B
:1043F00011242F933F934F935F936F937F938F93EA
:104400009F93AF93BF93EF93FF938091E10082FF5F
:104410000BC08091E20082FF07C08091E1008B7F9A
:104420008093E1000E945A248091DA0080FF19C035
:104430008091D80080FF15C08091DA008E7F809334
:10444000DA008091D90080FF94C080E189BD82E1CB
:1044500089BD09B400FEFDCF81E08093C2020E94B5
:10446000E21D8091E10080FF19C08091E20080FF91
:1044700015C08091E2008E7F8093E2008091E2007F
:1044800080618093E2008091D80080628093D800A0
:1044900019BC85E08093C2020E94F61D8091E10064
:1044A00084FF29C08091E20084FF25C080E189BD9E
:1044B00082E189BD09B400FEFDCF8091D8008F7DD7
:1044C0008093D8008091E1008F7E8093E1008091FD
:1044D000E2008F7E8093E2008091E2008160809311
:1044E000E2008091BE02811509F449C084E0809306
:1044F000C2020E94FF1D8091E10083FF29C08091CC
:10450000E20083FF25C08091E100877F8093E10076
:1045100082E08093C2021092BE028091E1008E7F01
:104520008093E1008091E2008E7F8093E200809191
:10453000E20080618093E20042E060E080E00E945F
:10454000F4208091F00088608093F0000E94F31DB9
:10455000FF91EF91BF91AF919F918F917F916F915B
:104560005F914F913F912F910F900FBE0F901F9031
:10457000189519BC1092C2020E94F01D72CF809152
:10458000E30087FF02C083E0B2CF81E0B0CF1F928B
:104590000F920FB60F921124EF92FF920F931F9379
:1045A0002F933F934F935F936F937F938F939F933B
:1045B000AF93BF93CF93EF93FF9309EE10E0F80111
:1045C0008081C091EC008F70C795CC27C795C82B10
:1045D000108280EFE82EF12CF7018081877F8083A5
:1045E00078940E941223F8011082F701808188607C
:1045F0008083CF70F801C083FF91EF91CF91BF917D
:10460000AF919F918F917F916F915F914F913F916A
:104610002F911F910F91FF90EF900F900FBE0F9071
:104620001F901895AAE2B0E0E8E1F3E20C94A4240C
:1046300083EC92E0FC0101962091F100208322E0BE
:104640008B3C9207B9F70E94291E8091E80083FFF6
:1046500038C08091C3029091C4029A3090F5E92F3E
:10466000F0E0EA55FA4D0C948924803889F08238BC
:1046700041F58091C7028F70873018F58093E9006B
:104680008091EB0085FB882780F91092E90006C035
:104690008091C002880F9091BF02892B9091E80011
:1046A000977F9093E8008093F1001092F100809141
:1046B000E8008E7723C0811116C08091C502813039
:1046C00011F18091E80083FF0AC08091E800877FA4
:1046D0008093E8008091EB0080628093EB00AA96C3
:1046E000E4E00C94C024823061F78091C50281150A
:1046F00089F01092E9008091E800877F8093E800BC
:104700000E942821DECF81E0933009F080E0809381
:10471000C002EFCF8091C7028F702FEF280F263095
:1047200080F68093E9002091EB0020FFE2CF9330E8
:1047300031F48091EB0080628093EB00DACF9091AE
:10474000EB0090619093EB0021E030E0A90102C002
:10475000440F551F8A95E2F74093EA001092EA0051
:104760008091EB008860E8CF8111ABCF1091C5023A
:104770001F778091E3008078812B8093E300809104
:10478000E800877F8093E8000E9428218091E8005C
:1047900080FFFCCF8091E30080688093E30083E09A
:1047A000111101C082E08093C2028BCF8058823009
:1047B00008F087CF8091C5029091C6028C3D53E0EE
:1047C000950799F583E08A838AE289834FB7F89445
:1047D000DE01139620E03EE051E2E32FF0E050933B
:1047E0005700849120FF03C082958F703F5F8F70C8
:1047F0008A30C8F0895C90E08D939D932F5F2431BF
:1048000061F74FBF8091E800877F8093E8006AE2FC
:1048100070E0CE0101960E943F208091E8008B77E6
:104820008093E8004ECF805DE6CF6091C702709123
:10483000C802AE014F5F5F4F0E942A1F8C01892B77
:1048400009F43FCF8091E800877F8093E800B801AA
:1048500089819A810E949920E0CF803809F031CF78
:104860008091E800877F8093E8008091BE0280936A
:10487000F1001DCF811125CF9091C502923008F033
:1048800020CF8091E800877F8093E8009093BE025C
:104890000E9428218091BE02811531F084E080932E
:1048A000C2020E940A1E0DCF8091E30087FDF6CF61
:1048B00081E0F5CF0895CF938091C202811599F0E0
:1048C0008091E900C091EC008F70C795CC27C79507
:1048D000C82B1092E9008091E80083FD0E9412230A
:1048E000CF70C093E900CF91089597FB072E16F47F
:1048F000009407D077FD09D00E94CD2407FC05D095
:104900003EF4909581959F4F0895709561957F4FE6
:104910000895EE0FFF1F0590F491E02D099469278B
:104920009627692778278727782708952F923F921F
:104930004F925F926F927F928F929F92AF92BF92AF
:10494000CF92DF92EF92FF920F931F93CF93DF935B
:10495000CDB7DEB7CA1BDB0B0FB6F894DEBF0FBEB8
:10496000CDBF09942A88398848885F846E847D8405
:104970008C849B84AA84B984C884DF80EE80FD8007
:104980000C811B81AA81B981CE0FD11D0FB6F8947D
:10499000DEBF0FBECDBFED010895AA1BBB1B51E1C9
:1049A00007C0AA1FBB1FA617B70710F0A61BB70B9F
:1049B000881F991F5A95A9F780959095BC01CD0144
:1049C0000895FB01DC0104C08D910190801921F450
:1049D00041505040C8F7881B990B0895FB01DC013A
:1049E00002C001900D9241505040D8F70895F999B6
:1049F000FECF92BD81BDF89A992780B50895A8E1B0
:104A0000B0E042E050E00C943B25DC01A40FB51F60
:104A10004150504048F0CB01840F951F2E910E94C9
:104A2000162541505040D0F70895262FF999FECF12
:104A300092BD81BDF89A019700B4021639F01FBAF1
:104A400020BD0FB6F894FA9AF99A0FBE089503960E
:104A5000272F0E9416250E941525252F0E94162516
:104A6000242F0C9416250196272F0E9416250C94AE
:104A70001525DC01CB01FC01F999FECF06C0F2BD82
:104A8000E1BDF89A319600B40D9241505040B8F70C
:104A90000895F894FFCF7A057A05C105C105260669
:104AA0004306A905A9054806B506C606C60670143C
:104AB000E1147814421446147C144A1480148C14A3
:104AC0005614DA145A1490145E149414B91462141F
:104AD0009814C01468149E14A6144E14841452140E
:104AE00088146C14A214B014C914D8143C1474148F
:104AF000E81487158D1590159615AB15AB15AB15EC
:104B0000AB15AB15AB15AB15AB1599159E15A215CD
:104B1000A815B915BF15C315F018F618DF18EA184F
:104B2000FC1802190819E919F8192C1A3E1A491A21
:104B3000541A571A571A571A001A001A5C1A601A90
:104B4000681A751A821A851A881A951A35235B23F2
:104B500061235B236123B423D62361232D243A24CC
:104B600039025902280850011E0A14010302015794
:104B70001D921D8B1D841D7D1D01E200E900EA00D0
:104B8000B500B600B700CD008301CC008A019201C8
:104B900094012102230224022502260227022A026E
:104BA000B300B4006F0070009F01CB019F02A00210
:104BB000E200E900EA00B500B600B700CD008301CD
:104BC000CC008A01920194012102230224022502D1
:104BD000260227022A02B300B4006F0070009F0172
:104BE000CB019F02A00266949091929397C63534B0
:104BF0003236F73133F6F5F44422B6090531045361
:084C000004D603EF030F0400CA
:00000001FF
