:100000000C94A7020C94C4020C94C4020C94C40275
:100010000C94C4020C94C4020C94C4020C94C40248
:100020000C94C4020C94C4020C94BA220C948D2338
:100030000C94631D0C94C4020C94C4020C94C4026E
:100040000C94C4020C94C4020C94C4020C94C40218
:100050000C94C4020C94DB1D0C94C4020C94C402D6
:100060000C94C4020C94C4020C94C4020C94C402F8
:100070000C94C4020C94C4020C94C4020C94C402E8
:100080000C94C4020C94C4020C94C4020C94C402D8
:100090000C94C4020C94C4020C94C4020C94C402C8
:1000A0000C94C4020C94C4020C94C40235000000E9
:1000B0000000000000000000000000000000000040
:1000C00000004C001E001F00200021002200230021
:1000D00024002500260027002D002E002B001400F0
:1000E0001A000800150017001C0018000C00120070
:1000F00013002A00290004001600070009000A0066
:100100000B000D000E000F0033003400E1001D0055
:100110001B00060019000500110010003600370012
:1001200038001E7CE000E300007EE2002152000067
:100130002C0022525000510052004F0001000000DC
:1001400000000000000000000000000000000000AF
:10015000000001003A003B003C003D003E003F0033
:1001600040004100420043004400450001000100FE
:100170005200010001005F00600061000100010009
:100180002F0030003900500051004F0001005C008A
:100190005D005E000100010001003100010001006E
:1001A00001000100010059005A005B00010001003C
:1001B0000100280001000100010001000100000011
:1001C000620063004A004E004B004D000100000039
:1001D000000000000000000000000000000000001F
:1001E0000000010001000100010001000100010008
:1001F000010001000100A800AA00A90001000100FF
:1002000001000100010001000100010001000100E6
:100210002F00300001000100010001000100010079
:100220000100010001000100010031000100010096
:1002300001000100010001000100010001000100B6
:10024000010028120100010001000100010000006E
:10025000010001000100010001002811010000005F
:10026000000000000000000000000000000000008E
:100270000000010001000100010001000100010077
:100280000100010001000100010001000100010066
:100290000100010001000100010001000100010056
:1002A0000100010001000100010001000100010046
:1002B0000100010001000100010001000100010036
:1002C0000100010001000100010001000100010026
:1002D0000100010001000100010001000100000017
:1002E0000100010001000100010001000000000008
:1002F000000000002A2B2800000000000000000081
:100300000000000000000029000000002C1E342026
:10031000212224342627252E362D3738271E1F204C
:100320002122232425263333362E37381F04050691
:100330000708090A0B0C0D0E0F10111213141516D5
:100340001718191A1B1C1D2F3130232D35040506D3
:100350000708090A0B0C0D0E0F10111213141516B5
:100360001718191A1B1C1D2F3130354C00000000C6
:10037000000000000000000000000000000000007D
:10038000000000000000000000000000000000006D
:100390007E0F00D4FFFFFFC7000000780E034B0064
:1003A000720074006B00750073000000120373008C
:1003B00077006900660074003500300032000000EC
:1003C0000403090409025B00030100A0FA09040008
:1003D000000103010100092111010001224400076D
:1003E000058103080001090401000203000000095F
:1003F00021110100012222000705820320000107CC
:1004000005030320000109040200010300000009A4
:10041000211101000122B60007058403200001120A
:1004200001000200000008424A1616000101020005
:10043000010660FF0961A1010962150026FF009510
:1004400020750881020963150026FF0095207508B4
:100450009102C005010902A10185020901A100055F
:100460000919012908150025019508750181020562
:1004700001093009311581257F950275088106092A
:10048000381581257F950175088106050C0A38020B
:100490001581257F950175088106C0C00501098079
:1004A000A101850319012AB700150126B70095019E
:1004B00075108100C0050C0901A101850419012AEC
:1004C000A002150126A002950175108100C005014A
:1004D0000906A1018506050719E029E71500250190
:1004E0009508750181020507190029EF15002501FE
:1004F00095F0750181020508190129059505750119
:100500009102950175039101C005010906A101053C
:100510000719E029E7150025019508750181029565
:1005200001750881010507190029FF150026FF0044
:100530009506750881000508190129051500250192
:10054000950575019102950175039101C000112473
:100550001FBECFEFDAE0DEBFCDBF11E0A0E0B1E01B
:10056000ECEEFCE402C005900D92AA3AB107D9F76F
:1005700022E0AAEAB1E001C01D92AA3CB207E1F76D
:100580000E94C2120C940F260C940000FC01862FCE
:100590009581911519F00E94E30408950E942B059E
:1005A00008950F931F93CF93DF938C01EB010E946B
:1005B000610C982F92720630110541F101152EE75A
:1005C000120741F005301105C9F0BE01C8010E94B3
:1005D00037030FC0817168EA70E0811106C06AEAD2
:1005E00070E0911511F069EA70E0CE010E94C60238
:1005F00080E0DF91CF911F910F9108958D8181153A
:1006000021F3923211F70E94DE03F2CF8D81811522
:10061000E1F29232D1F60E94300E0E94E403E8CF5C
:100620008430B8F46630A8F44C3098F4E42FF0E04D
:100630009CE0699FE00DF11D112498E4899FE00D75
:10064000F11D1124EE0FFF1FE455FF4F859194918A
:10065000089581E090E0089581E0089581E0089593
:100660000E942C03089581E0089581E0089581E0BF
:100670000895089508950E943903089508950895EE
:10068000A6E0B0E0E6E4F3E00C946B2549835A83DE
:100690009E833091B10189819A8131111AC03E81C6
:1006A000311599F0211589F00E941D09182F682F26
:1006B00089819A810E94F90869817A81812F0E943B
:1006C00051102696E3E00C9487250E940B09182F01
:1006D000F3CF0E941D0969817A81F1CFFC01262F99
:1006E0004081518162817381848195810E944003A0
:1006F0000895CF93DF93D82FC92F61E00E946E0336
:100700006D2F7C2F0E942E03811549F061E08D2F03
:100710009C2F0E946E036D2F7C2F0E943003DF916F
:10072000CF9108950F931F93CF93DF93D82FC92FA5
:1007300060E00E946E038C016D2F7C2F0E943A03B3
:100740006D2F7C2FC8010E943B03DF91CF911F9139
:100750000F91089591E001C0990F8A95EAF7892FCA
:100760000E943B080895CF93C82F81E00C2E01C052
:10077000880F0A94EAF70E94A50D8C2F0E94AA0305
:10078000CF91089581E0089581E008950E94C20309
:100790000895CF93C82F0E94E7078C2F0E94C403AF
:1007A0008C2F0E94C6032FEF84E39CE021508040F1
:1007B0009040E1F700C00000CF91089581E00E94D1
:1007C000C9030E94FF1D089580E00E94C9030E9492
:1007D000101E08950F931F93CF93DF938C0161E058
:1007E0000E946E03EC01B8010E943503811509F4E3
:1007F00050C0B801CE010E94D102811509F449C050
:10080000B801CE010E942F1A811509F442C0B80127
:10081000CE010E9449198115E1F1B801CE010E9473
:1008200082148115B1F1B801CE010E9457148115CF
:1008300081F1B801CE010E948B19811551F1B801E7
:10084000CE010E945411811521F1F8018581811595
:1008500081F0CA35FCE7DF0739F178F4C130ECE705
:10086000DE07F9F0C330FCE7DF07C9F0C115DC474C
:1008700071F0C8010E9433030DC0CB35ECE7DE07F1
:10088000B1F0CC35DC47A9F70E94770DF2CF0E947A
:10089000DE0380E0DF91CF911F910F9108950E94B8
:1008A000880D0E94E403F5CF0E94800DE2CF0E94E4
:1008B000840DDFCF0E943E030E94351D0E947E04FE
:1008C00008950E9482040E943F030E943A1D0895E9
:1008D00081E008950895CF93DF93D82F0E94680494
:1008E000C82F811519F08D2F0E946A048C2FDF917B
:1008F000CF91089508950E946B04089580E00E94AE
:100900007B0408950E941D1B0E947B040895CF93D1
:100910000E941D1BC82F8091AC018C1779F0C093E9
:10092000AC010E94CF1D6093AD017093AE01809326
:10093000AF019093B0018C2F0E947B04CF9108955A
:10094000ADE0B0E0E6EAF4E00C946C254887598706
:100950006A877B878C879D8791110E94830C1F82F9
:1009600086E0FE013896DE01119601900D928A957F
:10097000E1F78D8181110DC029813A814B815C8124
:100980006D817E818F810E94CD0B2D96E2E00C94CB
:100990008825CE0101960E9479038111EDCFF5CF14
:1009A000FC018481813021F4808191810E9446097B
:1009B0000895611529F00E94E8150E94A91608956E
:1009C0000E943116FACFCF93C82F811599F08CEF82
:1009D0008C0F813A88F48C2F0E94C11B811529F05D
:1009E0008C2F0E946A1C0E94190D8C2F0E94501C93
:1009F0000E94190DCF91089580E28C0F883048F441
:100A0000C77081E001C0880FCA95EAF70E94640CA4
:100A1000EFCF8BE58C0F833038F42C2F2452330B1F
:100A2000C9010E94531BE6CFE8E5EC0FEB3150F40F
:100A3000F0E0EE0FFF1FE35EFE4F808191810E9488
:100A4000791BD8CF83E38C0F8331A0F661E08C2F24
:100A50000E94D904CFCF811581F19CEF980F913A74
:100A600028F40E946A1C0E94190D089590E2980FC4
:100A7000983050F4877091E001C0990F8A95EAF799
:100A8000892F0E946A0CEFCF9BE5980F933028F4D2
:100A900080E090E00E94531B089598E5980F9B31E9
:100AA00028F480E090E00E94791B089593E3980F6A
:100AB000933118F460E00E94D90408950F931F93B6
:100AC000CF93C82F8B010E94E3040115110539F45F
:100AD0008C2F0E942B05CF911F910F9108958FE9C4
:100AE0009FE00197F1F700C0000001501109EDCF20
:100AF00060E570E0893311F068E270E00E945E0505
:100B00000895811521F00E94640C0E94190D08952A
:100B1000811521F00E946A0C0E94190D0895A0E031
:100B2000B0E0E5E9F5E00C9466256C01D62FC72FFF
:100B3000FC011581F680F2948FE0F8220E94590C96
:100B4000E82E8115F9F0E12E1115E1F08C2F807F50
:100B5000803461F080E28D0F8830F8F08C2F807E39
:100B6000803221F4D230C8F0F114B9F08091A002A3
:100B700082FF13C082E00E944A0D0E94590C91E04E
:100B8000E82EE926EC2FE295EF70C03C08F065C036
:100B9000F0E0EF5EF94D0C944F25E12CF3CF0C2FD4
:100BA0000F70C03110F00295007F111599F00115FA
:100BB00059F080E28D0F883010F0D11107C0802FDE
:100BC0000E94640C0E94190D8D2F3FC0802F0E943F
:100BD000750CF8CF8D2F0E942B050115F1F180E2E5
:100BE0008D0F883010F0D11104C0802F0E946A0C44
:100BF00003C0802F0E947B0C0E94190D2EC00C2F69
:100C00000F70C07FC03211F00295007FD11579F0CE
:100C1000D13009F452C0111509F45CC0F114B1F1DE
:100C2000F601868180FFD0CF8F7086832FC08091A0
:100C3000A00282FD27C0111559F0011529F0802F5F
:100C40000E94640C0E94190D80E00E94E30405C01C
:100C500080E00E942B050111C8CFE11409F4A3C064
:100C60000E94550C80FD9FC0F60115820E944F0C1A
:100C70000E946808C6010E94AE070E944F0C0E94A5
:100C8000740891C0111569F0F11004C0802F0E9402
:100C90008105E3CFF1E0FF12E0CF802F0E949B0C93
:100CA000DCCFF110DACF802F0E948805802F0E94C0
:100CB000A70C802F0E948A0CD0CF111521F026E0BE
:100CC000F21658F6E3CF85E0F81638F6802F0E942A
:100CD0008805C3CFF114D1F3D93369F4FFEF27EEC0
:100CE00083E0F15020408040E1F700C000008D2FEC
:100CF0000E942B05B2CF9FEFE3EFF1E09150E0406F
:100D0000F040E1F7F2CF8C2F8695869583708115A0
:100D100069F0813009F0A1CF8D2F9C2F93701111B4
:100D200002C080E090E00E94791B97CF8D2F9C2F0E
:100D30009370111102C080E090E00E94531B8DCF90
:100D4000612F8D2F0E94D90488CF8C2F8370811141
:100D500038C0111124C04D2F429546954770440F5D
:100D6000440F8D2F8F70042E01C0880F0A94EAF76C
:100D70002D2F2071D4FF07C02FE030E001C0220FDB
:100D80004A95EAF72095C695C695C370822BC23066
:100D900091F0C33099F0C13059F00E9444080E948C
:100DA0001D1B0E947B04CDB7DEB7E8E00C948225C2
:100DB0000E943E08F4CF0E944A08F1CF0E943B08EF
:100DC000EECF111539F1C0FFEACF4D2F4295469570
:100DD0004770440F440F8D2F8F70042E01C0880F71
:100DE0000A94EAF72D2F2071D4FF07C02FE030E0DE
:100DF00001C0220F4A95EAF72095C695C695C370A3
:100E0000822BC23069F0C33071F0C13031F00E94E2
:100E10009608C5CF823018F2D8CF0E949008BFCF75
:100E20000E949C08BCCF0E945608B9CFCF70111504
:100E300039F08C2F0E9468088D2F0E948105AFCF5A
:100E40008D2F0E9488058C2F0E947408A8CFD23F56
:100E500051F170F4D03FC9F0D13F91F0111509F470
:100E600049C0F11409F443C08D2F0E94E30497CFC9
:100E7000D33F01F1D43F91F78091A00282FD24C0BD
:100E80008C2F8F71111501F312C0111549F025E057
:100E9000F21608F084CF8C2F8F710E9484087FCFC8
:100EA00086E0F816F6CF8C2F8F711111CDCF0E94EE
:100EB000680875CF111529F08C2F8F710E945F087B
:100EC0006ECF0E945B086BCF111531F063E08C2F61
:100ED0008F710E942B0D63CF81E00E944A0D92E03A
:100EE000F91608F45CCF82E00E944A0D58CF8C2F8F
:100EF0008F71DDCFF114B9F0D93369F4EFEFF7EE6C
:100F000023E0E150F0402040E1F700C000008D2FC9
:100F10000E942B0544CF8FEF93EFE1E0815090408A
:100F2000E040E1F7F2CF8C2F8F718ECF0F931F939C
:100F3000CF93DF93EC01688179818D810E94530901
:100F40008C010E94A2080E943A08B801CE010E94BA
:100F50008F05DF91CF911F910F910895CF93DF936C
:100F6000EC018C81811599F0CE010E94EA03811178
:100F700011C00E94590C811551F08D81811539F0F5
:100F80008091A00282FF03C082E00E944A0DDF919F
:100F9000CF910895CE010E949607CE010E94920340
:100FA000F6CF80E090E00E94531B80E090E00E942A
:100FB000791B0E94830C0E94190D0E94C6160E9484
:100FC000A91608950E94841C0E94D10708950E94CA
:100FD000720C0E94E2070895282F92959F70963018
:100FE00099F060F4925F9F70923030F4203FB1F03E
:100FF00038F481E0283E38F080E008959A5FF3CF1E
:1010000081E0243FC9F7089591E0813F09F090E025
:1010100081E0283E08F080E0892B089581E0089562
:10102000FC018481811539F0808191810E944609FB
:101030000E94EC07089580E00895A6E0B0E0E3E2A6
:10104000F8E00C946C252696E2E00C948825A7E045
:10105000B0E0EDE2F8E00C946C252796E2E00C9409
:10106000882508950E94310808950E9432088093CF
:10107000CE01089508950E94350808959091CE01FB
:10108000892B0E94350808959091CE0189230E94F2
:10109000350808959091CE0189270E94350808955A
:1010A0000E94310808950E94500808950E94530834
:1010B0008093CD01089580E00E945608089591E044
:1010C00001C0990F8A95EAF7892F0E945608089562
:1010D00021E030E001C0220F8A95EAF78091CD012E
:1010E000822B0E945608089521E030E0A90102C039
:1010F000440F551F8A95E2F7CA0180959091CD0162
:1011000089230E945608089521E030E001C0220F93
:101110008A95EAF78091CD0182270E9456080895AA
:101120009091CD01892B0E94560808959091CD0190
:1011300089230E94560808959091CD0189270E9425
:101140005608089508959B01677091E001C0990FBA
:101150006A95EAF763E0369527956A95E1F7B90154
:10116000660F771F260F371FFA01E20FF31F40E0CB
:1011700050E0682F70E08191DF019B01042E02C0D6
:10118000369527950A94E2F721702195282729237F
:1011900028272E934F5F5F4F4330510561F7089525
:1011A0009C01A82FA77083E0369527958A95E1F7D3
:1011B000C901880F991F820F931FFB01E80FF91FC8
:1011C00040E050E080E0219130E00A2E02C03695E8
:1011D00027950A94E2F721703327042E01C0220FCD
:1011E0000A94EAF7822B4F5F5F4F4330510559F75E
:1011F0000895282F862F963068F42C3058F4622FEB
:1012000070E02CE0929F600D711D112442EB51E0C3
:101210000E94A3080895292F963068F48C3058F462
:1012200090E062EB71E03CE0239F800D911D112462
:101230000E94D008089580E00895A0E0B0E0E3E2C5
:10124000F9E00C9467257C010091CD018091CE01DD
:10125000082BC3E0D0E010E0C8010C2E02C0959529
:1012600087950A94E2F780FD09C02197A8F7D12C51
:101270008D2DCDB7DEB7E7E00C948325DC2EB701CA
:101280008C2F0E945D10019781F3F2CFCF93DF93F3
:10129000D82FC92F0E941D096D2F7C2F0E945D1031
:1012A000DF91CF9108951F93CF93DF93162FD72F00
:1012B0009091B101911541F0862F972F0E94460918
:1012C000DF91CF911F910895811581F0862F972F7F
:1012D0000E941D09C82F682F812F9D2F0E94F90899
:1012E000612F7D2F8C2F0E945D10EACF862F972FC4
:1012F0000E940B09C82FF4CFE1E0F0E0DF0102C04B
:10130000AA0FBB1F6A95E2F7BD01DF0102C0AA0F59
:10131000BB1F4A95E2F76A2B01C0EE0F2A95EAF748
:10132000962F9823961302C08E2B0895E0958E2356
:101330000895242F462F682F8091CD010E947C09AB
:101340000E94560808950F931F93CF93E091CF0109
:10135000C7E08091D0018E1304C0CF911F910F91EF
:1013600008950E2F10E0CE9FF0011124EF52FE4F92
:1013700020813181428153816481758186810E94FF
:101380002708F8013196E770E4CF209109023091E7
:101390000A0240910B0250910C0260910D02709173
:1013A0000E0280910F020E942708089580910F027B
:1013B000803178F480910E02811559F0E091CF01CF
:1013C0002091D00130910A024091090257E02E137A
:1013D00001C008956E2F70E05E9FF0011124DF01BF
:1013E000AF52BE4F14968C911497811561F11196EE
:1013F0008C911197831327C08C91841324C0159668
:101400008C91159781111FC012968D919C91A0917E
:101410000B02B0910C028A1B9B0B883C910598F43F
:1014200080910F028F70806180930F02E952FE4F0E
:1014300080818F708061808389E092E00E94AE0796
:101440000E94A3090895FB013196E770C0CFE09197
:10145000CF019091D00127E0E91302C080E0089508
:10146000AE2FB0E02E9FF0011124EF52FE4F3181DC
:10147000361306C03081381303C03581341304C0DD
:10148000FD013196E770E8CF81E008958F929F9239
:10149000AF92BF92DF92EF92FF920F931F93CF9381
:1014A000DF93CDB7DEB72D970FB6F894DEBF0FBE32
:1014B000CDBF8C0186E0F801DE01189601900D92F7
:1014C0008A95E1F7D8011596FC90159714968C91A2
:1014D00099E0892E92E0992E90910D0291111BC0F6
:1014E000811509F409C1F11409F44AC1C8010E9427
:1014F0001008811509F444C187E0F801D401019076
:101500000D928A95E1F7C4010E94D0040E94D60989
:101510000E94C509F1C0F801E080A280B380D0909C
:101520000E0220910B0230910C02A501421B530BBD
:10153000D11409F4E4C0483C510508F0B4C0811549
:1015400009F4DAC090910A02918080910F028031F3
:1015500008F079C0991229C0909109029E1125C006
:10156000F1105EC08F70806180930F020E94C509E8
:1015700089E092E00E94AE0780910F02D801169692
:101580008C93F12C8F2D2D960FB6F894DEBF0FBEE5
:10159000CDBFDF91CF911F910F91FF90EF90DF9022
:1015A000BF90AF909F908F900895F11039C040E0A8
:1015B000692D8E2D0E94270A40E0692D8E2D0E94F4
:1015C000270AF82E8111DDCF888599850E9446096A
:1015D000292F22952F70903450F49F70223080F084
:1015E000911599F0F8019681903178F4CBCF2A5F6C
:1015F0002F70223078F0C8010E94AE07FD2CC2CFB8
:10160000911519F0811509F4BDCF805E883008F47A
:10161000B9CFF1CF803F08F4B5CF815F8330F7CFEA
:1016200080910F02816080930F0289E092E00E9416
:10163000AE0787E0E9E0F2E0DF011D928A95E9F765
:101640000E94C5099ECF991207C0909109029E1170
:1016500003C0F11409F474C0C8010E941008811578
:1016600009F48EC0F11409F48BC080910F0280320E
:1016700088F02091090230910A023A832983BC82C2
:10168000AB8290910D029D831E828F83CE010196C5
:101690000E94AE0787E0F801A9E0B2E001900D9248
:1016A0008A95E1F733CF90910F02903178F4488515
:1016B00059856A857B858C859D850E941D0889E0FA
:1016C00092E00E94AE0787E0D401B7CF8115A1F068
:1016D00020910A0281812813BFCF809109028E11C7
:1016E000BBCFF110B9CF9683C8010E94AE0787E047
:1016F000D4011D928A95E9F7FF24F39443CF483C27
:10170000510508F041C08115B9F3F114C9F1909168
:101710000A02818198132AC0809109028E1126C085
:1017200080910F0280FD19C08031B8F08683807FE0
:10173000803F39F08681982F907F905F8F70892B42
:101740008683C8010E94AE0787E0F801A9E0B2E0F5
:1017500001900D928A95E1F7DBCE87E0F801A9E0D0
:10176000B2E001900D928A95E1F7C6CFC8010E94C0
:10177000100881118FCF80910F02816080930F023A
:10178000C8010E94AE07B8CF488559856A857B8518
:101790008C859D850E941D0896CFAEE0B0E0E3EDFC
:1017A000FBE00C946B25288739874A875B876C8719
:1017B0007D878E87CE0108960E94460A6C8581152A
:1017C000A9F0611541F0288539854A855B857D85BD
:1017D0008E850E94270817E08091CF019091D0015B
:1017E00089133AC02E96E3E00C94872587E0FE012A
:1017F0003896DE01119601900D928A95E1F76115F8
:1018000051F3A091D0018A2F90E00196877099271B
:101810002091CF012817190689F097E09A9FD001EF
:101820001124AF52BE4FFE01319601900D929A9550
:10183000E1F78093D0010E94A309CDCF0E94E70772
:101840001092D0011092CF0187E0E9E0F2E0DF01D1
:101850001D928A95E9F7BFCF189FC00111248F52BE
:101860009E4F0E94460A811509F4BCCFE091CF013A
:101870001E9FF0011124EF52FE4F208131814281E1
:1018800053816481758186810E9427088091CF01F0
:1018900090E00196877099278093CF019DCF80912A
:1018A00038028695869586950895809138028770CE
:1018B000089590913802977081E0911101C080E005
:1018C000089580916402089590916402982B9093FA
:1018D00064020895982F90958091640289238093E3
:1018E0006402089510926402089590916302982B07
:1018F000909363020895982F9095809163028923B5
:1019000080936302089510926302089508950E94DF
:10191000860C089590913902292F2823211531F042
:1019200080958923809339020E94870C0895089539
:101930000E94970C089590913A02292F2823281786
:1019400029F0982B90933A020E94980C0895909158
:101950003A02292F2823211531F08095892380937D
:101960003A020E94980C089580913A02811529F05C
:1019700010923A0280E00E94980C0895CF93C09193
:10198000640280916302C82B80913A02811531F084
:10199000C82B0E949F1B81110E94B40C8C2FCF91E9
:1019A0000895CF93DF93C0910201D09103010E946B
:1019B000BE0C8883C0910201D091030148E050E041
:1019C00060E372E0CE010E94A725892B59F088E0E0
:1019D000FE01A0E3B2E001900D928A95E1F7CE01FD
:1019E0000E942A1BDF91CF910895CF93DF93C0917E
:1019F0000001D09101010E94BE0C8983C0910001B9
:101A0000D091010140E250E060E172E0CE010E941D
:101A1000A725892B59F080E2FE01A0E1B2E00190F8
:101A20000D928A95E1F7CE010E94351BDF91CF918F
:101A300008950E94101D813039F480919F0287FF24
:101A400003C00E94F50C08950E94D10C08950895DA
:101A50000E94270D0895962F2091A00222FF11C009
:101A6000682F660F660F660F692B609338020E941D
:101A70006808809138028695869586950E94280D83
:101A800008950E94680808951092380280E00E942C
:101A9000280D08959091380280958923809338020B
:101AA000282F277021110DC0891759F09091A0029D
:101AB00092FF07C08695869586950E9474080E94BD
:101AC000440D08959091A00292FB222720F9281737
:101AD00069F080FB92F99093A00280919F0290910F
:101AE000A0020E94B00D82E00E944A0D08958091EC
:101AF000A002002482FF0394802D0E94620D0895AD
:101B000081E00E94620D089580E00E94620D0895B8
:101B10006FEF7FEF80E090E00E94F925089580E06C
:101B200090E00E94C525853E9E4F19F40E94C6197B
:101B3000089580E0089582E090E00E94BD25089518
:101B400083E090E00E94BD250895682F83E090E037
:101B50000E94DB25089584E090E00E94C525089549
:101B6000BC0184E090E00E94F9250895AB01BC011E
:101B70008FE090E00E94ED250895AB01BC0183E168
:101B800090E00E94ED25089560E070E0CB010E9496
:101B9000BD0D089560E070E0CB010E94B60D0E947B
:101BA000C40D0895A8E0B0E0E8EDFDE00C946C25CC
:101BB00065EE7EEF80E090E00E94F92560E082E033
:101BC00090E00E94DB2581E08093CE010E94A50D6C
:101BD00060E074E184E090E00E94F92560E086E036
:101BE00090E00E94DB2560E087E090E00E94DB252A
:101BF00040E050E0BA0188E090E00E94ED2560E00E
:101C000083E290E00E94DB2560E08CE090E00E949F
:101C1000DB2560E08DE090E00E94DB2519821A82CE
:101C20001B821C821D821E821F82188648E050E0A3
:101C300067E170E0CE0101960E94CB2540E050E0C4
:101C4000BA018FE190E00E94ED2580E00E94DF194B
:101C50000E94111A0E94CA0D2896E2E00C94882571
:101C60000E94D20D0895682F8EE090E00E94DB253F
:101C70000895A6E0B0E0EFE3FEE00C946A250E9430
:101C8000C31D8C01809165029091660280179107B7
:101C900079F019821A820E94C31DBC0149815A81C0
:101CA00080E090E00E94A004109366020093650219
:101CB0002696E4E00C9486250E94CF1D609377025F
:101CC000709378028093790290937A026093730202
:101CD000709374028093750290937602089508952C
:101CE00008950E946F0E089508950E94740E0E9438
:101CF000710E089508950E947A0E089508950E9425
:101D00007E0E0E947B0E089582E591E10E94D91219
:101D10000E94700E0E94750E089581E0089581E082
:101D200008950E948D0E08950895089508950E94C3
:101D3000940E0E94950E0E94960E08950E948F0D9B
:101D4000811102C00E94300E0E949B0D80937B0285
:101D50000E94AB0D9093A00280939F020E94FC1200
:101D60000E94A00D0E943B088091CD010E94530863
:101D700008950E94BA1D0E94211A0E942A120E94F0
:101D80009E0E0E947A040E947F0E0895A6E0B0E0A5
:101D9000ECECFEE00C9460250E948F0E81110AC0CD
:101DA0000E94390E0E94E7160E9487042696EEE0F4
:101DB0000C947C250E94401227E6822E22E0922E6F
:101DC000540110E0F501619071905F01812F0E9434
:101DD0006E116C011F5F163009F44AC0681679064F
:101DE00089F380917B0281FD0E9477110E94910E00
:101DF000782E10E066246394812F0E946E117C017E
:101E0000F401A190B1904F018A159B0559F1A826C4
:101E1000BF2400E0CC24C394D12CC5018C219D218A
:101E2000892BC1F07114B1F009831A830E94C31D7C
:101E30009C838B836D8221E0C7018C219D21892B9E
:101E400009F420E049815A816B817C818D81922F38
:101E50000E94A0040F5FCC0CDD1C0C30F1F6F401E5
:101E6000F292E2921F5F163039F60E945C0E9ACF12
:101E70006816790609F0B5CF93CF1F93CF93DF9300
:101E80000E946210EC01811522E5920708F05DC006
:101E9000811540E5940708F0DBC0803E910528F5E8
:101EA0008D3C910508F0ACC0883A910578F4853AEC
:101EB000910508F0A2C08130910509F441C0049752
:101EC000813A9105E8F1C0E0D0E03AC0885A910922
:101ED0004B97C8F7C85AD0E0CC0FDD1FCD5ADE4F64
:101EE0000990D881C02DD4642BC0811550E495078A
:101EF000F8F4C11580E2D80708F0C0C0C83ED1058B
:101F0000F8F0CE019A9581159F41E8F68D2F0E9439
:101F10000311182FCE0199270E946210212F30E063
:101F2000322F2227E901CC27DF71C82BD92B08C01B
:101F300099270E946210CC27DF70C82BD92BD06A5A
:101F4000CE01DF91CF911F910895803842E594072B
:101F5000C8F5803652E5950708F05BC0C03482E5CD
:101F6000D807D0F4C03292E5D90708F04BC08C2FC7
:101F70008695869520E2829FC0011124C37021E0DE
:101F800030E0A90102C0440F551FCA95E2F7EA01EB
:101F9000C82BD92BDD68D4CF8C2F8695869587707A
:101FA00050E2859FC0011124C37021E030E0A901F7
:101FB00002C0440F551FCA95E2F7EA01C82BD92B7E
:101FC000DC68BECF803C52E5950758F48F71C03A6B
:101FD000D245A0F590E0982F8827EC01C46FD06A15
:101FE000AFCF805C9245809708F06DCFDC2FCC2777
:101FF000CC27DF71C06FD06AA3CFA497D064A0CFE5
:10200000D0659ECFCF71D0E0DC2FCC27C16FD06AD6
:1020100097CF86958695877020E2829FC001112414
:10202000C37021E030E0A90102C0440F551FCA95DA
:10203000E2F7EA01C82BD92BDA6882CF0E9403119C
:10204000C82FD0E0DC2FCC27CC27DF71D06278CF2F
:102050008F710E94031153E0CC0FDD1F5A95E1F7F9
:10206000CC27DF70282F30E084FF04C050E1859F2B
:1020700090011124C22BD32BD06962CF8D2F8F7189
:102080000E940311182FCE0199270E946210212F60
:1020900030E0322F222722273F71282B392BE901EC
:1020A000D5CF462F672F763028F44C3018F40E9495
:1020B000C413089580E090E008950E9451100E949A
:1020C0003D0F08959C01803E910509F448C0D8F465
:1020D0008133910509F47DC048F48932910509F4F2
:1020E0006DC08A9709F47CC0C901089589339105B0
:1020F00051F18238910539F1C597B1F780919F026E
:1021000085FFF2CF29C0843E910509F447C048F409
:10211000823E910599F1833E9105A9F121EE30E0CF
:10212000E3CF863E910509F444C0873E9105E1F670
:1021300080919F0283FD61C09091A00291FF2BC00E
:1021400024EE30E0D1CF80919F028370811152C084
:102150008091A00283FFC8CF29E230E0C5CF8091F3
:102160009F0280FD33C09091A00290FFBDCF23EE6F
:1021700030E084FFB9CF20E030E0B6CF80919F02FD
:1021800082FDF5CFB1CF80919F0282FD30C090914A
:10219000A00290FD2FC084FFA7CFEDCF8091A002B9
:1021A00081FFA2CF80919F0227EE30E084FDE3CF34
:1021B0009BCF80919F0283FDF7CF96CF80919F02A6
:1021C00085FD1EC08091A00283FF8ECF29E330E001
:1021D0008BCF80919F0286FF87CF2AE230E084CFA9
:1021E00080919F0286FF80CF21E330E07DCF22EEF9
:1021F00030E07ACF20EE30E077CF26EE30E074CFBB
:1022000025E330E071CF90919F0292FF10C041E032
:10221000282F2471243009F040E031E0282F287164
:10222000283009F030E0431711F02CE0822793FFAB
:1022300010C041E0282F2471243109F040E031E042
:10224000282F2871283109F030E0431711F02CE0D5
:1022500082273091A00230FF10C051E0282F217159
:10226000213009F050E041E0282F2871283009F092
:1022700040E0541711F029E0822731FF10C041E0FF
:10228000282F2171213109F040E031E0282F2871F9
:10229000283109F030E0431711F029E0822794FD3E
:1022A000877E089580E00895CF939C01FB01805EB6
:1022B0009245C1E0809738F4C581C11104C0822FD6
:1022C0008F710E94B3038C2FCF91089508950E94BF
:1022D0006611089508950E946A110895E82FF0E0AC
:1022E000EE0FFF1FE355FD4F808191810895089502
:1022F00080EA8A95F1F7089500C008950E94781148
:102300000895F894E82FE295EF70F0E041A18F7006
:1023100021E030E0B90102C0660F771F8A95E2F72D
:10232000CB01962F9095942391A392A1892B82A300
:1023300078940895CF93DF93C5E9D1E089918F3FD9
:1023400011F00E94811181E0CB39D807B9F7C9E8B3
:10235000D1E089918F3F11F00E94811181E0C53950
:10236000D807B9F7DF91CF9108958F929F92BF92CE
:10237000CF92DF92EF92FF920F931F93CF93DF9351
:102380008C01B62EE62EF12CC7018B569E4F6C01A8
:10239000FC0180818F3F09F451C0F894E82FE29549
:1023A000EF70F0E091A18F7021E030E001C0220FCA
:1023B0008A95EAF7892F822B81A382A12095282371
:1023C00022A378940E947C11E9E8F1E021E030E05A
:1023D000812C912C41914F3F81F0A42FA295AF7099
:1023E000A05EB0E08C9190E04F7002C0959587950B
:1023F0004A95E2F7E90180FF04C080E0C82F90E031
:10240000D92F8C2A9D2A220F331F81E0E539F80746
:1024100009F7F60180818F3F11F00E94811161E080
:102420008114910409F460E08B2D0E947E11EE0C62
:10243000FF1C0E0D1F1DF80191828082DF91CF914C
:102440001F910F91FF90EF90DF90CF90BF909F90E2
:102450008F9008950E949A118CE0EDEAF2E0DF017E
:10246000982F1D929A95E9F7E1EAF2E0DF011D92BB
:102470008A95E9F786E00E947D120E94671108950F
:10248000ACE0B0E0E6E4F2E10C946925FE0131969F
:102490008CE0DF011D928A95E9F710E0FE2E0F2FE8
:1024A000612F8F2D902F0E94B5111F5F1630C1F73D
:1024B0004CE050E06F2D702F81EA92E00E94A7253A
:1024C00021E0892B81F420E046E06DEA72E081EAA8
:1024D00092E00E947E12182F0E946B11812F2C9681
:1024E000E5E00C9485258CE0EF2DF02FA1EAB2E019
:1024F00001900D928A95E1F7E7CF0895A0E0B0E052
:10250000E4E8F2E10C946625D82EE92EF62ED72FBA
:10251000042FC22F211579F081E080937E020E9462
:10252000C31D90937D0280937C0280E0CDB7DEB71F
:10253000E8E00C948225C0907E02C114B1F3809132
:102540007C0290917D020E94521D059770F310E06D
:10255000000F111FA8016D2D7E2D8F2D9D2F0E9424
:10256000A725892B41F0A8016D2D7E2D8F2D9D2F44
:102570000E94B425CC2D10927E028C2FD7CF0E94C2
:10258000C60E08950E945C1D0E94A91F0E94840E21
:102590000E94C31F0E94B90E0E94D01F0E94D51F27
:1025A0000E94BF120E94EF1F0E94761E0E94970E8B
:1025B000F5CF9093AB018093AA0108950E94880DF6
:1025C000089580E00E946E11817008950E9440126B
:1025D0002FEF86E791E0215080409040E1F700C066
:1025E00000000E9440120E94E112811521F00E9419
:1025F000DE120E94FF1D08950E94E61208950F93B7
:102600001F93CF93DF938C01FC01C081D181CE0158
:102610000E94BD252196F801D183C083DF91CF911F
:102620001F910F91089584E0089550E0440F551FC5
:1026300098E1699F400D511D112490E9899F400D3B
:10264000511D1124CA01889608950F931F93CF93AB
:10265000DF938430C8F46630B8F44C30A8F40E949C
:1026600015138C010E94BD25C82FD0E0DC2FCC278C
:10267000C80101960E94BD259E01282BC901DF914A
:10268000CF911F910F91089580E090E0F8CF0F93C4
:102690001F93CF93DF93122F032F843078F466308B
:1026A00068F44C3058F40E941513EC01602F0E941E
:1026B000DB25612FCE0101960E94DB25DF91CF91B2
:1026C0001F910F9108951F93CF93DF93D0E0C0E047
:1026D00011C0412F6C2F8D2F0E9410039C01412FA0
:1026E0006C2F8D2F0E9447131F5F1C3091F7CF5F17
:1026F000C63011F010E0EDCFDF5FD43041F7DF914D
:10270000CF911F910895EF92FF920F931F93CF9354
:10271000DF938C01EA017A01E60EF71ECE15DF0584
:1027200029F4CDB7DEB7E6E00C948425003482E0CE
:10273000180740F4C80188960E94BD2589930F5F51
:102740001F4FECCF80E0FACFEF92FF920F931F93D1
:10275000CF93DF938C01EA017A01E60EF71ECE15C6
:10276000DF0529F4CDB7DEB7E6E00C94842500340C
:1027700082E0180728F46881C80188960E94DB254A
:1027800021960F5F1F4FEBCF843038F4663028F46A
:102790004C3018F40E942513089580E090E00895CD
:1027A00080E1089588E991E00895EF92FF920F93F8
:1027B0001F93CF93DF938C01EA017A01E60EF71E97
:1027C000CE15DF0529F4CDB7DEB7E6E00C948425FD
:1027D000083981E0180748F4C80188599D4F0E94C4
:1027E000BD2589930F5F1F4FEBCF80E0FACFEF92AB
:1027F000FF920F931F93CF93DF938C01EA017A012D
:10280000E60EF71ECE15DF0529F4CDB7DEB7E6E0FC
:102810000C948425083981E0180730F46881C801D8
:1028200088599D4F0E94DB2521960F5F1F4FEACFED
:10283000CF93DF93C8E6D2E060E0CE010E94DB25B3
:102840002196C11584E0D807B9F7DF91CF9108959B
:10285000A2E0B0E0EEE2F4E10C946925F82E80E10C
:10286000F816A0F48FEF93E00E94BD2581110EC0F1
:1028700008E612E0F1100EC01A83098348E2BE0197
:102880006F5F7F4F8FEF92E10E946C182296E5E018
:102890000C948525011584E01807C1F3C8010E9436
:1028A000BD250F5F1F4F8111F5CFFA94E3CFCF9372
:1028B000DF93EB0186319C4719F50E94610C9D81E5
:1028C0009115A1F08A7A91E0811101C090E0909376
:1028D0007F02811549F085E30E94501C0E94190D6A
:1028E00080E0DF91CF91089589E2F6CF80917F0259
:1028F000811521F085E30E946A1CF0CF89E2FBCFAD
:1029000081E0EFCFCF93DF93EC01FB01858181154F
:1029100009F4CFC09E0130572332310508F0AFC013
:102920000E94AB0D9093A00280939F02FE01E150A4
:10293000F047E232F10520F4E35EF94D0C944F25A7
:1029400080919F02816080939F0290C08091A0023D
:1029500088608093A0028AC080919F028260F3CF3A
:1029600080919F028460EFCF80919F028860EBCFBF
:102970008091A0028160EDCF8091A0028260E9CFBA
:1029800080919F028061DFCF80919F028062DBCFC8
:1029900080919F028064D7CF0E94E70780919F02B9
:1029A0008068D1CF80919F028C60CDCF8091A002B2
:1029B0008360CFCF80919F028E7FC5CF8091A00290
:1029C000877FC7CF80919F028D7FBDCF80919F026F
:1029D0008B7FB9CF80919F02877FB5CF8091A00276
:1029E0008E7FB7CF8091A0028D7FB3CF80919F0261
:1029F0008F7EA9CF80919F028F7DA5CF80919F026E
:102A00008F7BA1CF0E94E70780919F028F779BCF9A
:102A100080919F02837F97CF8091A0028C7F99CF76
:102A200080919F02992782FF939590FB82F990FBFA
:102A300083F989CF8091A002982F909590FB80F91F
:102A400090FB81F986CF90919F02892F8F7B96FF13
:102A5000806479CF0E94E70790919F02892F97FBAE
:102A600087F9805870CF81E00E94330E80919F02D9
:102A70009091A0020E94B00D0E94E70780E0DF91D4
:102A8000CF91089580E0F0CF90919F02892F8F7EA3
:102A900094FF806158CF90919F02892F8E7F90FF85
:102AA000816051CF9091A002892F877F93FF88602A
:102AB00050CF81E0E4CF282F35EB2303C001112450
:102AC00097FF04C080589109892F089580589F4F1F
:102AD000FBCF8091860280FF0DC06091090170E0FC
:102AE000660F771F60387105B0F561157105A9F1A2
:102AF000862F089581FF07C06091090184E0689FD7
:102B0000B0011124EFCF82FF04C06091090188E079
:102B1000F6CF909185029115D9F02091080180910E
:102B20000901682F70E0921730F043E0660F771FBD
:102B30004A95E1F7D7CF899FC001112433E0880F70
:102B4000991F3A95E1F7622F70E00E943B25CACFAA
:102B500068E070E0CDCF8FE7089581E0089580911F
:102B6000860280FF0CC06091050170E07595679545
:102B7000759567956115710549F1862F089581FF57
:102B800006C06091050170E075956795F3CF60917F
:102B9000050182FD0BC0909184029115A1F0609116
:102BA000040180910501961738F0682F70E06038B5
:102BB000710500F38FE70895899FC001112470E02B
:102BC0000E943B25F4CF61E070E0D7CF81E008950B
:102BD000E3E3E80FE331E0F5F0E0E15CF94D0C945C
:102BE0004F250E946915819580938A0208950E945D
:102BF0006915FACF0E94691581958093890208951D
:102C00000E946915FACF0E94AF1580938B02089538
:102C10000E94AF158195F9CF0E94AF1581958093E1
:102C20008C0208950E94AF15FACF815D990B21E0C7
:102C300030E001C0220F8A95EAF780918802822B4A
:102C40008093880208958091860281608093860235
:102C50000895809186028260F9CF80918602846017
:102C6000F5CF409189028D3C59F480918A0287FF0B
:102C70000DC010928A02411559F41092850208C0C5
:102C80008E3C81F480918A0218169CF3411581F0E4
:102C900080918B0290918C02892B811159C01092E6
:102CA000840208958F3C41F447FFF0CF10928902CF
:102CB00080918A028115E0CF803D19F41416B4F397
:102CC000E5CF90918B02893D29F41916FCF61092FC
:102CD0008B02DCCF8A3D19F497FFD8CFF8CF9091C3
:102CE0008C028B3D29F497FFD1CF10928C02CECF6E
:102CF0008C3D19F41916CCF3C9CF9FE2980F983088
:102D000090F4815D990B21E030E0B90102C0660FBB
:102D1000771F8A95E2F7CB018095909188028923ED
:102D200080938802B3CF8D3D31F4809186028E7FEF
:102D300080938602ABCF8E3D21F4809186028D7FF9
:102D4000F7CF8F3D09F0A2CF809186028B7FF0CF25
:102D500008950E94C31D2091890230918A02232B7D
:102D6000211521F0809382029093830220918B029F
:102D700030918C02232B211521F0809380029093B7
:102D8000810287E892E00E94441B089586E0E7E80C
:102D9000F2E0DF011D928A95E9F710928502109208
:102DA0008402109286020895FC01828181110DC077
:102DB000838181110AC08481811107C081E09581DE
:102DC000911101C080E08170089581E0FCCFA6E000
:102DD000B0E0EDEEF6E10C94662586E0E7E8F2E07F
:102DE0009E012F5F3F4FD90101900D928A95E1F727
:102DF0001092890210928A0210928B0210928C0219
:102E00008B819C81892B7901811589F080918202C7
:102E1000909183020E94521D6C0180918502811560
:102E2000B9F190910A019C151D0408F43EC08D81F2
:102E30009E81892B811591F0809180029091810271
:102E40000E94521D8C0180918402811509F45FC09B
:102E5000909106019017110608F467C0B70187E842
:102E600092E00E949E1C811105C087E892E00E94BA
:102E7000D41681110E94A91686E0F701A7E8B2E0F6
:102E800001900D928A95E1F72696E8E00C94822550
:102E900020910B019AE0299F900111242C153D05EA
:102EA00030F68F5F8093850202C08F3FD1F7DB80C1
:102EB000D11459F00E94691591E01D140CF09FEF98
:102EC000899F802D112480938902DC80D11459F0D0
:102ED0000E94691591E01D140CF09FEF899F802DD1
:102EE000112480938A0280918902811509F49FCF71
:102EF000D0908A02D11409F49ACF0E945B15809376
:102F000089028D2D0E945B1580938A0290CF2091BB
:102F100007019AE0299F900111242017310708F03A
:102F20009DCF8F5F8093840202C08F3FD1F71D81B8
:102F3000111559F00E94AF1591E011160CF09FEF9A
:102F4000899F802D112480938B021E81111559F0C9
:102F50000E94AF1591E011160CF09FEF899F802D14
:102F6000112480938C0280918B02811509F476CF15
:102F700010918C02111509F471CF0E945B1580939A
:102F80008B02812F0E945B1580938C0267CFA0E09B
:102F9000B0E0EDECF7E10C946525E82FF0E0E451AA
:102FA000FD4FB490282F26952695269530E0F901FF
:102FB000E457FC4F0491877010E0082E02C015956D
:102FC00007950A94E2F701701127F901E458FC4FC4
:102FD000E490F12C082E02C0F594E7940A94E2F7ED
:102FE000E0FAEE24FF24E0F8F901E459FC4FC49123
:102FF000D0E002C0D595C7958A95E2F7C170DD276C
:10300000C62ED12C0115110549F5E114F10431F05A
:1030100086EE0E94E304C601009771F5B6018B2D80
:103020000E945E05C601009779F5E114F104A1F54F
:103030000115110531F081EE0E942B05C6010097A4
:10304000C9F5CD2B31F08CE20E947805C114D10472
:10305000C9F5CDB7DEB7E9E00C94812581EE0E9479
:10306000E304C601009789F2EFE9FFE03197F1F739
:1030700000C000000197F6CFEFE9FFE03197F1F7CC
:1030800000C000000197C8CFEFE9FFE03197F1F7EA
:1030900000C000000197C7CF86EE0E942B05C60135
:1030A000009731F2EFE9FFE03197F1F700C000003F
:1030B0000197F6CFEFE9FFE03197F1F700C000008C
:1030C0000197BDCF8FE99FE00197F1F700C00000A5
:1030D00091E0C91AD108BACFA0E0B0E0E2E7F8E188
:1030E0000C9465257C01D62F172F042F8D2F912F3F
:1030F000F70109958115B9F0813009F060C08D2F75
:10310000912FF7010995C82F813091F48D2F912FC0
:10311000F70109950E947805802F90E0009709F04B
:1031200046C0C111E3CFCDB7DEB7E9E00C948125ED
:10313000823039F48D2F912FF70109950E94E30415
:10314000EBCF833039F48D2F912FF70109950E9431
:103150002B05E2CF843001F78D2F912FF7010995D0
:10316000C82FC12CD12C8AE0B82E2C2F2053330B22
:10317000C9012A30310568F0C114D10469F28FE920
:103180009FE00197F1F700C0000091E0C91AD10853
:10319000F3CFBC9C9001BD9C300D11246C01C20E7C
:1031A000D31E8D2F912FF7010995C82FDECFEFE9A0
:1031B000FFE03197F1F700C000000197AFCF602F1B
:1031C0000E94C71793CF0F931F93CF93DF93C42F02
:1031D000D22FFC0185818115C9F040938F020E9496
:1031E000C31D90938E0280938D0280E28C0F8830F5
:1031F00040F4C77081E001C0880FCA95EAF70E94C9
:103200008105DF91CF911F910F91089510918F0249
:10321000141333C080918D0290918E020E94521D32
:10322000883C910550F5C0E2CD0F1D17C1F080E23A
:10323000810F883040F4177081E001C0880F1A9523
:10324000EAF70E948805C83050F491E08D2F87700E
:1032500001C0990F8A95EAF7892F0E948105802F76
:103260000E947805C83068F6D77081E001C0880FE9
:10327000DA95EAF70E948805C4CF80E28C0F883087
:1032800008F0BFCFC77081E001C0880FCA95EAF788
:10329000F1CF0F93DB01FC01E851FC47E730F1056A
:1032A00098F5EE5AF94D0C944F2506E221EE41EEC9
:1032B0006AE17CE7CD010E94E31880E00F91089558
:1032C00007E225EE45EE6BE17CE7F4CF06E221EE66
:1032D00040EE68E17CE7EECF07E225EE44EE69E1DF
:1032E0007CE7E8CF06E221EE42EE6CE17CE7E2CF3C
:1032F00007E225EE46EE6DE17CE7DCCF08E221E057
:1033000045EE6EE17CE7D6CF15968C918111109237
:103310008F0281E0D3CFCF93DF939C01FB0127374E
:103320008CE7380739F028373C47F1F081E0DF912E
:10333000CF9108958581811591F00E94BD190E9459
:1033400068080E94C319D82F0E94C019C82F0E9474
:10335000BD194D2F6C2F0E94990980E0E8CF0E9483
:10336000BD190E947408EDCF8581811519F00E9466
:10337000C019E5CF0E94C019F4CF80910E010895C5
:1033800080910D01089580910C01089584E290E0F0
:103390000E94BD25853289F485E290E00E94BD251A
:1033A000863059F486E290E00E94BD2591E081309C
:1033B00009F090E0892F8170089580E0FCCFCF93D1
:1033C000C82F65E2811101C06FEF84E290E00E9496
:1033D000DB2566E0C11101C06FEF85E290E00E943D
:1033E000DB2561E0C11101C06FEF86E290E00E9431
:1033F000DB25CF910895089587E290E00E94BD25D6
:10340000682F70E080E090E008950895CF93C62F74
:103410000E94051A6C2F87E290E00E94DB25CF9175
:10342000089580E00E94DF1960E070E0CB010E9407
:10343000061A0E9463130E94181481E00E94DF198B
:1034400008950E94FB190E94FC190E94051A0E940F
:10345000C619811102C00E94111A089508959C0195
:10346000FB018581811551F0A9015757403851055D
:1034700030F4822F0E94281480E0089581E008959E
:103480002FEFFC01208308950E94401A089580E0E8
:103490000895CF92DF92FF920F931F93CF93DF9304
:1034A000EC01F62E0E94471A811110C0E881E1500C
:1034B000E331E0F4F0E0E75AF94D0C944F2519821E
:1034C0008CE08A836F2DCE010E946C1EDF91CF911C
:1034D0001F910F91FF90DF90CF90089589818330E5
:1034E000F9F038F4813061F0823099F08FEF888301
:1034F000E9CF8430D9F71A821B821C821D82E2CF69
:103500000E94CF1D0E9455256A837B838C839D83F7
:10351000D9CF0E94FC191A821B821C826D83D2CFE4
:103520000A8110E06E01F2E0CF0ED11C06301105C9
:103530004CF6802F0E946E11F601918382830F5FFB
:103540001F4FF1CF8981823031F0853079F68A8141
:103550000E942E1AB7CF6A817B818C819D810E9447
:1035600055250E94061AAECF4B816A8189810E943F
:1035700025139827892798279D838C83A3CF2C8197
:103580003D813227232732274B816A8189810E941E
:10359000471398CF0E94631395CF6F2DCE010E94E1
:1035A000441A90CF0E94D01389838CCF0E94D213EB
:1035B0009827892798279A83898384CF6B8170E025
:1035C00089819A81AE014C5F5F4F982789279827A0
:1035D0000E94D51377CF6B8170E089819A81AE010B
:1035E0004C5F5F4F9827892798270E94F7136ACF6F
:1035F0000E94181467CF0E941313D6CF6B8170E01E
:1036000089819A81AE014C5F5F4F9827892798275F
:103610000E94831357CF6B8170E089819A81AE013C
:103620004C5F5F4F9827892798270E94A4134ACFA1
:1036300090939502809394020895E0919402F09102
:103640009502309729F00190F081E02D09950895B9
:1036500080E00895E0919402F0919502309721F076
:103660000280F381E02D09950895DC01E091940238
:10367000F0919502309739F086E08C930480F581C3
:10368000E02DCD0109950895DC01E0919402F091BF
:103690009502309739F082E08C930680F781E02D17
:1036A000CD0109950895A3E0B0E0E9E5FBE10C94B4
:1036B0006C259C018091920290919302821793074E
:1036C000A1F03093930220939202E0919402F09142
:1036D0009502309751F083E089833B832A830084ED
:1036E000F185E02DCE01019609952396E2E00C9438
:1036F0008825A3E0B0E0EFE7FBE10C946C259C018A
:10370000809190029091910282179307A1F03093DB
:10371000910220939002E0919402F09195023097EB
:1037200051F084E089833B832A830084F185E02D76
:10373000CE01019609952396E2E00C948825CF935B
:10374000DF93C0910201D091030122960E94101DC7
:10375000813081F480919F0287FF0CC0C0910001ED
:10376000D091010122969EE180E0915028F4DF91F2
:10377000CF91089596E0F8CF29912115B1F38F5F8D
:10378000F4CFCF93C82F811102C080E031C00E94D6
:10379000101D813021F480919F0287FD0EC0809121
:1037A000020190910301FC013296089621912C1799
:1037B00009F1E817F907D1F7E8CF8C2F86958695A0
:1037C0008695C03F10F7E0910001F0910101E80FEC
:1037D000F11D228130E0C77081E090E002C0880FC7
:1037E000991FCA95E2F72823392381E0232B69F238
:1037F000CF91089581E0FCCF9C01FC0132968FEFC0
:1038000090E04191461751F08F3F19F4411101C0EA
:10381000892F9F5F9630A9F78F3F09F40895280FED
:10382000311D87FD3A95F901628308959C01FC01E1
:103830003296285F3F4F8191861302C0DF011E92AE
:10384000E217F307C1F70895FC01862F8695869548
:103850008695603F60F4E80FF11D677021E030E06D
:1038600001C0220F6A95EAF78281822B8283089534
:10387000FC01862F869586958695603F80F4E80F3B
:10388000F11D677081E090E09C0102C0220F331FA0
:103890006A95E2F7B9016095828168236283089591
:1038A000CF93C82F0E94101D6C2F813061F480913E
:1038B0009F0287FF08C080910001909101010E9442
:1038C000241CCF91089580910201909103010E94E0
:1038D000FC1BF7CFCF93C82F0E94101D6C2F813097
:1038E00061F480919F0287FF08C080910001909150
:1038F00001010E94381CCF9108958091020190919E
:1039000003010E94161CF7CF0E94101D813079F42C
:1039100080919F0287FF0BC0E0910001F0910101AF
:1039200032968EE1DF011D928A95E9F70895E091C4
:103930000201F0910301329686E0F4CFDC01FB0135
:1039400011969C9111978181981322C012968C91A7
:103950001297811519F0928189131AC013968C91D0
:103960001397811519F09381891312C015968C91C4
:103970001597811519F0958189130AC014969C91A9
:10398000911521F081E02481291303C080E001C05A
:1039900081E08170089508950E94CB1C08958F5F87
:1039A0008093120160910F017091100180911101BB
:1039B000909112010E94CC1C089583E08093120123
:1039C00060910F017091100180911101909112018D
:1039D0000E94CC1C08950E94CF1C089581E0809322
:1039E000120160910F01709110018091110190916D
:1039F00012010E94CC1C08950E94EE1C089591E0D3
:103A0000811101C090E09093110160910F017091BC
:103A1000100180911101909112010E94CC1C089517
:103A20008091110108958093100160910F017091B0
:103A3000100180911101909112010E94CC1C0895F7
:103A400080911001089580930F0160910F01709192
:103A5000100180911101909112010E94CC1C0895D7
:103A600080910F010895089508950E94341D0895CE
:103A7000089508950E94331D0895CF930E94381D24
:103A80000E9440120E94391DC0E08C2F0E946E11CE
:103A9000892B31F4CF5FC630C1F780E0CF91089514
:103AA00081E0FCCFCF93DF93EC010E94C31D8C1B00
:103AB0009D0BDF91CF91089585B7806885BF85B74D
:103AC000806885BF08951F921FB61F9211248F939F
:103AD0009F93AF93BF9380919602811113C0809101
:103AE000B9029091BA02A091BB02B091BC0241967A
:103AF000A11DB11D8093B9029093BA02A093BB029D
:103B0000B093BC02BF91AF919F918F911F901FBE48
:103B10001F9018958091C102843031F10E945A049F
:103B20001092960288E190E020E40FB6F894A895F0
:103B3000809360000FBE2093600083B7817F846014
:103B400083BF83B7816083BF7894889583B78E7F66
:103B500083BF0FB6F894A895809160008861809328
:103B60006000109260000FBE08950E94E7070E9457
:103B70006104089582E084BD93E095BD9AEF97BDFE
:103B800080936E0008952FB7F8948091B9029091B8
:103B9000BA02A091BB02B091BC022FBF08952FB70B
:103BA000F8946091B9027091BA028091BB02909131
:103BB000BC022FBF089578941F921FB61F92112444
:103BC0008F939F93AF93BF938091B9029091BA0264
:103BD000A091BB02B091BC020196A11DB11D8093C2
:103BE000B9029093BA02A093BB02B093BC02BF91FA
:103BF000AF919F918F911F901FBE1F90189587E7DF
:103C000097E7909301088093000888E19AE00FB647
:103C1000F894A895809360000FBE90936000FFCF4A
:103C200088E19AE00FB6F894A895809360000FBEE3
:103C300090936000FFCF282FCB01BA013091C102D1
:103C40003430D9F42F702093E9002FEF3091E80041
:103C500035FD06C035ED3A95F1F700002A95B1F72C
:103C60002091E80025FF09C040E050E00E94652057
:103C70008091E8008E778093E8000895BC0143E0CE
:103C800050E084E00E941B1E0895BC0146E050E015
:103C900084E00E941B1E0895BC0140E250E084E0D5
:103CA0000E941B1E0895CF93DF93D82FC92F0E9427
:103CB000101D48E050E06D2F7C2F81E00E941B1EFC
:103CC00088E0ED2FFC2FA7E9B2E001900D928A95D4
:103CD000E1F7DF91CF910895792F603231F440E21E
:103CE00050E0682F82E00E941B1E0895A0E2B0E021
:103CF000ECE7FEE10C946C258091C102843009F55B
:103D000083E08093E9008091E80082FF1AC08091EF
:103D1000E80090E085FF09C040E050E060E270E01C
:103D2000CE0101960E94B52091E08091E8008B774A
:103D30008093E800911529F060E2CE0101960E947F
:103D4000491AA096E2E00C9488258091C002811166
:103D500009C00E943E220E949B228091E200846062
:103D60008093E20008951092C00208950E94EE1C14
:103D700081E00E94FF1C08956091BD0281E0611105
:103D800001C080E00E94DD1C08959091C10281E095
:103D9000943009F080E06091BD020E94EB1C089510
:103DA00042E061EC81E00E94BA2142E261EC84E0F1
:103DB0000E94BA2142E261EC82E00E94BA2142E212
:103DC00060EC83E00E94BA219091C10281E09430BE
:103DD00009F080E06091BD020E94CF1C089580919F
:103DE000C302893089F148F4823009F4A1C08330DC
:103DF00009F45BC0813041F008958A3009F488C02D
:103E00008B3009F46DC008958091C202813A09F0A7
:103E10004BC08091E800877F8093E8008091C602C4
:103E20009091C702892B61F060E080E090E070E043
:103E30000E9405218091E8008B778093E800089527
:103E400068E087E992E0F3CF8091C202813261F5A8
:103E50008091C6029091C7028D7F892B29F58091B0
:103E6000E800877F8093E8008091E80082FF18C017
:103E70009091F3008091F200029731F48091F1006B
:103E8000813011F0863021F48091F1000E94131DE1
:103E90008091E8008B778093E8000E94EE210895DE
:103EA0008091C1028111E0CF08958091C202813AD0
:103EB000D9F78091C6029091C702892BA9F780910A
:103EC000E800877F8093E8008091E80080FFFCCFC6
:103ED0000E94101D8093F1008091E8008E77DBCF67
:103EE0008091C202813201F78091C6029091C7028F
:103EF000892BD1F68091E800877F8093E8000E94AB
:103F0000EE218091C4020E94FF1C0E94E7070895E1
:103F10008091C202813241F68091E800877F8093D0
:103F2000E8000E94EE218091C5020E94231D0895A1
:103F30008091C202813A09F0B7CF8091E800877F73
:103F40008093E8008091E80080FFFCCF0E94301D44
:103F5000C1CF84B7877F84BF0FB6F894A8958091AE
:103F60006000886180936000109260000FBE80E85E
:103F700090E00FB6F89480936100909361000FBEBB
:103F80000E94FC1C08950E943E220E949B22E2EEA9
:103F9000F0E080818460808378940E9421250895D8
:103FA00083E191E00E94181B08958091C102853041
:103FB00031F48091C102853019F00E94B51D089539
:103FC0000E948A1D0E943D1D811599F38091BF02B8
:103FD000811579F30E944F200E94E707EACF0895E8
:103FE0009A014091C8025091C9020E94F81F089599
:103FF000FC01AB01D901892F992783309105C1F0CC
:1040000068F48130910509F445C0029761F48BE5AD
:1040100090E024EC33E02D933C9308958132910598
:10402000E1F0829739F180E090E020E030E0F3CFDA
:10403000CF019927E13059F08230910559F0E0EC39
:10404000F3E0892B81F7849190E09F01E4CFECEAC3
:10405000F3E0F9CFECE9F3E0F6CF6330710518F740
:10406000FB01EE0FFF1FEC55FE4F2081318189E0EF
:1040700090E0D1CF63307105B0F6FB01EE0FFF1F6A
:10408000E256FE4F2081318145565E4FFA01808114
:1040900090E0C1CF82E190E02FE134E0BCCF80E13D
:1040A00089BD82E189BD09B400FEFDCF8091D800B1
:1040B0008F7D8093D8008091E00082608093E00043
:1040C0008091E00081FDFCCF0895AF92BF92CF9226
:1040D000DF92EF92FF920F931F93CF936C018B01AE
:1040E0007A010E940D22C82F811123C0E114F1042E
:1040F00039F0F70180819181081B190BC80ED91E78
:10410000A12CB12C01151105A1F08091E80085FDCD
:1041100021C08091E8008E778093E800E114F104DB
:1041200099F0F701808191818A0D9B1D9183808395
:10413000C5E08C2FCF911F910F91FF90EF90DF90F2
:10414000CF90BF90AF9008950E940D228115E9F2A3
:10415000C82FEFCFF60181916F018093F1000150DC
:104160001109FFEFAF1ABF0ACDCFAF92BF92CF9226
:10417000DF92EF92FF920F931F93CF936C018B010D
:104180007A010E940D22C82F811123C0E114F1048D
:1041900039F0F70180819181081B190BC80ED91ED7
:1041A000A12CB12C01151105A1F08091E80085FD2D
:1041B00021C08091E8008B778093E800E114F1043E
:1041C00099F0F701808191818A0D9B1D91838083F5
:1041D000C5E08C2FCF911F910F91FF90EF90DF9052
:1041E000CF90BF90AF9008950E940D228115E9F203
:1041F000C82FEFCF8091F100F60181936F0101503C
:104200001109FFEFAF1ABF0ACDCFFC019B018091CE
:10421000C8029091C9028617970718F0672B61F0C2
:10422000C90140E0009771F441110CC08091E80091
:1042300082FF35C080E008958091E8008E778093FA
:10424000E800EECF2091C1022115A9F12530A9F196
:104250002091E80023FD2DC02091E80022FDE6CF4B
:104260002091E80020FFDECF3091F3002091F20092
:10427000009719F02830310558F041E02830310519
:1042800009F040E02091E8002E772093E800CACFA3
:1042900041914093F10001972F5F3F4FE9CF80910B
:1042A000C102811541F0853041F08091E80083FF23
:1042B000BDCF81E0089582E0089583E00895FC0178
:1042C0009B018091C8029091C9028617970718F048
:1042D000672B61F0C90140E0009771F441110CC0F7
:1042E0008091E80082FF36C080E008958091E80068
:1042F0008E778093E800EECF2091C1022115B1F1B5
:104300002530B1F12091E80023FD2EC02091E80076
:1043100022FDE6CF2091E80020FFDECF3091F300B0
:104320002091F200009719F02830310558F041E053
:104330002830310509F040E02091E8002E772093E5
:10434000E800CACF44914093F100319601972F5F66
:104350003F4FE8CF8091C102811541F0853041F097
:104360008091E80083FFBCCF81E0089582E008954A
:1043700083E00895982F973028F08F708093E9009C
:1043800081E008959093E900242F762F50E098174C
:1043900031F07091EC002091ED005091F00021FD82
:1043A00002C09F5FE8CF3091EB003E7F3093EB007F
:1043B0003091ED003D7F3093ED003091EB003160A6
:1043C0003093EB007093EC002093ED005093F000DD
:1043D0002091EE0027FDE5CF80E008958091C20294
:1043E00087FF13C08091E80082FF06C08091E8003B
:1043F0008B778093E80008958091C1028111F2CFFC
:1044000008958091C1028115D9F38091E80080FF61
:10441000F8CF8091E8008E77ECCF2091E4003091C6
:10442000E50095E6A9012091EC00822F817020FF24
:1044300006C08091E80080FF06C080E008952091CA
:10444000E80022FD1AC08091C102811589F08530F3
:1044500089F08091EB0085FD0FC02091E400309140
:10446000E50042175307F9F29A95E1F684E00895C2
:1044700082E0089583E0089581E008950E94AD22CE
:104480000E94B522E0EEF0E0808181608083E8ED5B
:10449000F0E080818F77808319BCA7EDB0E08C912C
:1044A0008E7F8C9380818F7E80831092C0020895CE
:1044B0000F931F93CF93DF930E94AD220E94B522EA
:1044C000C8EDD0E088818F77888388818068888371
:1044D00088818F7D888319BC1092C1021092BD0221
:1044E0001092BF021092BE0200EE10E0F80180812F
:1044F0008B7F808388818160888342E060E080E0F8
:104500000E94BA21E1EEF0E080818E7F8083E2EEAE
:10451000F0E0808181608083808188608083F80101
:1045200080818E7F8083888180618883DF91CF91B5
:104530001F910F910895E8EDF0E080818F7E8083D8
:10454000E7EDF0E080818160808384E082BF81E0DC
:104550008093C0020E9458220895E8EDF0E0808127
:104560008E7F80831092E20008951092DA001092FC
:10457000E10008951F920F920FB60F9211242F930E
:104580003F934F935F936F937F938F939F93AF93DB
:10459000BF93EF93FF938091E10082FF0BC0809166
:1045A000E20082FF07C08091E1008B7F8093E100F1
:1045B0000E9420258091DA0080FF19C08091D800E8
:1045C00080FF15C08091DA008E7F8093DA008091A1
:1045D000D90080FF94C080E189BD82E189BD09B422
:1045E00000FEFDCF81E08093C1020E94A51E809154
:1045F000E10080FF19C08091E20080FF15C080912A
:10460000E2008E7F8093E2008091E20080618093DF
:10461000E2008091D80080628093D80019BC85E0C8
:104620008093C1020E94BC1E8091E10084FF29C0DA
:104630008091E20084FF25C080E189BD82E189BDCF
:1046400009B400FEFDCF8091D8008F7D8093D80003
:104650008091E1008F7E8093E1008091E2008F7E67
:104660008093E2008091E20081608093E20080917B
:10467000BD02811509F449C084E08093C1020E9403
:10468000C51E8091E10083FF29C08091E20083FF75
:1046900025C08091E100877F8093E10082E08093D4
:1046A000C1021092BD028091E1008E7F8093E100F3
:1046B0008091E2008E7F8093E2008091E200806131
:1046C0008093E20042E060E080E00E94BA218091A5
:1046D000F00088608093F0000E94B61EFF91EF9179
:1046E000BF91AF919F918F917F916F915F914F910A
:1046F0003F912F910F900FBE0F901F90189519BCEE
:104700001092C1020E94B31E72CF8091E30087FF16
:1047100002C083E0B2CF81E0B0CF1F920F920FB6FC
:104720000F921124EF92FF920F931F932F933F93B9
:104730004F935F936F937F938F939F93AF93BF93A9
:10474000CF93EF93FF9309EE10E0F8018081C091C1
:10475000EC008F70C795CC27C795C82B108280EFCF
:10476000E82EF12CF7018081877F808378940E9466
:10477000D823F8011082F701808188608083CF7090
:10478000F801C083FF91EF91CF91BF91AF919F91BD
:104790008F917F916F915F914F913F912F911F91D9
:1047A0000F91FF90EF900F900FBE0F901F901895F4
:1047B000AAE2B0E0EEEDF3E20C946A2582EC92E01E
:1047C000FC0101962091F100208322E08A3C9207AF
:1047D000B9F70E94EF1E8091E80083FF38C08091F6
:1047E000C2029091C3029A3090F5E92FF0E0E459AB
:1047F000F94D0C944F25803889F0823841F580912D
:10480000C6028F70873018F58093E9008091EB0025
:1048100085FB882780F91092E90006C08091BF02CD
:10482000880F9091BE02892B9091E800977F90931A
:10483000E8008093F1001092F1008091E8008E77FB
:1048400023C0811116C08091C402813011F1809182
:10485000E80083FF0AC08091E800877F8093E8002A
:104860008091EB0080628093EB00AA96E4E00C94C8
:104870008625823061F78091C402811589F01092FB
:10488000E9008091E800877F8093E8000E94EE2194
:10489000DECF81E0933009F080E08093BF02EFCF5C
:1048A0008091C6028F702FEF280F263080F68093FC
:1048B000E9002091EB0020FFE2CF933031F48091AA
:1048C000EB0080628093EB00DACF9091EB00906177
:1048D0009093EB0021E030E0A90102C0440F551F86
:1048E0008A95E2F74093EA001092EA008091EB008B
:1048F0008860E8CF8111ABCF1091C4021F778091FF
:10490000E3008078812B8093E3008091E800877F2B
:104910008093E8000E94EE218091E80080FFFCCFA8
:104920008091E30080688093E30083E0111101C06F
:1049300082E08093C1028BCF8058823008F087CF0D
:104940008091C4029091C5028C3D53E0950799F582
:1049500083E08A838AE289834FB7F894DE01139655
:1049600020E03EE051E2E32FF0E0509357008491C5
:1049700020FF03C082958F703F5F8F708A30C8F030
:10498000895C90E08D939D932F5F243161F74FBF39
:104990008091E800877F8093E8006AE270E0CE01B2
:1049A00001960E9405218091E8008B778093E800B2
:1049B0004ECF805DE6CF6091C6027091C702AE0116
:1049C0004F5F5F4F0E94F01F8C01892B09F43FCF8E
:1049D0008091E800877F8093E800B80189819A81FF
:1049E0000E945F21E0CF803809F031CF8091E8004C
:1049F000877F8093E8008091BD028093F1001DCFF6
:104A0000811125CF9091C402923008F020CF80917F
:104A1000E800877F8093E8009093BD020E94EE211A
:104A20008091BD02811531F084E08093C1020E9423
:104A3000D01E0DCF8091E30087FDF6CF81E0F5CF4A
:104A40000895CF938091C102811599F08091E9007A
:104A5000C091EC008F70C795CC27C795C82B1092DA
:104A6000E9008091E80083FD0E94D823CF70C093B5
:104A7000E900CF91089597FB072E16F4009407D014
:104A800077FD09D00E94932507FC05D03EF4909550
:104A900081959F4F0895709561957F4F0895EE0F12
:104AA000FF1F0590F491E02D099469279627692747
:104AB00078278727782708952F923F924F925F9209
:104AC0006F927F928F929F92AF92BF92CF92DF921E
:104AD000EF92FF920F931F93CF93DF93CDB7DEB783
:104AE000CA1BDB0B0FB6F894DEBF0FBECDBF099417
:104AF0002A88398848885F846E847D848C849B846E
:104B0000AA84B984C884DF80EE80FD800C811B817B
:104B1000AA81B981CE0FD11D0FB6F894DEBF0FBEAA
:104B2000CDBFED010895AA1BBB1B51E107C0AA1F11
:104B3000BB1FA617B70710F0A61BB70B881F991F3E
:104B40005A95A9F780959095BC01CD010895FB0178
:104B5000DC0104C08D910190801921F44150504036
:104B6000C8F7881B990B0895FB01DC0102C0019076
:104B70000D9241505040D8F70895F999FECF92BD5B
:104B800081BDF89A992780B50895A8E1B0E042E088
:104B900050E00C940126DC01A40FB51F4150504099
:104BA00048F0CB01840F951F2E910E94DC254150C7
:104BB0005040D0F70895262FF999FECF92BD81BDC0
:104BC000F89A019700B4021639F01FBA20BD0FB64B
:104BD000F894FA9AF99A0FBE08950396272F0E9427
:104BE000DC250E94DB25252F0E94DC25242F0C9438
:104BF000DC250196272F0E94DC250C94DB25DC01A7
:104C0000CB01FC01F999FECF06C0F2BDE1BDF89AD7
:104C1000319600B40D9241505040B8F70895F89481
:104C2000FFCFCF05CF05FF05FF058306A0062D06A4
:104C30002D06A506160727072707DA144B15E214D9
:104C4000AC14B014E614B414EA14F614C0144415E9
:104C5000C414FA14C814FE142315CC1402152A1512
:104C6000D21408151015B814EE14BC14F214D6148E
:104C70000C151A1533154215A614DE145215F1152C
:104C8000F715FA150016151615161516151615161C
:104C9000151615161516031608160C1612162316D9
:104CA00029162D1666196C1955196019721978197B
:104CB0007E195F1A6E1AA21AB41ABF1ACA1ACD1A2E
:104CC000CD1ACD1A761A761AD21AD61ADE1AEB1A1D
:104CD000F81AFB1AFE1A0B1BFB232124272421247C
:0C4CE00027247A249C242724F324002598
:104CEC003B025B02280850011E0A1401030201005A
:104CFC00000100201D531E4C1E451E3E1EE200E905
:104D0C0000EA00B500B600B700CD008301CC008AE4
:104D1C00019201940121022302240225022602277A
:104D2C00022A02B300B4006F0070009F01CB019FF8
:104D3C0002A002E200E900EA00B500B600B700CD1F
:104D4C00008301CC008A01920194012102230224E8
:104D5C00022502260227022A02B300B4006F00705B
:104D6C00009F01CB019F02A0029293F4F5F6F7315C
:104D7C0034353332366697C69490914422B6090581
:0A4D8C0031045304D603EF030F04B3
:00000001FF
