:1000000039C2000054C2000052C2000050C20000B9
:100010004EC200004CC200004AC2000048C20000AC
:1000200046C2000044C200000C940D1F0C94D91F5E
:100030000C94FD193CC200003AC2000038C2000016
:1000400036C2000034C2000032C2000030C20000DC
:100050002EC200000C94741A2AC2000028C20000AC
:1000600026C2000024C2000022C2000020C20000FC
:100070001EC200001CC200001AC2000018C200000C
:1000800016C2000014C2000012C2000010C200001C
:100090000EC200000CC200000AC2000008C200002C
:1000A00006C2000004C2000002C2000035000000C9
:1000B0000000000000000000000000000000000040
:1000C00000004C001E001F00200021002200230021
:1000D00024002500260027002D002E002B001400F0
:1000E0001A000800150017001C0018000C00120070
:1000F00013002A00290004001600070009000A0066
:100100000B000D000E000F0033003400E1001D0055
:100110001B00060019000500110010003600370012
:1001200038001E7CE000E300007EE2002152000067
:100130002C0022525000510052004F0001000000DC
:1001400000000000000000000000000000000000AF
:10015000000001003A003B003C003D003E003F0033
:1001600040004100420043004400450001000100FE
:100170005200010001005F00600061000100010009
:100180002F0030003900500051004F0001005C008A
:100190005D005E000100010001003100010001006E
:1001A00001000100010059005A005B00010001003C
:1001B0000100280001000100010001000100000011
:1001C000620063004A004E004B004D000100000039
:1001D000000000000000000000000000000000001F
:1001E0000000010001000100010001000100010008
:1001F000010001000100A800AA00A90001000100FF
:1002000001000100010001000100010001000100E6
:1002100001000100010001000100010001000100D6
:1002200001000100010001000100010001000100C6
:1002300001000100010001000100010001000100B6
:10024000010028120100010001000100010000006E
:100250000100010001000100010028110000000060
:10026000000000002A2B2800000000000000000011
:100270000000000000000029000000002C1E3420B7
:10028000212224342627252E362D3738271E1F20DD
:100290002122232425263333362E37381F04050622
:1002A0000708090A0B0C0D0E0F1011121314151666
:1002B0001718191A1B1C1D2F3130232D3504050664
:1002C0000708090A0B0C0D0E0F1011121314151646
:1002D0001718191A1B1C1D2F3130354C0000000057
:1002E000000000000000000000000000000000000E
:1002F00000000000000000000000000000000000FE
:100300007E0F00D4FFFFFFC7000000780E034B00F4
:10031000720074006B00750073000000120373001C
:10032000770069006600740035003000320000007C
:100330000403090409025B00030100A0FA09040098
:1003400000010301010009211101000122440007FD
:1003500005810308000109040100020300000009EF
:10036000211101000122220007058203200001075C
:100370000503032000010904020001030000000935
:100380002111010001226D000705840320000112E4
:1003900001000200000008424A1616000101020096
:1003A000010660FF0961A1010962150026FF0095A1
:1003B00020750881020963150026FF009520750845
:1003C0009102C005010980A101850319012AB70026
:1003D000150126B700950175108100C0050C0901B3
:1003E000A101850419012AA002150126A002950188
:1003F00075108100C005010906A1018506050719D0
:10040000E029E71500250195087501810205071906
:100410000029EF1500250195F075018102050819E5
:10042000012905950575019102950175039101C09A
:1004300005010906A101050719E029E715002501B5
:10044000950875018102950175088101050719005C
:1004500029FF150026FF009506750881000508197B
:100460000129051500250195057501910295017574
:10047000039101C011241FBECFEFDAE0DEBFCDBF74
:1004800011E0A0E0B1E0ECECF4E402C005900D92C4
:10049000A43AB107D9F722E0A4EAB1E001C01D9265
:1004A000A73BB207E1F70E94E9100C941E22A8CDE9
:1004B0000F931F93CF93DF93EC018B010E940F0BDF
:1004C000982F9272C630D10579F1C1152EE7D20767
:1004D00039F0C530D10501F1B801CE0155D00CC0BD
:1004E000F80125812115A9F08171811551F082EE65
:1004F00090E00E944E1880E0DF91CF911F910F9104
:100500000895911519F089EE90E0F3CF8AEE90E00E
:10051000F0CF80E090E0EDCFF80185818115E1F228
:100520009232D1F6C3D0E7CFF80185818115A1F2CF
:10053000923291F60E943D0CBDD0DDCF8330B8F4ED
:100540006630A8F44C3098F4E42FF0E09CE0699F0A
:10055000E00DF11D112498E4899FE00DF11D112497
:10056000EE0FFF1FE455FF4F85919491089581E0B0
:1005700090E0089581E0089581E00895FBCF08950B
:1005800081E0089581E0089581E008950895089537
:10059000FDCF089508950895A6E0B0E0E2EDF2E001
:1005A0000C94962149835A839E833091AB018981B3
:1005B0009A81311117C03E81311589F0211579F0EA
:1005C00016D5182F682F89819A81F0D469817A8194
:1005D000812F0E94370E2696E3E00C94B221F7D4C7
:1005E000182FF4CF04D569817A81F3CFFC01262F2F
:1005F000408151816281738184819581CDCFCF9378
:10060000DF93D82FC92F61E0F1DF6D2F7C2FB4DF8E
:10061000811539F061E08D2F9C2FE8DF6D2F7C2F45
:10062000ADDFDF91CF9108950F931F93CF93DF93A9
:10063000D82FC92F60E0DADF8C016D2F7C2FA7DF68
:100640006D2F7C2FC801A4DFDF91CF911F910F91F7
:10065000089591E001C0990F8A95EAF7892FFFC3A9
:10066000CF93C82F81E00C2E01C0880F0A94EAF7BF
:100670000E94480C8C2FEDDFCF91089581E0089502
:1006800081E00895FBCF0895CF93C82F99D38C2F85
:10069000F7DF8C2FF7DF2FEF84E39CE021508040C1
:1006A0009040E1F700C00000CF91089581E0ECDFB9
:1006B0000C94981A80E0E8DF0C94A91A0F931F930A
:1006C000CF93DF938C0161E091DFEC01B8015ADF39
:1006D000811509F44DC0B801CE01EADE811509F497
:1006E00047C0B801CE010E94D116811509F440C05F
:1006F000B801CE010E940C168115D1F1B801CE01CE
:100700000E94B9138115A1F1B801CE010E94911385
:10071000811571F1B801CE010E944D16811541F18C
:10072000B801CE010E94350F811511F1F8018581C4
:10073000811581F0CA35FCE7DF0721F170F4C13083
:10074000ECE7DE07E9F0C330FCE7DF07B9F0C115DD
:10075000DC4769F0C80114DF0CC0CB35ECE7DE07DD
:10076000A1F0CC35DC47B1F70E940A0CF3CF9EDF35
:1007700080E0DF91CF911F910F9108950E943D0C71
:1007800099DFF6CF0E94110CE5CF0E94130CE2CF47
:1007900001DF0E94D41917C018D0FDDE0C94D819BF
:1007A00081E008950895CF93DF93D82FF9DFC82F04
:1007B000811511F08D2FF6DF8C2FDF91CF910895E9
:1007C0000895F1CF089580E0FCCF0E94F717F9CF8C
:1007D000CF930E94F717C82F8091A6018C1771F054
:1007E000C093A6010E94681A6093A7017093A801A4
:1007F0008093A9019093AA018C2FE3DFCF910895F4
:10080000ADE0B0E0E6E0F4E00C949721488759872A
:100810006A877B878C879D87911123D71F8286E00B
:10082000FE013896DE01119601900D928A95E1F74E
:100830008D8181110CC029813A814B815C816D8150
:100840007E818F815ED62D96E2E00C94B321CE019D
:100850000196D5DE8111EFCFF6CFFC018481813086
:1008600019F480819181EBC30895CF93C82F81152E
:1008700089F08CEF8C0F813A78F48C2F0E94A418A9
:10088000811521F08C2F0E94491978D78C2F0E9456
:10089000321974D7CF91089580E28C0F883040F4DC
:1008A000C77081E001C0880FCA95EAF7BBD6F1CFC7
:1008B0008BE58C0F833038F42C2F2452330BC90175
:1008C0000E942618E7CFC85ACB3120F7EC2FF0E072
:1008D000EE0FFF1FE95EFE4F808191810E944E184E
:1008E000D9CF811519F19CEF980F913A18F40E9415
:1008F000491944C790E2980F983048F4877091E006
:1009000001C0990F8A95EAF7892F92D6F2CF9BE51D
:10091000980F933020F480E090E00C942618885AC9
:100920008B3120F480E090E00C944E1808950F93E2
:100930001F93CF93C82F8B0198DF0115110531F458
:100940008C2FCFDFCF911F910F9108958FE99FE0FA
:100950000197F1F700C0000001501109EECF60E5EA
:1009600070E0893311F068E270E0E1CF811511F099
:1009700059D604C70895811511F05AD6FFC60895B7
:10098000A0E0B0E0E6ECF4E00C9491216C01D62FED
:10099000C72FFC010581F680F2948FE0F82237D64C
:1009A000E82E8115E9F0E02E0115D1F08C2F807F23
:1009B000803461F080E28D0F8830C0F18C2F807E12
:1009C000803221F4D23090F1F11481F180918D02C6
:1009D00082FF2CC082E0F7D61AD691E0E82EE926F5
:1009E0008C2F82958F70883009F4D9C098F58430A7
:1009F000F8F41C2F1F70823008F43CC0C07FC03256
:100A000011F01295107FD11509F45CC0D13009F4B2
:100A100083C0011509F48EC0F11409F46BC0F6010E
:100A2000868180FF38C08F70868364C0E12CD8CF68
:100A3000843009F497C0E11409F4DDC0E4D580FDE9
:100A4000DAC0F6011582D9D52CD2C6018ED1D5D502
:100A500032D2D1C0893009F40AC18A5F8F708230E6
:100A600050F7D23F09F010C18C2F8F7101110AC1CC
:100A700018D2BEC0C03110F01295107F011581F060
:100A8000111549F080E28D0F883010F0D11105C0AA
:100A9000812FC8D573D68D2F21C0812FD4D5FACF01
:100AA0008D2F1FDF111509F4C6CF80E28D0F88301E
:100AB00010F0D11103C0812FBBD502C0812FC9D541
:100AC0005DD6B9CF80918D0282FD10C0011541F035
:100AD000111519F0812FA6D551D680E0C6DEABCF17
:100AE00080E0FFDE111509F4A6CFE5CF011559F01E
:100AF000F11003C0812F3ADF9ECFF1E0FF129BCFB0
:100B0000812FC4D598CFF11096CF812F34DF812F5C
:100B1000C8D5812FACD58FCF011529F026E0F2166C
:100B200008F089CFE7CF85E0F81608F084CF812F51
:100B300022DF81CFF114D9F3D93361F4FFEF27EE2F
:100B400083E0F15020408040E1F700C000008D2F8D
:100B5000C8DE71CF9FEFE3EFF1E09150E040F0404D
:100B6000E1F7F3CF8C2F869586958370811569F018
:100B7000813009F060CF8D2F9C2F9370011102C03E
:100B800080E090E00E944E1856CF8D2F9C2F9370DE
:100B9000011102C080E090E00E9426184CCF8C2FFB
:100BA0008370811133C0011123C04D2F42954695AA
:100BB0004770440F440F8D2F8F70042E01C0880F93
:100BC0000A94EAF72D2F2071D4FF07C02FE030E000
:100BD00001C0220F4A95EAF72095C695C695C370C5
:100BE000822BC23079F0C33079F0C13049F03DD169
:100BF0000E94F717E6DDCDB7DEB7E8E00C94AD2133
:100C000030D1F6CF36D1F4CF2AD1F2CF011531F160
:100C1000C0FFEECF4D2F429546954770440F440FCD
:100C20008D2F8F70042E01C0880F0A94EAF72D2FA4
:100C30002071D4FF07C02FE030E001C0220F4A9599
:100C4000EAF72095C695C695C370822BC23059F03D
:100C5000C33059F0C13029F04AD1CACF823040F2B6
:100C6000D9CF41D1C5CF47D1C3CF0DD1C1CFCF70DF
:100C7000011529F08C2F15D18D2F78DEB9CF8D2F4E
:100C80007ADE8C2F18D1B4CF60F4D03FB9F0D13FC9
:100C900081F0011509F43AC0F114A9F18D2FE5DDB9
:100CA000A7CFD33FC1F0D43FA1F780918D0282FD41
:100CB0001AC08C2F8F71011529F3DACE011541F07E
:100CC00025E0F21608F094CF8C2F8F7102D190CFCF
:100CD00086E0F816F7CF011521F08C2F8F71DAD04E
:100CE00087CFD6D085CF011529F063E08C2F8F7187
:100CF00052D57ECF81E067D592E0F91608F478CF1F
:100D000082E061D575CF8C2F8F71B2CEF114B1F026
:100D1000D93361F4EFEFF7EE23E0E150F0402040EB
:100D2000E1F700C000008D2FDCDD62CF8FEF93EF85
:100D3000E1E081509040E040E1F7F3CF8C2F8F71DC
:100D4000A1CF0F931F93CF93DF93EC01688179813B
:100D50008D8180D18C01D3D081D0B801CE0110DE3D
:100D6000DF91CF911F910F910895CF93DF93EC0105
:100D70008C81811581F0CE01A1DC81110FC047D497
:100D8000811549F08D81811531F080918D0282FFAE
:100D900002C082E018D5DF91CF910895CE01D1DF56
:100DA000CE0142DCF8CF80E090E00E94261880E07F
:100DB00090E00E944E1855D4E1C40E946019F3CF10
:100DC0003FD4FBCF282F92959F70963099F060F416
:100DD000925F9F70923030F4203FB1F038F481E0A0
:100DE000283E38F080E008959A5FF3CF81E0243FF9
:100DF000C9F7089591E0813F09F090E081E0283E35
:100E000008F080E0892B089581E00895FC01848139
:100E1000811521F08081918112D1D4CF80E0089595
:100E2000A6E0B0E0E6E1F7E00C9497212696E2E038
:100E30000C94B321A7E0B0E0E0E2F7E00C94972136
:100E40002796E2E00C94B3210895FECF0895FDCFDC
:100E50000895FADFFCDF8093C80108950895F9CF63
:100E600008959091C801892BF4CF9091C8018923EE
:100E7000F0CF9091C8018927ECCFE6CF0895FDCF40
:100E80000895E2CF0895FDDFFADF8093C70108954A
:100E900080E0F9CF91E001C0990F8A95EAF7892F98
:100EA000F2CF21E030E001C0220F8A95EAF780916D
:100EB000C701822BE8CF21E030E0A90102C0440F36
:100EC000551F8A95E2F7CA0180959091C701892341
:100ED000DACF21E030E001C0220F8A95EAF7809155
:100EE000C7018227D0CF9091C701892BCCCF909199
:100EF000C7018923C8CF9091C7018927C4CF08951E
:100F00009B01677091E001C0990F6A95EAF763E071
:100F1000369527956A95E1F7B901660F771F260F79
:100F2000371FFA01E20FF31F40E050E0682F70E036
:100F30008191DF019B01042E02C0369527950A940A
:100F4000E2F7217021952827292328272E934F5F28
:100F50005F4F4330510561F708959C01A82FA7709A
:100F600083E0369527958A95E1F7C901880F991F87
:100F7000820F931FFB01E80FF91F40E050E080E073
:100F8000219130E00A2E02C0369527950A94E2F7A7
:100F900021703327042E01C0220F0A94EAF7822B16
:100FA0004F5F5F4F4330510559F70895282F862F23
:100FB000963060F42C3050F4622F70E02CE0929F59
:100FC000600D711D11244CEA51E09ACF0895292F2C
:100FD000963058F48C3048F490E06CEA71E03CE0D4
:100FE000239F800D911D1124B8CF80E00895A0E0CB
:100FF000B0E0EDEFF7E00C9492217C010091C70185
:101000008091C801082BC5E0D0E010E0C8010C2E8B
:1010100002C0959587950A94E2F780FD09C0219753
:10102000A8F7D12C8D2DCDB7DEB7E7E00C94AE211B
:10103000DC2EB7018C2F25D6019789F3F3CFCF9300
:10104000DF93D82FC92FD3DF6D2F7C2F1AD6DF91D6
:10105000CF9108951F93CF93DF93162FD72F9091A1
:10106000AB01911539F0862F972FE9DFDF91CF91F2
:101070001F910895811569F0862F972FB8DFC82F2B
:10108000682F812F9D2F92DF612F7D2F8C2FF9D517
:10109000EDCF862F972F9BDFC82FF6CFE1E0F0E052
:1010A000DF0102C0AA0FBB1F6A95E2F7BD01DF0195
:1010B00002C0AA0FBB1F4A95E2F76A2B01C0EE0FD0
:1010C0002A95EAF7962F9823961302C08E2B08953F
:1010D000E0958E230895242F462F682F8091C70115
:1010E000DDDFD1CE0F931F93CF93E091C901C7E00D
:1010F0008091CA018E1304C0CF911F910F91089562
:101100000E2F10E0CE9FF0011124E553FE4F2081F9
:101110003181428153816481758186818BDEF80142
:101120003196E770E5CF209103023091040240919F
:1011300005025091060260910702709108028091A9
:10114000090278CE80910902803178F480910802FA
:10115000811559F0E091C9012091CA013091040232
:101160004091030257E02E1301C008956E2F70E0E6
:101170005E9FF0011124DF01A553BE4F14968C91A0
:101180001497811549F111968C911197831324C0FE
:101190008C91841321C015968C91159781111CC0D8
:1011A00012968D919C91A0910502B09106028A1B26
:1011B0009B0B883C910580F4809109028F708061BF
:1011C00080930902EF52FE4F80818F70806180838F
:1011D00083E092E0CADD86CFFB013196E770C3CF92
:1011E000E091C9019091CA0127E0E91302C080E0B3
:1011F0000895AE2FB0E02E9FF0011124E553FE4F6D
:101200003181361306C03081381303C03581341361
:1012100004C0FD013196E770E8CF81E008958F9218
:101220009F92AF92BF92DF92EF92FF920F931F9324
:10123000CF93DF93CDB7DEB72D970FB6F894DEBF0F
:101240000FBECDBF8C0186E0F801DE01189601903B
:101250000D928A95E1F7D8011596FC901597149692
:101260008C9193E0892E92E0992E90910702911132
:1012700017C0811509F4F8C0F11409F437C1C80189
:10128000C5DD811509F432C187E0F801D401019070
:101290000D928A95E1F7C401E0DA54DF44DFE4C03F
:1012A000F801E080A280B380D0900802209105026E
:1012B00030910602A501421B530BD11409F4D7C08B
:1012C000483C510508F0AAC0811509F4CDC09091A1
:1012D0000402918080910902803108F071C0991256
:1012E00027C0909103029E1123C0F11058C08F7047
:1012F00080618093090217DF83E092E036DD809100
:101300000902D80116968C93F12C8F2D2D960FB6CD
:10131000F894DEBF0FBECDBFDF91CF911F910F912B
:10132000FF90EF90DF90BF90AF909F908F900895C7
:10133000F11035C040E0692D8E2D52DF40E0692D5F
:101340008E2D4EDFF82E8111DFCF8885998577DECF
:10135000292F22952F70903450F49F70223078F00E
:10136000911591F0F8019681903170F4CECF2A5FFB
:101370002F70223070F0C801F8DCFD2CC6CF91151B
:1013800019F0811509F4C1CF805E883008F4BDCF13
:10139000F2CF803F08F4B9CF815F8330F7CF8091DF
:1013A000090281608093090283E092E0DEDC87E03D
:1013B000E3E0F2E0DF011D928A95E9F7B4DEA4CF05
:1013C000991207C0909103029E1103C0F11409F411
:1013D0006FC0C8011BDD811509F488C0F11409F440
:1013E00085C080910902803280F020910302309103
:1013F00004023A832983BC82AB82909107029D83C9
:101400001E828F83CE010196B0DC87E0F801A3E055
:10141000B2E001900D928A95E1F73FCF90910902D9
:10142000903168F4488559856A857B858C859D85D2
:10143000F7DC83E092E099DC87E0D401BCCF811532
:1014400099F02091040281812813C3CF8091030277
:101450008E11BFCFF110BDCF9683C80186DC87E027
:10146000D4011D928A95E9F7FF24F3944ECF483CAE
:10147000510508F03EC08115B9F3F114B9F190910E
:1014800004028181981329C0809103028E1125C026
:101490008091090280FD18C08031B0F08683807F82
:1014A000803F39F08681982F907F905F8F70892BD5
:1014B0008683C8015ADC87E0F801A3E0B2E001901E
:1014C0000D928A95E1F7EACE87E0F801A3E0B2E059
:1014D00001900D928A95E1F7C7CFC80197DC811181
:1014E00094CF80910902816080930902C8013DDC9C
:1014F000BBCF488559856A857B858C859D8590DC29
:101500009BCFAEE0B0E0E7E8FAE00C9496212887A4
:1015100039874A875B876C877D878E87CE010896DF
:101520007EDE6C858115A1F0611539F0288539853D
:101530004A855B857D858E857DDC17E08091C901BC
:101540009091CA01891338C02E96E3E00C94B22121
:1015500087E0FE013896DE01119601900D928A9582
:10156000E1F7611551F3A091CA018A2F90E001962D
:10157000877099272091C9012817190681F097E0F3
:101580009A9FD0011124A553BE4FFE0131960190C0
:101590000D929A95E1F78093CA01A4DDCECF10DCBD
:1015A0001092CA011092C90187E0E3E0F2E0DF0186
:1015B0001D928A95E9F7C1CF189FC0011124855368
:1015C0009E4F2DDE811509F4BFCFE091C9011E9F0A
:1015D000F0011124E553FE4F208131814281538176
:1015E00064817581868126DC8091C90190E0019635
:1015F000877099278093C901A1CF80913202869587
:10160000869586950895809132028770089590910D
:101610003202977081E0911101C080E008958091BD
:101620005E02089590915E02982B90935E02089559
:10163000982F909580915E02892380935E02089591
:1016400010925E02089590915D02982B90935D0236
:101650000895982F909580915D02892380935D0273
:10166000089510925D0208950895FECF0895909117
:101670003302292F2823211529F08095892380936F
:101680003302F3CF08950895FECF08959091340268
:10169000292F2823281721F0982B90933402F4CF78
:1016A000089590913402292F2823211529F080953F
:1016B000892380933402E8CF089580913402811504
:1016C00021F01092340280E0DFCF0895CF93C091D3
:1016D0005E0280915D02C82B80913402811529F051
:1016E000C82B0E9483188111E8DF8C2FCF910895B9
:1016F000CF93DF93C0910201D0910301E7DF88838C
:10170000C0910201D091030148E050E06AE272E02A
:10171000CE010E94BE21892B59F088E0FE01AAE289
:10172000B2E001900D928A95E1F7CE010E94061871
:10173000DF91CF910895CF93DF93C0910001D091B5
:101740000101C4DF8983C0910001D091010140E211
:1017500050E06AE072E0CE010E94BE21892B59F070
:1017600080E2FE01AAE0B2E001900D928A95E1F7D5
:10177000CE010E941318DF91CF9108950E94F017B7
:10178000811529F080918C0287FF01C0D4CFB0CFA2
:101790000895FECF0895962F20918D0222FF0EC04E
:1017A000682F660F660F660F692B6093320279DB34
:1017B00080913202869586958695EBCF72CB1092FA
:1017C000320280E0E6CF90913202809589238093A7
:1017D0003202282F277021110BC0891749F09091F0
:1017E0008D0292FF05C086958695869564DBE7CFCE
:1017F000089590918D0292FB222720F9281749F035
:1018000080FB92F990938D028CE892E045D082E0C3
:10181000DACF089580918D02002482FF0394802DF9
:10182000E8CF81E0E6CF80E0E4CF60E070E0CB017C
:1018300079C360E070E0CB016FD3F7CFA3E0B0E0F5
:10184000E4E2FCE00C94972122D32DD31B82CE013D
:10185000039640D381E08093C80146D3198284E186
:101860008A83CE01019651D30E94BD16E2DF2396F2
:10187000E2E00C94B321E2CF08951BC3089508D38E
:1018800081110C94811608951AC3089529C30895EF
:101890002BC308952EC3089538C3089549C30895EE
:1018A000A6E0B0E0E6E5FCE00C9495210E945C1A0D
:1018B0008C0180915F02909160028017910779F00E
:1018C00019821A820E945C1ABC0149815A8180E007
:1018D00090E00E9400041093600200935F0226963D
:1018E000E4E00C94B1210E94681A60937102709335
:1018F0007202809373029093740260936D027093EE
:101900006E0280936F029093700208950895089577
:10191000FDCF08950895FEDFFBCF0895FECF089513
:101920000895FEDFFBCF83E39FE066D4F0DFF3CFC3
:1019300081E0089581E00895FBCF0895089508950A
:101940000895FCDFFCDFFCCF9ADF811101C093DF3B
:1019500085E792E099DF8CE892E09CDF6CD496DF1B
:101960007EDA8091C7018BCA0E94531A0E94C81662
:10197000A0D3EADF0E94E003D4CFA6E0B0E0E3EC1E
:10198000FCE00C948B21D6DF811107C089DF0E9417
:10199000E8032696EEE00C94A7219DD321E6822E43
:1019A00022E0922E540110E0F501619071905F01E8
:1019B000812FC9D26C011F5F163009F446C068162A
:1019C000790691F38091750281FDC6D2B5DF782E3C
:1019D00010E066246394812FB6D27C01F401A190BB
:1019E000B1904F018A159B0559F1A826BF2400E04C
:1019F000CC24C394D12CC5018C219D21892BC1F00D
:101A00007114B1F009831A830E945C1A9C838B8342
:101A10006D8221E0C7018C219D21892B09F420E0F2
:101A200049815A816B817C818D81922F0E940004B3
:101A30000F5FCC0CDD1C0C30F1F6F401F292E29257
:101A40001F5F163041F64FDFA2CF6816790609F006
:101A5000B9CF9CCF1F93CF93DF9315D1EC018115A4
:101A600022E5920708F05AC0811540E5940708F076
:101A7000D7C0803E910528F58D3C910508F0A9C09E
:101A8000883A910578F4853A910508F09FC0813035
:101A9000910509F43EC00497813A9105D0F1C0E068
:101AA000D0E037C0885A91094B97C8F7C85AD0E0A0
:101AB000CC0FDD1FC35BDE4F0990D881C02DD464ED
:101AC00028C0811550E49507E8F4C11580E2D807D5
:101AD00008F0BCC0C83ED105E0F0CE019A95811552
:101AE0009F41E8F68D2F70D1182FCE019927CBD0CA
:101AF000212F30E0322F2227E901CC27DF71C82BBC
:101B0000D92B07C09927BFD0CC27DF70C82BD92B82
:101B1000D06ACE01DF91CF911F910895803842E5C0
:101B20009407C8F5803652E5950708F05BC0C034CD
:101B300082E5D807D0F4C03292E5D90708F04BC04F
:101B40008C2F8695869520E2829FC0011124C37058
:101B500021E030E0A90102C0440F551FCA95E2F709
:101B6000EA01C82BD92BDD68D4CF8C2F86958695BA
:101B7000877050E2859FC0011124C37021E030E0DE
:101B8000A90102C0440F551FCA95E2F7EA01C82B0C
:101B9000D92BDC68BECF803C52E5950758F48F7195
:101BA000C03AD245A0F590E0982F8827EC01C46F89
:101BB000D06AAFCF805C9245809708F070CFDC2F61
:101BC000CC27CC27DF71C06FD06AA3CFA497D06495
:101BD000A0CFD0659ECFCF71D0E0DC2FCC27C16FD6
:101BE000D06A97CF86958695877020E2829FC00144
:101BF0001124C37021E030E0A90102C0440F551F39
:101C0000CA95E2F7EA01C82BD92BDA6882CFDCD07B
:101C1000C82FD0E0DC2FCC27CC27DF71D06279CF62
:101C20008F71D2D053E0CC0FDD1F5A95E1F7CC274E
:101C3000DF70282F30E084FF05C050E1859F9001C0
:101C400011243327C22BD32BD06963CF8D2F8F71F3
:101C5000BBD0182FCE01992716D0212F30E0322F7C
:101C6000222722273F71282B392BE901D7CF462F76
:101C7000672F763018F44C3008F444C380E090E0CD
:101C80000895F5DFE7CE9C01803E910509F448C038
:101C9000D8F48133910509F47DC048F48932910567
:101CA00009F46DC08A9709F47CC0C901089589338D
:101CB000910551F18238910539F1C597B1F78091BD
:101CC0008C0285FFF2CF29C0843E910509F447C0FC
:101CD00048F4823E910599F1833E9105A9F121EEE8
:101CE00030E0E3CF863E910509F444C0873E91057C
:101CF000E1F680918C0283FD61C090918D0291FF8D
:101D00002BC024EE30E0D1CF80918C028370811102
:101D100052C080918D0283FFC8CF29E230E0C5CF49
:101D200080918C0280FD33C090918D0290FFBDCFD9
:101D300023EE30E084FFB9CF20E030E0B6CF8091D1
:101D40008C0282FDF5CFB1CF80918C0282FD30C034
:101D500090918D0290FD2FC084FFA7CFEDCF809191
:101D60008D0281FFA2CF80918C0227EE30E084FDAE
:101D7000E3CF9BCF80918C0283FDF7CF96CF8091EC
:101D80008C0285FD1EC080918D0283FF8ECF29E3DA
:101D900030E08BCF80918C0286FF87CF2AE230E043
:101DA00084CF80918C0286FF80CF21E330E07DCF0D
:101DB00022EE30E07ACF20EE30E077CF26EE30E032
:101DC00074CF25E330E071CF90918C0292FF10C068
:101DD00041E0282F2471243009F040E031E0282F21
:101DE0002871283009F030E0431711F02CE08227E9
:101DF00093FF10C041E0282F2471243109F040E006
:101E000031E0282F2871283109F030E0431711F014
:101E10002CE0822730918D0230FF10C051E0282F36
:101E20002171213009F050E041E0282F287128303D
:101E300009F040E0541711F029E0822731FF10C06B
:101E400041E0282F2171213109F040E031E0282FB5
:101E50002871283109F030E0431711F029E082277A
:101E600094FD877E089580E00895CF939C01FB0147
:101E7000805E9245C1E0809738F4C581C11104C0ED
:101E8000822F8F710E9430038C2FCF910895089577
:101E900080E090E00E94DC219C0181E0233E3E4FE7
:101EA00009F080E0089563EE7EEF80E090E00C940E
:101EB0000A226FEF7FEF80E090E00C940A22CF932C
:101EC000DF93EC0182E090E00E94D4218883DF91CF
:101ED000CF910895FC01608182E090E00C94F021A4
:101EE00083E090E00C94D421682F83E090E00C9480
:101EF000F021CF93DF93EC0184E090E00E94DC219D
:101F000099838883DF91CF910895FC01608171816D
:101F100084E090E00C940A22AB01BC018FE090E0D9
:101F20000C940222AB01BC0183E190E00C940222EC
:101F3000682F8EE090E00C94F0210895FECF089574
:101F40000895FECF0895E82FF0E0EE0FFF1FE6564C
:101F5000FD4F808191810895089580EA8A95F1F777
:101F6000089500C00895F9CF0895F894E82FE295F8
:101F7000EF70F0E041A18F7021E030E0B90102C0C4
:101F8000660F771F8A95E2F7CB01962F90959423E1
:101F900091A392A1892B82A378940895CF93DF9384
:101FA000CFE8D1E089918F3F09F0DFDF81E0C539CB
:101FB000D807C1F7C3E8D1E089918F3F09F0D5DF99
:101FC00081E0CF38D807C1F7DF91CF9108958F9284
:101FD0009F92BF92CF92DF92EF92FF920F931F9347
:101FE000CF93DF938C01B62EE62EF12CC7018157DB
:101FF0009E4F6C01FC0180818F3F09F44EC0F89424
:10200000E82FE295EF70F0E091A18F7021E030E0D1
:1020100001C0220F8A95EAF7892F822B81A382A122
:102020002095282322A378949CDFE3E8F1E021E0C7
:1020300030E0812C912C41914F3F81F0A42FA2954B
:10204000AF70A05EB0E08C9190E04F7002C09595AB
:1020500087954A95E2F7E90180FF04C080E0C82F28
:1020600090E0D92F8C2A9D2A220F331F81E0EF3870
:10207000F80709F7F60180818F3F09F076DF61E00C
:102080008114910409F460E08B2D6DDFEE0CFF1CD0
:102090000E0D1F1DF80191828082DF91CF911F915B
:1020A0000F91FF90EF90DF90CF90BF909F908F9017
:1020B000089574DF8CE0EAE9F2E0DF01982F1D92C9
:1020C0009A95E9F7EEE8F2E0DF011D928A95E9F7CB
:1020D00086E03BD033CFACE0B0E0E1E7F0E10C9438
:1020E0009421FE0131968CE0DF011D928A95E9F77B
:1020F00010E0FE2E0F2F612F8F2D902F68DF1F5FB6
:102100001630C9F74CE050E06F2D702F8EE892E04A
:102110000E94BE2121E0892B71F420E046E06AE9AB
:1021200072E08EE892E012D0182F0BDF812F2C96F0
:10213000E5E00C94B0218CE0EF2DF02FAEE8B2E09A
:1021400001900D928A95E1F7E9CF0895A0E0B0E003
:10215000ECEAF0E10C949121D82EE92EF62ED72F3F
:10216000042FC22F211579F081E0809378020E941C
:102170005C1A909377028093760280E0CDB7DEB749
:10218000E8E00C94AD21C0907802C114B1F38091C5
:102190007602909177020E94ED19059770F310E096
:1021A000000F111FA8016D2D7E2D8F2D9D2F0E94D8
:1021B000BE21892B41F0A8016D2D7E2D8F2D9D2FE5
:1021C0000E94CB21CC2D109278028C2FD7CFD5CB6B
:1021D00008950E94F6190E94151CA5DB0E942D1C73
:1021E000C3DB0E94361C0E94391CF1DF0E944F1C89
:1021F0000E94011BA6DBF7CF9093A5018093A40159
:10220000089574C7089539CB089580E09CDE8170ED
:10221000089561DF2FEF86E791E0215080409040E4
:10222000E1F700C0000057DFF0DF811519F0EBDFA8
:102230000C94981A0895EDCF0895A1E0B0E0E3E280
:10224000F1E10C9493217C01FC0160817181828118
:1022500093818E010F5F1F4F21E030E040E050E09E
:102260009FD1F70180819181A281B3810196A11D47
:10227000B11D80839183A283B38389812196E6E097
:102280000C94AF2186E00895D7C0089504C1089545
:102290001F93CF93DF93CED0D0E0C0E010C0412F8A
:1022A0006C2F8D2F0E949E029C01412F6C2F8D2F31
:1022B000F2D01F5F1C3099F7CF5FC63011F010E0ED
:1022C000EECFDF5FD63049F7DF91CF911F910895B0
:1022D0000F931F938A019B0140E050E0BC0180E016
:1022E00090E000D11F910F9108950F931F938A01E1
:1022F0009B0140E050E0BC0180E090E020D11F91C4
:102300000F910895863028F4663018F44C3008F4A4
:1023100093C080E090E0089580E10895CF93DF932B
:102320003AD1CB01DF91CF9108950F931F938A018A
:102330009B0140E050E0BC0180E090E031D11F9172
:102340000F9108950F931F938A019B0140E050E085
:10235000BC0180E090E068D11F910F9108956BD08F
:10236000A6C14F925F926F927F929F92AF92BF925F
:10237000CF92DF92EF92FF920F931F93CF93DF9351
:1023800000D000D0CDB7DEB7B82E20E1821730F5EF
:1023900002D161507109810991099E012F5F3F4F60
:1023A0007901890121E030E040E050E0F9D08981F5
:1023B0009E2CAF2C811112C0EED02B013C01C12C00
:1023C000D12C7601B1101EC0C982DA82EB82FC8268
:1023D00048E2692D7A2D8DE191E144D30F900F9061
:1023E0000F900F90DF91CF911F910F91FF90EF9081
:1023F000DF90CF90BF90AF909F907F906F905F9055
:102400004F900895C414D504E604F70439F3092D58
:102410001A2D21E030E040E050E0C701B601C0D005
:1024200089813FEFC31AD30AE30AF30A8111EACF85
:10243000BA94C8CF089508950F931F93CF93DF9355
:10244000863030F5663020F54C3010F5C42FD0E0E2
:10245000CC0FDD1F28E1629FC00DD11D112430E992
:10246000839FC00DD11D1124CE0189960E94D421D5
:10247000082F10E0102F0027CE018A960E94D42149
:102480009801282BC901DF91CF911F910F910895D9
:1024900080E090E0F8CF1F93CF93DF93962F122F19
:1024A000632F8630D8F49630C8F44C30B8F4C42F7B
:1024B000D0E0CC0FDD1F28E1929FC00DD11D11246B
:1024C00090E9899FC00DD11D1124CE0189960E94EB
:1024D000F021612FCE018A960E94F021DF91CF91E9
:1024E0001F910895A0E0B0E0E8E7F2E10C948D219F
:1024F0006B017C01E80146015701820E931EA41E68
:10250000B51EC814D904EA04FB0429F4CDB7DEB71C
:10251000ECE00C94A92180E6C81683E0D806E1041B
:10252000F10458F4C60189960E94D42189938FEF53
:10253000C81AD80AE80AF80AE4CF80E0F7CFA0E08A
:10254000B0E0E5EAF2E10C948D216B017C01E80139
:1025500046015701820E931EA41EB51EC814D9044D
:10256000EA04FB0429F4CDB7DEB7ECE00C94A92112
:1025700080E6C81683E0D806E104F10428F46881F7
:10258000C60189960E94F02121968FEFC81AD80AB9
:10259000E80AF80AE3CF67E770E080E090E008958A
:1025A0004F925F926F927F92AF92BF92CF92DF92E3
:1025B000EF92FF920F931F93CF93DF936B017C01F8
:1025C00029013A0158018B0107571C4FC0E0D0E0A8
:1025D000CE01A0E0B0E0C415D5051604170478F0CC
:1025E000DF91CF911F910F91FF90EF90DF90CF90EF
:1025F000BF90AF907F906F905F904F9008958C0D3B
:102600009D1DAE1DBF1D87379105A105B10550F475
:10261000C8018C0F9D1F0E94D421F50181935F0199
:102620002196D6CF80E0F9CF4F925F926F927F9242
:10263000AF92BF92CF92DF92EF92FF920F931F93D0
:10264000CF93DF936B017C0129013A0158018B0183
:1026500007571C4FC0E0D0E0CE01A0E0B0E0C415A9
:10266000D5051604170478F0DF91CF911F910F91D3
:10267000FF90EF90DF90CF90BF90AF907F906F90E2
:102680005F904F9008958C0D9D1DAE1DBF1D873727
:102690009105A105B10548F4F501EC0FFD1F60811E
:1026A000C8018C0F9D1F0E94F0212196D5CFA0E17B
:1026B000B0E0EDE5F3E10C948921FE01319680E173
:1026C000DF011D928A95E9F708E010E097E7492EAF
:1026D000512C612C712C29E8A22E23E0B22E4F013F
:1026E00073016201B1E14B165104610471041CF0E5
:1026F00080E1C82ED12CA601B501C4010E94E121C0
:10270000AC0CBD1C0D2C000CEE08FF084C185D082D
:102710006E087F080150104019F76096E0E10C94B4
:10272000A521CF93DF93EB0186319C4701F50E94F1
:102730000F0B9D81911591F08A7A91E0811101C072
:1027400090E090937902811539F085E38BD516D806
:1027500080E0DF91CF91089589E2F8CF80917902EE
:10276000811519F085E395D5F2CF89E2FCCF81E0A0
:10277000F0CFCF93DF93EC01FB018581811509F444
:10278000CAC09E0130572332310508F0AAC08CE838
:1027900092E080D8FE01E150F047E232F10520F4EA
:1027A000E05EFD4D0C947A2180918C0281608093D3
:1027B0008C0290C080918D02886080938D028AC0C7
:1027C00080918C028260F3CF80918C028460EFCF85
:1027D00080918C028860EBCF80918D028160EDCF7B
:1027E00080918D028260E9CF80918C028061DFCF81
:1027F00080918C028062DBCF80918C028064D7CF85
:102800000E94E00680918C028068D1CF80918C027A
:102810008C60CDCF80918D028360CFCF80918C0270
:102820008E7FC5CF80918D02877FC7CF80918C022C
:102830008D7FBDCF80918C028B7FB9CF80918C0230
:10284000877FB5CF80918D028E7FB7CF80918D022B
:102850008D7FB3CF80918C028F7EA9CF80918C0227
:102860008F7DA5CF80918C028F7BA1CF0E94E00647
:1028700080918C028F779BCF80918C02837F97CF42
:1028800080918D028C7F99CF80918C02992782FF55
:10289000939590FB82F990FB83F989CF80918D020B
:1028A000982F909590FB80F990FB81F986CF9091BD
:1028B0008C02892F8F7B96FF806479CF0E94E0067F
:1028C00090918C02892F97FB87F9805870CF81E017
:1028D0000E944E0C8CE892E00E944C0C0E94E00694
:1028E00080E0DF91CF91089580E0F2CF90918C024B
:1028F000892F8F7E94FF80615ACF90918C02892F0F
:102900008E7F90FF816053CF90918D02892F877FBA
:1029100093FF886052CF81E0E4CFA0E0B0E0E3E92C
:10292000F4E10C949021E82FF0E0E45AFD4FB490CC
:10293000282F26952695269530E0F901E450FD4F85
:102940000491877010E0082E02C0159507950A942F
:10295000E2F701701127F901E451FD4FE490F12CE9
:10296000082E02C0F594E7940A94E2F7E0FAEE2408
:10297000FF24E0F8F901E452FD4FC491D0E002C019
:10298000D595C7958A95E2F7C170DD27C62ED12C63
:102990000115110549F5E114F10431F086EE0E94AC
:1029A0003504C601009771F5B6018B2D0E9497047E
:1029B000C601009779F5E114F104A1F5011511059F
:1029C00031F081EE0E947104C6010097C9F5CD2B4C
:1029D00031F08CE20E94AF04C114D104C9F5CDB727
:1029E000DEB7E9E00C94AC2181EE0E943504C6010B
:1029F000009789F2EFE9FFE03197F1F700C000009E
:102A00000197F6CFEFE9FFE03197F1F700C0000042
:102A10000197C8CFEFE9FFE03197F1F700C0000060
:102A20000197C7CF86EE0E947104C601009731F26C
:102A3000EFE9FFE03197F1F700C000000197F6CF12
:102A4000EFE9FFE03197F1F700C000000197BDCF3B
:102A50008FE99FE00197F1F700C0000091E0C91AEB
:102A6000D108BACFA0E0B0E0E8E3F5E10C94902102
:102A70007C01D62F172F042F8D2F912FF701099549
:102A80008115B9F0813009F060C08D2F912FF701C9
:102A90000995C82F813091F48D2F912FF701099559
:102AA0000E94AF04802F90E0009709F046C0C1114A
:102AB000E3CFCDB7DEB7E9E00C94AC21823039F436
:102AC0008D2F912FF70109950E943504EBCF8330AC
:102AD00039F48D2F912FF70109950E947104E2CFEF
:102AE000843001F78D2F912FF7010995C82FC12C44
:102AF000D12C8AE0B82E2C2F2053330BC9012A3059
:102B0000310568F0C114D10469F28FE99FE00197A3
:102B1000F1F700C0000091E0C91AD108F3CFBC9CC6
:102B20009001BD9C300D11246C01C20ED31E8D2F5F
:102B3000912FF7010995C82FDECFEFE9FFE031971C
:102B4000F1F700C000000197AFCF602FE6DE94CF11
:102B50000F931F93CF93DF93C42FD22FFC01858156
:102B60008115C1F040937C02A7D490937B0280939F
:102B70007A0280E28C0F883040F4C77081E001C097
:102B8000880FCA95EAF70E94B604DF91CF911F9192
:102B90000F91089510917C02141332C080917A0233
:102BA00090917B021AD4883C910550F5C0E2CD0F7C
:102BB0001D17C1F080E2810F883040F4177081E06A
:102BC00001C0880F1A95EAF70E94BB04C83050F480
:102BD00091E08D2F877001C0990F8A95EAF7892FB0
:102BE0000E94B604802F0E94AF04C83070F6D770E0
:102BF00081E001C0880FDA95EAF70E94BB04C5CFD7
:102C000080E28C0F883008F0C0CFC77081E001C02F
:102C1000880FCA95EAF7F1CF0F93DB01FC01E85169
:102C2000FC47E730F10590F5EE5BFD4D0C947A2101
:102C300006E221EE41EE6AE17CE7CD0189DF80E02A
:102C40000F91089507E225EE45EE6BE17CE7F5CFA5
:102C500006E221EE40EE68E17CE7EFCF07E225EEE9
:102C600044EE69E17CE7E9CF06E221EE42EE6CE159
:102C70007CE7E3CF07E225EE46EE6DE17CE7DDCFB2
:102C800008E221E045EE6EE17CE7D7CF15968C9106
:102C9000811110927C0281E0D3CFCF93DF939C010E
:102CA000FB0127378CE7380739F028373C47C9F054
:102CB00081E0DF91CF9108958581811571F018D061
:102CC0000E9451071BD0D82F16D0C82F11D04D2FDE
:102CD0006C2F0E946B0880E0ECCF0AD00E945B074B
:102CE000F1CF8581811511F006D0EACF04D0F6CF5F
:102CF0008091060108958091050108958091040155
:102D00000895A3E0B0E0E7E8F6E10C949721AE0166
:102D10004F5F5F4FBE016E5F7F4FCE01039612D1B2
:102D20008B81853239F48A81873021F481E0998161
:102D3000913309F080E081702396E2E00C94B32196
:102D4000811521F041E367E085E222C14FEF6FEF8B
:102D50008FEFFBCF089508950F931F93CF93DF93C9
:102D60008B01D82FC92FF7DFB8018D2F9C2F2FD1C2
:102D7000DF91CF911F910F910895E3D080E0E0DFC4
:102D800060E070E0CB01E8DF83DAE9DA81E0D8CFF8
:102D9000E1DF14D1E0DFB5DF811101C0EECF08958E
:102DA00008959C01FB018581811549F0A9015757C0
:102DB0004038510528F4822FD4DA80E0089581E06C
:102DC00008952FEFFC0120830895FBCF089580E044
:102DD0000895CF92DF92FF920F931F93CF93DF93CB
:102DE000EC01F62EF4DF81110FC0E881E150E331F0
:102DF000D8F4F0E0E75BFD4D0C947A2119828CE069
:102E00008A836F2DCE01FDD9DF91CF911F910F9154
:102E1000FF90DF90CF90089589818330C9F038F416
:102E2000813061F0823091F08FEF8883EACF843077
:102E3000D9F71A821B821C821D82E3CF49D30E94DC
:102E400080216A837B838C839D83DBCFB7D0F7CFD0
:102E50000A8110E06E01F2E0CF0ED11C06301105A0
:102E600084F6802F70D8F601918382830F5F1F4F05
:102E7000F2CF8981823029F08530B1F68A8190DFE6
:102E8000C0CF6A817B818C819D810E94802164DF1B
:102E9000B8CF4B816A818981F7D9982789279827EC
:102EA0009D838C83AECF2C813D813227232732270F
:102EB0004B816A818981EAD9A4CFEAD9A2CF6F2D4B
:102EC000CE0183DF9ECF28DA89839BCF27DA98272C
:102ED000892798279A83898394CF6B8170E08981B1
:102EE0009A81AE014C5F5F4F9827892798271DDA9A
:102EF00088CF6B8170E089819A81AE014C5F5F4F12
:102F00009827892798271EDA7CCF29DA7ACFBAD971
:102F1000DBCF6B8170E089819A81AE014C5F5F4F9E
:102F2000982789279827D4D96CCF6B8170E0898145
:102F30009A81AE014C5F5F4F982789279827D5D992
:102F400060CF0895EF92FF920F931F93CF93DF937B
:102F50007C018B01EA01892B31F085E290E00E942F
:102F6000D421F70180830115110531F086E290E04C
:102F70000E94D421F8018083209729F087E290E015
:102F80000E94D4218883CDB7DEB7E6E00C94AF2150
:102F9000CF93DF93D62FC42F682F85E290E00E9455
:102FA000F0216D2F86E290E00E94F0216C2F87E2E5
:102FB00090E00E94F021DF91CF91089588E290E0A7
:102FC0000E94D421682F70E080E090E0089588E2AC
:102FD00090E00C94F02190938202809381020895F6
:102FE000C2D1982F81E0913009F080E00895E091FE
:102FF0008102F0918202309739F00190F081E02D4A
:10300000309711F00995089580E00895E0918102CC
:10301000F0918202309731F00280F381E02D3097F9
:1030200009F009950895DC01E0918102F091820296
:10303000309759F084819581892B39F086E08C9303
:103040000480F581E02DCD0109950895A3E0B0E05D
:10305000ECE2F8E10C9497219C0180917F02909121
:10306000800282179307B1F03093800220937F0291
:10307000E0918102F0918202309761F00084F18545
:10308000E02D309739F083E089833B832A83CE019A
:10309000019609952396E2E00C94B321A3E0B0E0F9
:1030A000E4E5F8E10C9497219C0180917D029091D8
:1030B0007E0282179307B1F030937E0220937D0247
:1030C000E0918102F0918202309761F00084F185F5
:1030D000E02D309739F084E089833B832A83CE0149
:1030E000019609952396E2E00C94B321E0918102C8
:1030F000F0918202309731F00284F385E02D309711
:1031000009F009950895CF93DF93C0910201D09102
:103110000301229665DF811581F080918C0287FF83
:103120000CC0C0910001D091010122969EE180E087
:10313000915028F4DF91CF91089596E0F8CF29912E
:103140002115B1F38F5FF4CFCF93C82F811102C047
:1031500080E030C045DF811521F080918C0287FD31
:103160000EC08091020190910301FC0132960896F5
:1031700021912C1709F1E817F907D1F7E9CF8C2F26
:10318000869586958695C03F18F7E0910001F091ED
:103190000101E80FF11D228130E0C77081E090E06D
:1031A00002C0880F991FCA95E2F72823392381E0CE
:1031B000232B71F2CF91089581E0FCCF9C01FC019B
:1031C00032968FEF90E04191461751F08F3F19F4FE
:1031D000411101C0892F9F5F9630A9F78F3F09F4F5
:1031E0000895280F311D87FD3A95F90162830895EE
:1031F0009C01FC013296285F3F4F8191861302C0EB
:10320000DF011E92E217F307C1F70895FC01862F34
:10321000869586958695603F60F4E80FF11D67708E
:1032200021E030E001C0220F6A95EAF78281822B0B
:1032300082830895FC01862F869586958695603F4A
:1032400080F4E80FF11D677081E090E09C0102C0FE
:10325000220F331F6A95E2F7B901609582816823D6
:1032600062830895CF93C82FBBDE6C2F811559F070
:1032700080918C0287FF07C080910001909101012D
:10328000C5DFCF910895809102019091030196DFEF
:10329000F8CFCF93C82FA4DE6C2F811559F0809101
:1032A0008C0287FF07C08091000190910101C2DF6D
:1032B000CF910895809102019091030199DFF8CF99
:1032C0008FDE811579F080918C0287FF0BC0E09131
:1032D0000001F091010132968EE1DF011D928A9585
:1032E000E9F70895E0910201F0910301329686E03A
:1032F000F4CF0895FECF08958F5F80930A01609107
:103300000701709108018091090190910A01F2CFA3
:1033100083E080930A016091070170910801809118
:10332000090190910A01E6CFE7CF089581E08093EB
:103330000A01609107017091080180910901909143
:103340000A01D8CFF3CF089591E0811101C090E038
:103350009093090160910701709108018091090122
:1033600090910A01C7CF80910901089580930801C7
:1033700060910701709108018091090190910A0103
:10338000B9CF8091080108958093070160910701EA
:10339000709108018091090190910A01ABCF809151
:1033A0000701089508950895FECF0895089508959A
:1033B000F9CF0895CF93FADF0E946B10F8DFC0E0D9
:1033C0008C2F0E94A30F892B31F4CF5FC630C1F739
:1033D00080E0CF91089581E0FCCFCF93DF93EC01A3
:1033E0006BD08C1B9D0BDF91CF91089585B78068C2
:1033F00085BF85B7806885BF08951F921FB61F924D
:1034000011248F939F93AF93BF9380918302811177
:1034100013C08091A6029091A702A091A802B0913A
:10342000A9024196A11DB11D8093A6029093A70207
:10343000A093A802B093A902BF91AF919F918F91E1
:103440001F901FBE1F9018958091AE02843031F1FD
:103450000E94C8031092830288E190E020E40FB636
:10346000F894A895809360000FBE2093600083B706
:10347000817F846083BF83B7816083BF78948895A0
:1034800083B78E7F83BF0FB6F894A89580916000B4
:10349000886180936000109260000FBE08950E94C2
:1034A000E0060C94CC0382E084BD93E095BD9AEFD6
:1034B00097BD80936E0008952FB7F8948091A6026F
:1034C0009091A702A091A802B091A9022FBF0895E0
:1034D0002FB7F8946091A6027091A7028091A8027C
:1034E0009091A9022FBF089578941F921FB61F9242
:1034F00011248F939F93AF93BF938091A6029091D5
:10350000A702A091A802B091A9020196A11DB11D28
:103510008093A6029093A702A093A802B093A90259
:10352000BF91AF919F918F911F901FBE1F901895D3
:1035300087E797E7909301088093000888E19AE075
:103540000FB6F894A895809360000FBE909360002A
:10355000FFCF88E19AE00FB6F894A89580936000B9
:103560000FBE90936000FFCF0895282FCB01BA01C2
:103570003091AE023430D1F42F702093E9002FEF58
:103580003091E80035FD06C035ED3A95F1F70000C1
:103590002A95B1F72091E80025FF08C040E050E0EF
:1035A000F2D18091E8008E778093E8000895792F1A
:1035B000603229F440E250E0682F82E0D6CF0895CF
:1035C000BC0143E050E084E0D0CFBC0140E250E0D9
:1035D00084E0CBCFCF93DF93D82FC92FC4DE48E050
:1035E00050E06D2F7C2F81E0C0DF88E0ED2FFC2FB5
:1035F000A4E8B2E001900D928A95E1F7DF91CF91B6
:103600000895A0E2B0E0E6E0FBE191C68091AE0251
:103610008430F9F483E08093E9008091E80082FF30
:1036200018C08091E80090E085FF08C040E050E0BD
:1036300060E270E0CE010196F4D191E08091E80063
:103640008B778093E800911521F060E2CE0101961E
:10365000C0DBA096E2E087C68091AD02811107C071
:1036600067D3BED38091E20084608093E200089526
:103670001092AD0208955ADE81E066CE6091AA02F2
:1036800081E0611101C080E043CE9091AE0281E003
:10369000943009F080E06091AA0246CE42E061ECED
:1036A00081E0C2D242E261EC84E0BED242E261EC4F
:1036B00082E0BAD242E260EC83E0B6D29091AE02F0
:1036C00081E0943009F080E06091AA0215CE8091EB
:1036D000B002893081F148F4823009F496C0833019
:1036E00009F457C0813041F008958A3009F480C050
:1036F0008B3009F468C008958091AF02813A09F0D7
:1037000047C08091E800877F8093E8008091B302F2
:103710009091B402892B59F060E080E090E070E075
:10372000CED18091E8008B778093E800089568E01F
:1037300084E892E0F4CF8091AF02813249F5809124
:10374000B3029091B4028D7F892B11F58091E8002E
:10375000877F8093E8008091E80082FF15C09091F8
:10376000F3008091F200029731F48091F1008130F2
:1037700011F0863019F48091F100F8DD8091E800B5
:103780008B778093E80084C28091AE028111E3CFF1
:1037900008958091AF02813AD9F78091B302909158
:1037A000B402892BA9F78091E800877F8093E80015
:1037B0008091E80080FFFCCFD6DD8093F1008091FE
:1037C000E8008E77DECF8091AF02813209F78091D9
:1037D000B3029091B402892BD9F68091E800877FDB
:1037E0008093E80055D28091B102AEDD0C94E006E2
:1037F0008091AF02813261F68091E800877F8093EB
:10380000E80046D28091B202BFCD8091AF02813AEA
:1038100009F0BECF8091E800877F8093E800809117
:10382000E80080FFFCCFBBDDC8CF84B7877F84BFB3
:103830000FB6F894A895809160008861809360002D
:10384000109260000FBE80E890E00FB6F89480936D
:103850006100909361000FBE75CD6AD2C1D2E2EED5
:10386000F0E080818460808378942BC58BE091E0C8
:10387000B2CB8091AE02853029F48091AE028530C2
:1038800011F00DCE0895E0DD95DD8115B1F3809145
:10389000AC02811591F361D00E94E006EECF08954D
:1038A0009A014091B5025091B60200C0FC01AB01F3
:1038B000D901892F992783309105C1F068F48130AF
:1038C000910509F445C0029761F48BE590E024E38B
:1038D00033E02D933C93089581329105E1F0829776
:1038E00039F180E090E020E030E0F3CFCF0199277C
:1038F000E13059F08230910559F0E0E3F3E0892B93
:1039000081F7849190E09F01E4CFECE1F3E0F9CFFF
:10391000ECE0F3E0F6CF6330710518F7FB01EE0F32
:10392000FF1FE256FE4F2081318189E090E0D1CF28
:1039300063307105B0F6FB01EE0FFF1FE856FE4F36
:10394000208131814B565E4FFA01808190E0C1CFDA
:1039500082E190E02FE833E0BCCF80E189BD82E1D5
:1039600089BD09B400FEFDCF8091D8008F7D809382
:10397000D8008091E00082608093E0008091E000B8
:1039800081FDFCCF0895AF92BF92CF92DF92EF926C
:10399000FF920F931F93CF936C018B017A0197D104
:1039A000C82F811123C0E114F10439F0F70180819F
:1039B0009181081B190BC80ED91EA12CB12C011521
:1039C0001105A1F08091E80085FD20C08091E800FC
:1039D0008E778093E800E114F10499F0F70180817B
:1039E00091818A0D9B1D91838083C5E08C2FCF919F
:1039F0001F910F91FF90EF90DF90CF90BF90AF900D
:103A0000089565D18115F1F2C82FF0CFF6018191AB
:103A10006F018093F10001501109FFEFAF1ABF0A47
:103A2000CECFAF92BF92CF92DF92EF92FF920F93E1
:103A30001F93CF936C018B017A0149D1C82F81115B
:103A400023C0E114F10439F0F70180819181081B52
:103A5000190BC80ED91EA12CB12C01151105A1F00E
:103A60008091E80085FD20C08091E8008B778093ED
:103A7000E800E114F10499F0F701808191818A0D49
:103A80009B1D91838083C5E08C2FCF911F910F9157
:103A9000FF90EF90DF90CF90BF90AF90089517D137
:103AA0008115F1F2C82FF0CF8091F100F6018193DA
:103AB0006F0101501109FFEFAF1ABF0ACECFFC0111
:103AC0009B018091B5029091B6028617970718F076
:103AD000672B61F0C90140E0009771F441110CC0FF
:103AE0008091E80082FF35C080E008958091E80071
:103AF0008E778093E800EECF2091AE022115A9F1D8
:103B00002530A9F12091E80023FD2DC02091E80087
:103B100022FDE6CF2091E80020FFDECF3091F300B8
:103B20002091F200009719F02830310558F041E05B
:103B30002830310509F040E02091E8002E772093ED
:103B4000E800CACF41914093F10001972F5F3F4FAA
:103B5000E9CF8091AE02811541F0853041F080912E
:103B6000E80083FFBDCF81E0089582E0089583E0FF
:103B70000895FC019B018091B5029091B6028617D1
:103B8000970718F0672B61F0C90140E0009771F4C6
:103B900041110CC08091E80082FF36C080E008959A
:103BA0008091E8008E778093E800EECF2091AE02FE
:103BB0002115B1F12530B1F12091E80023FD2EC08F
:103BC0002091E80022FDE6CF2091E80020FFDECF23
:103BD0003091F3002091F200009719F02830310560
:103BE00058F041E02830310509F040E02091E8002C
:103BF0002E772093E800CACF44914093F10031968C
:103C000001972F5F3F4FE8CF8091AE02811541F0C1
:103C1000853041F08091E80083FFBCCF81E00895BA
:103C200082E0089583E00895982F973028F08F70F0
:103C30008093E90081E008959093E900242F762F86
:103C400050E0981731F07091EC002091ED00509108
:103C5000F00021FD02C09F5FE8CF3091EB003E7F76
:103C60003093EB003091ED003D7F3093ED003091CB
:103C7000EB0031603093EB007093EC002093ED008B
:103C80005093F0002091EE0027FDE5CF80E00895ED
:103C90008091AF0287FF13C08091E80082FF06C0C9
:103CA0008091E8008B778093E80008958091AE02C0
:103CB0008111F2CF08958091AE028115D9F38091E0
:103CC000E80080FFF8CF8091E8008E77ECCF20915C
:103CD000E4003091E50095E6A9012091EC00822FE7
:103CE000817020FF06C08091E80080FF06C080E060
:103CF00008952091E80022FD1AC08091AE0281153E
:103D000089F0853089F08091EB0085FD0FC020910E
:103D1000E4003091E50042175307F9F29A95E1F675
:103D200084E0089582E0089583E0089581E0089595
:103D300067D06ED0E0EEF0E0808181608083E8EDB6
:103D4000F0E080818F77808319BCA7EDB0E08C9183
:103D50008E7F8C9380818F7E80831092AD02089538
:103D60000F931F93CF93DF934BD052D0C8EDD0E089
:103D700088818F77888388818068888388818F7D18
:103D8000888319BC1092AE021092AA021092AC0263
:103D90001092AB0200EE10E0F80180818B7F8083EF
:103DA00088818160888342E060E080E03DDFE1EE71
:103DB000F0E080818E7F8083E2EEF0E080818160A0
:103DC0008083808188608083F80180818E7F8083FA
:103DD000888180618883DF91CF911F910F91089531
:103DE000E8EDF0E080818F7E8083E7EDF0E0808178
:103DF0008160808384E082BF81E08093AD02B0CF98
:103E0000E8EDF0E080818E7F80831092E2000895DB
:103E10001092DA001092E10008951F920F920FB6EF
:103E20000F9211242F933F934F935F936F937F9340
:103E30008F939F93AF93BF93EF93FF938091E10094
:103E400082FF0AC08091E20082FF06C08091E100FB
:103E50008B7F8093E10034D28091DA0080FF18C01C
:103E60008091D80080FF14C08091DA008E7F80930B
:103E7000DA008091D90080FF8FC080E189BD82E1A6
:103E800089BD09B400FEFDCF81E08093AE02E4DB82
:103E90008091E10080FF18C08091E20080FF14C093
:103EA0008091E2008E7F8093E2008091E200806149
:103EB0008093E2008091D80080628093D80019BC82
:103EC00085E08093AE02DADB8091E10084FF28C0B8
:103ED0008091E20084FF24C080E189BD82E189BD38
:103EE00009B400FEFDCF8091D8008F7D8093D8006B
:103EF0008091E1008F7E8093E1008091E2008F7ECF
:103F00008093E2008091E20081608093E2008091E2
:103F1000AA02811509F445C084E08093AE02B5DBA6
:103F20008091E10083FF27C08091E20083FF23C0DE
:103F30008091E100877F8093E10082E08093AE0270
:103F40001092AA028091E1008E7F8093E10080911F
:103F5000E2008E7F8093E2008091E2008061809396
:103F6000E20042E060E080E05FDE8091F000886087
:103F70008093F00080DBFF91EF91BF91AF919F9113
:103F80008F917F916F915F914F913F912F910F9002
:103F90000FBE0F901F90189519BC1092AE0268DBEF
:103FA00077CF8091E30087FF02C083E0B6CF81E046
:103FB000B4CF1F920F920FB60F921124EF92FF927F
:103FC0000F931F932F933F934F935F936F937F9321
:103FD0008F939F93AF93BF93CF93EF93FF9309EE8C
:103FE00010E0F8018081C091EC008F70C795CC275C
:103FF000C795C82B108280EFE82EF12CF701808145
:10400000877F808378941FD0F8011082F701808128
:1040100088608083CF70F801C083FF91EF91CF91CA
:10402000BF91AF919F918F917F916F915F914F91D0
:104030003F912F911F910F91FF90EF900F900FBE26
:104040000F901F901895AAE2B0E0E8E2F0E26DC18F
:104050008FEA92E0FC0101962091F100208322E09A
:10406000873B9207B9F733DB8091E80083FF37C0C5
:104070008091AF029091B0029A3088F5E92FF0E07C
:10408000E45AFD4D37C1803889F0823841F580917E
:10409000B3028F70873018F58093E9008091EB00B0
:1040A00085FB882780F91092E90006C08091AC0258
:1040B000880F9091AB02892B9091E800977F9093A5
:1040C000E8008093F1001092F1008091E8008E7773
:1040D00022C0811115C08091B102813001F180911F
:1040E000E80083FF0AC08091E800877F8093E800A2
:1040F0008091EB0080628093EB00AA96E4E031C1EE
:10410000823069F78091B102811581F01092E90047
:104110008091E800877F8093E800BADDE0CF81E0FE
:10412000933009F080E08093AC02F0CF8091B3022D
:104130008F702FEF280F263090F68093E9002091A2
:10414000EB0020FFE3CF933031F48091EB008062ED
:104150008093EB00DBCF9091EB0090619093EB00AC
:1041600021E030E0A90102C0440F551F8A95E2F713
:104170004093EA001092EA008091EB008860E8CF5B
:104180008111ADCF1091B1021F778091E30080784B
:10419000812B8093E3008091E800877F8093E80083
:1041A00077DD8091E80080FFFCCF8091E30080689C
:1041B0008093E30083E0111101C082E08093AE029E
:1041C0008ECF8058823008F08ACF8091B1029091D2
:1041D000B2028C3D53E0950791F583E08A838AE231
:1041E00089834FB7F894DE01139620E03EE051E258
:1041F000E32FF0E050935700849120FF03C0829595
:104200008F703F5F8F708A30C0F0895C90E08D9333
:104210009D932F5F243161F74FBF8091E800877F26
:104220008093E8006AE270E0CE01019648DC80915C
:10423000E8008B778093E80052CF805DE7CF6091F4
:10424000B3027091B402AE014F5F5F4F29DB8C0166
:10425000892B09F444CF8091E800877F8093E800A0
:10426000B80189819A8185DCE2CF803809F037CFA7
:104270008091E800877F8093E8008091AA02809374
:10428000F10023CF81112BCF9091B102923008F031
:1042900026CF8091E800877F8093E8009093AA0260
:1042A000F7DC8091AA02811529F084E08093AE02A8
:1042B000F5D915CF8091E30087FDF7CF81E0F6CFE8
:1042C0000895CF938091AE02811591F08091E9001D
:1042D000C091EC008F70C795CC27C795C82B109262
:1042E000E9008091E80083FDAEDECF70C093E90065
:1042F000CF910895EE0FFF1F0590F491E02D0994E2
:1043000069279627692778278727782708952F9286
:104310003F924F925F926F927F928F929F92AF9255
:10432000BF92CF92DF92EF92FF920F931F93CF93A2
:10433000DF93CDB7DEB7CA1BDB0B0FB6F894DEBF39
:104340000FBECDBF09942A88398848885F846E845F
:104350007D848C849B84AA84B984C884DF80EE80A9
:10436000FD800C811B81AA81B981CE0FD11D0FB6B2
:10437000F894DEBF0FBECDBFED010895FB01DC0157
:1043800004C08D910190801921F441505040C8F72C
:10439000881B990B0895FB01DC0102C001900D926E
:1043A00041505040D8F70895F999FECF92BD81BD94
:1043B000F89A992780B50895A8E1B0E042E050E06E
:1043C0002FC0DC01A40FB51F4150504040F0CB017D
:1043D000840F951F2E9105D041505040D8F7089575
:1043E000262FF999FECF92BD81BDF89A019700B4AE
:1043F000021639F01FBA20BD0FB6F894FA9AF99A4E
:104400000FBE08950396272FECDFEADF252FE9DFA3
:10441000242FE7CF0196272FE4DFE2CFDC01CB0189
:10442000FC01F999FECF06C0F2BDE1BDF89A3196C4
:1044300000B40D9241505040B8F70895F894FFCF62
:104440000E147D141614E013E4131A14E8131E144A
:104450002A14F4137614F8132E14FC133214571480
:10446000001436145E1406143C144414EC13221485
:10447000F01326140A1440144E1467147414DA133B
:104480001214841428162E161816221634163A16EC
:104490004016FE160C173917491753175D175F178B
:1044A0005F175F1714171417631766176D177917BF
:1044B0008517871789179517432069206F20692072
:0C44C0006F20C020E1206F203521422138
:1044CC003502550203020100000100C119EA1AE588
:1044DC001AB41AE01AD71AE200E900EA00B500B6DD
:1044EC0000B700CD008301CC008A01920194012118
:1044FC0002230224022502260227022A02B300B458
:10450C00006F0070009F01CB019F02A002E200E946
:10451C0000EA00B500B600B700CD008301CC008ADC
:10452C000192019401210223022402250226022772
:10453C00022A02B300B4006F0070009F01CB019FF0
:10454C0002A00266949091929397C635343236F756
:10455C003133F6F5F444226D3004A103C303460352
:04456C005F037F0367
:00000001FF
