:100000000C9482020C949F020C949F020C949F0209
:100010000C949F020C949F020C949F020C949F02DC
:100020000C949F020C949F020C94CD1F0C94A02062
:100030000C947C1A0C949F020C949F020C949F02C7
:100040000C949F020C949F020C949F020C949F02AC
:100050000C949F020C94F41A0C949F020C949F022F
:100060000C949F020C949F020C949F020C949F028C
:100070000C949F020C949F020C949F020C949F027C
:100080000C949F020C949F020C949F020C949F026C
:100090000C949F020C949F020C949F020C949F025C
:1000A0000C949F020C949F020C949F023500000058
:1000B0000000000000000000000000000000000040
:1000C00000004C001E001F00200021002200230021
:1000D00024002500260027002D002E002B001400F0
:1000E0001A000800150017001C0018000C00120070
:1000F00013002A00290004001600070009000A0066
:100100000B000D000E000F0033003400E1001D0055
:100110001B00060019000500110010003600370012
:1001200038001E7CE000E300007EE2002152000067
:100130002C0022525000510052004F0001000000DC
:1001400000000000000000000000000000000000AF
:10015000000001003A003B003C003D003E003F0033
:1001600040004100420043004400450001000100FE
:100170005200010001005F00600061000100010009
:100180002F0030003900500051004F0001005C008A
:100190005D005E000100010001003100010001006E
:1001A00001000100010059005A005B00010001003C
:1001B0000100280001000100010001000100000011
:1001C000620063004A004E004B004D000100000039
:1001D000000000000000000000000000000000001F
:1001E0000000010001000100010001000100010008
:1001F000010001000100A800AA00A90001000100FF
:1002000001000100010001000100010001000100E6
:100210002F00300001000100010001000100010079
:100220000100010001000100010031000100010096
:1002300001000100010001000100010001000100B6
:10024000010028120100010001000100010000006E
:10025000010001000100010001002811010000005F
:10026000000000000000000000000000000000008E
:100270000000010001000100010001000100010077
:100280000100010001000100010001000100010066
:100290000100010001000100010001000100010056
:1002A0000100010001000100010001000100010046
:1002B0000100010001000100010001000100010036
:1002C0000100010001000100010001000100010026
:1002D0000100010001000100010001000100000017
:1002E0000100010001000100010001000000000008
:1002F000000000002A2B2800000000000000000081
:100300000000000000000029000000002C1E342026
:10031000212224342627252E362D3738271E1F204C
:100320002122232425263333362E37381F04050691
:100330000708090A0B0C0D0E0F10111213141516D5
:100340001718191A1B1C1D2F3130232D35040506D3
:100350000708090A0B0C0D0E0F10111213141516B5
:100360001718191A1B1C1D2F3130354C00000000C6
:10037000000000000000000000000000000000007D
:10038000000000000000000000000000000000006D
:100390007E0F00D4FFFFFFC7000000780E034B0064
:1003A000720074006B00750073000000120373008C
:1003B00077006900660074003500300032000000EC
:1003C0000403090409025B00030100A0FA09040008
:1003D000000103010100092111010001224400076D
:1003E000058103080001090401000203000000095F
:1003F00021110100012222000705820320000107CC
:1004000005030320000109040200010300000009A4
:100410002111010001226D00070584032000011253
:1004200001000200000008424A1616000101020005
:10043000010660FF0961A1010962150026FF009510
:1004400020750881020963150026FF0095207508B4
:100450009102C005010980A101850319012AB70095
:10046000150126B700950175108100C0050C090122
:10047000A101850419012AA002150126A0029501F7
:1004800075108100C005010906A10185060507193F
:10049000E029E71500250195087501810205071976
:1004A0000029EF1500250195F07501810205081955
:1004B000012905950575019102950175039101C00A
:1004C00005010906A101050719E029E71500250125
:1004D00095087501810295017508810105071900CC
:1004E00029FF150026FF00950675088100050819EB
:1004F00001290515002501950575019102950175E4
:10050000039101C011241FBECFEFDAE0DEBFCDBFE3
:1005100011E0A0E0B1E0E4E8F6E402C005900D923D
:10052000A23AB107D9F722E0A2EAB1E001C01D92D8
:10053000A53BB207E1F70E9483120C94FA220C94B7
:1005400000000F931F93CF93DF93EC018B010E9468
:10055000240C982F9272C630D10579F1C1152EE77F
:10056000D20741F0C530D105F9F0B801CE010E94A3
:100570000F030BC0F8012581211589F081718115C8
:1005800049F088EA0E94B10480E0DF91CF911F9189
:100590000F91089589EA9111F5CF8AEAF3CF80E0AF
:1005A00090E00E94BF18F0CFF80185818115E9F233
:1005B0009232D9F60E94B603E7CFF8018581811502
:1005C000A1F2923291F60E94F30D0E94BC03DCCF9F
:1005D0008430B8F46630A8F44C3098F4E42FF0E09E
:1005E0009CE0699FE00DF11D112498E4899FE00DC6
:1005F000F11D1124EE0FFF1FE455FF4F85919491DB
:10060000089581E090E0089581E0089581E00895E3
:100610000E940403089581E0089581E0089581E037
:100620000895089508950E94110308950895089566
:10063000A6E0B0E0EEE1F3E00C946A2249835A832D
:100640009E833091A90189819A8131111AC03E811E
:10065000311599F0211589F00E94E008182F682FB4
:1006600089819A810E94BC0869817A81812F0E94C8
:1006700012102696E3E00C9486220E94CE08182FD2
:10068000F3CF0E94E00869817A81F1CFFC01262F27
:100690004081518162817381848195810E94180318
:1006A0000895CF93DF93D82FC92F61E00E944603AE
:1006B0006D2F7C2F0E940603811549F061E08D2F7C
:1006C0009C2F0E9446036D2F7C2F0E940803DF9110
:1006D000CF9108950F931F93CF93DF93D82FC92FF6
:1006E00060E00E9446038C016D2F7C2F0E94120354
:1006F0006D2F7C2FC8010E941303DF91CF911F91B2
:100700000F91089591E001C0990F8A95EAF7892F1A
:100710000E94FE070895CF93C82F81E00C2E01C0E0
:10072000880F0A94EAF70E94680D8C2F0E948203BA
:10073000CF91089581E0089581E008950E949A0381
:100740000895CF93C82F0E94AA078C2F0E949C0364
:100750008C2F0E949E032FEF84E39CE02150804069
:100760009040E1F700C00000CF91089581E00E9421
:10077000A1030E94181B089580E00E94A1030E941B
:10078000291B08950F931F93CF93DF938C0161E092
:100790000E944603EC01B8010E940D03811509F483
:1007A00050C0B801CE010E94A102811509F449C0D0
:1007B000B801CE010E948417811509F442C0B80126
:1007C000CE010E949E168115E1F1B801CE010E9472
:1007D00043148115B1F1B801CE010E94181481159E
:1007E00081F1B801CE010E94E016811551F1B801E6
:1007F000CE010E941511811521F1F8018581811525
:1008000081F0CA35FCE7DF0739F178F4C130ECE755
:10081000DE07F9F0C330FCE7DF07C9F0C115DC479C
:1008200071F0C8010E940B030DC0CB35ECE7DE0769
:10083000B1F0CC35DC47A9F70E943A0DF2CF0E9407
:10084000B60380E0DF91CF911F910F9108950E9430
:100850004B0D0E94BC03F5CF0E94430DE2CF0E94D6
:10086000470DDFCF0E9416030E944E1A0E945604C5
:1008700008950E945A040E9417030E94531A089573
:1008800081E008950895CF93DF93D82F0E9440040C
:10089000C82F811519F08D2F0E9442048C2FDF91F3
:1008A000CF91089508950E944304089580E00E9426
:1008B000530408950E9472180E9453040895CF9320
:1008C0000E947218C82F8091A4018C1779F0C093F0
:1008D000A4010E94E81A6093A5017093A601809379
:1008E000A7019093A8018C2F0E945304CF910895E3
:1008F000ADE0B0E0EEE7F4E00C946B224887598756
:100900006A877B878C879D8791110E94460C1F8286
:1009100086E0FE013896DE01119601900D928A95CF
:10092000E1F78D8181110DC029813A814B815C8174
:100930006D817E818F810E94900B2D96E2E00C9458
:100940008722CE0101960E9451038111EDCFF5CF90
:10095000FC018481813021F4808191810E94090908
:100960000895CF93C82F811599F08CEF8C0F813AA1
:1009700088F48C2F0E940719811529F08C2F0E9472
:10098000B0190E94DC0C8C2F0E9496190E94DC0C7E
:10099000CF91089580E28C0F883048F4C77081E0D1
:1009A00001C0880FCA95EAF70E94270CEFCF8BE5AC
:1009B0008C0F833038F42C2F2452330BC9010E9442
:1009C0009918E6CFC85ACB3118F7EC2FF0E0EE0FAC
:1009D000FF1FEB5EFE4F808191810E94BF18D8CF30
:1009E000811539F19CEF980F913A28F40E94B019C3
:1009F0000E94DC0C089590E2980F983050F48770B4
:100A000091E001C0990F8A95EAF7892F0E942D0C79
:100A1000EFCF9BE5980F933028F480E090E00E94A0
:100A200099180895885A8B3120F480E090E00E9454
:100A3000BF1808950F931F93CF93C82F8B010E9467
:100A4000B1040115110539F48C2F0E94F004CF91E7
:100A50001F910F9108958FE99FE00197F1F700C072
:100A6000000001501109EDCF60E570E0893311F00D
:100A700068E270E00E941A050895811521F00E9435
:100A8000270C0E94DC0C0895811521F00E942D0C8A
:100A90000E94DC0C0895A0E0B0E0E1E5F5E00C94E4
:100AA00065226C01D62FC72FFC010581F680F294D8
:100AB0008FE0F8220E941C0CE82E8115F9F0E02E40
:100AC0000115E1F08C2F807F803461F080E28D0F82
:100AD0008830D0F18C2F807E803221F4D230A0F18A
:100AE000F11491F180918B0282FF2EC082E00E946E
:100AF0000D0D0E941C0C91E0E82EE9268C2F8295AA
:100B00008F70883009F4F2C0C8F58430F8F41C2FD7
:100B10001F70823008F443C0C07FC03211F01295BC
:100B2000107FD11509F46AC0D13009F49AC00115BB
:100B300009F4A6C0F11409F47DC0F601868180FF96
:100B400041C08F70868376C0E12CD8CF843009F401
:100B5000B0C0E11409F4F8C00E94180C80FDF4C084
:100B6000F60115820E94120C0E942B08C6010E94F9
:100B700075070E94120C0E943708E6C0893009F4FC
:100B800026C18A5F8F70823020F7D23F09F030C1D2
:100B90008C2F8F71011129C10E942B08D1C0C03147
:100BA00010F01295107F011599F0111559F080E29F
:100BB0008D0F883010F0D11107C0812F0E94270CB3
:100BC0000E94DC0C8D2F28C0812F0E94380CF8CF9A
:100BD0008D2F0E94F004111509F4BBCF80E28D0F18
:100BE000883010F0D11104C0812F0E942D0C03C059
:100BF000812F0E943E0C0E94DC0CABCF80918B02B7
:100C000082FD14C0011559F0111529F0812F0E94A1
:100C1000270C0E94DC0C80E00E94B1049ACF80E097
:100C20000E94F004111509F494CFDECF011569F08C
:100C3000F11004C0812F0E943D058BCFF1E0FF121F
:100C400088CF812F0E945E0C84CFF11082CF812F3C
:100C50000E944405812F0E946A0C812F0E944D0C36
:100C600078CF011529F026E0F21608F072CFE2CF16
:100C700085E0F81608F06DCF812F0E94440569CFFA
:100C8000F114D1F3D93369F4FFEF27EE83E0F1508B
:100C900020408040E1F700C000008D2F0E94F0044A
:100CA00058CF9FEFE3EFF1E09150E040F040E1F7E3
:100CB000F2CF8C2F869586958370811569F08130EF
:100CC00009F047CF8D2F9C2F9370011102C080E057
:100CD00090E00E94BF183DCF8D2F9C2F9370011183
:100CE00002C080E090E00E94991833CF8C2F83706F
:100CF000811138C0011124C04D2F4295469547708F
:100D0000440F440F8D2F8F70042E01C0880F0A945A
:100D1000EAF72D2F2071D4FF07C02FE030E001C08B
:100D2000220F4A95EAF72095C695C695C370822B87
:100D3000C23091F0C33099F0C13059F00E940708D9
:100D40000E9472180E945304CDB7DEB7E8E00C94FD
:100D500081220E940108F4CF0E940D08F1CF0E9469
:100D6000FE07EECF011539F1C0FFEACF4D2F4295B6
:100D700046954770440F440F8D2F8F70042E01C08D
:100D8000880F0A94EAF72D2F2071D4FF07C02FE0B7
:100D900030E001C0220F4A95EAF72095C695C69526
:100DA000C370822BC23069F0C33071F0C13031F0B2
:100DB0000E945908C5CF823018F2D8CF0E9453083C
:100DC000BFCF0E945F08BCCF0E941908B9CFCF7077
:100DD000011539F08C2F0E942B088D2F0E943D05A4
:100DE000AFCF8D2F0E9444058C2F0E943708A8CFCB
:100DF00068F4D03FC1F0D13F89F0011509F441C03A
:100E0000F114E1F18D2F0E94B1049ACFD33FC9F0C4
:100E1000D43F99F780918B0282FD1DC08C2F8F717A
:100E2000011519F3B9CE011549F025E0F21608F0C5
:100E300087CF8C2F8F710E94470882CF86E0F816EB
:100E4000F6CF011529F08C2F8F710E94220878CFE0
:100E50000E941E0875CF011531F063E08C2F8F7151
:100E60000E94EE0C6DCF81E00E940D0D92E0F9160C
:100E700008F466CF82E00E940D0D62CF8C2F8F7137
:100E80008BCEF114B9F0D93369F4EFEFF7EE23E02C
:100E9000E150F0402040E1F700C000008D2F0E949B
:100EA000F0044ECF8FEF93EFE1E081509040E040AF
:100EB000E1F7F2CF8C2F8F7198CF0F931F93CF93C1
:100EC000DF93EC01688179818D810E9416098C0184
:100ED0000E9465080E94FD07B801CE010E944B05E3
:100EE000DF91CF911F910F910895CF93DF93EC0184
:100EF0008C81811599F0CE010E94C203811111C02D
:100F00000E941C0C811551F08D81811539F0809162
:100F10008B0282FF03C082E00E940D0DDF91CF9112
:100F20000895CE010E945D07CE010E946A03F6CFAC
:100F300080E090E00E94991880E090E00E94BF1845
:100F40000E94460C0E94DC0C08950E94CA190E945F
:100F5000980708950E94350C0E94A5070895282F30
:100F600092959F70963099F060F4925F9F709230E6
:100F700030F4203FB1F038F481E0283E38F080E0D2
:100F800008959A5FF3CF81E0243FC9F7089591E077
:100F9000813F09F090E081E0283E08F080E0892B55
:100FA000089581E00895FC018481811539F08081E4
:100FB00091810E9409090E94AF07089580E0089579
:100FC000A6E0B0E0E6EEF7E00C946B222696E2E0B5
:100FD0000C948722A7E0B0E0E0EFF7E00C946B22DE
:100FE0002796E2E00C94872208950E94F407089562
:100FF0000E94F5078093C601089508950E94F8079E
:1010000008959091C601892B0E94F8070895909148
:10101000C60189230E94F80708959091C601892787
:101020000E94F80708950E94F40708950E9413088B
:1010300008950E9416088093C501089580E00E94DB
:101040001908089591E001C0990F8A95EAF7892F50
:101050000E941908089521E030E001C0220F8A950E
:10106000EAF78091C501822B0E941908089521E0BA
:1010700030E0A90102C0440F551F8A95E2F7CA016A
:1010800080959091C50189230E941908089521E057
:1010900030E001C0220F8A95EAF78091C5018227CE
:1010A0000E94190808959091C501892B0E94190882
:1010B00008959091C50189230E941908089590917F
:1010C000C50189270E941908089508959B0167703A
:1010D00091E001C0990F6A95EAF763E0369527958C
:1010E0006A95E1F7B901660F771F260F371FFA01DE
:1010F000E20FF31F40E050E0682F70E08191DF01C4
:101100009B01042E02C0369527950A94E2F72170C0
:1011100021952827292328272E934F5F5F4F43309F
:10112000510561F708959C01A82FA77083E03695BB
:1011300027958A95E1F7C901880F991F820F931FA0
:10114000FB01E80FF91F40E050E080E0219130E022
:101150000A2E02C0369527950A94E2F721703327AC
:10116000042E01C0220F0A94EAF7822B4F5F5F4FD3
:101170004330510559F70895282F862F963068F48B
:101180002C3058F4622F70E02CE0929F600D711D9E
:1011900011244AEA51E00E9466080895292F9630EA
:1011A00068F48C3058F490E06AEA71E03CE0239FE8
:1011B000800D911D11240E949308089580E00895E8
:1011C000A0E0B0E0E6EEF8E00C9466227C0100912D
:1011D000C5018091C601082BC3E0D0E010E0C80132
:1011E0000C2E02C0959587950A94E2F780FD09C000
:1011F0002197A8F7D12C8D2DCDB7DEB7E7E00C9461
:101200008222DC2EB7018C2F0E941E10019781F3E1
:10121000F2CFCF93DF93D82FC92F0E94E0086D2F14
:101220007C2F0E941E10DF91CF9108951F93CF93C2
:10123000DF93162FD72F9091A901911541F0862F9A
:10124000972F0E940909DF91CF911F910895811571
:1012500081F0862F972F0E94E008C82F682F812FDA
:101260009D2F0E94BC08612F7D2F8C2F0E941E1085
:10127000EACF862F972F0E94CE08C82FF4CFE1E047
:10128000F0E0DF0102C0AA0FBB1F6A95E2F7BD01C3
:10129000DF0102C0AA0FBB1F4A95E2F76A2B01C00B
:1012A000EE0F2A95EAF7962F9823961302C08E2BFD
:1012B0000895E0958E230895242F462F682F80915E
:1012C000C5010E943F090E94190808950F931F93BA
:1012D000CF93E091C701C7E08091C8018E1304C08D
:1012E000CF911F910F9108950E2F10E0CE9FF00126
:1012F0001124E753FE4F2081318142815381648163
:10130000758186810E94EA07F8013196E770E4CF83
:101310002091010230910202409103025091040297
:101320006091050270910602809107020E94EA070F
:10133000089580910702803178F48091060281152A
:1013400059F0E091C7012091C8013091020240910B
:10135000010257E02E1301C008956E2F70E05E9FCA
:10136000F0011124DF01A753BE4F14968C911497FE
:10137000811561F111968C911197831327C08C917F
:10138000841324C015968C91159781111FC0129655
:101390008D919C91A0910302B09104028A1B9B0B3A
:1013A000883C910598F4809107028F70806180934A
:1013B0000702E153FE4F80818F708061808381E05E
:1013C00092E00E9475070E9466090895FB0131961C
:1013D000E770C0CFE091C7019091C80127E0E91301
:1013E00002C080E00895AE2FB0E02E9FF0011124DE
:1013F000E753FE4F3181361306C03081381303C0E6
:101400003581341304C0FD013196E770E8CF81E0E7
:1014100008958F929F92AF92BF92DF92EF92FF92C8
:101420000F931F93CF93DF93CDB7DEB72D970FB6F2
:10143000F894DEBF0FBECDBF8C0186E0F801DE015F
:10144000189601900D928A95E1F7D8011596FC90B7
:10145000159714968C9191E0892E92E0992E909197
:10146000050291111BC0811509F409C1F11409F499
:101470004AC1C8010E94D307811509F444C187E01D
:10148000F801D40101900D928A95E1F7C4010E9400
:10149000A8040E9499090E948809F1C0F801E0801F
:1014A000A280B380D0900602209103023091040202
:1014B000A501421B530BD11409F4E4C0483C51056B
:1014C00008F0B4C0811509F4DAC09091020291804D
:1014D00080910702803108F079C0991229C090915B
:1014E00001029E1125C0F1105EC08F708061809353
:1014F00007020E94880981E092E00E9475078091AE
:101500000702D80116968C93F12C8F2D2D960FB6CD
:10151000F894DEBF0FBECDBFDF91CF911F910F9129
:10152000FF90EF90DF90BF90AF909F908F900895C5
:10153000F11039C040E0692D8E2D0E94EA0940E08B
:10154000692D8E2D0E94EA09F82E8111DDCF888544
:1015500099850E940909292F22952F70903450F403
:101560009F70223080F0911599F0F80196819031AA
:1015700078F4CBCF2A5F2F70223078F0C8010E9418
:101580007507FD2CC2CF911519F0811509F4BDCF57
:10159000805E883008F4B9CFF1CF803F08F4B5CF32
:1015A000815F8330F7CF80910702816080930702CB
:1015B00081E092E00E94750787E0E1E0F2E0DF0160
:1015C0001D928A95E9F70E9488099ECF991207C05B
:1015D000909101029E1103C0F11409F474C0C80176
:1015E0000E94D307811509F48EC0F11409F48BC051
:1015F00080910702803288F020910102309102022E
:101600003A832983BC82AB82909105029D831E821E
:101610008F83CE0101960E94750787E0F801A1E053
:10162000B2E001900D928A95E1F733CF90910702D5
:10163000903178F4488559856A857B858C859D85B0
:101640000E94E00781E092E00E94750787E0D401E4
:10165000B7CF8115A1F02091020281812813BFCF5D
:10166000809101028E11BBCFF110B9CF9683C801D2
:101670000E94750787E0D4011D928A95E9F7FF243F
:10168000F39443CF483C510508F041C08115B9F3AC
:10169000F114C9F190910202818198132AC08091BE
:1016A00001028E1126C08091070280FD19C0803191
:1016B000B8F08683807F803F39F08681982F907FB5
:1016C000905F8F70892B8683C8010E94750787E021
:1016D000F801A1E0B2E001900D928A95E1F7DBCE2E
:1016E00087E0F801A1E0B2E001900D928A95E1F760
:1016F000C6CFC8010E94D30781118FCF8091070206
:10170000816080930702C8010E947507B8CF4885A1
:1017100059856A857B858C859D850E94E00796CFDB
:10172000AEE0B0E0E6E9FBE00C946A222887398756
:101730004A875B876C877D878E87CE0108960E94DB
:10174000090A6C858115A9F0611541F02885398554
:101750004A855B857D858E850E94EA0717E080912A
:10176000C7019091C80189133AC02E96E3E00C940A
:10177000862287E0FE013896DE01119601900D92D7
:101780008A95E1F7611551F3A091C8018A2F90E085
:101790000196877099272091C7012817190689F0AB
:1017A00097E09A9FD0011124A753BE4FFE013196B6
:1017B00001900D929A95E1F78093C8010E94660905
:1017C000CDCF0E94AA071092C8011092C70187E0EE
:1017D000E1E0F2E0DF011D928A95E9F7BFCF189FA3
:1017E000C001112487539E4F0E94090A811509F4F4
:1017F000BCCFE091C7011E9FF0011124E753FE4FBB
:1018000020813181428153816481758186810E946A
:10181000EA078091C70190E001968770992780932D
:10182000C7019DCF80913002869586958695089553
:10183000809130028770089590913002977081E016
:10184000911101C080E0089580915C02089590910B
:101850005C02982B90935C020895982F909580914C
:101860005C02892380935C02089510925C020895C3
:1018700090915B02982B90935B020895982F90951E
:1018800080915B02892380935B02089510925B0232
:10189000089508950E94490C089590913102292FCE
:1018A0002823211531F080958923809331020E94ED
:1018B0004A0C089508950E945A0C0895909132029E
:1018C000292F2823281729F0982B909332020E9461
:1018D0005B0C089590913202292F2823211531F0B5
:1018E00080958923809332020E945B0C0895809139
:1018F0003202811529F01092320280E00E945B0CC6
:101900000895CF93C0915C0280915B02C82B8091B7
:101910003202811531F0C82B0E94E51881110E9416
:10192000770C8C2FCF910895CF93DF93C091020154
:10193000D09103010E94810C8883C0910201D09153
:10194000030148E050E068E272E0CE010E9492227A
:10195000892B59F088E0FE01A8E2B2E001900D92D7
:101960008A95E1F7CE010E947F18DF91CF9108950B
:10197000CF93DF93C0910001D09101010E94810CAF
:101980008983C0910001D091010140E250E068E0FC
:1019900072E0CE010E949222892B59F080E2FE0172
:1019A000A8E0B2E001900D928A95E1F7CE010E9485
:1019B0008A18DF91CF9108950E94291A813039F455
:1019C00080918A0287FF03C00E94B80C08950E948C
:1019D000940C089508950E94EA0C0895962F209182
:1019E0008B0222FF11C0682F660F660F660F692BEE
:1019F000609330020E942B08809130028695869574
:101A000086950E94EB0C08950E942B080895109271
:101A1000300280E00E94EB0C089590913002809596
:101A2000892380933002282F277021110DC0891738
:101A300059F090918B0292FF07C086958695869506
:101A40000E9437080E94070D089590918B0292FB27
:101A5000222720F9281769F080FB92F990938B02D6
:101A600080918A0290918B020E94730D82E00E9405
:101A70000D0D089580918B02002482FF0394802D28
:101A80000E94250D089581E00E94250D089580E0B3
:101A90000E94250D08956FEF7FEF80E090E00E9497
:101AA000E422089580E090E00E94B022853E9E4F9F
:101AB00019F40E941B17089580E0089582E090E0D9
:101AC0000E94A822089583E090E00E94A822089531
:101AD000682F83E090E00E94C622089584E090E0A1
:101AE0000E94B0220895BC0184E090E00E94E422AC
:101AF0000895AB01BC018FE090E00E94D8220895C8
:101B0000AB01BC0183E190E00E94D822089560E01F
:101B100070E0CB010E94800D089560E070E0CB0181
:101B20000E94790D0E94870D0895A8E0B0E0EBE9CE
:101B3000FDE00C946B2265EE7EEF80E090E00E9469
:101B4000E42260E082E090E00E94C62281E080937F
:101B5000C6010E94680D60E074E184E090E00E949C
:101B6000E42260E086E090E00E94C62260E087E028
:101B700090E00E94C62240E050E0BA0188E090E088
:101B80000E94D82260E083E290E00E94C62260E0DA
:101B90008CE090E00E94C62260E08DE090E00E9420
:101BA000C62219821A821B821C821D821E821F82FB
:101BB000188648E050E067E170E0CE0101960E948F
:101BC000B62240E050E0BA018FE190E00E94D822B6
:101BD00080E00E9434170E9466170E948D0D28969F
:101BE000E2E00C9487220E94950D0895682F8EE004
:101BF00090E00E94C6220895A6E0B0E0E2E0FEE098
:101C00000C9469220E94DC1A8C0180915D029091F3
:101C10005E028017910779F019821A820E94DC1AFD
:101C2000BC0149815A8180E090E00E9478041093C1
:101C30005E0200935D022696E4E00C9485220E94E9
:101C4000E81A60936F027093700280937102909310
:101C5000720260936B0270936C0280936D0290939A
:101C60006E020895089508950E94320E0895089511
:101C70000E94370E0E94340E089508950E943D0E72
:101C8000089508950E94410E0E943E0E089583E13A
:101C900091E10E949A120E94330E0E94380E08951C
:101CA00081E0089581E008950E94500E08950895FE
:101CB000089508950E94570E0E94580E0E94590ED2
:101CC00008950E94520D811102C00E94F30D0E94DE
:101CD0005E0D809373020E946E0D90938B02809331
:101CE0008A020E94BD120E94630D0E94FE0780912D
:101CF000C5010E94160808950E94D31A0E94761703
:101D00000E94EB110E94610E0E9452040E94420E3A
:101D10000895A6E0B0E0EFE8FEE00C945F220E9498
:101D2000520E811108C00E94FC0D0E945F0426968D
:101D3000EEE00C947B220E9401122FE5822E22E01D
:101D4000922E540110E0F501619071905F01812F96
:101D50000E942F116C011F5F163009F44AC06816EB
:101D6000790689F38091730281FD0E9438110E94E7
:101D7000540E782E10E066246394812F0E942F1158
:101D80007C01F401A190B1904F018A159B0559F196
:101D9000A826BF2400E0CC24C394D12CC5018C21FB
:101DA0009D21892BC1F07114B1F009831A830E941F
:101DB000DC1A9C838B836D8221E0C7018C219D21DD
:101DC000892B09F420E049815A816B817C818D81C6
:101DD000922F0E9478040F5FCC0CDD1C0C30F1F6C2
:101DE000F401F292E2921F5F163039F60E941F0E44
:101DF0009CCF6816790609F0B5CF95CF1F93CF9386
:101E0000DF930E942310EC01811522E5920708F070
:101E10005DC0811540E5940708F0DBC0803E910568
:101E200028F58D3C910508F0ACC0883A910578F40E
:101E3000853A910508F0A2C08130910509F441C0AE
:101E40000497813A9105E8F1C0E0D0E03AC0885AA1
:101E500091094B97C8F7C85AD0E0CC0FDD1FC55B7E
:101E6000DE4F0990D881C02DD4642BC0811550E479
:101E70009507F8F4C11580E2D80708F0C0C0C83E45
:101E8000D105F8F0CE019A9581159F41E8F68D2F86
:101E90000E94C410182FCE0199270E942310212FD1
:101EA00030E0322F2227E901CC27DF71C82BD92B54
:101EB00008C099270E942310CC27DF70C82BD92B8C
:101EC000D06ACE01DF91CF911F910895803842E50D
:101ED0009407C8F5803652E5950708F05BC0C0341A
:101EE00082E5D807D0F4C03292E5D90708F04BC09C
:101EF0008C2F8695869520E2829FC0011124C370A5
:101F000021E030E0A90102C0440F551FCA95E2F755
:101F1000EA01C82BD92BDD68D4CF8C2F8695869506
:101F2000877050E2859FC0011124C37021E030E02A
:101F3000A90102C0440F551FCA95E2F7EA01C82B58
:101F4000D92BDC68BECF803C52E5950758F48F71E1
:101F5000C03AD245A0F590E0982F8827EC01C46FD5
:101F6000D06AAFCF805C9245809708F06DCFDC2FB0
:101F7000CC27CC27DF71C06FD06AA3CFA497D064E1
:101F8000A0CFD0659ECFCF71D0E0DC2FCC27C16F22
:101F9000D06A97CF86958695877020E2829FC00190
:101FA0001124C37021E030E0A90102C0440F551F85
:101FB000CA95E2F7EA01C82BD92BDA6882CF0E94D2
:101FC000C410C82FD0E0DC2FCC27CC27DF71D06223
:101FD00078CF8F710E94C41053E0CC0FDD1F5A954B
:101FE000E1F7CC27DF70282F30E084FF04C050E1F8
:101FF000859F90011124C22BD32BD06962CF8D2FE6
:102000008F710E94C410182FCE0199270E942310AF
:10201000212F30E0322F222722273F71282B392B06
:10202000E901D5CF462F672F763028F44C3018F4CD
:102030000E948513089580E090E008950E94121098
:102040000E94FE0E08959C01803E910509F448C04F
:10205000D8F48133910509F47DC048F489329105A3
:1020600009F46DC08A9709F47CC0C90108958933C9
:10207000910551F18238910539F1C597B1F78091F9
:102080008A0285FFF2CF29C0843E910509F447C03A
:1020900048F4823E910599F1833E9105A9F121EE24
:1020A00030E0E3CF863E910509F444C0873E9105B8
:1020B000E1F680918A0283FD61C090918B0291FFCD
:1020C0002BC024EE30E0D1CF80918A028370811141
:1020D00052C080918B0283FFC8CF29E230E0C5CF88
:1020E00080918A0280FD33C090918B0290FFBDCF1A
:1020F00023EE30E084FFB9CF20E030E0B6CF80910E
:102100008A0282FDF5CFB1CF80918A0282FD30C074
:1021100090918B0290FD2FC084FFA7CFEDCF8091CF
:102120008B0281FFA2CF80918A0227EE30E084FDEE
:10213000E3CF9BCF80918A0283FDF7CF96CF80912A
:102140008A0285FD1EC080918B0283FF8ECF29E31A
:1021500030E08BCF80918A0286FF87CF2AE230E081
:1021600084CF80918A0286FF80CF21E330E07DCF4B
:1021700022EE30E07ACF20EE30E077CF26EE30E06E
:1021800074CF25E330E071CF90918A0292FF10C0A6
:1021900041E0282F2471243009F040E031E0282F5D
:1021A0002871283009F030E0431711F02CE0822725
:1021B00093FF10C041E0282F2471243109F040E042
:1021C00031E0282F2871283109F030E0431711F051
:1021D0002CE0822730918B0230FF10C051E0282F75
:1021E0002171213009F050E041E0282F287128307A
:1021F00009F040E0541711F029E0822731FF10C0A8
:1022000041E0282F2171213109F040E031E0282FF1
:102210002871283109F030E0431711F029E08227B6
:1022200094FD877E089580E00895CF939C01FB0183
:10223000805E9245C1E0809738F4C581C11104C029
:10224000822F8F710E948B038C2FCF910895089558
:102250000E942711089508950E942B110895E82FD8
:10226000F0E0EE0FFF1FE856FD4F80819181089549
:10227000089580EA8A95F1F7089500C008950E94B4
:1022800039110895F894E82FE295EF70F0E041A13C
:102290008F7021E030E0B90102C0660F771F8A9588
:1022A000E2F7CB01962F9095942391A392A1892BCD
:1022B00082A378940895CF93DF93CDE8D1E08991FC
:1022C0008F3F11F00E94421181E0C339D807B9F75E
:1022D000C1E8D1E089918F3F11F00E94421181E065
:1022E000CD38D807B9F7DF91CF9108958F929F929B
:1022F000BF92CF92DF92EF92FF920F931F93CF93F3
:10230000DF938C01B62EE62EF12CC70183579E4F2A
:102310006C01FC0180818F3F09F451C0F894E82FD3
:10232000E295EF70F0E091A18F7021E030E001C004
:10233000220F8A95EAF7892F822B81A382A120950B
:10234000282322A378940E943D11E1E8F1E021E0E6
:1023500030E0812C912C41914F3F81F0A42FA29528
:10236000AF70A05EB0E08C9190E04F7002C0959588
:1023700087954A95E2F7E90180FF04C080E0C82F05
:1023800090E0D92F8C2A9D2A220F331F81E0ED384F
:10239000F80709F7F60180818F3F11F00E94421182
:1023A00061E08114910409F460E08B2D0E943F11DB
:1023B000EE0CFF1C0E0D1F1DF80191828082DF9133
:1023C000CF911F910F91FF90EF90DF90CF90BF9032
:1023D0009F908F9008950E945B118CE0E8E9F2E0F5
:1023E000DF01982F1D929A95E9F7ECE8F2E0DF0102
:1023F0001D928A95E9F786E00E943E120E942811FC
:102400000895ACE0B0E0E7E0F2E10C946822FE0150
:1024100031968CE0DF011D928A95E9F710E0FE2EDF
:102420000F2F612F8F2D902F0E9476111F5F163076
:10243000C1F74CE050E06F2D702F8CE892E00E94C5
:10244000922221E0892B81F420E046E068E972E0E5
:102450008CE892E00E943F12182F0E942C11812FCD
:102460002C96E5E00C9484228CE0EF2DF02FACE864
:10247000B2E001900D928A95E1F7E7CF0895A0E0D0
:10248000B0E0E5E4F2E10C946522D82EE92EF62EB8
:10249000D72F042FC22F211579F081E08093760287
:1024A0000E94DC1A909375028093740280E0CDB78D
:1024B000DEB7E8E00C948122C0907602C114B1F33B
:1024C00080917402909175020E946B1A059770F3C7
:1024D00010E0000F111FA8016D2D7E2D8F2D9D2F57
:1024E0000E949222892B41F0A8016D2D7E2D8F2D07
:1024F0009D2F0E949F22CC2D109276028C2FD7CF39
:102500000E94890E08950E94751A0E94BC1C0E94A8
:10251000470E0E94D61C0E947C0E0E94E31C0E9463
:10252000E81C0E9480120E94021D0E94891B0E94CA
:102530005A0EF5CF9093A3018093A20108950E94B3
:102540004B0D089580E00E942F11817008950E9424
:1025500001122FEF86E791E0215080409040E1F793
:1025600000C000000E9401120E94A212811521F0F9
:102570000E949F120E94181B08950E94A71208959E
:102580000F931F93CF93DF938C01FC01C081D18106
:10259000CE010E94A8222196F801D183C083DF9149
:1025A000CF911F910F91089584E0089550E0440F5A
:1025B000551F98E1699F400D511D112490E9899F95
:1025C000400D511D1124CA01889608950F931F9341
:1025D000CF93DF938430C8F46630B8F44C30A8F45D
:1025E0000E94D6128C010E94A822C82FD0E0DC2FB6
:1025F000CC27C80101960E94A8229E01282BC90160
:10260000DF91CF911F910F91089580E090E0F8CF76
:102610000F931F93CF93DF93122F032F843078F4FF
:10262000663068F44C3058F40E94D612EC01602FEA
:102630000E94C622612FCE0101960E94C622DF9120
:10264000CF911F910F9108951F93CF93DF93D0E007
:10265000C0E011C0412F6C2F8D2F0E94E8029C0119
:10266000412F6C2F8D2F0E9408131F5F1C3091F794
:10267000CF5FC63011F010E0EDCFDF5FD43041F70F
:10268000DF91CF911F910895EF92FF920F931F93C7
:10269000CF93DF938C01EA017A01E60EF71ECE1587
:1026A000DF0529F4CDB7DEB7E6E00C9483220034D1
:1026B00082E0180740F4C80188960E94A8228993F6
:1026C0000F5F1F4FECCF80E0FACFEF92FF920F9396
:1026D0001F93CF93DF938C01EA017A01E60EF71E78
:1026E000CE15DF0529F4CDB7DEB7E6E00C948322E2
:1026F000003482E0180728F46881C80188960E9497
:10270000C62221960F5F1F4FEBCF843038F466301E
:1027100028F44C3018F40E94E612089580E090E00E
:10272000089580E1089588E991E00895EF92FF927D
:102730000F931F93CF93DF938C01EA017A01E60E8A
:10274000F71ECE15DF0529F4CDB7DEB7E6E00C9411
:102750008322083981E0180748F4C80188599D4F41
:102760000E94A82289930F5F1F4FEBCF80E0FACF22
:10277000EF92FF920F931F93CF93DF938C01EA01A7
:102780007A01E60EF71ECE15DF0529F4CDB7DEB7C8
:10279000E6E00C948322083981E0180730F4688160
:1027A000C80188599D4F0E94C62221960F5F1F4F76
:1027B000EACFCF93DF93C8E6D2E060E0CE010E947B
:1027C000C6222196C11584E0D807B9F7DF91CF91D1
:1027D0000895A2E0B0E0EFEEF3E10C946822F82E49
:1027E00080E1F816A0F48FEF93E00E94A8228111F7
:1027F0000EC008E612E0F1100EC01A83098348E209
:10280000BE016F5F7F4F80EC92E10E94C11522965E
:10281000E5E00C948422011584E01807C1F3C80197
:102820000E94A8220F5F1F4F8111F5CFFA94E3CFCA
:10283000CF93DF93EB0186319C4719F50E94240C5E
:102840009D819115A1F08A7A91E0811101C090E0FB
:1028500090937702811549F085E30E9496190E94B2
:10286000DC0C80E0DF91CF91089589E2F6CF809172
:102870007702811521F085E30E94B019F0CF89E23B
:10288000FBCF81E0EFCFCF93DF93EC01FB0185819C
:10289000811509F4CFC09E0130572332310508F06D
:1028A000AFC00E946E0D90938B0280938A02FE014E
:1028B000E150F047E232F10520F4E450FD4D0C9474
:1028C0004E2280918A02816080938A0290C080911A
:1028D0008B02886080938B028AC080918A0282601A
:1028E000F3CF80918A028460EFCF80918A02886062
:1028F000EBCF80918B028160EDCF80918B02826063
:10290000E9CF80918A028061DFCF80918A02806264
:10291000DBCF80918A028064D7CF0E94AA07809182
:102920008A028068D1CF80918A028C60CDCF80915D
:102930008B028360CFCF80918A028E7FC5CF80913A
:102940008B02877FC7CF80918A028D7FBDCF809118
:102950008A028B7FB9CF80918A02877FB5CF809121
:102960008B028E7FB7CF80918B028D7FB3CF80910A
:102970008A028F7EA9CF80918A028F7DA5CF809118
:102980008A028F7BA1CF0E94AA0780918A028F774B
:102990009BCF80918A02837F97CF80918B028C7F1F
:1029A00099CF80918A02992782FF939590FB82F9B3
:1029B00090FB83F989CF80918B02982F909590FBA3
:1029C00080F990FB81F986CF90918A02892F8F7BC5
:1029D00096FF806479CF0E94AA0790918A02892F7E
:1029E00097FB87F9805870CF81E00E94F60D8091A7
:1029F0008A0290918B020E94730D0E94AA0780E0C8
:102A0000DF91CF91089580E0F0CF90918A02892FD5
:102A10008F7E94FF806158CF90918A02892F8E7F9C
:102A200090FF816051CF90918B02892F877F93FF18
:102A3000886050CF81E0E4CFA0E0B0E0E2E2F5E1D1
:102A40000C946422E82FF0E0E451FD4FB490282F5D
:102A500026952695269530E0F901E457FC4F049120
:102A6000877010E0082E02C0159507950A94E2F7CA
:102A700001701127F901E458FC4FE490F12C082E65
:102A800002C0F594E7940A94E2F7E0FAEE24FF24FA
:102A9000E0F8F901E459FC4FC491D0E002C0D595AB
:102AA000C7958A95E2F7C170DD27C62ED12C011596
:102AB000110549F5E114F10431F086EE0E94B104EC
:102AC000C601009771F5B6018B2D0E941A05C6014B
:102AD000009779F5E114F104A1F50115110531F024
:102AE00081EE0E94F004C6010097C9F5CD2B31F0AC
:102AF0008CE20E943405C114D104C9F5CDB7DEB70C
:102B0000E9E00C94802281EE0E94B104C601009796
:102B100089F2EFE9FFE03197F1F700C0000001977B
:102B2000F6CFEFE9FFE03197F1F700C00000019721
:102B3000C8CFEFE9FFE03197F1F700C0000001973F
:102B4000C7CF86EE0E94F004C601009731F2EFE98C
:102B5000FFE03197F1F700C000000197F6CFEFE9F1
:102B6000FFE03197F1F700C000000197BDCF8FE97A
:102B70009FE00197F1F700C0000091E0C91AD10869
:102B8000BACFA0E0B0E0E7ECF5E10C9464227C0160
:102B9000D62F172F042F8D2F912FF701099581150F
:102BA000B9F0813009F060C08D2F912FF7010995A0
:102BB000C82F813091F48D2F912FF70109950E9434
:102BC0003405802F90E0009709F046C0C111E3CF93
:102BD000CDB7DEB7E9E00C948022823039F48D2F36
:102BE000912FF70109950E94B104EBCF833039F49E
:102BF0008D2F912FF70109950E94F004E2CF8430C8
:102C000001F78D2F912FF7010995C82FC12CD12CD9
:102C10008AE0B82E2C2F2053330BC9012A303105FE
:102C200068F0C114D10469F28FE99FE00197F1F7D0
:102C300000C0000091E0C91AD108F3CFBC9C9001FC
:102C4000BD9C300D11246C01C20ED31E8D2F912F0F
:102C5000F7010995C82FDECFEFE9FFE03197F1F7D3
:102C600000C000000197AFCF602F0E941C1593CFCA
:102C70000F931F93CF93DF93C42FD22FFC01858135
:102C80008115C9F040937A020E94DC1A9093790270
:102C90008093780280E28C0F883040F4C77081E026
:102CA00001C0880FCA95EAF70E943D05DF91CF91D8
:102CB0001F910F91089510917A02141333C08091DF
:102CC0007802909179020E946B1A883C910550F528
:102CD000C0E2CD0F1D17C1F080E2810F883040F4B3
:102CE000177081E001C0880F1A95EAF70E94440529
:102CF000C83050F491E08D2F877001C0990F8A95EC
:102D0000EAF7892F0E943D05802F0E943405C830C4
:102D100068F6D77081E001C0880FDA95EAF70E9463
:102D20004405C4CF80E28C0F883008F0BFCFC77055
:102D300081E001C0880FCA95EAF7F1CF0F93DB015C
:102D4000FC01E851FC47E730F10598F5E25EFC4DE7
:102D50000C944E2206E221EE41EE6AE17CE7CD01C1
:102D60000E94381680E00F91089507E225EE45EEA7
:102D70006BE17CE7F4CF06E221EE40EE68E17CE710
:102D8000EECF07E225EE44EE69E17CE7E8CF06E20C
:102D900021EE42EE6CE17CE7E2CF07E225EE46EE63
:102DA0006DE17CE7DCCF08E221E045EE6EE17CE7F7
:102DB000D6CF15968C91811110927A0281E0D3CFF3
:102DC000CF93DF939C01FB0127378CE7380739F05D
:102DD00028373C47F1F081E0DF91CF91089585815C
:102DE000811591F00E9412170E942B080E9418175B
:102DF000D82F0E941517C82F0E9412174D2F6C2F25
:102E00000E945C0980E0E8CF0E9412170E943708F8
:102E1000EDCF8581811519F00E941517E5CF0E942D
:102E20001517F4CF8091060108958091050108954A
:102E300080910401089584E290E00E94A8228532E6
:102E400089F485E290E00E94A822863059F486E257
:102E500090E00E94A82291E0833109F090E0892F50
:102E60008170089580E0FCCFCF93C82F65E2811177
:102E700001C06FEF84E290E00E94C62266E0C111BB
:102E800001C06FEF85E290E00E94C62263E1C111AC
:102E900001C06FEF86E290E00E94C622CF910895B4
:102EA000089587E290E00E94A822682F70E080E0F9
:102EB00090E008950895CF93C62F0E945A176C2F63
:102EC00087E290E00E94C622CF91089580E00E94A0
:102ED000341760E070E0CB010E945B170E9424135E
:102EE0000E94D91381E00E94341708950E94501760
:102EF0000E9451170E945A170E941B17811102C08D
:102F00000E946617089508959C01FB018581811533
:102F100051F0A90157574038510530F4822F0E94D3
:102F2000E91380E0089581E008952FEFFC012083EC
:102F300008950E949517089580E00895CF92DF923A
:102F4000FF920F931F93CF93DF93EC01F62E0E9415
:102F50009C17811110C0E881E150E331E0F4F0E00A
:102F6000EB5DFC4D0C944E2219828CE08A836F2D10
:102F7000CE010E947F1BDF91CF911F910F91FF9097
:102F8000DF90CF90089589818330F9F038F4813053
:102F900061F0823099F08FEF8883E9CF8430D9F7E0
:102FA0001A821B821C821D82E2CF0E94E81A0E94B4
:102FB00054226A837B838C839D83D9CF0E945117CF
:102FC0001A821B821C826D83D2CF0A8110E06E01AF
:102FD000F2E0CF0ED11C063011054CF6802F0E9476
:102FE0002F11F601918382830F5F1F4FF1CF8981EB
:102FF000823031F0853079F68A810E948317B7CF0D
:103000006A817B818C819D810E9454220E945B1782
:10301000AECF4B816A8189810E94E6129827892769
:1030200098279D838C83A3CF2C813D813227232732
:1030300032274B816A8189810E94081398CF0E94B0
:10304000241395CF6F2DCE010E94991790CF0E9427
:10305000911389838CCF0E949313982789279827EF
:103060009A83898384CF6B8170E089819A81AE01D4
:103070004C5F5F4F9827892798270E94961377CF38
:103080006B8170E089819A81AE014C5F5F4F982718
:10309000892798270E94B8136ACF0E94D91367CF57
:1030A0000E94D412D6CF6B8170E089819A81AE01E3
:1030B0004C5F5F4F9827892798270E94441357CF6A
:1030C0006B8170E089819A81AE014C5F5F4F9827D8
:1030D000892798270E9465134ACF90938002809396
:1030E0007F020895E0917F02F0918002309729F0ED
:1030F0000190F081E02D0995089580E00895E09118
:103100007F02F0918002309721F00280F381E02D60
:1031100009950895DC01E0917F02F09180023097DB
:1031200039F086E08C930480F581E02DCD0109957E
:103130000895A3E0B0E0EFE9F8E10C946B229C0164
:1031400080917D0290917E0282179307A1F03093C7
:103150007E0220937D02E0917F02F0918002309701
:1031600051F083E089833B832A830084F185E02D3D
:10317000CE01019609952396E2E00C948722A3E004
:10318000B0E0E5ECF8E10C946B229C0180917B02AD
:1031900090917C0282179307A1F030937C022093D8
:1031A0007B02E0917F02F0918002309751F084E041
:1031B00089833B832A830084F185E02DCE0101962B
:1031C00009952396E2E00C948722CF93DF93C09178
:1031D0000201D091030122960E94291A813081F4C4
:1031E00080918A0287FF0CC0C0910001D09101013B
:1031F00022969EE180E0915028F4DF91CF910895CE
:1032000096E0F8CF29912115B1F38F5FF4CFCF93DA
:10321000C82F811102C080E031C00E94291A81307C
:1032200021F480918A0287FD0EC080910201909165
:103230000301FC013296089621912C1709F1E81739
:10324000F907D1F7E8CF8C2F869586958695C03FF4
:1032500010F7E0910001F0910101E80FF11D2281CA
:1032600030E0C77081E090E002C0880F991FCA95D6
:10327000E2F72823392381E0232B69F2CF910895C7
:1032800081E0FCCF9C01FC0132968FEF90E04191F0
:10329000461751F08F3F19F4411101C0892F9F5FEC
:1032A0009630A9F78F3F09F40895280F311D87FD47
:1032B0003A95F901628308959C01FC013296285FDA
:1032C0003F4F8191861302C0DF011E92E217F30780
:1032D000C1F70895FC01862F869586958695603FF7
:1032E00060F4E80FF11D677021E030E001C0220FAB
:1032F0006A95EAF78281822B82830895FC01862FEA
:10330000869586958695603F80F4E80FF11D67707D
:1033100081E090E09C0102C0220F331F6A95E2F722
:10332000B90160958281682362830895CF93C82F85
:103330000E94291A6C2F813061F480918A0287FFE4
:1033400008C080910001909101010E946A19CF91FB
:10335000089580910201909103010E944219F7CFD4
:10336000CF93C82F0E94291A6C2F813061F480916D
:103370008A0287FF08C080910001909101010E949C
:103380007E19CF91089580910201909103010E94CE
:103390005C19F7CF0E94291A813079F480918A0252
:1033A00087FF0BC0E0910001F091010132968EE1A0
:1033B000DF011D928A95E9F70895E0910201F091ED
:1033C0000301329686E0F4CF08950E94E41908952F
:1033D0008F5F80930A0160910701709108018091CD
:1033E000090190910A010E94E519089583E08093F4
:1033F0000A01609107017091080180910901909183
:103400000A010E94E51908950E94E819089581E0D3
:1034100080930A0160910701709108018091090170
:1034200090910A010E94E51908950E94071A0895D3
:1034300091E0811101C090E0909309016091070132
:10344000709108018091090190910A010E94E5198B
:103450000895809109010895809308016091070102
:10346000709108018091090190910A010E94E5196B
:1034700008958091080108958093070160910701E4
:10348000709108018091090190910A010E94E5194B
:103490000895809107010895089508950E944D1A96
:1034A0000895089508950E944C1A0895CF930E949C
:1034B000511A0E9401120E94521AC0E08C2F0E94E1
:1034C0002F11892B31F4CF5FC630C1F780E0CF9147
:1034D000089581E0FCCFCF93DF93EC010E94DC1ACA
:1034E0008C1B9D0BDF91CF91089585B7806885BFB8
:1034F00085B7806885BF08951F921FB61F9211245B
:103500008F939F93AF93BF9380918102811113C0DA
:103510008091A4029091A502A091A602B091A70269
:103520004196A11DB11D8093A4029093A502A09382
:10353000A602B093A702BF91AF919F918F911F9068
:103540001FBE1F9018958091AC02843031F10E940B
:1035500032041092810288E190E020E40FB6F894E2
:10356000A895809360000FBE2093600083B7817F91
:10357000846083BF83B7816083BF7894889583B765
:103580008E7F83BF0FB6F894A89580916000886104
:1035900080936000109260000FBE08950E94AA07F9
:1035A0000E943904089582E084BD93E095BD9AEFAE
:1035B00097BD80936E0008952FB7F8948091A40270
:1035C0009091A502A091A602B091A7022FBF0895E5
:1035D0002FB7F8946091A4027091A5028091A60281
:1035E0009091A7022FBF089578941F921FB61F9243
:1035F00011248F939F93AF93BF938091A4029091D6
:10360000A502A091A602B091A7020196A11DB11D2D
:103610008093A4029093A502A093A602B093A70260
:10362000BF91AF919F918F911F901FBE1F901895D2
:1036300087E797E7909301088093000888E19AE074
:103640000FB6F894A895809360000FBE9093600029
:10365000FFCF88E19AE00FB6F894A89580936000B8
:103660000FBE90936000FFCF0895282FCB01BA01C1
:103670003091AC023430D9F42F702093E9002FEF51
:103680003091E80035FD06C035ED3A95F1F70000C0
:103690002A95B1F72091E80025FF09C040E050E0ED
:1036A0000E94781D8091E8008E778093E80008954D
:1036B000BC0143E050E084E00E94351B0895BC014A
:1036C00040E250E084E00E94351B0895CF93DF93E1
:1036D000D82FC92F0E94291A48E050E06D2F7C2F67
:1036E00081E00E94351B88E0ED2FFC2FA2E8B2E0BC
:1036F00001900D928A95E1F7DF91CF910895792F8E
:10370000603231F440E250E0682F82E00E94351BC5
:103710000895A0E2B0E0EFE8FBE10C946B22809109
:10372000AC02843009F583E08093E9008091E800E1
:1037300082FF1AC08091E80090E085FF09C040E058
:1037400050E060E270E0CE0101960E94C81D91E059
:103750008091E8008B778093E800911529F060E272
:10376000CE0101960E949E17A096E2E00C9487225B
:103770008091AB02811109C00E94511F0E94AE1FAF
:103780008091E20084608093E20008951092AB0281
:1037900008950E94071A81E00E94181A0895609106
:1037A000A80281E0611101C080E00E94F61908952D
:1037B0009091AC0281E0943009F080E06091A80221
:1037C0000E94041A089542E061EC81E00E94CD1E3F
:1037D00042E261EC84E00E94CD1E42E261EC82E0B4
:1037E0000E94CD1E42E260EC83E00E94CD1E9091CB
:1037F000AC0281E0943009F080E06091A8020E9460
:10380000E81908958091AE02893089F148F4823038
:1038100009F4A1C0833009F45BC0813041F0089500
:103820008A3009F488C08B3009F46DC00895809106
:10383000AD02813A09F04BC08091E800877F809308
:10384000E8008091B1029091B202892B61F060E0B2
:1038500080E090E070E00E94181E8091E8008B7775
:103860008093E800089568E082E892E0F3CF8091C9
:10387000AD02813261F58091B1029091B2028D7FEB
:10388000892B29F58091E800877F8093E80080915B
:10389000E80082FF18C09091F3008091F200029737
:1038A00031F48091F100813011F0863021F4809163
:1038B000F1000E942C1A8091E8008B778093E80039
:1038C0000E94011F08958091AC028111E0CF0895FC
:1038D0008091AD02813AD9F78091B1029091B20204
:1038E000892BA9F78091E800877F8093E800809179
:1038F000E80080FFFCCF0E94291A8093F10080919C
:10390000E8008E77DBCF8091AD02813201F78091A4
:10391000B1029091B202892BD1F68091E800877FA5
:103920008093E8000E94011F8091AF020E94181A44
:103930000E94AA0708958091AD02813241F68091DC
:10394000E800877F8093E8000E94011F8091B00209
:103950000E943C1A08958091AD02813A09F0B7CFD8
:103960008091E800877F8093E8008091E80080FFE5
:10397000FCCF0E94491AC1CF84B7877F84BF0FB69E
:10398000F894A895809160008861809360001092FF
:1039900060000FBE80E890E00FB6F894809361005D
:1039A000909361000FBE0E94151A08950E94511F46
:1039B0000E94AE1FE2EEF0E0808184608083789404
:1039C0000E94342208958BE091E00E946D180895C2
:1039D0008091AC02853031F48091AC02853019F0D1
:1039E0000E94CE1A08950E94A31A0E94561A8115A9
:1039F00099F38091AA02811579F30E94621D0E94B9
:103A0000AA07EACF08959A014091B3025091B402F7
:103A10000E940B1D0895FC01AB01D901892F992744
:103A200083309105C1F068F48130910509F445C0F7
:103A3000029761F48BE590E024EC33E02D933C9306
:103A4000089581329105E1F0829739F180E090E0AC
:103A500020E030E0F3CFCF019927E13059F08230F8
:103A6000910559F0E0ECF3E0892B81F7849190E027
:103A70009F01E4CFECEAF3E0F9CFECE9F3E0F6CF15
:103A80006330710518F7FB01EE0FFF1FE456FE4F80
:103A90002081318189E090E0D1CF63307105B0F6AB
:103AA000FB01EE0FFF1FEA56FE4F208131814D567C
:103AB0005E4FFA01808190E0C1CF82E190E02FE17A
:103AC00034E0BCCF80E189BD82E189BD09B400FE4C
:103AD000FDCF8091D8008F7D8093D8008091E00049
:103AE00082608093E0008091E00081FDFCCF08952A
:103AF000AF92BF92CF92DF92EF92FF920F931F93FC
:103B0000CF936C018B017A010E94201FC82F811175
:103B100023C0E114F10439F0F70180819181081B81
:103B2000190BC80ED91EA12CB12C01151105A1F03D
:103B30008091E80085FD21C08091E8008E77809318
:103B4000E800E114F10499F0F701808191818A0D78
:103B50009B1D91838083C5E08C2FCF911F910F9186
:103B6000FF90EF90DF90CF90BF90AF9008950E94AC
:103B7000201F8115E9F2C82FEFCFF60181916F0167
:103B80008093F10001501109FFEFAF1ABF0ACDCFAA
:103B9000AF92BF92CF92DF92EF92FF920F931F935B
:103BA000CF936C018B017A010E94201FC82F8111D5
:103BB00023C0E114F10439F0F70180819181081BE1
:103BC000190BC80ED91EA12CB12C01151105A1F09D
:103BD0008091E80085FD21C08091E8008B7780937B
:103BE000E800E114F10499F0F701808191818A0DD8
:103BF0009B1D91838083C5E08C2FCF911F910F91E6
:103C0000FF90EF90DF90CF90BF90AF9008950E940B
:103C1000201F8115E9F2C82FEFCF8091F100F60146
:103C200081936F0101501109FFEFAF1ABF0ACDCF89
:103C3000FC019B018091B3029091B4028617970713
:103C400018F0672B61F0C90140E0009771F4411151
:103C50000CC08091E80082FF35C080E0089580911B
:103C6000E8008E778093E800EECF2091AC0221151A
:103C7000A9F12530A9F12091E80023FD2DC0209164
:103C8000E80022FDE6CF2091E80020FFDECF309152
:103C9000F3002091F200009719F02830310558F018
:103CA00041E02830310509F040E02091E8002E770E
:103CB0002093E800CACF41914093F10001972F5F14
:103CC0003F4FE9CF8091AC02811541F0853041F042
:103CD0008091E80083FFBDCF81E0089582E00895E0
:103CE00083E00895FC019B018091B3029091B4029E
:103CF0008617970718F0672B61F0C90140E000971D
:103D000071F441110CC08091E80082FF36C080E060
:103D100008958091E8008E778093E800EECF20919F
:103D2000AC022115B1F12530B1F12091E80023FD5D
:103D30002EC02091E80022FDE6CF2091E80020FF70
:103D4000DECF3091F3002091F200009719F0283077
:103D5000310558F041E02830310509F040E020916C
:103D6000E8002E772093E800CACF44914093F100F9
:103D7000319601972F5F3F4FE8CF8091AC028115BC
:103D800041F0853041F08091E80083FFBCCF81E0B5
:103D9000089582E0089583E00895982F973028F0E1
:103DA0008F708093E90081E008959093E900242FBB
:103DB000762F50E0981731F07091EC002091ED00D3
:103DC0005091F00021FD02C09F5FE8CF3091EB00E1
:103DD0003E7F3093EB003091ED003D7F3093ED005E
:103DE0003091EB0031603093EB007093EC00209346
:103DF000ED005093F0002091EE0027FDE5CF80E02C
:103E000008958091AD0287FF13C08091E80082FF82
:103E100006C08091E8008B778093E8000895809138
:103E2000AC028111F2CF08958091AC028115D9F3D3
:103E30008091E80080FFF8CF8091E8008E77ECCF8A
:103E40002091E4003091E50095E6A9012091EC0075
:103E5000822F817020FF06C08091E80080FF06C09D
:103E600080E008952091E80022FD1AC08091AC0204
:103E7000811589F0853089F08091EB0085FD0FC0B8
:103E80002091E4003091E50042175307F9F29A952A
:103E9000E1F684E0089582E0089583E0089581E0EA
:103EA00008950E94C01F0E94C81FE0EEF0E08081CC
:103EB00081608083E8EDF0E080818F77808319BC9A
:103EC000A7EDB0E08C918E7F8C9380818F7E808374
:103ED0001092AB0208950F931F93CF93DF930E942C
:103EE000C01F0E94C81FC8EDD0E088818F778883EB
:103EF00088818068888388818F7D888319BC10922F
:103F0000AC021092A8021092AA021092A90200EE2E
:103F100010E0F80180818B7F8083888181608883B5
:103F200042E060E080E00E94CD1EE1EEF0E08081A2
:103F30008E7F8083E2EEF0E08081816080838081EB
:103F400088608083F80180818E7F80838881806192
:103F50008883DF91CF911F910F910895E8EDF0E0F4
:103F600080818F7E8083E7EDF0E0808181608083B7
:103F700084E082BF81E08093AB020E946B1F0895B2
:103F8000E8EDF0E080818E7F80831092E20008955A
:103F90001092DA001092E10008951F920F920FB66E
:103FA0000F9211242F933F934F935F936F937F93BF
:103FB0008F939F93AF93BF93EF93FF938091E10013
:103FC00082FF0BC08091E20082FF07C08091E10078
:103FD0008B7F8093E1000E9433228091DA0080FF82
:103FE00019C08091D80080FF15C08091DA008E7FC3
:103FF0008093DA008091D90080FF94C080E189BD70
:1040000082E189BD09B400FEFDCF81E08093AC025E
:104010000E94B81B8091E10080FF19C08091E200EE
:1040200080FF15C08091E2008E7F8093E200809136
:10403000E20080618093E2008091D80080628093EA
:10404000D80019BC85E08093AC020E94CF1B809100
:10405000E10084FF29C08091E20084FF25C080E157
:1040600089BD82E189BD09B400FEFDCF8091D800F1
:104070008F7D8093D8008091E1008F7E8093E10056
:104080008091E2008F7E8093E2008091E200816067
:104090008093E2008091A802811509F449C084E070
:1040A0008093AC020E94D81B8091E10083FF29C05D
:1040B0008091E20083FF25C08091E100877F80939B
:1040C000E10082E08093AC021092A8028091E100AE
:1040D0008E7F8093E1008091E2008E7F8093E200EA
:1040E0008091E20080618093E20042E060E080E045
:1040F0000E94CD1E8091F00088608093F0000E94A5
:10410000C91BFF91EF91BF91AF919F918F917F91CB
:104110006F915F914F913F912F910F900FBE0F9034
:104120001F90189519BC1092AC020E94C61B72CF4A
:104130008091E30087FF02C083E0B2CF81E0B0CF7F
:104140001F920F920FB60F921124EF92FF920F93CE
:104150001F932F933F934F935F936F937F938F930F
:104160009F93AF93BF93CF93EF93FF9309EE10E02C
:10417000F8018081C091EC008F70C795CC27C7955E
:10418000C82B108280EFE82EF12CF7018081877F09
:10419000808378940E94EB20F8011082F7018081DF
:1041A00088608083CF70F801C083FF91EF91CF9139
:1041B000BF91AF919F918F917F916F915F914F913F
:1041C0003F912F911F910F91FF90EF900F900FBE95
:1041D0000F901F901895AAE2B0E0E1EFF0E20C9486
:1041E00069228DEA92E0FC0101962091F100208382
:1041F00022E0853B9207B9F70E94021C8091E800FB
:1042000083FF38C08091AD029091AE029A3090F554
:10421000E92FF0E0E85CFC4D0C944E22803889F0E8
:10422000823841F58091B1028F70873018F5809304
:10423000E9008091EB0085FB882780F91092E90066
:1042400006C08091AA02880F9091A902892B9091B3
:10425000E800977F9093E8008093F1001092F100BE
:104260008091E8008E7723C0811116C08091AF0243
:10427000813011F18091E80083FF0AC08091E8004D
:10428000877F8093E8008091EB0080628093EB0051
:10429000AA96E4E00C948522823061F78091AF0207
:1042A000811589F01092E9008091E800877F809362
:1042B000E8000E94011FDECF81E0933009F080E02A
:1042C0008093AA02EFCF8091B1028F702FEF280F59
:1042D000263080F68093E9002091EB0020FFE2CFAA
:1042E000933031F48091EB0080628093EB00DACF61
:1042F0009091EB0090619093EB0021E030E0A901F8
:1043000002C0440F551F8A95E2F74093EA001092CD
:10431000EA008091EB008860E8CF8111ABCF10916B
:10432000AF021F778091E3008078812B8093E300B8
:104330008091E800877F8093E8000E94011F8091B0
:10434000E80080FFFCCF8091E30080688093E30069
:1043500083E0111101C082E08093AC028BCF8058C2
:10436000823008F087CF8091AF029091B0028C3DEF
:1043700053E0950799F583E08A838AE289834FB7F2
:10438000F894DE01139620E03EE051E2E32FF0E0E6
:1043900050935700849120FF03C082958F703F5F38
:1043A0008F708A30C8F0895C90E08D939D932F5F69
:1043B000243161F74FBF8091E800877F8093E80048
:1043C0006AE270E0CE0101960E94181E8091E8001A
:1043D0008B778093E8004ECF805DE6CF6091B1028D
:1043E0007091B202AE014F5F5F4F0E94031D8C01BE
:1043F000892B09F43FCF8091E800877F8093E80004
:10440000B80189819A810E94721EE0CF803809F03C
:1044100031CF8091E800877F8093E8008091A802E7
:104420008093F1001DCF811125CF9091AF02923082
:1044300008F020CF8091E800877F8093E800909378
:10444000A8020E94011F8091A802811531F084E02A
:104450008093AC020E94E31B0DCF8091E30087FDA7
:10446000F6CF81E0F5CF0895CF938091AC0281150E
:1044700099F08091E900C091EC008F70C795CC272E
:10448000C795C82B1092E9008091E80083FD0E9437
:10449000EB20CF70C093E900CF910895EE0FFF1F7E
:1044A0000590F491E02D09946927962769277827CC
:1044B0008727782708952F923F924F925F926F92AD
:1044C0007F928F929F92AF92BF92CF92DF92EF92A4
:1044D000FF920F931F93CF93DF93CDB7DEB7CA1B25
:1044E000DB0B0FB6F894DEBF0FBECDBF09942A8850
:1044F000398848885F846E847D848C849B84AA84F8
:10450000B984C884DF80EE80FD800C811B81AA8184
:10451000B981CE0FD11D0FB6F894DEBF0FBECDBF4F
:10452000ED010895FB01DC0104C08D91019080191B
:1045300021F441505040C8F7881B990B0895FB01A6
:10454000DC0102C001900D9241505040D8F708950F
:10455000F999FECF92BD81BDF89A992780B508954B
:10456000A8E1B0E042E050E00C94EC22DC01A40FA2
:10457000B51F4150504048F0CB01840F951F2E913C
:104580000E94C72241505040D0F70895262FF99934
:10459000FECF92BD81BDF89A019700B4021639F0A2
:1045A0001FBA20BD0FB6F894FA9AF99A0FBE089573
:1045B0000396272F0E94C7220E94C622252F0E9401
:1045C000C722242F0C94C7220196272F0E94C722AE
:1045D0000C94C622DC01CB01FC01F999FECF06C088
:1045E000F2BDE1BDF89A319600B40D9241505040B1
:1045F000B8F70895F894FFCF9B140C15A3146D140D
:104600007114A7147514AB14B7148114051585140F
:10461000BB148914BF14E4148D14C314EB14931445
:10462000C914D1147914AF147D14B3149714CD1494
:10463000DB14F414031567149F141315BB16C1166D
:10464000AA16B516C716CD16D316B417C317F71783
:10465000091814181F18221822182218CB17CB1764
:1046600027182B18331840184D1850185318601875
:104670000E2134213A2134213A218D21AF213A21D2
:0446800006221322D9
:104684003302530203020100000100391A661B5F62
:104694001B341B581BE200E900EA00B500B600B762
:1046A40000CD008301CC008A0192019401210223F0
:1046B4000224022502260227022A02B300B4006F54
:1046C4000070009F01CB019F02A002E200E900EA12
:1046D40000B500B600B700CD008301CC008A01927A
:1046E4000194012102230224022502260227022A20
:1046F40002B300B4006F0070009F01CB019F02A0C1
:104704000266949091929397C635343236F73133DA
:10471400F6F5F444226DC00431045304D603EF03C8
:024724000F0480
:00000001FF
